{"contracts/DamageDetectionConsumer.sol":{"DamageDetectionConsumer":{"abi":[{"inputs":[],"stateMutability":"nonpayable","type":"constructor"},{"anonymous":false,"inputs":[{"indexed":true,"internalType":"bytes32","name":"id","type":"bytes32"}],"name":"ChainlinkCancelled","type":"event"},{"anonymous":false,"inputs":[{"indexed":true,"internalType":"bytes32","name":"id","type":"bytes32"}],"name":"ChainlinkFulfilled","type":"event"},{"anonymous":false,"inputs":[{"indexed":true,"internalType":"bytes32","name":"id","type":"bytes32"}],"name":"ChainlinkRequested","type":"event"},{"anonymous":false,"inputs":[{"indexed":true,"internalType":"address","name":"from","type":"address"},{"indexed":true,"internalType":"address","name":"to","type":"address"}],"name":"OwnershipTransferRequested","type":"event"},{"anonymous":false,"inputs":[{"indexed":true,"internalType":"address","name":"from","type":"address"},{"indexed":true,"internalType":"address","name":"to","type":"address"}],"name":"OwnershipTransferred","type":"event"},{"anonymous":false,"inputs":[{"indexed":true,"internalType":"bytes32","name":"requestId","type":"bytes32"},{"indexed":false,"internalType":"uint256","name":"damageScore","type":"uint256"},{"indexed":false,"internalType":"string","name":"prediction","type":"string"},{"indexed":false,"internalType":"uint256","name":"confidence","type":"uint256"}],"name":"PredictionReceived","type":"event"},{"anonymous":false,"inputs":[{"indexed":true,"internalType":"bytes32","name":"requestId","type":"bytes32"},{"indexed":false,"internalType":"string","name":"imageUrl","type":"string"}],"name":"PredictionRequested","type":"event"},{"inputs":[],"name":"acceptOwnership","outputs":[],"stateMutability":"nonpayable","type":"function"},{"inputs":[],"name":"apiEndpoint","outputs":[{"internalType":"string","name":"","type":"string"}],"stateMutability":"view","type":"function"},{"inputs":[{"internalType":"bytes32","name":"_requestId","type":"bytes32"},{"internalType":"uint256","name":"_damageScore","type":"uint256"}],"name":"fulfill","outputs":[],"stateMutability":"nonpayable","type":"function"},{"inputs":[{"internalType":"bytes32","name":"requestId","type":"bytes32"}],"name":"getPrediction","outputs":[{"internalType":"uint256","name":"damageScore","type":"uint256"},{"internalType":"string","name":"prediction","type":"string"},{"internalType":"uint256","name":"timestamp","type":"uint256"},{"internalType":"bool","name":"fulfilled","type":"bool"}],"stateMutability":"view","type":"function"},{"inputs":[{"internalType":"bytes32","name":"requestId","type":"bytes32"}],"name":"getRequestStatus","outputs":[{"internalType":"bool","name":"exists","type":"bool"},{"internalType":"bool","name":"fulfilled","type":"bool"}],"stateMutability":"view","type":"function"},{"inputs":[{"internalType":"bytes32","name":"requestId","type":"bytes32"}],"name":"getRequester","outputs":[{"internalType":"address","name":"","type":"address"}],"stateMutability":"view","type":"function"},{"inputs":[],"name":"owner","outputs":[{"internalType":"address","name":"","type":"address"}],"stateMutability":"view","type":"function"},{"inputs":[{"internalType":"bytes32","name":"","type":"bytes32"}],"name":"predictions","outputs":[{"internalType":"uint256","name":"damageScore","type":"uint256"},{"internalType":"string","name":"prediction","type":"string"},{"internalType":"uint256","name":"confidence","type":"uint256"},{"internalType":"uint256","name":"timestamp","type":"uint256"},{"internalType":"bool","name":"fulfilled","type":"bool"}],"stateMutability":"view","type":"function"},{"inputs":[{"internalType":"string","name":"imageUrl","type":"string"}],"name":"requestDamagePrediction","outputs":[{"internalType":"bytes32","name":"requestId","type":"bytes32"}],"stateMutability":"nonpayable","type":"function"},{"inputs":[{"internalType":"bytes32","name":"","type":"bytes32"}],"name":"requesters","outputs":[{"internalType":"address","name":"","type":"address"}],"stateMutability":"view","type":"function"},{"inputs":[{"internalType":"address","name":"to","type":"address"}],"name":"transferOwnership","outputs":[],"stateMutability":"nonpayable","type":"function"},{"inputs":[{"internalType":"string","name":"newEndpoint","type":"string"}],"name":"updateApiEndpoint","outputs":[],"stateMutability":"nonpayable","type":"function"},{"inputs":[],"name":"withdrawLink","outputs":[],"stateMutability":"nonpayable","type":"function"}],"evm":{"bytecode":{"linkReferences":{},"object":"6080806040523461019d5760019081600455331561015b5750600680546001600160a01b03199081163317909155600a5480831c9083168015610151575b602082101461013b57601f81116100f2575b736090149792daaee9d1d568c9f9a6f6b46aa29efd82603a7f687474703a2f2f3132372e302e302e313a353030302f7072656469637400000001600a5573779877a7b0d9e8603169ddbd7836e478b462478981600254161760025560035416176003557f636139383336366363373331343935376238633031326337326630356165656260085567016345785d8a00006009556040516119359081620001a38239f35b600a600052601f0160051c7fc65a7bb8d6351c1cf70c95a316cc6a92839c986682d98bc35f958f4883f9d2a8908101905b818110610130575061004f565b600081558301610123565b634e487b7160e01b600052602260045260246000fd5b90607f169061003d565b62461bcd60e51b815260206004820152601860248201527f43616e6e6f7420736574206f776e657220746f207a65726f00000000000000006044820152606490fd5b600080fdfe6080604052600436101561001257600080fd5b60003560e01c80634357855e146100e257806345d07664146100dd57806358381bbd146100bf5780635d9eaeaf146100d857806362963ea8146100d357806379ba5097146100ce5780638da5cb5b146100c95780638dc654a2146100c45780639eb04ecc146100bf578063b8f230f2146100ba578063dc6423ab146100b5578063f25ecd5d146100b05763f2fde38b146100ab57600080fd5b610ad4565b610a08565b610978565b610860565b610219565b610747565b61071e565b61065e565b6104fa565b610406565b6101ce565b346101c95760403660031901126101c9576004356000818152600560205260408120549091906001600160a01b031633036101735780610142610132610170936000526005602052604060002090565b80546001600160a01b0319169055565b807f7cc135e0cebb02c3480ae5d74d377283180a2601f8f644edf7987b009316c63a8480a2602435906117aa565b80f35b60405162461bcd60e51b815260206004820152602860248201527f536f75726365206d75737420626520746865206f7261636c65206f6620746865604482015267081c995c5d595cdd60c21b6064820152608490fd5b600080fd5b346101c95760203660031901126101c957600435600052600c602052604060018060a01b038160002054161515600b60205260ff600483600020015416825191825215156020820152f35b346101c95760203660031901126101c957600435600052600c602052602060018060a01b0360406000205416604051908152f35b90600182811c9216801561027d575b602083101461026757565b634e487b7160e01b600052602260045260246000fd5b91607f169161025c565b634e487b7160e01b600052604160045260246000fd5b60a0810190811067ffffffffffffffff8211176102b957604052565b610287565b6040810190811067ffffffffffffffff8211176102b957604052565b6060810190811067ffffffffffffffff8211176102b957604052565b90601f8019910116810190811067ffffffffffffffff8211176102b957604052565b906040519182600082549261032c8461024d565b90818452600194858116908160001461039b5750600114610358575b5050610356925003836102f6565b565b9093915060005260209081600020936000915b81831061038357505061035693508201013880610348565b8554888401850152948501948794509183019161036b565b91505061035694506020925060ff191682840152151560051b8201013880610348565b60005b8381106103d15750506000910152565b81810151838201526020016103c1565b906020916103fa815180928185528580860191016103be565b601f01601f1916010190565b346101c95760203660031901126101c957600435600052600b6020526040600020805461043560018301610318565b9160028101549060ff600460038301549201541690610466604051958695865260a0602087015260a08601906103e1565b9260408501526060840152151560808301520390f35b604051906103568261029d565b60206003198201126101c95767ffffffffffffffff6004358181116101c957826023820112156101c95780600401359182116102b957604051926104d7601f8401601f1916602001856102f6565b828452602483830101116101c95781600092602460209301838601378301015290565b346101c95761065a61064961050e36610489565b6008549061051a610d2d565b507ff86f7803a2abeaef723d8e0dd836c467c4a5c31e508a13c3306b9c982da1613f610604610547610d2d565b61054f610d2d565b5060808101519461055e610d02565b50610100602087015261012060409687518091526000815201865281523060208201526321abc2af60e11b858201526105e185516105d3816105c56105bf6105a860208401610bee565b6a3f696d6167655f75726c3d60a81b8152600b0190565b89610c6b565b03601f1981018352826102f6565b6105db610c82565b83610ce9565b6105fb6105ec610ca1565b6105f4610cc1565b9083610ce9565b60095490610d63565b93849261063e3361061f86600052600c602052604060002090565b80546001600160a01b0319166001600160a01b03909216919091179055565b8451918291826109f4565b0390a2519081529081906020820190565b0390f35b346101c95760008060031936011261071b576007546001600160a01b0390811633036106dd576006546001600160a01b0316600680546001600160a01b0319163317905590600780546001600160a01b03191690553391167f8be0079c531659141344cd1fd0a4f28419497f9722a3daafe3b4186f6b6457e08380a380f35b60405162461bcd60e51b815260206004820152601660248201527526bab9ba10313290383937b837b9b2b21037bbb732b960511b6044820152606490fd5b80fd5b346101c95760003660031901126101c9576006546040516001600160a01b039091168152602090f35b346101c95760008060031936011261071b57610761610b9c565b60025461078490610778906001600160a01b031681565b6001600160a01b031690565b6040516370a0823160e01b8152306004820152602091908281602481855afa90811561082e57849284926107e4928591610833575b5060405163a9059cbb60e01b8152336004820152602481019190915293849283919082906044820190565b03925af190811561082e57610170928492610801575b505061189e565b6108209250803d10610827575b61081881836102f6565b810190610e3d565b38806107fa565b503d61080e565b610e79565b6108539150843d8611610859575b61084b81836102f6565b81019061188f565b386107b9565b503d610841565b346101c95761086e36610489565b610876610b9c565b805167ffffffffffffffff81116102b95761089b81610896600a5461024d565b611524565b602080601f83116001146108d8575081926000926108cd575b5050600019600383901b1c191660019190911b17600a55005b0151905038806108b4565b90601f198316936108f9600a6000526000805160206118e083398151915290565b926000905b868210610935575050836001951061091c575b505050811b01600a55005b015160001960f88460031b161c19169055388080610911565b806001859682949686015181550195019301906108fe565b9294939060609261096b9185526080602086015260808501906103e1565b9460408401521515910152565b346101c95760203660031901126101c957600435600052600b6020526040600020604051906109a68261029d565b8054825261065a6109b960018301610318565b928360208201526002830154604082015260ff600460038501549485606085015201541615159081608082015251926040519485948561094d565b906020610a059281815201906103e1565b90565b346101c95760008060031936011261071b576040519080600a54610a2b8161024d565b80855291600191808316908115610aaa5750600114610a61575b61065a85610a55818703826102f6565b604051918291826109f4565b9250600a83526000805160206118e08339815191525b828410610a92575050508101602001610a558261065a610a45565b80546020858701810191909152909301928101610a77565b86955061065a96935060209250610a5594915060ff191682840152151560051b8201019293610a45565b346101c95760203660031901126101c9576004356001600160a01b038116908190036101c957610b02610b9c565b338114610b5757600780546001600160a01b03191682179055600654610b30906001600160a01b0316610778565b7fed8889f560326eb138920d842192f0eb3dd22b4f139c87a2c57538e05bae1278600080a3005b60405162461bcd60e51b815260206004820152601760248201527f43616e6e6f74207472616e7366657220746f2073656c660000000000000000006044820152606490fd5b6006546001600160a01b03163303610bb057565b60405162461bcd60e51b815260206004820152601660248201527527b7363c9031b0b63630b1363290313c9037bbb732b960511b6044820152606490fd5b600a5460009291610bfe8261024d565b91600190818116908115610c585750600114610c1957505050565b9091929350600a6000526000805160206118e0833981519152906000915b848310610c45575050500190565b8181602092548587015201920191610c37565b60ff191683525050811515909102019150565b90610c7e602092828151948592016103be565b0190565b60405190610c8f826102be565b600382526219d95d60ea1b6020830152565b60405190610cae826102be565b60048252630e0c2e8d60e31b6020830152565b60405190610cce826102be565b600c82526b64616d6167655f73636f726560a01b6020830152565b60800180516103569392610cfc91610fd2565b51610fd2565b604051906040820182811067ffffffffffffffff8211176102b9576040526000602083606081520152565b60405190610d3a8261029d565b81600081526000602082015260006040820152600060608201526080610d5e610d02565b910152565b6003546004546001810193916001600160a01b0316848211610e0757610a0594600455610e028451610df4608063ffffffff60e01b604089015116970151516040519788936320214ca360e11b60208601526000602486015260006044860152606485015230608485015260a48401528560c4840152600160e48401526101006101048401526101248301906103e1565b03601f1981018652856102f6565b610edd565b634e487b7160e01b600052601160045260246000fd5b9060208201809211610e2b57565b610e07565b91908201809211610e2b57565b908160209103126101c9575180151581036101c95790565b610a05939260609260018060a01b03168252602082015281604082015201906103e1565b6040513d6000823e3d90fd5b15610e8c57565b60405162461bcd60e51b815260206004820152602360248201527f756e61626c6520746f207472616e73666572416e6443616c6c20746f206f7261604482015262636c6560e81b6064820152608490fd5b92610f899293602092604051848101916bffffffffffffffffffffffff193060601b168352603482015260348152610f14816102da565b51902094610f308261061f886000526005602052604060002090565b60006040518096819582948a7fb5e6e01e79f91267dc17b4e6314d5d4d03593d2ceee0fbb452b750bd70ea5af98680a2600254610f75906001600160a01b0316610778565b630200057560e51b85529660048501610e55565b03925af1801561082e57610a0591600091610fa5575b50610e85565b610fbd915060203d81116108275761081881836102f6565b38610f9f565b601f19810191908211610e2b57565b815161100492919067ffffffffffffffff8116601781116110075750606060ff610ffe92161782611323565b50611077565b50565b905060ff811161102557610ffe9061101e836112d3565b50826114bd565b61ffff811161104257610ffe9061103b83611283565b5082611455565b63ffffffff811161106157610ffe9061105a83611233565b50826113eb565b6110759061106e836111d5565b5082611379565b505b90611080610d02565b5081515190805190611090610d02565b5061109e815183111561114f565b6110a88284610e30565b602091829182870151809111611124575b508551805190838782010196860191821161111c575b505001915b818110156110f65760001991036101000a019081199051169082511617905290565b919261111161110b6111179286518152610e1d565b94610e1d565b92610fc3565b6110d4565b5238806110cf565b61114361113e611149926111388989610e30565b906111c5565b611156565b8761116c565b386110b9565b156101c957565b908160011b9180830460021490151715610e2b57565b80519082611178610d02565b50601f8416806111a5575b5061100493508060208301526040518083526000815201602001604052611077565b905060200360208111610e2b578301809311610e2b576110049238611183565b8181116111d0575090565b905090565b6111dd610d02565b508051516111e9610d02565b5060208201518082101561121b575b50815190815181607b60208394860101531461121357505090565b600101905290565b61122761122d91611156565b8361116c565b386111f8565b61123b610d02565b50805151611247610d02565b50602082015180821015611271575b50815190815181607a60208394860101531461121357505090565b61122761127d91611156565b38611256565b61128b610d02565b50805151611297610d02565b506020820151808210156112c1575b50815190815181607960208394860101531461121357505090565b6112276112cd91611156565b386112a6565b6112db610d02565b508051516112e7610d02565b50602082015180821015611311575b50815190815181607860208394860101531461121357505090565b61122761131d91611156565b386112f6565b9061132c610d02565b50815151611338610d02565b50602083015180821015611361575b508251918251918291602082860101531461121357505090565b61136d61137391611156565b8461116c565b38611347565b90611382610d02565b508151519061138f610d02565b508160080180600811610e2b57602084015181116113d9575b508251906008838301019067ffffffffffffffff198251161790526008815192019182116113d557505090565b5290565b61136d6113e591611156565b386113a8565b906113f4610d02565b5081515190611401610d02565b508160040180600411610e2b5760208401518111611443575b508251906004838301019063ffffffff198251161790526004815192019182116113d557505090565b61136d61144f91611156565b3861141a565b9061145e610d02565b508151519061146b610d02565b508160020180600211610e2b57602084015181116114ab575b508251906002838301019061ffff198251161790526002815192019182116113d557505090565b61136d6114b791611156565b38611484565b906114c6610d02565b50815151906114d3610d02565b508160010180600111610e2b5760208401518111611512575b508251906001838301019060ff198251161790526001815192019182116113d557505090565b61136d61151e91611156565b386114ec565b601f8111611530575050565b600090600a82526000805160206118e0833981519152906020601f850160051c83019410611579575b601f0160051c01915b82811061156e57505050565b818155600101611562565b9092508290611559565b90601f811161159157505050565b600091825260208220906020601f850160051c830194106115cd575b601f0160051c01915b8281106115c257505050565b8181556001016115b6565b90925082906115ad565b815181556001918282016020808301519485519167ffffffffffffffff83116102b95761160e83611608865461024d565b86611583565b80601f8411600114611680575092828060809460049794611662976103569b600094611675575b50501b916000199060031b1c19161790555b60408101516002860155606081015160038601550151151590565b91019060ff801983541691151516179055565b015192503880611635565b9193949596601f19841661169987600052602060002090565b936000905b8282106116e75750509361035698979360049793611662979383608098106116ce575b505050811b019055611647565b015160001960f88460031b161c191690553880806116c1565b80888697829497870151815501960194019061169e565b9291908352602090606082850152600091815461171a8161024d565b9283606088015260019182811690816000146117825750600114611747575b505050506040600091930152565b60009081528281209094505b83851061176e57505050508201608001604060003880611739565b805487860160800152938201938101611753565b9150506000945060809250604093915060ff191682870152151560051b850101913880611739565b907fd04bca54e51216033a86f91ba389d04c524d80e6154d8a5851add24b533a47909060328111156118695761183d6040516117e5816102be565b60068152653937ba3a32b760d11b60208201525b61180161047c565b908382526020820152600060408201524260608201526118246080820160019052565b61183885600052600b602052604060002090565b6115d7565b600161185384600052600b602052604060002090565b0190611864604051928392836116fe565b0390a2565b61183d604051611878816102be565b60058152640cce4cae6d60db1b60208201526117f9565b908160209103126101c9575190565b156118a557565b60405162461bcd60e51b81526020600482015260126024820152712ab730b13632903a37903a3930b739b332b960711b6044820152606490fdfec65a7bb8d6351c1cf70c95a316cc6a92839c986682d98bc35f958f4883f9d2a8a26469706673582212209f35c93f603e07fbd88c2760bae195febe33878439d03fac6accd174ba6e802f64736f6c63430008130033","opcodes":"PUSH1 0x80 DUP1 PUSH1 0x40 MSTORE CALLVALUE PUSH2 0x19D JUMPI PUSH1 0x1 SWAP1 DUP2 PUSH1 0x4 SSTORE CALLER ISZERO PUSH2 0x15B JUMPI POP PUSH1 0x6 DUP1 SLOAD PUSH1 0x1 PUSH1 0x1 PUSH1 0xA0 SHL SUB NOT SWAP1 DUP2 AND CALLER OR SWAP1 SWAP2 SSTORE PUSH1 0xA SLOAD DUP1 DUP4 SHR SWAP1 DUP4 AND DUP1 ISZERO PUSH2 0x151 JUMPI JUMPDEST PUSH1 0x20 DUP3 LT EQ PUSH2 0x13B JUMPI PUSH1 0x1F DUP2 GT PUSH2 0xF2 JUMPI JUMPDEST PUSH20 0x6090149792DAAEE9D1D568C9F9A6F6B46AA29EFD DUP3 PUSH1 0x3A PUSH32 0x687474703A2F2F3132372E302E302E313A353030302F70726564696374000000 ADD PUSH1 0xA SSTORE PUSH20 0x779877A7B0D9E8603169DDBD7836E478B4624789 DUP2 PUSH1 0x2 SLOAD AND OR PUSH1 0x2 SSTORE PUSH1 0x3 SLOAD AND OR PUSH1 0x3 SSTORE PUSH32 0x6361393833363663633733313439353762386330313263373266303561656562 PUSH1 0x8 SSTORE PUSH8 0x16345785D8A0000 PUSH1 0x9 SSTORE PUSH1 0x40 MLOAD PUSH2 0x1935 SWAP1 DUP2 PUSH3 0x1A3 DUP3 CODECOPY RETURN JUMPDEST PUSH1 0xA PUSH1 0x0 MSTORE PUSH1 0x1F ADD PUSH1 0x5 SHR PUSH32 0xC65A7BB8D6351C1CF70C95A316CC6A92839C986682D98BC35F958F4883F9D2A8 SWAP1 DUP2 ADD SWAP1 JUMPDEST DUP2 DUP2 LT PUSH2 0x130 JUMPI POP PUSH2 0x4F JUMP JUMPDEST PUSH1 0x0 DUP2 SSTORE DUP4 ADD PUSH2 0x123 JUMP JUMPDEST PUSH4 0x4E487B71 PUSH1 0xE0 SHL PUSH1 0x0 MSTORE PUSH1 0x22 PUSH1 0x4 MSTORE PUSH1 0x24 PUSH1 0x0 REVERT JUMPDEST SWAP1 PUSH1 0x7F AND SWAP1 PUSH2 0x3D JUMP JUMPDEST PUSH3 0x461BCD PUSH1 0xE5 SHL DUP2 MSTORE PUSH1 0x20 PUSH1 0x4 DUP3 ADD MSTORE PUSH1 0x18 PUSH1 0x24 DUP3 ADD MSTORE PUSH32 0x43616E6E6F7420736574206F776E657220746F207A65726F0000000000000000 PUSH1 0x44 DUP3 ADD MSTORE PUSH1 0x64 SWAP1 REVERT JUMPDEST PUSH1 0x0 DUP1 REVERT INVALID PUSH1 0x80 PUSH1 0x40 MSTORE PUSH1 0x4 CALLDATASIZE LT ISZERO PUSH2 0x12 JUMPI PUSH1 0x0 DUP1 REVERT JUMPDEST PUSH1 0x0 CALLDATALOAD PUSH1 0xE0 SHR DUP1 PUSH4 0x4357855E EQ PUSH2 0xE2 JUMPI DUP1 PUSH4 0x45D07664 EQ PUSH2 0xDD JUMPI DUP1 PUSH4 0x58381BBD EQ PUSH2 0xBF JUMPI DUP1 PUSH4 0x5D9EAEAF EQ PUSH2 0xD8 JUMPI DUP1 PUSH4 0x62963EA8 EQ PUSH2 0xD3 JUMPI DUP1 PUSH4 0x79BA5097 EQ PUSH2 0xCE JUMPI DUP1 PUSH4 0x8DA5CB5B EQ PUSH2 0xC9 JUMPI DUP1 PUSH4 0x8DC654A2 EQ PUSH2 0xC4 JUMPI DUP1 PUSH4 0x9EB04ECC EQ PUSH2 0xBF JUMPI DUP1 PUSH4 0xB8F230F2 EQ PUSH2 0xBA JUMPI DUP1 PUSH4 0xDC6423AB EQ PUSH2 0xB5 JUMPI DUP1 PUSH4 0xF25ECD5D EQ PUSH2 0xB0 JUMPI PUSH4 0xF2FDE38B EQ PUSH2 0xAB JUMPI PUSH1 0x0 DUP1 REVERT JUMPDEST PUSH2 0xAD4 JUMP JUMPDEST PUSH2 0xA08 JUMP JUMPDEST PUSH2 0x978 JUMP JUMPDEST PUSH2 0x860 JUMP JUMPDEST PUSH2 0x219 JUMP JUMPDEST PUSH2 0x747 JUMP JUMPDEST PUSH2 0x71E JUMP JUMPDEST PUSH2 0x65E JUMP JUMPDEST PUSH2 0x4FA JUMP JUMPDEST PUSH2 0x406 JUMP JUMPDEST PUSH2 0x1CE JUMP JUMPDEST CALLVALUE PUSH2 0x1C9 JUMPI PUSH1 0x40 CALLDATASIZE PUSH1 0x3 NOT ADD SLT PUSH2 0x1C9 JUMPI PUSH1 0x4 CALLDATALOAD PUSH1 0x0 DUP2 DUP2 MSTORE PUSH1 0x5 PUSH1 0x20 MSTORE PUSH1 0x40 DUP2 KECCAK256 SLOAD SWAP1 SWAP2 SWAP1 PUSH1 0x1 PUSH1 0x1 PUSH1 0xA0 SHL SUB AND CALLER SUB PUSH2 0x173 JUMPI DUP1 PUSH2 0x142 PUSH2 0x132 PUSH2 0x170 SWAP4 PUSH1 0x0 MSTORE PUSH1 0x5 PUSH1 0x20 MSTORE PUSH1 0x40 PUSH1 0x0 KECCAK256 SWAP1 JUMP JUMPDEST DUP1 SLOAD PUSH1 0x1 PUSH1 0x1 PUSH1 0xA0 SHL SUB NOT AND SWAP1 SSTORE JUMP JUMPDEST DUP1 PUSH32 0x7CC135E0CEBB02C3480AE5D74D377283180A2601F8F644EDF7987B009316C63A DUP5 DUP1 LOG2 PUSH1 0x24 CALLDATALOAD SWAP1 PUSH2 0x17AA JUMP JUMPDEST DUP1 RETURN JUMPDEST PUSH1 0x40 MLOAD PUSH3 0x461BCD PUSH1 0xE5 SHL DUP2 MSTORE PUSH1 0x20 PUSH1 0x4 DUP3 ADD MSTORE PUSH1 0x28 PUSH1 0x24 DUP3 ADD MSTORE PUSH32 0x536F75726365206D75737420626520746865206F7261636C65206F6620746865 PUSH1 0x44 DUP3 ADD MSTORE PUSH8 0x81C995C5D595CDD PUSH1 0xC2 SHL PUSH1 0x64 DUP3 ADD MSTORE PUSH1 0x84 SWAP1 REVERT JUMPDEST PUSH1 0x0 DUP1 REVERT JUMPDEST CALLVALUE PUSH2 0x1C9 JUMPI PUSH1 0x20 CALLDATASIZE PUSH1 0x3 NOT ADD SLT PUSH2 0x1C9 JUMPI PUSH1 0x4 CALLDATALOAD PUSH1 0x0 MSTORE PUSH1 0xC PUSH1 0x20 MSTORE PUSH1 0x40 PUSH1 0x1 DUP1 PUSH1 0xA0 SHL SUB DUP2 PUSH1 0x0 KECCAK256 SLOAD AND ISZERO ISZERO PUSH1 0xB PUSH1 0x20 MSTORE PUSH1 0xFF PUSH1 0x4 DUP4 PUSH1 0x0 KECCAK256 ADD SLOAD AND DUP3 MLOAD SWAP2 DUP3 MSTORE ISZERO ISZERO PUSH1 0x20 DUP3 ADD MSTORE RETURN JUMPDEST CALLVALUE PUSH2 0x1C9 JUMPI PUSH1 0x20 CALLDATASIZE PUSH1 0x3 NOT ADD SLT PUSH2 0x1C9 JUMPI PUSH1 0x4 CALLDATALOAD PUSH1 0x0 MSTORE PUSH1 0xC PUSH1 0x20 MSTORE PUSH1 0x20 PUSH1 0x1 DUP1 PUSH1 0xA0 SHL SUB PUSH1 0x40 PUSH1 0x0 KECCAK256 SLOAD AND PUSH1 0x40 MLOAD SWAP1 DUP2 MSTORE RETURN JUMPDEST SWAP1 PUSH1 0x1 DUP3 DUP2 SHR SWAP3 AND DUP1 ISZERO PUSH2 0x27D JUMPI JUMPDEST PUSH1 0x20 DUP4 LT EQ PUSH2 0x267 JUMPI JUMP JUMPDEST PUSH4 0x4E487B71 PUSH1 0xE0 SHL PUSH1 0x0 MSTORE PUSH1 0x22 PUSH1 0x4 MSTORE PUSH1 0x24 PUSH1 0x0 REVERT JUMPDEST SWAP2 PUSH1 0x7F AND SWAP2 PUSH2 0x25C JUMP JUMPDEST PUSH4 0x4E487B71 PUSH1 0xE0 SHL PUSH1 0x0 MSTORE PUSH1 0x41 PUSH1 0x4 MSTORE PUSH1 0x24 PUSH1 0x0 REVERT JUMPDEST PUSH1 0xA0 DUP2 ADD SWAP1 DUP2 LT PUSH8 0xFFFFFFFFFFFFFFFF DUP3 GT OR PUSH2 0x2B9 JUMPI PUSH1 0x40 MSTORE JUMP JUMPDEST PUSH2 0x287 JUMP JUMPDEST PUSH1 0x40 DUP2 ADD SWAP1 DUP2 LT PUSH8 0xFFFFFFFFFFFFFFFF DUP3 GT OR PUSH2 0x2B9 JUMPI PUSH1 0x40 MSTORE JUMP JUMPDEST PUSH1 0x60 DUP2 ADD SWAP1 DUP2 LT PUSH8 0xFFFFFFFFFFFFFFFF DUP3 GT OR PUSH2 0x2B9 JUMPI PUSH1 0x40 MSTORE JUMP JUMPDEST SWAP1 PUSH1 0x1F DUP1 NOT SWAP2 ADD AND DUP2 ADD SWAP1 DUP2 LT PUSH8 0xFFFFFFFFFFFFFFFF DUP3 GT OR PUSH2 0x2B9 JUMPI PUSH1 0x40 MSTORE JUMP JUMPDEST SWAP1 PUSH1 0x40 MLOAD SWAP2 DUP3 PUSH1 0x0 DUP3 SLOAD SWAP3 PUSH2 0x32C DUP5 PUSH2 0x24D JUMP JUMPDEST SWAP1 DUP2 DUP5 MSTORE PUSH1 0x1 SWAP5 DUP6 DUP2 AND SWAP1 DUP2 PUSH1 0x0 EQ PUSH2 0x39B JUMPI POP PUSH1 0x1 EQ PUSH2 0x358 JUMPI JUMPDEST POP POP PUSH2 0x356 SWAP3 POP SUB DUP4 PUSH2 0x2F6 JUMP JUMPDEST JUMP JUMPDEST SWAP1 SWAP4 SWAP2 POP PUSH1 0x0 MSTORE PUSH1 0x20 SWAP1 DUP2 PUSH1 0x0 KECCAK256 SWAP4 PUSH1 0x0 SWAP2 JUMPDEST DUP2 DUP4 LT PUSH2 0x383 JUMPI POP POP PUSH2 0x356 SWAP4 POP DUP3 ADD ADD CODESIZE DUP1 PUSH2 0x348 JUMP JUMPDEST DUP6 SLOAD DUP9 DUP5 ADD DUP6 ADD MSTORE SWAP5 DUP6 ADD SWAP5 DUP8 SWAP5 POP SWAP2 DUP4 ADD SWAP2 PUSH2 0x36B JUMP JUMPDEST SWAP2 POP POP PUSH2 0x356 SWAP5 POP PUSH1 0x20 SWAP3 POP PUSH1 0xFF NOT AND DUP3 DUP5 ADD MSTORE ISZERO ISZERO PUSH1 0x5 SHL DUP3 ADD ADD CODESIZE DUP1 PUSH2 0x348 JUMP JUMPDEST PUSH1 0x0 JUMPDEST DUP4 DUP2 LT PUSH2 0x3D1 JUMPI POP POP PUSH1 0x0 SWAP2 ADD MSTORE JUMP JUMPDEST DUP2 DUP2 ADD MLOAD DUP4 DUP3 ADD MSTORE PUSH1 0x20 ADD PUSH2 0x3C1 JUMP JUMPDEST SWAP1 PUSH1 0x20 SWAP2 PUSH2 0x3FA DUP2 MLOAD DUP1 SWAP3 DUP2 DUP6 MSTORE DUP6 DUP1 DUP7 ADD SWAP2 ADD PUSH2 0x3BE JUMP JUMPDEST PUSH1 0x1F ADD PUSH1 0x1F NOT AND ADD ADD SWAP1 JUMP JUMPDEST CALLVALUE PUSH2 0x1C9 JUMPI PUSH1 0x20 CALLDATASIZE PUSH1 0x3 NOT ADD SLT PUSH2 0x1C9 JUMPI PUSH1 0x4 CALLDATALOAD PUSH1 0x0 MSTORE PUSH1 0xB PUSH1 0x20 MSTORE PUSH1 0x40 PUSH1 0x0 KECCAK256 DUP1 SLOAD PUSH2 0x435 PUSH1 0x1 DUP4 ADD PUSH2 0x318 JUMP JUMPDEST SWAP2 PUSH1 0x2 DUP2 ADD SLOAD SWAP1 PUSH1 0xFF PUSH1 0x4 PUSH1 0x3 DUP4 ADD SLOAD SWAP3 ADD SLOAD AND SWAP1 PUSH2 0x466 PUSH1 0x40 MLOAD SWAP6 DUP7 SWAP6 DUP7 MSTORE PUSH1 0xA0 PUSH1 0x20 DUP8 ADD MSTORE PUSH1 0xA0 DUP7 ADD SWAP1 PUSH2 0x3E1 JUMP JUMPDEST SWAP3 PUSH1 0x40 DUP6 ADD MSTORE PUSH1 0x60 DUP5 ADD MSTORE ISZERO ISZERO PUSH1 0x80 DUP4 ADD MSTORE SUB SWAP1 RETURN JUMPDEST PUSH1 0x40 MLOAD SWAP1 PUSH2 0x356 DUP3 PUSH2 0x29D JUMP JUMPDEST PUSH1 0x20 PUSH1 0x3 NOT DUP3 ADD SLT PUSH2 0x1C9 JUMPI PUSH8 0xFFFFFFFFFFFFFFFF PUSH1 0x4 CALLDATALOAD DUP2 DUP2 GT PUSH2 0x1C9 JUMPI DUP3 PUSH1 0x23 DUP3 ADD SLT ISZERO PUSH2 0x1C9 JUMPI DUP1 PUSH1 0x4 ADD CALLDATALOAD SWAP2 DUP3 GT PUSH2 0x2B9 JUMPI PUSH1 0x40 MLOAD SWAP3 PUSH2 0x4D7 PUSH1 0x1F DUP5 ADD PUSH1 0x1F NOT AND PUSH1 0x20 ADD DUP6 PUSH2 0x2F6 JUMP JUMPDEST DUP3 DUP5 MSTORE PUSH1 0x24 DUP4 DUP4 ADD ADD GT PUSH2 0x1C9 JUMPI DUP2 PUSH1 0x0 SWAP3 PUSH1 0x24 PUSH1 0x20 SWAP4 ADD DUP4 DUP7 ADD CALLDATACOPY DUP4 ADD ADD MSTORE SWAP1 JUMP JUMPDEST CALLVALUE PUSH2 0x1C9 JUMPI PUSH2 0x65A PUSH2 0x649 PUSH2 0x50E CALLDATASIZE PUSH2 0x489 JUMP JUMPDEST PUSH1 0x8 SLOAD SWAP1 PUSH2 0x51A PUSH2 0xD2D JUMP JUMPDEST POP PUSH32 0xF86F7803A2ABEAEF723D8E0DD836C467C4A5C31E508A13C3306B9C982DA1613F PUSH2 0x604 PUSH2 0x547 PUSH2 0xD2D JUMP JUMPDEST PUSH2 0x54F PUSH2 0xD2D JUMP JUMPDEST POP PUSH1 0x80 DUP2 ADD MLOAD SWAP5 PUSH2 0x55E PUSH2 0xD02 JUMP JUMPDEST POP PUSH2 0x100 PUSH1 0x20 DUP8 ADD MSTORE PUSH2 0x120 PUSH1 0x40 SWAP7 DUP8 MLOAD DUP1 SWAP2 MSTORE PUSH1 0x0 DUP2 MSTORE ADD DUP7 MSTORE DUP2 MSTORE ADDRESS PUSH1 0x20 DUP3 ADD MSTORE PUSH4 0x21ABC2AF PUSH1 0xE1 SHL DUP6 DUP3 ADD MSTORE PUSH2 0x5E1 DUP6 MLOAD PUSH2 0x5D3 DUP2 PUSH2 0x5C5 PUSH2 0x5BF PUSH2 0x5A8 PUSH1 0x20 DUP5 ADD PUSH2 0xBEE JUMP JUMPDEST PUSH11 0x3F696D6167655F75726C3D PUSH1 0xA8 SHL DUP2 MSTORE PUSH1 0xB ADD SWAP1 JUMP JUMPDEST DUP10 PUSH2 0xC6B JUMP JUMPDEST SUB PUSH1 0x1F NOT DUP2 ADD DUP4 MSTORE DUP3 PUSH2 0x2F6 JUMP JUMPDEST PUSH2 0x5DB PUSH2 0xC82 JUMP JUMPDEST DUP4 PUSH2 0xCE9 JUMP JUMPDEST PUSH2 0x5FB PUSH2 0x5EC PUSH2 0xCA1 JUMP JUMPDEST PUSH2 0x5F4 PUSH2 0xCC1 JUMP JUMPDEST SWAP1 DUP4 PUSH2 0xCE9 JUMP JUMPDEST PUSH1 0x9 SLOAD SWAP1 PUSH2 0xD63 JUMP JUMPDEST SWAP4 DUP5 SWAP3 PUSH2 0x63E CALLER PUSH2 0x61F DUP7 PUSH1 0x0 MSTORE PUSH1 0xC PUSH1 0x20 MSTORE PUSH1 0x40 PUSH1 0x0 KECCAK256 SWAP1 JUMP JUMPDEST DUP1 SLOAD PUSH1 0x1 PUSH1 0x1 PUSH1 0xA0 SHL SUB NOT AND PUSH1 0x1 PUSH1 0x1 PUSH1 0xA0 SHL SUB SWAP1 SWAP3 AND SWAP2 SWAP1 SWAP2 OR SWAP1 SSTORE JUMP JUMPDEST DUP5 MLOAD SWAP2 DUP3 SWAP2 DUP3 PUSH2 0x9F4 JUMP JUMPDEST SUB SWAP1 LOG2 MLOAD SWAP1 DUP2 MSTORE SWAP1 DUP2 SWAP1 PUSH1 0x20 DUP3 ADD SWAP1 JUMP JUMPDEST SUB SWAP1 RETURN JUMPDEST CALLVALUE PUSH2 0x1C9 JUMPI PUSH1 0x0 DUP1 PUSH1 0x3 NOT CALLDATASIZE ADD SLT PUSH2 0x71B JUMPI PUSH1 0x7 SLOAD PUSH1 0x1 PUSH1 0x1 PUSH1 0xA0 SHL SUB SWAP1 DUP2 AND CALLER SUB PUSH2 0x6DD JUMPI PUSH1 0x6 SLOAD PUSH1 0x1 PUSH1 0x1 PUSH1 0xA0 SHL SUB AND PUSH1 0x6 DUP1 SLOAD PUSH1 0x1 PUSH1 0x1 PUSH1 0xA0 SHL SUB NOT AND CALLER OR SWAP1 SSTORE SWAP1 PUSH1 0x7 DUP1 SLOAD PUSH1 0x1 PUSH1 0x1 PUSH1 0xA0 SHL SUB NOT AND SWAP1 SSTORE CALLER SWAP2 AND PUSH32 0x8BE0079C531659141344CD1FD0A4F28419497F9722A3DAAFE3B4186F6B6457E0 DUP4 DUP1 LOG3 DUP1 RETURN JUMPDEST PUSH1 0x40 MLOAD PUSH3 0x461BCD PUSH1 0xE5 SHL DUP2 MSTORE PUSH1 0x20 PUSH1 0x4 DUP3 ADD MSTORE PUSH1 0x16 PUSH1 0x24 DUP3 ADD MSTORE PUSH22 0x26BAB9BA10313290383937B837B9B2B21037BBB732B9 PUSH1 0x51 SHL PUSH1 0x44 DUP3 ADD MSTORE PUSH1 0x64 SWAP1 REVERT JUMPDEST DUP1 REVERT JUMPDEST CALLVALUE PUSH2 0x1C9 JUMPI PUSH1 0x0 CALLDATASIZE PUSH1 0x3 NOT ADD SLT PUSH2 0x1C9 JUMPI PUSH1 0x6 SLOAD PUSH1 0x40 MLOAD PUSH1 0x1 PUSH1 0x1 PUSH1 0xA0 SHL SUB SWAP1 SWAP2 AND DUP2 MSTORE PUSH1 0x20 SWAP1 RETURN JUMPDEST CALLVALUE PUSH2 0x1C9 JUMPI PUSH1 0x0 DUP1 PUSH1 0x3 NOT CALLDATASIZE ADD SLT PUSH2 0x71B JUMPI PUSH2 0x761 PUSH2 0xB9C JUMP JUMPDEST PUSH1 0x2 SLOAD PUSH2 0x784 SWAP1 PUSH2 0x778 SWAP1 PUSH1 0x1 PUSH1 0x1 PUSH1 0xA0 SHL SUB AND DUP2 JUMP JUMPDEST PUSH1 0x1 PUSH1 0x1 PUSH1 0xA0 SHL SUB AND SWAP1 JUMP JUMPDEST PUSH1 0x40 MLOAD PUSH4 0x70A08231 PUSH1 0xE0 SHL DUP2 MSTORE ADDRESS PUSH1 0x4 DUP3 ADD MSTORE PUSH1 0x20 SWAP2 SWAP1 DUP3 DUP2 PUSH1 0x24 DUP2 DUP6 GAS STATICCALL SWAP1 DUP2 ISZERO PUSH2 0x82E JUMPI DUP5 SWAP3 DUP5 SWAP3 PUSH2 0x7E4 SWAP3 DUP6 SWAP2 PUSH2 0x833 JUMPI JUMPDEST POP PUSH1 0x40 MLOAD PUSH4 0xA9059CBB PUSH1 0xE0 SHL DUP2 MSTORE CALLER PUSH1 0x4 DUP3 ADD MSTORE PUSH1 0x24 DUP2 ADD SWAP2 SWAP1 SWAP2 MSTORE SWAP4 DUP5 SWAP3 DUP4 SWAP2 SWAP1 DUP3 SWAP1 PUSH1 0x44 DUP3 ADD SWAP1 JUMP JUMPDEST SUB SWAP3 GAS CALL SWAP1 DUP2 ISZERO PUSH2 0x82E JUMPI PUSH2 0x170 SWAP3 DUP5 SWAP3 PUSH2 0x801 JUMPI JUMPDEST POP POP PUSH2 0x189E JUMP JUMPDEST PUSH2 0x820 SWAP3 POP DUP1 RETURNDATASIZE LT PUSH2 0x827 JUMPI JUMPDEST PUSH2 0x818 DUP2 DUP4 PUSH2 0x2F6 JUMP JUMPDEST DUP2 ADD SWAP1 PUSH2 0xE3D JUMP JUMPDEST CODESIZE DUP1 PUSH2 0x7FA JUMP JUMPDEST POP RETURNDATASIZE PUSH2 0x80E JUMP JUMPDEST PUSH2 0xE79 JUMP JUMPDEST PUSH2 0x853 SWAP2 POP DUP5 RETURNDATASIZE DUP7 GT PUSH2 0x859 JUMPI JUMPDEST PUSH2 0x84B DUP2 DUP4 PUSH2 0x2F6 JUMP JUMPDEST DUP2 ADD SWAP1 PUSH2 0x188F JUMP JUMPDEST CODESIZE PUSH2 0x7B9 JUMP JUMPDEST POP RETURNDATASIZE PUSH2 0x841 JUMP JUMPDEST CALLVALUE PUSH2 0x1C9 JUMPI PUSH2 0x86E CALLDATASIZE PUSH2 0x489 JUMP JUMPDEST PUSH2 0x876 PUSH2 0xB9C JUMP JUMPDEST DUP1 MLOAD PUSH8 0xFFFFFFFFFFFFFFFF DUP2 GT PUSH2 0x2B9 JUMPI PUSH2 0x89B DUP2 PUSH2 0x896 PUSH1 0xA SLOAD PUSH2 0x24D JUMP JUMPDEST PUSH2 0x1524 JUMP JUMPDEST PUSH1 0x20 DUP1 PUSH1 0x1F DUP4 GT PUSH1 0x1 EQ PUSH2 0x8D8 JUMPI POP DUP2 SWAP3 PUSH1 0x0 SWAP3 PUSH2 0x8CD JUMPI JUMPDEST POP POP PUSH1 0x0 NOT PUSH1 0x3 DUP4 SWAP1 SHL SHR NOT AND PUSH1 0x1 SWAP2 SWAP1 SWAP2 SHL OR PUSH1 0xA SSTORE STOP JUMPDEST ADD MLOAD SWAP1 POP CODESIZE DUP1 PUSH2 0x8B4 JUMP JUMPDEST SWAP1 PUSH1 0x1F NOT DUP4 AND SWAP4 PUSH2 0x8F9 PUSH1 0xA PUSH1 0x0 MSTORE PUSH1 0x0 DUP1 MLOAD PUSH1 0x20 PUSH2 0x18E0 DUP4 CODECOPY DUP2 MLOAD SWAP2 MSTORE SWAP1 JUMP JUMPDEST SWAP3 PUSH1 0x0 SWAP1 JUMPDEST DUP7 DUP3 LT PUSH2 0x935 JUMPI POP POP DUP4 PUSH1 0x1 SWAP6 LT PUSH2 0x91C JUMPI JUMPDEST POP POP POP DUP2 SHL ADD PUSH1 0xA SSTORE STOP JUMPDEST ADD MLOAD PUSH1 0x0 NOT PUSH1 0xF8 DUP5 PUSH1 0x3 SHL AND SHR NOT AND SWAP1 SSTORE CODESIZE DUP1 DUP1 PUSH2 0x911 JUMP JUMPDEST DUP1 PUSH1 0x1 DUP6 SWAP7 DUP3 SWAP5 SWAP7 DUP7 ADD MLOAD DUP2 SSTORE ADD SWAP6 ADD SWAP4 ADD SWAP1 PUSH2 0x8FE JUMP JUMPDEST SWAP3 SWAP5 SWAP4 SWAP1 PUSH1 0x60 SWAP3 PUSH2 0x96B SWAP2 DUP6 MSTORE PUSH1 0x80 PUSH1 0x20 DUP7 ADD MSTORE PUSH1 0x80 DUP6 ADD SWAP1 PUSH2 0x3E1 JUMP JUMPDEST SWAP5 PUSH1 0x40 DUP5 ADD MSTORE ISZERO ISZERO SWAP2 ADD MSTORE JUMP JUMPDEST CALLVALUE PUSH2 0x1C9 JUMPI PUSH1 0x20 CALLDATASIZE PUSH1 0x3 NOT ADD SLT PUSH2 0x1C9 JUMPI PUSH1 0x4 CALLDATALOAD PUSH1 0x0 MSTORE PUSH1 0xB PUSH1 0x20 MSTORE PUSH1 0x40 PUSH1 0x0 KECCAK256 PUSH1 0x40 MLOAD SWAP1 PUSH2 0x9A6 DUP3 PUSH2 0x29D JUMP JUMPDEST DUP1 SLOAD DUP3 MSTORE PUSH2 0x65A PUSH2 0x9B9 PUSH1 0x1 DUP4 ADD PUSH2 0x318 JUMP JUMPDEST SWAP3 DUP4 PUSH1 0x20 DUP3 ADD MSTORE PUSH1 0x2 DUP4 ADD SLOAD PUSH1 0x40 DUP3 ADD MSTORE PUSH1 0xFF PUSH1 0x4 PUSH1 0x3 DUP6 ADD SLOAD SWAP5 DUP6 PUSH1 0x60 DUP6 ADD MSTORE ADD SLOAD AND ISZERO ISZERO SWAP1 DUP2 PUSH1 0x80 DUP3 ADD MSTORE MLOAD SWAP3 PUSH1 0x40 MLOAD SWAP5 DUP6 SWAP5 DUP6 PUSH2 0x94D JUMP JUMPDEST SWAP1 PUSH1 0x20 PUSH2 0xA05 SWAP3 DUP2 DUP2 MSTORE ADD SWAP1 PUSH2 0x3E1 JUMP JUMPDEST SWAP1 JUMP JUMPDEST CALLVALUE PUSH2 0x1C9 JUMPI PUSH1 0x0 DUP1 PUSH1 0x3 NOT CALLDATASIZE ADD SLT PUSH2 0x71B JUMPI PUSH1 0x40 MLOAD SWAP1 DUP1 PUSH1 0xA SLOAD PUSH2 0xA2B DUP2 PUSH2 0x24D JUMP JUMPDEST DUP1 DUP6 MSTORE SWAP2 PUSH1 0x1 SWAP2 DUP1 DUP4 AND SWAP1 DUP2 ISZERO PUSH2 0xAAA JUMPI POP PUSH1 0x1 EQ PUSH2 0xA61 JUMPI JUMPDEST PUSH2 0x65A DUP6 PUSH2 0xA55 DUP2 DUP8 SUB DUP3 PUSH2 0x2F6 JUMP JUMPDEST PUSH1 0x40 MLOAD SWAP2 DUP3 SWAP2 DUP3 PUSH2 0x9F4 JUMP JUMPDEST SWAP3 POP PUSH1 0xA DUP4 MSTORE PUSH1 0x0 DUP1 MLOAD PUSH1 0x20 PUSH2 0x18E0 DUP4 CODECOPY DUP2 MLOAD SWAP2 MSTORE JUMPDEST DUP3 DUP5 LT PUSH2 0xA92 JUMPI POP POP POP DUP2 ADD PUSH1 0x20 ADD PUSH2 0xA55 DUP3 PUSH2 0x65A PUSH2 0xA45 JUMP JUMPDEST DUP1 SLOAD PUSH1 0x20 DUP6 DUP8 ADD DUP2 ADD SWAP2 SWAP1 SWAP2 MSTORE SWAP1 SWAP4 ADD SWAP3 DUP2 ADD PUSH2 0xA77 JUMP JUMPDEST DUP7 SWAP6 POP PUSH2 0x65A SWAP7 SWAP4 POP PUSH1 0x20 SWAP3 POP PUSH2 0xA55 SWAP5 SWAP2 POP PUSH1 0xFF NOT AND DUP3 DUP5 ADD MSTORE ISZERO ISZERO PUSH1 0x5 SHL DUP3 ADD ADD SWAP3 SWAP4 PUSH2 0xA45 JUMP JUMPDEST CALLVALUE PUSH2 0x1C9 JUMPI PUSH1 0x20 CALLDATASIZE PUSH1 0x3 NOT ADD SLT PUSH2 0x1C9 JUMPI PUSH1 0x4 CALLDATALOAD PUSH1 0x1 PUSH1 0x1 PUSH1 0xA0 SHL SUB DUP2 AND SWAP1 DUP2 SWAP1 SUB PUSH2 0x1C9 JUMPI PUSH2 0xB02 PUSH2 0xB9C JUMP JUMPDEST CALLER DUP2 EQ PUSH2 0xB57 JUMPI PUSH1 0x7 DUP1 SLOAD PUSH1 0x1 PUSH1 0x1 PUSH1 0xA0 SHL SUB NOT AND DUP3 OR SWAP1 SSTORE PUSH1 0x6 SLOAD PUSH2 0xB30 SWAP1 PUSH1 0x1 PUSH1 0x1 PUSH1 0xA0 SHL SUB AND PUSH2 0x778 JUMP JUMPDEST PUSH32 0xED8889F560326EB138920D842192F0EB3DD22B4F139C87A2C57538E05BAE1278 PUSH1 0x0 DUP1 LOG3 STOP JUMPDEST PUSH1 0x40 MLOAD PUSH3 0x461BCD PUSH1 0xE5 SHL DUP2 MSTORE PUSH1 0x20 PUSH1 0x4 DUP3 ADD MSTORE PUSH1 0x17 PUSH1 0x24 DUP3 ADD MSTORE PUSH32 0x43616E6E6F74207472616E7366657220746F2073656C66000000000000000000 PUSH1 0x44 DUP3 ADD MSTORE PUSH1 0x64 SWAP1 REVERT JUMPDEST PUSH1 0x6 SLOAD PUSH1 0x1 PUSH1 0x1 PUSH1 0xA0 SHL SUB AND CALLER SUB PUSH2 0xBB0 JUMPI JUMP JUMPDEST PUSH1 0x40 MLOAD PUSH3 0x461BCD PUSH1 0xE5 SHL DUP2 MSTORE PUSH1 0x20 PUSH1 0x4 DUP3 ADD MSTORE PUSH1 0x16 PUSH1 0x24 DUP3 ADD MSTORE PUSH22 0x27B7363C9031B0B63630B1363290313C9037BBB732B9 PUSH1 0x51 SHL PUSH1 0x44 DUP3 ADD MSTORE PUSH1 0x64 SWAP1 REVERT JUMPDEST PUSH1 0xA SLOAD PUSH1 0x0 SWAP3 SWAP2 PUSH2 0xBFE DUP3 PUSH2 0x24D JUMP JUMPDEST SWAP2 PUSH1 0x1 SWAP1 DUP2 DUP2 AND SWAP1 DUP2 ISZERO PUSH2 0xC58 JUMPI POP PUSH1 0x1 EQ PUSH2 0xC19 JUMPI POP POP POP JUMP JUMPDEST SWAP1 SWAP2 SWAP3 SWAP4 POP PUSH1 0xA PUSH1 0x0 MSTORE PUSH1 0x0 DUP1 MLOAD PUSH1 0x20 PUSH2 0x18E0 DUP4 CODECOPY DUP2 MLOAD SWAP2 MSTORE SWAP1 PUSH1 0x0 SWAP2 JUMPDEST DUP5 DUP4 LT PUSH2 0xC45 JUMPI POP POP POP ADD SWAP1 JUMP JUMPDEST DUP2 DUP2 PUSH1 0x20 SWAP3 SLOAD DUP6 DUP8 ADD MSTORE ADD SWAP3 ADD SWAP2 PUSH2 0xC37 JUMP JUMPDEST PUSH1 0xFF NOT AND DUP4 MSTORE POP POP DUP2 ISZERO ISZERO SWAP1 SWAP2 MUL ADD SWAP2 POP JUMP JUMPDEST SWAP1 PUSH2 0xC7E PUSH1 0x20 SWAP3 DUP3 DUP2 MLOAD SWAP5 DUP6 SWAP3 ADD PUSH2 0x3BE JUMP JUMPDEST ADD SWAP1 JUMP JUMPDEST PUSH1 0x40 MLOAD SWAP1 PUSH2 0xC8F DUP3 PUSH2 0x2BE JUMP JUMPDEST PUSH1 0x3 DUP3 MSTORE PUSH3 0x19D95D PUSH1 0xEA SHL PUSH1 0x20 DUP4 ADD MSTORE JUMP JUMPDEST PUSH1 0x40 MLOAD SWAP1 PUSH2 0xCAE DUP3 PUSH2 0x2BE JUMP JUMPDEST PUSH1 0x4 DUP3 MSTORE PUSH4 0xE0C2E8D PUSH1 0xE3 SHL PUSH1 0x20 DUP4 ADD MSTORE JUMP JUMPDEST PUSH1 0x40 MLOAD SWAP1 PUSH2 0xCCE DUP3 PUSH2 0x2BE JUMP JUMPDEST PUSH1 0xC DUP3 MSTORE PUSH12 0x64616D6167655F73636F7265 PUSH1 0xA0 SHL PUSH1 0x20 DUP4 ADD MSTORE JUMP JUMPDEST PUSH1 0x80 ADD DUP1 MLOAD PUSH2 0x356 SWAP4 SWAP3 PUSH2 0xCFC SWAP2 PUSH2 0xFD2 JUMP JUMPDEST MLOAD PUSH2 0xFD2 JUMP JUMPDEST PUSH1 0x40 MLOAD SWAP1 PUSH1 0x40 DUP3 ADD DUP3 DUP2 LT PUSH8 0xFFFFFFFFFFFFFFFF DUP3 GT OR PUSH2 0x2B9 JUMPI PUSH1 0x40 MSTORE PUSH1 0x0 PUSH1 0x20 DUP4 PUSH1 0x60 DUP2 MSTORE ADD MSTORE JUMP JUMPDEST PUSH1 0x40 MLOAD SWAP1 PUSH2 0xD3A DUP3 PUSH2 0x29D JUMP JUMPDEST DUP2 PUSH1 0x0 DUP2 MSTORE PUSH1 0x0 PUSH1 0x20 DUP3 ADD MSTORE PUSH1 0x0 PUSH1 0x40 DUP3 ADD MSTORE PUSH1 0x0 PUSH1 0x60 DUP3 ADD MSTORE PUSH1 0x80 PUSH2 0xD5E PUSH2 0xD02 JUMP JUMPDEST SWAP2 ADD MSTORE JUMP JUMPDEST PUSH1 0x3 SLOAD PUSH1 0x4 SLOAD PUSH1 0x1 DUP2 ADD SWAP4 SWAP2 PUSH1 0x1 PUSH1 0x1 PUSH1 0xA0 SHL SUB AND DUP5 DUP3 GT PUSH2 0xE07 JUMPI PUSH2 0xA05 SWAP5 PUSH1 0x4 SSTORE PUSH2 0xE02 DUP5 MLOAD PUSH2 0xDF4 PUSH1 0x80 PUSH4 0xFFFFFFFF PUSH1 0xE0 SHL PUSH1 0x40 DUP10 ADD MLOAD AND SWAP8 ADD MLOAD MLOAD PUSH1 0x40 MLOAD SWAP8 DUP9 SWAP4 PUSH4 0x20214CA3 PUSH1 0xE1 SHL PUSH1 0x20 DUP7 ADD MSTORE PUSH1 0x0 PUSH1 0x24 DUP7 ADD MSTORE PUSH1 0x0 PUSH1 0x44 DUP7 ADD MSTORE PUSH1 0x64 DUP6 ADD MSTORE ADDRESS PUSH1 0x84 DUP6 ADD MSTORE PUSH1 0xA4 DUP5 ADD MSTORE DUP6 PUSH1 0xC4 DUP5 ADD MSTORE PUSH1 0x1 PUSH1 0xE4 DUP5 ADD MSTORE PUSH2 0x100 PUSH2 0x104 DUP5 ADD MSTORE PUSH2 0x124 DUP4 ADD SWAP1 PUSH2 0x3E1 JUMP JUMPDEST SUB PUSH1 0x1F NOT DUP2 ADD DUP7 MSTORE DUP6 PUSH2 0x2F6 JUMP JUMPDEST PUSH2 0xEDD JUMP JUMPDEST PUSH4 0x4E487B71 PUSH1 0xE0 SHL PUSH1 0x0 MSTORE PUSH1 0x11 PUSH1 0x4 MSTORE PUSH1 0x24 PUSH1 0x0 REVERT JUMPDEST SWAP1 PUSH1 0x20 DUP3 ADD DUP1 SWAP3 GT PUSH2 0xE2B JUMPI JUMP JUMPDEST PUSH2 0xE07 JUMP JUMPDEST SWAP2 SWAP1 DUP3 ADD DUP1 SWAP3 GT PUSH2 0xE2B JUMPI JUMP JUMPDEST SWAP1 DUP2 PUSH1 0x20 SWAP2 SUB SLT PUSH2 0x1C9 JUMPI MLOAD DUP1 ISZERO ISZERO DUP2 SUB PUSH2 0x1C9 JUMPI SWAP1 JUMP JUMPDEST PUSH2 0xA05 SWAP4 SWAP3 PUSH1 0x60 SWAP3 PUSH1 0x1 DUP1 PUSH1 0xA0 SHL SUB AND DUP3 MSTORE PUSH1 0x20 DUP3 ADD MSTORE DUP2 PUSH1 0x40 DUP3 ADD MSTORE ADD SWAP1 PUSH2 0x3E1 JUMP JUMPDEST PUSH1 0x40 MLOAD RETURNDATASIZE PUSH1 0x0 DUP3 RETURNDATACOPY RETURNDATASIZE SWAP1 REVERT JUMPDEST ISZERO PUSH2 0xE8C JUMPI JUMP JUMPDEST PUSH1 0x40 MLOAD PUSH3 0x461BCD PUSH1 0xE5 SHL DUP2 MSTORE PUSH1 0x20 PUSH1 0x4 DUP3 ADD MSTORE PUSH1 0x23 PUSH1 0x24 DUP3 ADD MSTORE PUSH32 0x756E61626C6520746F207472616E73666572416E6443616C6C20746F206F7261 PUSH1 0x44 DUP3 ADD MSTORE PUSH3 0x636C65 PUSH1 0xE8 SHL PUSH1 0x64 DUP3 ADD MSTORE PUSH1 0x84 SWAP1 REVERT JUMPDEST SWAP3 PUSH2 0xF89 SWAP3 SWAP4 PUSH1 0x20 SWAP3 PUSH1 0x40 MLOAD DUP5 DUP2 ADD SWAP2 PUSH12 0xFFFFFFFFFFFFFFFFFFFFFFFF NOT ADDRESS PUSH1 0x60 SHL AND DUP4 MSTORE PUSH1 0x34 DUP3 ADD MSTORE PUSH1 0x34 DUP2 MSTORE PUSH2 0xF14 DUP2 PUSH2 0x2DA JUMP JUMPDEST MLOAD SWAP1 KECCAK256 SWAP5 PUSH2 0xF30 DUP3 PUSH2 0x61F DUP9 PUSH1 0x0 MSTORE PUSH1 0x5 PUSH1 0x20 MSTORE PUSH1 0x40 PUSH1 0x0 KECCAK256 SWAP1 JUMP JUMPDEST PUSH1 0x0 PUSH1 0x40 MLOAD DUP1 SWAP7 DUP2 SWAP6 DUP3 SWAP5 DUP11 PUSH32 0xB5E6E01E79F91267DC17B4E6314D5D4D03593D2CEEE0FBB452B750BD70EA5AF9 DUP7 DUP1 LOG2 PUSH1 0x2 SLOAD PUSH2 0xF75 SWAP1 PUSH1 0x1 PUSH1 0x1 PUSH1 0xA0 SHL SUB AND PUSH2 0x778 JUMP JUMPDEST PUSH4 0x2000575 PUSH1 0xE5 SHL DUP6 MSTORE SWAP7 PUSH1 0x4 DUP6 ADD PUSH2 0xE55 JUMP JUMPDEST SUB SWAP3 GAS CALL DUP1 ISZERO PUSH2 0x82E JUMPI PUSH2 0xA05 SWAP2 PUSH1 0x0 SWAP2 PUSH2 0xFA5 JUMPI JUMPDEST POP PUSH2 0xE85 JUMP JUMPDEST PUSH2 0xFBD SWAP2 POP PUSH1 0x20 RETURNDATASIZE DUP2 GT PUSH2 0x827 JUMPI PUSH2 0x818 DUP2 DUP4 PUSH2 0x2F6 JUMP JUMPDEST CODESIZE PUSH2 0xF9F JUMP JUMPDEST PUSH1 0x1F NOT DUP2 ADD SWAP2 SWAP1 DUP3 GT PUSH2 0xE2B JUMPI JUMP JUMPDEST DUP2 MLOAD PUSH2 0x1004 SWAP3 SWAP2 SWAP1 PUSH8 0xFFFFFFFFFFFFFFFF DUP2 AND PUSH1 0x17 DUP2 GT PUSH2 0x1007 JUMPI POP PUSH1 0x60 PUSH1 0xFF PUSH2 0xFFE SWAP3 AND OR DUP3 PUSH2 0x1323 JUMP JUMPDEST POP PUSH2 0x1077 JUMP JUMPDEST POP JUMP JUMPDEST SWAP1 POP PUSH1 0xFF DUP2 GT PUSH2 0x1025 JUMPI PUSH2 0xFFE SWAP1 PUSH2 0x101E DUP4 PUSH2 0x12D3 JUMP JUMPDEST POP DUP3 PUSH2 0x14BD JUMP JUMPDEST PUSH2 0xFFFF DUP2 GT PUSH2 0x1042 JUMPI PUSH2 0xFFE SWAP1 PUSH2 0x103B DUP4 PUSH2 0x1283 JUMP JUMPDEST POP DUP3 PUSH2 0x1455 JUMP JUMPDEST PUSH4 0xFFFFFFFF DUP2 GT PUSH2 0x1061 JUMPI PUSH2 0xFFE SWAP1 PUSH2 0x105A DUP4 PUSH2 0x1233 JUMP JUMPDEST POP DUP3 PUSH2 0x13EB JUMP JUMPDEST PUSH2 0x1075 SWAP1 PUSH2 0x106E DUP4 PUSH2 0x11D5 JUMP JUMPDEST POP DUP3 PUSH2 0x1379 JUMP JUMPDEST POP JUMPDEST SWAP1 PUSH2 0x1080 PUSH2 0xD02 JUMP JUMPDEST POP DUP2 MLOAD MLOAD SWAP1 DUP1 MLOAD SWAP1 PUSH2 0x1090 PUSH2 0xD02 JUMP JUMPDEST POP PUSH2 0x109E DUP2 MLOAD DUP4 GT ISZERO PUSH2 0x114F JUMP JUMPDEST PUSH2 0x10A8 DUP3 DUP5 PUSH2 0xE30 JUMP JUMPDEST PUSH1 0x20 SWAP2 DUP3 SWAP2 DUP3 DUP8 ADD MLOAD DUP1 SWAP2 GT PUSH2 0x1124 JUMPI JUMPDEST POP DUP6 MLOAD DUP1 MLOAD SWAP1 DUP4 DUP8 DUP3 ADD ADD SWAP7 DUP7 ADD SWAP2 DUP3 GT PUSH2 0x111C JUMPI JUMPDEST POP POP ADD SWAP2 JUMPDEST DUP2 DUP2 LT ISZERO PUSH2 0x10F6 JUMPI PUSH1 0x0 NOT SWAP2 SUB PUSH2 0x100 EXP ADD SWAP1 DUP2 NOT SWAP1 MLOAD AND SWAP1 DUP3 MLOAD AND OR SWAP1 MSTORE SWAP1 JUMP JUMPDEST SWAP2 SWAP3 PUSH2 0x1111 PUSH2 0x110B PUSH2 0x1117 SWAP3 DUP7 MLOAD DUP2 MSTORE PUSH2 0xE1D JUMP JUMPDEST SWAP5 PUSH2 0xE1D JUMP JUMPDEST SWAP3 PUSH2 0xFC3 JUMP JUMPDEST PUSH2 0x10D4 JUMP JUMPDEST MSTORE CODESIZE DUP1 PUSH2 0x10CF JUMP JUMPDEST PUSH2 0x1143 PUSH2 0x113E PUSH2 0x1149 SWAP3 PUSH2 0x1138 DUP10 DUP10 PUSH2 0xE30 JUMP JUMPDEST SWAP1 PUSH2 0x11C5 JUMP JUMPDEST PUSH2 0x1156 JUMP JUMPDEST DUP8 PUSH2 0x116C JUMP JUMPDEST CODESIZE PUSH2 0x10B9 JUMP JUMPDEST ISZERO PUSH2 0x1C9 JUMPI JUMP JUMPDEST SWAP1 DUP2 PUSH1 0x1 SHL SWAP2 DUP1 DUP4 DIV PUSH1 0x2 EQ SWAP1 ISZERO OR ISZERO PUSH2 0xE2B JUMPI JUMP JUMPDEST DUP1 MLOAD SWAP1 DUP3 PUSH2 0x1178 PUSH2 0xD02 JUMP JUMPDEST POP PUSH1 0x1F DUP5 AND DUP1 PUSH2 0x11A5 JUMPI JUMPDEST POP PUSH2 0x1004 SWAP4 POP DUP1 PUSH1 0x20 DUP4 ADD MSTORE PUSH1 0x40 MLOAD DUP1 DUP4 MSTORE PUSH1 0x0 DUP2 MSTORE ADD PUSH1 0x20 ADD PUSH1 0x40 MSTORE PUSH2 0x1077 JUMP JUMPDEST SWAP1 POP PUSH1 0x20 SUB PUSH1 0x20 DUP2 GT PUSH2 0xE2B JUMPI DUP4 ADD DUP1 SWAP4 GT PUSH2 0xE2B JUMPI PUSH2 0x1004 SWAP3 CODESIZE PUSH2 0x1183 JUMP JUMPDEST DUP2 DUP2 GT PUSH2 0x11D0 JUMPI POP SWAP1 JUMP JUMPDEST SWAP1 POP SWAP1 JUMP JUMPDEST PUSH2 0x11DD PUSH2 0xD02 JUMP JUMPDEST POP DUP1 MLOAD MLOAD PUSH2 0x11E9 PUSH2 0xD02 JUMP JUMPDEST POP PUSH1 0x20 DUP3 ADD MLOAD DUP1 DUP3 LT ISZERO PUSH2 0x121B JUMPI JUMPDEST POP DUP2 MLOAD SWAP1 DUP2 MLOAD DUP2 PUSH1 0x7B PUSH1 0x20 DUP4 SWAP5 DUP7 ADD ADD MSTORE8 EQ PUSH2 0x1213 JUMPI POP POP SWAP1 JUMP JUMPDEST PUSH1 0x1 ADD SWAP1 MSTORE SWAP1 JUMP JUMPDEST PUSH2 0x1227 PUSH2 0x122D SWAP2 PUSH2 0x1156 JUMP JUMPDEST DUP4 PUSH2 0x116C JUMP JUMPDEST CODESIZE PUSH2 0x11F8 JUMP JUMPDEST PUSH2 0x123B PUSH2 0xD02 JUMP JUMPDEST POP DUP1 MLOAD MLOAD PUSH2 0x1247 PUSH2 0xD02 JUMP JUMPDEST POP PUSH1 0x20 DUP3 ADD MLOAD DUP1 DUP3 LT ISZERO PUSH2 0x1271 JUMPI JUMPDEST POP DUP2 MLOAD SWAP1 DUP2 MLOAD DUP2 PUSH1 0x7A PUSH1 0x20 DUP4 SWAP5 DUP7 ADD ADD MSTORE8 EQ PUSH2 0x1213 JUMPI POP POP SWAP1 JUMP JUMPDEST PUSH2 0x1227 PUSH2 0x127D SWAP2 PUSH2 0x1156 JUMP JUMPDEST CODESIZE PUSH2 0x1256 JUMP JUMPDEST PUSH2 0x128B PUSH2 0xD02 JUMP JUMPDEST POP DUP1 MLOAD MLOAD PUSH2 0x1297 PUSH2 0xD02 JUMP JUMPDEST POP PUSH1 0x20 DUP3 ADD MLOAD DUP1 DUP3 LT ISZERO PUSH2 0x12C1 JUMPI JUMPDEST POP DUP2 MLOAD SWAP1 DUP2 MLOAD DUP2 PUSH1 0x79 PUSH1 0x20 DUP4 SWAP5 DUP7 ADD ADD MSTORE8 EQ PUSH2 0x1213 JUMPI POP POP SWAP1 JUMP JUMPDEST PUSH2 0x1227 PUSH2 0x12CD SWAP2 PUSH2 0x1156 JUMP JUMPDEST CODESIZE PUSH2 0x12A6 JUMP JUMPDEST PUSH2 0x12DB PUSH2 0xD02 JUMP JUMPDEST POP DUP1 MLOAD MLOAD PUSH2 0x12E7 PUSH2 0xD02 JUMP JUMPDEST POP PUSH1 0x20 DUP3 ADD MLOAD DUP1 DUP3 LT ISZERO PUSH2 0x1311 JUMPI JUMPDEST POP DUP2 MLOAD SWAP1 DUP2 MLOAD DUP2 PUSH1 0x78 PUSH1 0x20 DUP4 SWAP5 DUP7 ADD ADD MSTORE8 EQ PUSH2 0x1213 JUMPI POP POP SWAP1 JUMP JUMPDEST PUSH2 0x1227 PUSH2 0x131D SWAP2 PUSH2 0x1156 JUMP JUMPDEST CODESIZE PUSH2 0x12F6 JUMP JUMPDEST SWAP1 PUSH2 0x132C PUSH2 0xD02 JUMP JUMPDEST POP DUP2 MLOAD MLOAD PUSH2 0x1338 PUSH2 0xD02 JUMP JUMPDEST POP PUSH1 0x20 DUP4 ADD MLOAD DUP1 DUP3 LT ISZERO PUSH2 0x1361 JUMPI JUMPDEST POP DUP3 MLOAD SWAP2 DUP3 MLOAD SWAP2 DUP3 SWAP2 PUSH1 0x20 DUP3 DUP7 ADD ADD MSTORE8 EQ PUSH2 0x1213 JUMPI POP POP SWAP1 JUMP JUMPDEST PUSH2 0x136D PUSH2 0x1373 SWAP2 PUSH2 0x1156 JUMP JUMPDEST DUP5 PUSH2 0x116C JUMP JUMPDEST CODESIZE PUSH2 0x1347 JUMP JUMPDEST SWAP1 PUSH2 0x1382 PUSH2 0xD02 JUMP JUMPDEST POP DUP2 MLOAD MLOAD SWAP1 PUSH2 0x138F PUSH2 0xD02 JUMP JUMPDEST POP DUP2 PUSH1 0x8 ADD DUP1 PUSH1 0x8 GT PUSH2 0xE2B JUMPI PUSH1 0x20 DUP5 ADD MLOAD DUP2 GT PUSH2 0x13D9 JUMPI JUMPDEST POP DUP3 MLOAD SWAP1 PUSH1 0x8 DUP4 DUP4 ADD ADD SWAP1 PUSH8 0xFFFFFFFFFFFFFFFF NOT DUP3 MLOAD AND OR SWAP1 MSTORE PUSH1 0x8 DUP2 MLOAD SWAP3 ADD SWAP2 DUP3 GT PUSH2 0x13D5 JUMPI POP POP SWAP1 JUMP JUMPDEST MSTORE SWAP1 JUMP JUMPDEST PUSH2 0x136D PUSH2 0x13E5 SWAP2 PUSH2 0x1156 JUMP JUMPDEST CODESIZE PUSH2 0x13A8 JUMP JUMPDEST SWAP1 PUSH2 0x13F4 PUSH2 0xD02 JUMP JUMPDEST POP DUP2 MLOAD MLOAD SWAP1 PUSH2 0x1401 PUSH2 0xD02 JUMP JUMPDEST POP DUP2 PUSH1 0x4 ADD DUP1 PUSH1 0x4 GT PUSH2 0xE2B JUMPI PUSH1 0x20 DUP5 ADD MLOAD DUP2 GT PUSH2 0x1443 JUMPI JUMPDEST POP DUP3 MLOAD SWAP1 PUSH1 0x4 DUP4 DUP4 ADD ADD SWAP1 PUSH4 0xFFFFFFFF NOT DUP3 MLOAD AND OR SWAP1 MSTORE PUSH1 0x4 DUP2 MLOAD SWAP3 ADD SWAP2 DUP3 GT PUSH2 0x13D5 JUMPI POP POP SWAP1 JUMP JUMPDEST PUSH2 0x136D PUSH2 0x144F SWAP2 PUSH2 0x1156 JUMP JUMPDEST CODESIZE PUSH2 0x141A JUMP JUMPDEST SWAP1 PUSH2 0x145E PUSH2 0xD02 JUMP JUMPDEST POP DUP2 MLOAD MLOAD SWAP1 PUSH2 0x146B PUSH2 0xD02 JUMP JUMPDEST POP DUP2 PUSH1 0x2 ADD DUP1 PUSH1 0x2 GT PUSH2 0xE2B JUMPI PUSH1 0x20 DUP5 ADD MLOAD DUP2 GT PUSH2 0x14AB JUMPI JUMPDEST POP DUP3 MLOAD SWAP1 PUSH1 0x2 DUP4 DUP4 ADD ADD SWAP1 PUSH2 0xFFFF NOT DUP3 MLOAD AND OR SWAP1 MSTORE PUSH1 0x2 DUP2 MLOAD SWAP3 ADD SWAP2 DUP3 GT PUSH2 0x13D5 JUMPI POP POP SWAP1 JUMP JUMPDEST PUSH2 0x136D PUSH2 0x14B7 SWAP2 PUSH2 0x1156 JUMP JUMPDEST CODESIZE PUSH2 0x1484 JUMP JUMPDEST SWAP1 PUSH2 0x14C6 PUSH2 0xD02 JUMP JUMPDEST POP DUP2 MLOAD MLOAD SWAP1 PUSH2 0x14D3 PUSH2 0xD02 JUMP JUMPDEST POP DUP2 PUSH1 0x1 ADD DUP1 PUSH1 0x1 GT PUSH2 0xE2B JUMPI PUSH1 0x20 DUP5 ADD MLOAD DUP2 GT PUSH2 0x1512 JUMPI JUMPDEST POP DUP3 MLOAD SWAP1 PUSH1 0x1 DUP4 DUP4 ADD ADD SWAP1 PUSH1 0xFF NOT DUP3 MLOAD AND OR SWAP1 MSTORE PUSH1 0x1 DUP2 MLOAD SWAP3 ADD SWAP2 DUP3 GT PUSH2 0x13D5 JUMPI POP POP SWAP1 JUMP JUMPDEST PUSH2 0x136D PUSH2 0x151E SWAP2 PUSH2 0x1156 JUMP JUMPDEST CODESIZE PUSH2 0x14EC JUMP JUMPDEST PUSH1 0x1F DUP2 GT PUSH2 0x1530 JUMPI POP POP JUMP JUMPDEST PUSH1 0x0 SWAP1 PUSH1 0xA DUP3 MSTORE PUSH1 0x0 DUP1 MLOAD PUSH1 0x20 PUSH2 0x18E0 DUP4 CODECOPY DUP2 MLOAD SWAP2 MSTORE SWAP1 PUSH1 0x20 PUSH1 0x1F DUP6 ADD PUSH1 0x5 SHR DUP4 ADD SWAP5 LT PUSH2 0x1579 JUMPI JUMPDEST PUSH1 0x1F ADD PUSH1 0x5 SHR ADD SWAP2 JUMPDEST DUP3 DUP2 LT PUSH2 0x156E JUMPI POP POP POP JUMP JUMPDEST DUP2 DUP2 SSTORE PUSH1 0x1 ADD PUSH2 0x1562 JUMP JUMPDEST SWAP1 SWAP3 POP DUP3 SWAP1 PUSH2 0x1559 JUMP JUMPDEST SWAP1 PUSH1 0x1F DUP2 GT PUSH2 0x1591 JUMPI POP POP POP JUMP JUMPDEST PUSH1 0x0 SWAP2 DUP3 MSTORE PUSH1 0x20 DUP3 KECCAK256 SWAP1 PUSH1 0x20 PUSH1 0x1F DUP6 ADD PUSH1 0x5 SHR DUP4 ADD SWAP5 LT PUSH2 0x15CD JUMPI JUMPDEST PUSH1 0x1F ADD PUSH1 0x5 SHR ADD SWAP2 JUMPDEST DUP3 DUP2 LT PUSH2 0x15C2 JUMPI POP POP POP JUMP JUMPDEST DUP2 DUP2 SSTORE PUSH1 0x1 ADD PUSH2 0x15B6 JUMP JUMPDEST SWAP1 SWAP3 POP DUP3 SWAP1 PUSH2 0x15AD JUMP JUMPDEST DUP2 MLOAD DUP2 SSTORE PUSH1 0x1 SWAP2 DUP3 DUP3 ADD PUSH1 0x20 DUP1 DUP4 ADD MLOAD SWAP5 DUP6 MLOAD SWAP2 PUSH8 0xFFFFFFFFFFFFFFFF DUP4 GT PUSH2 0x2B9 JUMPI PUSH2 0x160E DUP4 PUSH2 0x1608 DUP7 SLOAD PUSH2 0x24D JUMP JUMPDEST DUP7 PUSH2 0x1583 JUMP JUMPDEST DUP1 PUSH1 0x1F DUP5 GT PUSH1 0x1 EQ PUSH2 0x1680 JUMPI POP SWAP3 DUP3 DUP1 PUSH1 0x80 SWAP5 PUSH1 0x4 SWAP8 SWAP5 PUSH2 0x1662 SWAP8 PUSH2 0x356 SWAP12 PUSH1 0x0 SWAP5 PUSH2 0x1675 JUMPI JUMPDEST POP POP SHL SWAP2 PUSH1 0x0 NOT SWAP1 PUSH1 0x3 SHL SHR NOT AND OR SWAP1 SSTORE JUMPDEST PUSH1 0x40 DUP2 ADD MLOAD PUSH1 0x2 DUP7 ADD SSTORE PUSH1 0x60 DUP2 ADD MLOAD PUSH1 0x3 DUP7 ADD SSTORE ADD MLOAD ISZERO ISZERO SWAP1 JUMP JUMPDEST SWAP2 ADD SWAP1 PUSH1 0xFF DUP1 NOT DUP4 SLOAD AND SWAP2 ISZERO ISZERO AND OR SWAP1 SSTORE JUMP JUMPDEST ADD MLOAD SWAP3 POP CODESIZE DUP1 PUSH2 0x1635 JUMP JUMPDEST SWAP2 SWAP4 SWAP5 SWAP6 SWAP7 PUSH1 0x1F NOT DUP5 AND PUSH2 0x1699 DUP8 PUSH1 0x0 MSTORE PUSH1 0x20 PUSH1 0x0 KECCAK256 SWAP1 JUMP JUMPDEST SWAP4 PUSH1 0x0 SWAP1 JUMPDEST DUP3 DUP3 LT PUSH2 0x16E7 JUMPI POP POP SWAP4 PUSH2 0x356 SWAP9 SWAP8 SWAP4 PUSH1 0x4 SWAP8 SWAP4 PUSH2 0x1662 SWAP8 SWAP4 DUP4 PUSH1 0x80 SWAP9 LT PUSH2 0x16CE JUMPI JUMPDEST POP POP POP DUP2 SHL ADD SWAP1 SSTORE PUSH2 0x1647 JUMP JUMPDEST ADD MLOAD PUSH1 0x0 NOT PUSH1 0xF8 DUP5 PUSH1 0x3 SHL AND SHR NOT AND SWAP1 SSTORE CODESIZE DUP1 DUP1 PUSH2 0x16C1 JUMP JUMPDEST DUP1 DUP9 DUP7 SWAP8 DUP3 SWAP5 SWAP8 DUP8 ADD MLOAD DUP2 SSTORE ADD SWAP7 ADD SWAP5 ADD SWAP1 PUSH2 0x169E JUMP JUMPDEST SWAP3 SWAP2 SWAP1 DUP4 MSTORE PUSH1 0x20 SWAP1 PUSH1 0x60 DUP3 DUP6 ADD MSTORE PUSH1 0x0 SWAP2 DUP2 SLOAD PUSH2 0x171A DUP2 PUSH2 0x24D JUMP JUMPDEST SWAP3 DUP4 PUSH1 0x60 DUP9 ADD MSTORE PUSH1 0x1 SWAP2 DUP3 DUP2 AND SWAP1 DUP2 PUSH1 0x0 EQ PUSH2 0x1782 JUMPI POP PUSH1 0x1 EQ PUSH2 0x1747 JUMPI JUMPDEST POP POP POP POP PUSH1 0x40 PUSH1 0x0 SWAP2 SWAP4 ADD MSTORE JUMP JUMPDEST PUSH1 0x0 SWAP1 DUP2 MSTORE DUP3 DUP2 KECCAK256 SWAP1 SWAP5 POP JUMPDEST DUP4 DUP6 LT PUSH2 0x176E JUMPI POP POP POP POP DUP3 ADD PUSH1 0x80 ADD PUSH1 0x40 PUSH1 0x0 CODESIZE DUP1 PUSH2 0x1739 JUMP JUMPDEST DUP1 SLOAD DUP8 DUP7 ADD PUSH1 0x80 ADD MSTORE SWAP4 DUP3 ADD SWAP4 DUP2 ADD PUSH2 0x1753 JUMP JUMPDEST SWAP2 POP POP PUSH1 0x0 SWAP5 POP PUSH1 0x80 SWAP3 POP PUSH1 0x40 SWAP4 SWAP2 POP PUSH1 0xFF NOT AND DUP3 DUP8 ADD MSTORE ISZERO ISZERO PUSH1 0x5 SHL DUP6 ADD ADD SWAP2 CODESIZE DUP1 PUSH2 0x1739 JUMP JUMPDEST SWAP1 PUSH32 0xD04BCA54E51216033A86F91BA389D04C524D80E6154D8A5851ADD24B533A4790 SWAP1 PUSH1 0x32 DUP2 GT ISZERO PUSH2 0x1869 JUMPI PUSH2 0x183D PUSH1 0x40 MLOAD PUSH2 0x17E5 DUP2 PUSH2 0x2BE JUMP JUMPDEST PUSH1 0x6 DUP2 MSTORE PUSH6 0x3937BA3A32B7 PUSH1 0xD1 SHL PUSH1 0x20 DUP3 ADD MSTORE JUMPDEST PUSH2 0x1801 PUSH2 0x47C JUMP JUMPDEST SWAP1 DUP4 DUP3 MSTORE PUSH1 0x20 DUP3 ADD MSTORE PUSH1 0x0 PUSH1 0x40 DUP3 ADD MSTORE TIMESTAMP PUSH1 0x60 DUP3 ADD MSTORE PUSH2 0x1824 PUSH1 0x80 DUP3 ADD PUSH1 0x1 SWAP1 MSTORE JUMP JUMPDEST PUSH2 0x1838 DUP6 PUSH1 0x0 MSTORE PUSH1 0xB PUSH1 0x20 MSTORE PUSH1 0x40 PUSH1 0x0 KECCAK256 SWAP1 JUMP JUMPDEST PUSH2 0x15D7 JUMP JUMPDEST PUSH1 0x1 PUSH2 0x1853 DUP5 PUSH1 0x0 MSTORE PUSH1 0xB PUSH1 0x20 MSTORE PUSH1 0x40 PUSH1 0x0 KECCAK256 SWAP1 JUMP JUMPDEST ADD SWAP1 PUSH2 0x1864 PUSH1 0x40 MLOAD SWAP3 DUP4 SWAP3 DUP4 PUSH2 0x16FE JUMP JUMPDEST SUB SWAP1 LOG2 JUMP JUMPDEST PUSH2 0x183D PUSH1 0x40 MLOAD PUSH2 0x1878 DUP2 PUSH2 0x2BE JUMP JUMPDEST PUSH1 0x5 DUP2 MSTORE PUSH5 0xCCE4CAE6D PUSH1 0xDB SHL PUSH1 0x20 DUP3 ADD MSTORE PUSH2 0x17F9 JUMP JUMPDEST SWAP1 DUP2 PUSH1 0x20 SWAP2 SUB SLT PUSH2 0x1C9 JUMPI MLOAD SWAP1 JUMP JUMPDEST ISZERO PUSH2 0x18A5 JUMPI JUMP JUMPDEST PUSH1 0x40 MLOAD PUSH3 0x461BCD PUSH1 0xE5 SHL DUP2 MSTORE PUSH1 0x20 PUSH1 0x4 DUP3 ADD MSTORE PUSH1 0x12 PUSH1 0x24 DUP3 ADD MSTORE PUSH18 0x2AB730B13632903A37903A3930B739B332B9 PUSH1 0x71 SHL PUSH1 0x44 DUP3 ADD MSTORE PUSH1 0x64 SWAP1 REVERT INVALID 0xC6 GAS PUSH28 0xB8D6351C1CF70C95A316CC6A92839C986682D98BC35F958F4883F9D2 0xA8 LOG2 PUSH5 0x6970667358 0x22 SLT KECCAK256 SWAP16 CALLDATALOAD 0xC9 EXTCODEHASH PUSH1 0x3E SMOD 0xFB 0xD8 DUP13 0x27 PUSH1 0xBA 0xE1 SWAP6 INVALID 0xBE CALLER DUP8 DUP5 CODECOPY 0xD0 EXTCODEHASH 0xAC PUSH11 0xCCD174BA6E802F64736F6C PUSH4 0x43000813 STOP CALLER "},"methodIdentifiers":{"acceptOwnership()":"79ba5097","apiEndpoint()":"f25ecd5d","fulfill(bytes32,uint256)":"4357855e","getPrediction(bytes32)":"dc6423ab","getRequestStatus(bytes32)":"45d07664","getRequester(bytes32)":"58381bbd","owner()":"8da5cb5b","predictions(bytes32)":"5d9eaeaf","requestDamagePrediction(string)":"62963ea8","requesters(bytes32)":"9eb04ecc","transferOwnership(address)":"f2fde38b","updateApiEndpoint(string)":"b8f230f2","withdrawLink()":"8dc654a2"}}}}}