{"contracts/AgriTraceQuality.sol":{"AgriTraceQuality":{"abi":[{"inputs":[{"internalType":"address","name":"_coreContract","type":"address"},{"internalType":"address","name":"_batchContract","type":"address"}],"stateMutability":"nonpayable","type":"constructor"},{"anonymous":false,"inputs":[{"indexed":true,"internalType":"uint256","name":"id","type":"uint256"},{"indexed":false,"internalType":"string","name":"ipfsHash","type":"string"},{"indexed":false,"internalType":"enum AgriTraceLib.Stage","name":"stage","type":"uint8"}],"name":"DataStored","type":"event"},{"anonymous":false,"inputs":[{"indexed":true,"internalType":"uint256","name":"productId","type":"uint256"},{"indexed":false,"internalType":"uint256","name":"damageScore","type":"uint256"},{"indexed":false,"internalType":"string","name":"prediction","type":"string"}],"name":"MLPredictionReceived","type":"event"},{"anonymous":false,"inputs":[{"indexed":true,"internalType":"uint256","name":"productId","type":"uint256"},{"indexed":true,"internalType":"bytes32","name":"requestId","type":"bytes32"},{"indexed":false,"internalType":"string","name":"imageUrl","type":"string"}],"name":"MLPredictionRequested","type":"event"},{"anonymous":false,"inputs":[{"indexed":true,"internalType":"uint256","name":"productId","type":"uint256"},{"indexed":false,"internalType":"string","name":"reason","type":"string"}],"name":"ProductRejected","type":"event"},{"anonymous":false,"inputs":[{"indexed":true,"internalType":"uint256","name":"productId","type":"uint256"},{"indexed":true,"internalType":"uint256","name":"batchId","type":"uint256"},{"indexed":false,"internalType":"string","name":"reason","type":"string"}],"name":"ProductRemovedFromBatch","type":"event"},{"inputs":[],"name":"MIN_TEMP","outputs":[{"internalType":"uint256","name":"","type":"uint256"}],"stateMutability":"view","type":"function"},{"inputs":[],"name":"batchContract","outputs":[{"internalType":"contract AgriTraceBatch","name":"","type":"address"}],"stateMutability":"view","type":"function"},{"inputs":[],"name":"coreContract","outputs":[{"internalType":"contract AgriTraceCore","name":"","type":"address"}],"stateMutability":"view","type":"function"},{"inputs":[],"name":"damageDetectionOracle","outputs":[{"internalType":"contract DamageDetectionConsumer","name":"","type":"address"}],"stateMutability":"view","type":"function"},{"inputs":[{"internalType":"uint256","name":"","type":"uint256"}],"name":"distributorQuality","outputs":[{"internalType":"uint256","name":"score","type":"uint256"},{"internalType":"enum AgriTraceLib.Grade","name":"grade","type":"uint8"},{"internalType":"string","name":"damageLevel","type":"string"},{"internalType":"uint256","name":"temperature","type":"uint256"},{"internalType":"uint256","name":"timestamp","type":"uint256"},{"internalType":"address","name":"assessor","type":"address"}],"stateMutability":"view","type":"function"},{"inputs":[{"internalType":"uint256","name":"productId","type":"uint256"}],"name":"getDistributorQuality","outputs":[{"components":[{"internalType":"uint256","name":"score","type":"uint256"},{"internalType":"enum AgriTraceLib.Grade","name":"grade","type":"uint8"},{"internalType":"string","name":"damageLevel","type":"string"},{"internalType":"uint256","name":"temperature","type":"uint256"},{"internalType":"uint256","name":"timestamp","type":"uint256"},{"internalType":"address","name":"assessor","type":"address"}],"internalType":"struct AgriTraceLib.Quality","name":"","type":"tuple"}],"stateMutability":"view","type":"function"},{"inputs":[{"internalType":"uint256","name":"productId","type":"uint256"}],"name":"getMLPredictionStatus","outputs":[{"internalType":"bytes32","name":"requestId","type":"bytes32"},{"internalType":"uint256","name":"damageScore","type":"uint256"},{"internalType":"string","name":"prediction","type":"string"},{"internalType":"bool","name":"fulfilled","type":"bool"}],"stateMutability":"view","type":"function"},{"inputs":[{"internalType":"uint256","name":"productId","type":"uint256"}],"name":"getRetailerQuality","outputs":[{"components":[{"internalType":"uint256","name":"score","type":"uint256"},{"internalType":"enum AgriTraceLib.Grade","name":"grade","type":"uint8"},{"internalType":"string","name":"damageLevel","type":"string"},{"internalType":"uint256","name":"temperature","type":"uint256"},{"internalType":"uint256","name":"timestamp","type":"uint256"},{"internalType":"address","name":"assessor","type":"address"}],"internalType":"struct AgriTraceLib.Quality","name":"","type":"tuple"}],"stateMutability":"view","type":"function"},{"inputs":[{"internalType":"bytes32","name":"","type":"bytes32"}],"name":"mlRequestToProduct","outputs":[{"internalType":"uint256","name":"","type":"uint256"}],"stateMutability":"view","type":"function"},{"inputs":[{"internalType":"uint256","name":"","type":"uint256"}],"name":"productMLRequests","outputs":[{"internalType":"bytes32","name":"","type":"bytes32"}],"stateMutability":"view","type":"function"},{"inputs":[{"internalType":"uint256","name":"productId","type":"uint256"},{"internalType":"string","name":"imageUrl","type":"string"}],"name":"requestMLDamagePrediction","outputs":[{"internalType":"bytes32","name":"","type":"bytes32"}],"stateMutability":"nonpayable","type":"function"},{"inputs":[{"internalType":"uint256","name":"","type":"uint256"}],"name":"retailerQuality","outputs":[{"internalType":"uint256","name":"score","type":"uint256"},{"internalType":"enum AgriTraceLib.Grade","name":"grade","type":"uint8"},{"internalType":"string","name":"damageLevel","type":"string"},{"internalType":"uint256","name":"temperature","type":"uint256"},{"internalType":"uint256","name":"timestamp","type":"uint256"},{"internalType":"address","name":"assessor","type":"address"}],"stateMutability":"view","type":"function"},{"inputs":[{"internalType":"address","name":"_damageOracle","type":"address"}],"name":"setDamageDetectionOracle","outputs":[],"stateMutability":"nonpayable","type":"function"},{"inputs":[{"internalType":"address","name":"_temperatureOracle","type":"address"}],"name":"setTemperatureOracle","outputs":[],"stateMutability":"nonpayable","type":"function"},{"inputs":[{"internalType":"uint256","name":"productId","type":"uint256"},{"internalType":"bytes32","name":"mlRequestId","type":"bytes32"},{"internalType":"string","name":"damageLevel","type":"string"},{"internalType":"string","name":"ipfsHash","type":"string"}],"name":"storeDistributorQualityWithML","outputs":[],"stateMutability":"nonpayable","type":"function"},{"inputs":[{"internalType":"uint256","name":"productId","type":"uint256"},{"internalType":"uint256","name":"score","type":"uint256"},{"internalType":"string","name":"damageLevel","type":"string"},{"internalType":"string","name":"ipfsHash","type":"string"}],"name":"storeDistributorQualityWithOracle","outputs":[],"stateMutability":"nonpayable","type":"function"},{"inputs":[{"internalType":"uint256","name":"productId","type":"uint256"},{"internalType":"bytes32","name":"mlRequestId","type":"bytes32"},{"internalType":"string","name":"damageLevel","type":"string"},{"internalType":"string","name":"ipfsHash","type":"string"}],"name":"storeRetailerQualityWithML","outputs":[],"stateMutability":"nonpayable","type":"function"},{"inputs":[{"internalType":"uint256","name":"productId","type":"uint256"},{"internalType":"uint256","name":"score","type":"uint256"},{"internalType":"string","name":"damageLevel","type":"string"},{"internalType":"string","name":"ipfsHash","type":"string"}],"name":"storeRetailerQualityWithOracle","outputs":[],"stateMutability":"nonpayable","type":"function"},{"inputs":[],"name":"temperatureOracle","outputs":[{"internalType":"contract TemperatureOracle","name":"","type":"address"}],"stateMutability":"view","type":"function"}],"evm":{"bytecode":{"linkReferences":{},"object":"6080346200009657601f620030b738819003918201601f19168301916001600160401b038311848410176200009b57808492604094855283398101031262000096576200005a60206200005283620000b1565b9201620000b1565b600080546001600160a01b039384166001600160a01b03199182161790915560018054929093169116179055604051612ff09081620000c78239f35b600080fd5b634e487b7160e01b600052604160045260246000fd5b51906001600160a01b0382168203620000965756fe608080604052600436101561001357600080fd5b600090813560e01c9081630390a1bb14611d72575080631090f42114611d255780633d7766dd1461158557806340e288da1461155b5780635e66bdb314611532578063638a348c14611516578063662a43c7146112bf5780637d07dc82146112855780637d0caea71461125b57806380b31ebc146111ba5780638c301fbb14611184578063989ee4ea14611124578063b0f2208214611050578063b320b6fc14611027578063c86dc0a614610f77578063cc87c3361461099b578063d4a8ecbf14610144578063d8b5b5a71461011b5763e80db5db146100f257600080fd5b34610118578060031936011261011857546040516001600160a01b039091168152602090f35b80fd5b50346101185780600319360112610118576003546040516001600160a01b039091168152602090f35b50346101185760249061015636612454565b929096918660018060a01b0381541660405194858092632e76c56d60e21b82528a60048301525afa928315610605578793610977575b506101a560018060a01b0360c085015151163314612a1a565b602083015160038110156108515760016101bf9114612a59565b6101cc6064861115612aa5565b6002546001600160a01b0316926101e4841515612ae1565b600154604051630989042f60e01b8152600481018990526001600160a01b0390911690602081602481855afa90811561096c578a9161093a575b50156108fe5760206024916040519283809263fd291d6b60e01b82528c60048301525afa9081156108f35789916108b5575b50610865576040015160068110156108515760010361081357602060249360405194858092635610091360e01b82528a60048301525afa9283156106055787936107d6575b506102bd856102a5600197612df2565b968791898b52600460205260408b2090815501612b2d565b858752600460205260026040882001916001600160401b0382116107c25781906102e784546124ee565b601f8111610775575b508890601f831160011461070f578992610704575b50508160011b916000199060031b1c19161790555b838552600460205260056040862082600382015542600482015501336001600160601b0360a01b82541617905560018060a01b03855416803b1561060157908593929184604051809263037739bb60e41b82528860048301524260248301528160449889925af18015610605579087916106f0575b505085546001600160a01b0316803b1561061057866103d481928a6040519485809481936308e64ce760e21b83528d6004840152604060248401528a8d840191612b45565b03925af18015610605579087916106dc575b505085546001600160a01b0316803b1561061057868091866040518094819363cd970a6360e01b83528b6004840152610422602484018b612633565b5af18015610605579087916106c8575b505060051180156106a1575b958596600014610628576001546001600160a01b0316803b156106105786604051809263b1f6a98f60e01b8252886004830152604060248301528183816104a38b8201604090600e81526d145d585b1a5d1e4819985a5b195960921b60208201520190565b03925af1908115610605578791610614575b505085546001600160a01b031691823b1561061057868093866040518096819363bec514c360e01b83528b6004840152600360248401525af1801561060557869388916105e6575b505090600080516020612f9b8339815191529183600080516020612f5b833981519152604051602081528061055160208201604090600e81526d145d585b1a5d1e4819985a5b195960921b60208201520190565b0390a25b61056c604051928392604084526040840191612b45565b600160208301520390a283546001600160a01b0316803b156105e2576105b593856064926001829660405198899788966315ba312d60e01b885260048801526024870190612633565b8401525af180156105d7576105c75750f35b6105d090612528565b6101185780f35b6040513d84823e3d90fd5b8480fd5b6105f39192939450612528565b6106015790849186386104fd565b8580fd5b6040513d89823e3d90fd5b8680fd5b61061d90612528565b6106015785386104b5565b85546001600160a01b031691823b1561061057868093866040518096819363bec514c360e01b83528b6004840152600260248401525af180156106055786938891610686575b505090600080516020612f9b83398151915291610555565b6106939192939450612528565b61060157908491863861066e565b5060048210156106b4576003821461043e565b634e487b7160e01b85526021600452602485fd5b6106d190612528565b610601578538610432565b6106e590612528565b6106015785386103e6565b6106f990612528565b61060157853861038f565b013590503880610305565b848a5260208a208a9450915b601f198416851061075d576001945083601f19811610610743575b505050811b01905561031a565b0135600019600384901b60f8161c19169055388080610736565b8181013583556020948501946001909301920161071b565b90915083895260208920601f840160051c8101602085106107bb575b90849392915b601f830160051c820181106107ad5750506102f0565b8b8155859450600101610797565b5080610791565b634e487b7160e01b88526041600452602488fd5b9492506020853d60201161080b575b816107f26020938361256c565b8101031261080657935191936102bd610295565b600080fd5b3d91506107e5565b60405162461bcd60e51b81526020600482015260166024820152754d75737420626520726563656976656420737461746560501b6044820152606490fd5b634e487b7160e01b88526021600452602488fd5b60405162461bcd60e51b815260206004820152602260248201527f50726f6475637420616c72656164792072656d6f7665642066726f6d206261746044820152610c6d60f31b6064820152608490fd5b90506020813d6020116108eb575b816108d06020938361256c565b810103126108e7576108e190612749565b38610250565b8880fd5b3d91506108c3565b6040513d8b823e3d90fd5b60405162461bcd60e51b81526020600482015260146024820152730a0e4dec8eac6e840dcdee840d2dc40c4c2e8c6d60631b6044820152606490fd5b90506020813d602011610964575b816109556020938361256c565b8101031261080657513861021e565b3d9150610948565b6040513d8c823e3d90fd5b6109949193503d8089833e61098c818361256c565b8101906127ca565b913861018c565b5034610118576109aa36612454565b9160248760018060a09a999897959a1b0381541660405192838092632e76c56d60e21b82528a60048301525afa90811561060557906020918891610f5d575b50610a0260018060a01b0360e083015151163314612b66565b01516003811015610f495790610a1d60026024949314612ba2565b610a2a6064861115612aa5565b6002546020906001600160a01b0316610a44811515612ae1565b60405194858092635610091360e01b82528a60048301525afa928315610605578793610f11575b50610a9385610a7b600197612df2565b968791898b52600560205260408b2090815501612b2d565b858752600560205260026040882001916001600160401b0382116107c2578190610abd84546124ee565b601f8111610ec4575b508890601f8311600114610e5e578992610e53575b50508160011b916000199060031b1c19161790555b8385526005602081905260408620600381018390554260048201550180546001600160a01b0319163317905584546001600160a01b0316803b156106015790859392918460405180926323dafd7960e11b82528860048301524260248301528160449889925af1801561060557908791610e3f575b505085546001600160a01b0316803b156106105786610baa81928a604051948580948193631e50943760e01b83528d6004840152604060248401528a8d840191612b45565b03925af1801561060557908791610e2b575b505085546001600160a01b0316803b1561061057868091866040518094819363cd970a6360e01b83528b6004840152610bf8602484018b612633565b5af1801561060557908791610e17575b50506005118015610e04575b958596600014610d8b5785546001600160a01b0316803b1561061057868091602460405180948193637ebbf2ef60e11b83528b60048401525af1908115610605578791610d77575b505085546001600160a01b031691823b1561061057868093866040518096819363bec514c360e01b83528b6004840152600360248401525af180156106055786938891610d5c575b505090600080516020612f9b8339815191529183600080516020612f5b8339815191526040516020815280610cf860208201604090600e81526d145d585b1a5d1e4819985a5b195960921b60208201520190565b0390a25b610d13604051928392604084526040840191612b45565b600260208301520390a283546001600160a01b0316803b156105e2576105b593856064926002829660405198899788966315ba312d60e01b885260048801526024870190612633565b610d699192939450612528565b610601579084918638610ca4565b610d8090612528565b610601578538610c5c565b85546001600160a01b031691823b1561061057868093866040518096819363bec514c360e01b83528b6004840152600260248401525af180156106055786938891610de9575b505090600080516020612f9b83398151915291610cfc565b610df69192939450612528565b610601579084918638610dd1565b5060048210156106b45760038214610c14565b610e2090612528565b610601578538610c08565b610e3490612528565b610601578538610bbc565b610e4890612528565b610601578538610b65565b013590503880610adb565b848a5260208a208a9450915b601f1984168510610eac576001945083601f19811610610e92575b505050811b019055610af0565b0135600019600384901b60f8161c19169055388080610e85565b81810135835560209485019460019093019201610e6a565b90915083895260208920601f840160051c810160208510610f0a575b90849392915b601f830160051c82018110610efc575050610ac6565b8b8155859450600101610ee6565b5080610ee0565b9492506020853d602011610f41575b81610f2d6020938361256c565b810103126108065793519193610a93610a6b565b3d9150610f20565b634e487b7160e01b87526021600452602487fd5b610f7191503d808a833e61098c818361256c565b386109e9565b503461011857602036600319011261011857610f91612f28565b50600435815260056020526040812060405190610fad82612551565b8054825260ff60018201541660048110156110135761100f93506020830152610fd86002820161258d565b60408301526003810154606083015260048101546080830152600560018060a01b039101541660a08201526040519182918261269a565b0390f35b634e487b7160e01b84526021600452602484fd5b50346101185780600319360112610118576002546040516001600160a01b039091168152602090f35b5034610118576020366003190112610118576004356001600160a01b038181169182900361112057602060249184541660405192838092634427673360e01b82523360048301525afa9081156111155783916110e7575b5060058110156110d35760046110bd9114612710565b6001600160601b0360a01b600354161760035580f35b634e487b7160e01b83526021600452602483fd5b611108915060203d811161110e575b611100818361256c565b8101906126f8565b386110a7565b503d6110f6565b6040513d85823e3d90fd5b8280fd5b5034610118576020366003190112610118576040906004358152600460205220805461100f60ff6001840154169261115e6002820161258d565b906003810154600482015491600560018060a01b03910154169260405196879687612656565b50346101185760203660031901126101185761119e612f28565b50600435815260046020526040812060405190610fad82612551565b5034610118576020366003190112610118576004356001600160a01b038181169182900361112057602060249184541660405192838092634427673360e01b82523360048301525afa90811561111557839161123d575b5060058110156110d35760046112279114612710565b6001600160601b0360a01b600254161760025580f35b611255915060203d811161110e57611100818361256c565b38611211565b50346101185760203660031901126101185760406020916004358152600783522054604051908152f35b5034610118576020366003190112610118576040906004358152600560205220805461100f60ff6001840154169261115e6002820161258d565b503461011857604036600319011261011857600435906024356001600160401b038111611512576112f4903690600401612427565b909260018060a01b036024848281541660405192838092632e76c56d60e21b82528760048301525afa9081156115075785916114ed575b506080810151156114b3578160c0820151511633149081156114a2575b501561145d57600354169161135e831515612be5565b604051630c52c7d560e31b81526020600482018190529490938590859081848161138c60248201898e612b45565b03925af19384156114505781946113fd575b50947ff87dafd8e601aa70c46e6c3bb0c6da1bdc4482ed21aadf651349dbbc2695024a91836040888288999a5260068a52878282205587815260078a5220556113f260405192839289845289840191612b45565b0390a3604051908152f35b9093508481813d8311611449575b611415818361256c565b810103126114455751927ff87dafd8e601aa70c46e6c3bb0c6da1bdc4482ed21aadf651349dbbc2695024a61139e565b8380fd5b503d61140b565b50604051903d90823e3d90fd5b60405162461bcd60e51b815260206004820152601f60248201527f4e6f7420617574686f72697a656420666f7220746869732070726f64756374006044820152606490fd5b60e001515182163314905038611348565b60405162461bcd60e51b815260206004820152601260248201527150726f64756374206e6f742061637469766560701b6044820152606490fd5b61150191503d8087833e61098c818361256c565b3861132b565b6040513d87823e3d90fd5b5080fd5b5034610118578060031936011261011857602060405160058152f35b50346101185780600319360112610118576001546040516001600160a01b039091168152602090f35b50346101185760203660031901126101185760406020916004358152600683522054604051908152f35b50346101185761159436612454565b90919395949260248660018060a01b0381541660405192838092632e76c56d60e21b82528960048301525afa90811561060557906020918891611d0b575b506115eb60018060a01b0360c083015151163314612a1a565b01516003811015610f495760016116029114612a59565b838652600660205261161987604088205414612c25565b6003546001600160a01b0316968690611633891515612be5565b6024604051809a819363dc6423ab60e01b835260048301525afa908115611d00578697879288918991611ccb575b509061166f61167692612ca7565b1515612cf3565b6064881115611ca15760249087965b600254604051635610091360e01b8152600481018990529360209185919082906001600160a01b03165afa9283156108f3578993611c69575b506116e6886116ce60019a612df2565b998a918a8d52600460205260408d2090815501612b2d565b8689526004602052600260408a2001916001600160401b038211611c5557819061171084546124ee565b601f8111611c07575b508a90601f8311600114611ba1578b92611b96575b50508160011b916000199060031b1c19161790555b848752600460205260056040882082600382015542600482015501336001600160601b0360a01b82541617905560018060a01b03875416803b15611a885787809160446040518094819363037739bb60e41b83528b60048401524260248401525af18015611a7d57908891611b82575b505086546001600160a01b0316803b15611a88578760405180926308e64ce760e21b8252886004830152604060248301528183816117f5604482018b8d612b45565b03925af18015611a7d57908891611b6e575b505086546001600160a01b0316803b15611a885787809160446040518094819363cd970a6360e01b83528b60048401526118458d6024850190612633565b5af18015611a7d57908891611b5a575b50506005118015611b33575b968787989015611b29575b15611aa0576001546001600160a01b0316803b15611a885787809160846040518094819363b1f6a98f60e01b83528b600484015260406024840152601760448401527f4d4c20646574656374656420686967682064616d61676500000000000000000060648401525af1908115611a7d578891611a8c575b505086546001600160a01b031692833b15611a885787809460446040518097819363bec514c360e01b83528b6004840152600360248401525af18015611a7d5786948991611a64575b505092600080516020612f9b8339815191528195600080516020612f7b8339815191529583600080516020612f5b8339815191526119c861196d88612e22565b6119b46031604051809370026a6103230b6b0b3b29039b1b7b9329d1607d1b60208301526119a481518092602086860191016124a6565b810103601181018452018261256c565b6040519182916020835260208301906124c9565b0390a25b6119e3604051928392604084526040840191612b45565b600160208301520390a2611a0960405192839283526040602084015260408301906124c9565b0390a282546001600160a01b031691823b15611a5f576064849283611a499560405196879586946315ba312d60e01b865260048601526024850190612633565b600160448401525af180156105d7576105c75750f35b505050fd5b611a7091929550612528565b610610578492873861192d565b6040513d8a823e3d90fd5b8780fd5b611a9590612528565b6106105786386118e4565b86546001600160a01b031692833b15611a885787809460446040518097819363bec514c360e01b83528b6004840152600260248401525af18015611a7d5786948991611b10575b505092600080516020612f9b8339815191528195600080516020612f7b833981519152956119cc565b611b1c91929550612528565b6106105784928738611ae7565b50604b811161186c565b506004851015611b465760038514611861565b634e487b7160e01b86526021600452602486fd5b611b6390612528565b610610578638611855565b611b7790612528565b610610578638611807565b611b8b90612528565b6106105786386117b3565b01359050388061172e565b848c5260208c208c9450915b601f1984168510611bef576001945083601f19811610611bd5575b505050811b019055611743565b0135600019600384901b60f8161c19169055388080611bc8565b81810135835560209485019460019093019201611bad565b909150838b5260208b20601f840160051c810160208510611c4e575b90849392915b8d601f840160051c83018210611c4157505050611719565b8155859450600101611c29565b5080611c23565b634e487b7160e01b8a52604160045260248afd5b9792506020883d602011611c99575b81611c856020938361256c565b8101031261080657965191966116e66116be565b3d9150611c78565b8760640360648111611cb7579060249196611685565b634e487b7160e01b88526011600452602488fd5b9050611676995061166f9350611cf391503d808a833e611ceb818361256c565b810190612c66565b929a509093909190611661565b6040513d88823e3d90fd5b611d1f91503d808a833e61098c818361256c565b386115d2565b503461011857602036600319011261011857611d66611d45600435612d34565b919390604051948594855260208501526080604085015260808401906124c9565b90151560608301520390f35b90503461151257611d8236612454565b9196949395858160248160018060a09997991b03845416632e76c56d60e21b82528960048301525afa908115611d005790602091879161240d575b50611dd660018060a01b0360e083015151163314612b66565b01516003811015611b46576002611ded9114612ba2565b8385526006602052611e0486604087205414612c25565b6003546001600160a01b0316958590611e1e881515612be5565b60246040518099819363dc6423ab60e01b835260048301525afa9081156115075785968692879188916123e0575b509061166f611e5a92612ca7565b60648711156123b65760249086985b600254604051635610091360e01b8152600481018990529360209185919082906001600160a01b03165afa928315611a7d57889361237e575b50611ecc8a611eb460019a9b9c612df2565b998a918a8d52600560205260408d2090815501612b2d565b8689526005602052600260408a2001916001600160401b038211611c55578190611ef684546124ee565b601f8111612330575b508a90601f83116001146122ca578b926122bf575b50508160011b916000199060031b1c19161790555b8487526005602081905260408820600381018390554260048201550180546001600160a01b0319163317905586546001600160a01b0316803b15611a88578780916044604051809481936323dafd7960e11b83528b60048401524260248401525af18015611a7d576122ac575b5086546001600160a01b0316803b15611a8857876040518092631e50943760e01b825288600483015260406024830152818381611fd7604482018b8d612b45565b03925af18015611a7d57908891612298575b505086546001600160a01b0316803b15611a885787809160446040518094819363cd970a6360e01b83528b60048401526120278d6024850190612633565b5af18015611a7d57908891612284575b50506005118015612271575b968787989015612267575b156121de5786546001600160a01b0316803b15611a8857878091602460405180948193637ebbf2ef60e11b83528b60048401525af1908115611a7d5788916121ca575b505086546001600160a01b031692833b15611a885787809460446040518097819363bec514c360e01b83528b6004840152600360248401525af18015611a7d57869489916121b1575b505092600080516020612f9b8339815191528195600080516020612f7b8339815191529583600080516020612f5b83398151915261211a61196d88612e22565b0390a25b612135604051928392604084526040840191612b45565b600260208301520390a261215b60405192839283526040602084015260408301906124c9565b0390a282546001600160a01b031691823b15611a5f57606484928361219b9560405196879586946315ba312d60e01b865260048601526024850190612633565b600260448401525af180156105d7576105c75750f35b6121bd91929550612528565b61061057849287386120da565b6121d390612528565b610610578638612091565b86546001600160a01b031692833b15611a885787809460446040518097819363bec514c360e01b83528b6004840152600260248401525af18015611a7d578694899161224e575b505092600080516020612f9b8339815191528195600080516020612f7b8339815191529561211e565b61225a91929550612528565b6106105784928738612225565b50604b811161204e565b506004851015611b465760038514612043565b61228d90612528565b610610578638612037565b6122a190612528565b610610578638611fe9565b6122b890979197612528565b9538611f96565b013590503880611f14565b848c5260208c208c9450915b601f1984168510612318576001945083601f198116106122fe575b505050811b019055611f29565b0135600019600384901b60f8161c191690553880806122f1565b818101358355602094850194600190930192016122d6565b909150838b5260208b20601f840160051c810160208510612377575b90849392915b8d601f840160051c8301821061236a57505050611eff565b8155859450600101612352565b508061234c565b99925060208a3d6020116123ae575b8161239a6020938361256c565b81010312611a885798519198611ecc611ea2565b3d915061238d565b86606403606481116123cc579060249198611e69565b634e487b7160e01b87526011600452602487fd5b9050611e5a985061166f935061240091503d8089833e611ceb818361256c565b9299509093909190611e4c565b61242191503d8089833e61098c818361256c565b38611dbd565b9181601f84011215610806578235916001600160401b038311610806576020838186019501011161080657565b60806003198201126108065760043591602435916001600160401b0391604435838111610806578261248891600401612427565b93909392606435918211610806576124a291600401612427565b9091565b60005b8381106124b95750506000910152565b81810151838201526020016124a9565b906020916124e2815180928185528580860191016124a6565b601f01601f1916010190565b90600182811c9216801561251e575b602083101461250857565b634e487b7160e01b600052602260045260246000fd5b91607f16916124fd565b6001600160401b03811161253b57604052565b634e487b7160e01b600052604160045260246000fd5b60c081019081106001600160401b0382111761253b57604052565b90601f801991011681019081106001600160401b0382111761253b57604052565b90604051918260008254926125a1846124ee565b90818452600194858116908160001461261057506001146125cd575b50506125cb9250038361256c565b565b9093915060005260209081600020936000915b8183106125f85750506125cb935082010138806125bd565b855488840185015294850194879450918301916125e0565b9150506125cb94506020925060ff191682840152151560051b82010138806125bd565b9060048210156126405752565b634e487b7160e01b600052602160045260246000fd5b94919261267260a0959897946126839388526020880190612633565b60c0604087015260c08601906124c9565b9560608501526080840152600180831b0316910152565b60208152815160208201526126b760208301516040830190612633565b60c06126d1604084015182606085015260e08401906124c9565b9260608101516080840152608081015160a084015260a0600180821b039101511691015290565b90816020910312610806575160058110156108065790565b1561271757565b60405162461bcd60e51b815260206004820152600a60248201526927b7363c9030b236b4b760b11b6044820152606490fd5b5190811515820361080657565b6001600160401b03811161253b57601f01601f191660200190565b81601f8201121561080657805161278781612756565b92612795604051948561256c565b81845260208284010111610806576127b391602080850191016124a6565b90565b51906001600160a01b038216820361080657565b9060209081838203126108065782516001600160401b03938482116108065701808203926102a08412610806576040938451956101a0918288018881108382111761253b5787528451885283850151600381101561080657848901528685015160068110156108065787890152606080860151600481101561080657818a0152608090612858828801612749565b828b015260a087015184811161080657870160e0818a03126108065789519060e082018281108782111761253b578b528051868111610806578a61289d918301612771565b82526128aa8882016127b6565b888301528a8101518b83015282810151838301528381015190868211610806576128d88b60c0938301612771565b8584015260a081015160a0840152015160c082015260a08b01528160bf19840112610806578851918083018381108682111761253b578b9460c0918c52612920828b016127b6565b855260e08a01518986015261010094858b01518d8201528261012097888d015187840152015261013f1901126108065789519161295c83612551565b6101409661296b888b016127b6565b845261016098898b0151908501526101809b8c8b015190850152890151908301526129996101c089016127b6565b908201526101e087015160a082015260e08a015261020086015183811161080657876129c6918801612771565b9089015261022085015182811161080657866129e3918701612771565b908801526102408401519081116108065761028094612a03918501612771565b908601526102608201519085015201519082015290565b15612a2157565b60405162461bcd60e51b815260206004820152601060248201526f27b7363c903234b9ba3934b13aba37b960811b6044820152606490fd5b15612a6057565b60405162461bcd60e51b815260206004820152601a60248201527f4d75737420626520444953545249425554494f4e2073746167650000000000006044820152606490fd5b15612aac57565b60405162461bcd60e51b815260206004820152600d60248201526c496e76616c69642073636f726560981b6044820152606490fd5b15612ae857565b60405162461bcd60e51b815260206004820152601a60248201527f54656d7065726174757265206f7261636c65206e6f74207365740000000000006044820152606490fd5b9060048110156126405760ff80198354169116179055565b908060209392818452848401376000828201840152601f01601f1916010190565b15612b6d57565b60405162461bcd60e51b815260206004820152600d60248201526c27b7363c903932ba30b4b632b960991b6044820152606490fd5b15612ba957565b60405162461bcd60e51b81526020600482015260146024820152734d7573742062652052455441494c20737461676560601b6044820152606490fd5b15612bec57565b60405162461bcd60e51b815260206004820152601160248201527013530813dc9858db19481b9bdd081cd95d607a1b6044820152606490fd5b15612c2c57565b60405162461bcd60e51b8152602060048201526012602482015271125b9d985b1a59081353081c995c5d595cdd60721b6044820152606490fd5b919091608081840312610806578051926020820151906001600160401b03821161080657612c95918301612771565b916127b3606060408401519301612749565b15612cae57565b60405162461bcd60e51b815260206004820152601f60248201527f4d4c2070726564696374696f6e206e6f742066756c66696c6c656420796574006044820152606490fd5b15612cfa57565b60405162461bcd60e51b815260206004820152601260248201527124b73b30b634b210383932b234b1ba34b7b760711b6044820152606490fd5b6000908152600660205260408120548015612db65760035460405163dc6423ab60e01b81526004810183905293908390859060249082906001600160a01b03165afa918215611115578394848094612d8f575b505093929190565b919450919450612da992503d8091833e611ceb818361256c565b9294919390503880612d87565b5090818091604051602081018181106001600160401b03821117612dde576040528281529190565b634e487b7160e01b84526041600452602484fd5b6055811015612e1c576046811015612e165760371115612e1157600390565b600290565b50600190565b50600090565b8015612efa5780816000925b612ee25750612e3c82612756565b91612e4a604051938461256c565b80835281601f19612e5a83612756565b01916020923684870137905b612e705750505090565b6000198101908111612ecc578092600a9160308383068101809111612ecc578651821015612eb65760f81b6001600160f81b03191660001a908601840153049182612e66565b634e487b7160e01b600052603260045260246000fd5b634e487b7160e01b600052601160045260246000fd5b916000198114612ecc576001600a9101920480612e2e565b50604051604081018181106001600160401b0382111761253b5760405260018152600360fc1b602082015290565b60405190612f3582612551565b600060a08382815282602082015260606040820152826060820152826080820152015256fe4429de7967bfe786ec4ac3f822cf4b26a0ed6a63a7dbbba03684bbf771e93ce3ba19d0608f458062e779d55d3d8490674e11da8fb0fa4b55088f41117ac250fc540105ff02eed8665666e5b20a0955668c4452dd216f3f7846996f9057b8e093a26469706673582212203d3095fd07921be4fa4b3bef41c42a849056b705ec19b52d2a45cc0fce697c8264736f6c63430008130033","opcodes":"PUSH1 0x80 CALLVALUE PUSH3 0x96 JUMPI PUSH1 0x1F PUSH3 0x30B7 CODESIZE DUP2 SWAP1 SUB SWAP2 DUP3 ADD PUSH1 0x1F NOT AND DUP4 ADD SWAP2 PUSH1 0x1 PUSH1 0x1 PUSH1 0x40 SHL SUB DUP4 GT DUP5 DUP5 LT OR PUSH3 0x9B JUMPI DUP1 DUP5 SWAP3 PUSH1 0x40 SWAP5 DUP6 MSTORE DUP4 CODECOPY DUP2 ADD SUB SLT PUSH3 0x96 JUMPI PUSH3 0x5A PUSH1 0x20 PUSH3 0x52 DUP4 PUSH3 0xB1 JUMP JUMPDEST SWAP3 ADD PUSH3 0xB1 JUMP JUMPDEST PUSH1 0x0 DUP1 SLOAD PUSH1 0x1 PUSH1 0x1 PUSH1 0xA0 SHL SUB SWAP4 DUP5 AND PUSH1 0x1 PUSH1 0x1 PUSH1 0xA0 SHL SUB NOT SWAP2 DUP3 AND OR SWAP1 SWAP2 SSTORE PUSH1 0x1 DUP1 SLOAD SWAP3 SWAP1 SWAP4 AND SWAP2 AND OR SWAP1 SSTORE PUSH1 0x40 MLOAD PUSH2 0x2FF0 SWAP1 DUP2 PUSH3 0xC7 DUP3 CODECOPY RETURN JUMPDEST PUSH1 0x0 DUP1 REVERT JUMPDEST PUSH4 0x4E487B71 PUSH1 0xE0 SHL PUSH1 0x0 MSTORE PUSH1 0x41 PUSH1 0x4 MSTORE PUSH1 0x24 PUSH1 0x0 REVERT JUMPDEST MLOAD SWAP1 PUSH1 0x1 PUSH1 0x1 PUSH1 0xA0 SHL SUB DUP3 AND DUP3 SUB PUSH3 0x96 JUMPI JUMP INVALID PUSH1 0x80 DUP1 PUSH1 0x40 MSTORE PUSH1 0x4 CALLDATASIZE LT ISZERO PUSH2 0x13 JUMPI PUSH1 0x0 DUP1 REVERT JUMPDEST PUSH1 0x0 SWAP1 DUP2 CALLDATALOAD PUSH1 0xE0 SHR SWAP1 DUP2 PUSH4 0x390A1BB EQ PUSH2 0x1D72 JUMPI POP DUP1 PUSH4 0x1090F421 EQ PUSH2 0x1D25 JUMPI DUP1 PUSH4 0x3D7766DD EQ PUSH2 0x1585 JUMPI DUP1 PUSH4 0x40E288DA EQ PUSH2 0x155B JUMPI DUP1 PUSH4 0x5E66BDB3 EQ PUSH2 0x1532 JUMPI DUP1 PUSH4 0x638A348C EQ PUSH2 0x1516 JUMPI DUP1 PUSH4 0x662A43C7 EQ PUSH2 0x12BF JUMPI DUP1 PUSH4 0x7D07DC82 EQ PUSH2 0x1285 JUMPI DUP1 PUSH4 0x7D0CAEA7 EQ PUSH2 0x125B JUMPI DUP1 PUSH4 0x80B31EBC EQ PUSH2 0x11BA JUMPI DUP1 PUSH4 0x8C301FBB EQ PUSH2 0x1184 JUMPI DUP1 PUSH4 0x989EE4EA EQ PUSH2 0x1124 JUMPI DUP1 PUSH4 0xB0F22082 EQ PUSH2 0x1050 JUMPI DUP1 PUSH4 0xB320B6FC EQ PUSH2 0x1027 JUMPI DUP1 PUSH4 0xC86DC0A6 EQ PUSH2 0xF77 JUMPI DUP1 PUSH4 0xCC87C336 EQ PUSH2 0x99B JUMPI DUP1 PUSH4 0xD4A8ECBF EQ PUSH2 0x144 JUMPI DUP1 PUSH4 0xD8B5B5A7 EQ PUSH2 0x11B JUMPI PUSH4 0xE80DB5DB EQ PUSH2 0xF2 JUMPI PUSH1 0x0 DUP1 REVERT JUMPDEST CALLVALUE PUSH2 0x118 JUMPI DUP1 PUSH1 0x3 NOT CALLDATASIZE ADD SLT PUSH2 0x118 JUMPI SLOAD PUSH1 0x40 MLOAD PUSH1 0x1 PUSH1 0x1 PUSH1 0xA0 SHL SUB SWAP1 SWAP2 AND DUP2 MSTORE PUSH1 0x20 SWAP1 RETURN JUMPDEST DUP1 REVERT JUMPDEST POP CALLVALUE PUSH2 0x118 JUMPI DUP1 PUSH1 0x3 NOT CALLDATASIZE ADD SLT PUSH2 0x118 JUMPI PUSH1 0x3 SLOAD PUSH1 0x40 MLOAD PUSH1 0x1 PUSH1 0x1 PUSH1 0xA0 SHL SUB SWAP1 SWAP2 AND DUP2 MSTORE PUSH1 0x20 SWAP1 RETURN JUMPDEST POP CALLVALUE PUSH2 0x118 JUMPI PUSH1 0x24 SWAP1 PUSH2 0x156 CALLDATASIZE PUSH2 0x2454 JUMP JUMPDEST SWAP3 SWAP1 SWAP7 SWAP2 DUP7 PUSH1 0x1 DUP1 PUSH1 0xA0 SHL SUB DUP2 SLOAD AND PUSH1 0x40 MLOAD SWAP5 DUP6 DUP1 SWAP3 PUSH4 0x2E76C56D PUSH1 0xE2 SHL DUP3 MSTORE DUP11 PUSH1 0x4 DUP4 ADD MSTORE GAS STATICCALL SWAP3 DUP4 ISZERO PUSH2 0x605 JUMPI DUP8 SWAP4 PUSH2 0x977 JUMPI JUMPDEST POP PUSH2 0x1A5 PUSH1 0x1 DUP1 PUSH1 0xA0 SHL SUB PUSH1 0xC0 DUP6 ADD MLOAD MLOAD AND CALLER EQ PUSH2 0x2A1A JUMP JUMPDEST PUSH1 0x20 DUP4 ADD MLOAD PUSH1 0x3 DUP2 LT ISZERO PUSH2 0x851 JUMPI PUSH1 0x1 PUSH2 0x1BF SWAP2 EQ PUSH2 0x2A59 JUMP JUMPDEST PUSH2 0x1CC PUSH1 0x64 DUP7 GT ISZERO PUSH2 0x2AA5 JUMP JUMPDEST PUSH1 0x2 SLOAD PUSH1 0x1 PUSH1 0x1 PUSH1 0xA0 SHL SUB AND SWAP3 PUSH2 0x1E4 DUP5 ISZERO ISZERO PUSH2 0x2AE1 JUMP JUMPDEST PUSH1 0x1 SLOAD PUSH1 0x40 MLOAD PUSH4 0x989042F PUSH1 0xE0 SHL DUP2 MSTORE PUSH1 0x4 DUP2 ADD DUP10 SWAP1 MSTORE PUSH1 0x1 PUSH1 0x1 PUSH1 0xA0 SHL SUB SWAP1 SWAP2 AND SWAP1 PUSH1 0x20 DUP2 PUSH1 0x24 DUP2 DUP6 GAS STATICCALL SWAP1 DUP2 ISZERO PUSH2 0x96C JUMPI DUP11 SWAP2 PUSH2 0x93A JUMPI JUMPDEST POP ISZERO PUSH2 0x8FE JUMPI PUSH1 0x20 PUSH1 0x24 SWAP2 PUSH1 0x40 MLOAD SWAP3 DUP4 DUP1 SWAP3 PUSH4 0xFD291D6B PUSH1 0xE0 SHL DUP3 MSTORE DUP13 PUSH1 0x4 DUP4 ADD MSTORE GAS STATICCALL SWAP1 DUP2 ISZERO PUSH2 0x8F3 JUMPI DUP10 SWAP2 PUSH2 0x8B5 JUMPI JUMPDEST POP PUSH2 0x865 JUMPI PUSH1 0x40 ADD MLOAD PUSH1 0x6 DUP2 LT ISZERO PUSH2 0x851 JUMPI PUSH1 0x1 SUB PUSH2 0x813 JUMPI PUSH1 0x20 PUSH1 0x24 SWAP4 PUSH1 0x40 MLOAD SWAP5 DUP6 DUP1 SWAP3 PUSH4 0x56100913 PUSH1 0xE0 SHL DUP3 MSTORE DUP11 PUSH1 0x4 DUP4 ADD MSTORE GAS STATICCALL SWAP3 DUP4 ISZERO PUSH2 0x605 JUMPI DUP8 SWAP4 PUSH2 0x7D6 JUMPI JUMPDEST POP PUSH2 0x2BD DUP6 PUSH2 0x2A5 PUSH1 0x1 SWAP8 PUSH2 0x2DF2 JUMP JUMPDEST SWAP7 DUP8 SWAP2 DUP10 DUP12 MSTORE PUSH1 0x4 PUSH1 0x20 MSTORE PUSH1 0x40 DUP12 KECCAK256 SWAP1 DUP2 SSTORE ADD PUSH2 0x2B2D JUMP JUMPDEST DUP6 DUP8 MSTORE PUSH1 0x4 PUSH1 0x20 MSTORE PUSH1 0x2 PUSH1 0x40 DUP9 KECCAK256 ADD SWAP2 PUSH1 0x1 PUSH1 0x1 PUSH1 0x40 SHL SUB DUP3 GT PUSH2 0x7C2 JUMPI DUP2 SWAP1 PUSH2 0x2E7 DUP5 SLOAD PUSH2 0x24EE JUMP JUMPDEST PUSH1 0x1F DUP2 GT PUSH2 0x775 JUMPI JUMPDEST POP DUP9 SWAP1 PUSH1 0x1F DUP4 GT PUSH1 0x1 EQ PUSH2 0x70F JUMPI DUP10 SWAP3 PUSH2 0x704 JUMPI JUMPDEST POP POP DUP2 PUSH1 0x1 SHL SWAP2 PUSH1 0x0 NOT SWAP1 PUSH1 0x3 SHL SHR NOT AND OR SWAP1 SSTORE JUMPDEST DUP4 DUP6 MSTORE PUSH1 0x4 PUSH1 0x20 MSTORE PUSH1 0x5 PUSH1 0x40 DUP7 KECCAK256 DUP3 PUSH1 0x3 DUP3 ADD SSTORE TIMESTAMP PUSH1 0x4 DUP3 ADD SSTORE ADD CALLER PUSH1 0x1 PUSH1 0x1 PUSH1 0x60 SHL SUB PUSH1 0xA0 SHL DUP3 SLOAD AND OR SWAP1 SSTORE PUSH1 0x1 DUP1 PUSH1 0xA0 SHL SUB DUP6 SLOAD AND DUP1 EXTCODESIZE ISZERO PUSH2 0x601 JUMPI SWAP1 DUP6 SWAP4 SWAP3 SWAP2 DUP5 PUSH1 0x40 MLOAD DUP1 SWAP3 PUSH4 0x37739BB PUSH1 0xE4 SHL DUP3 MSTORE DUP9 PUSH1 0x4 DUP4 ADD MSTORE TIMESTAMP PUSH1 0x24 DUP4 ADD MSTORE DUP2 PUSH1 0x44 SWAP9 DUP10 SWAP3 GAS CALL DUP1 ISZERO PUSH2 0x605 JUMPI SWAP1 DUP8 SWAP2 PUSH2 0x6F0 JUMPI JUMPDEST POP POP DUP6 SLOAD PUSH1 0x1 PUSH1 0x1 PUSH1 0xA0 SHL SUB AND DUP1 EXTCODESIZE ISZERO PUSH2 0x610 JUMPI DUP7 PUSH2 0x3D4 DUP2 SWAP3 DUP11 PUSH1 0x40 MLOAD SWAP5 DUP6 DUP1 SWAP5 DUP2 SWAP4 PUSH4 0x8E64CE7 PUSH1 0xE2 SHL DUP4 MSTORE DUP14 PUSH1 0x4 DUP5 ADD MSTORE PUSH1 0x40 PUSH1 0x24 DUP5 ADD MSTORE DUP11 DUP14 DUP5 ADD SWAP2 PUSH2 0x2B45 JUMP JUMPDEST SUB SWAP3 GAS CALL DUP1 ISZERO PUSH2 0x605 JUMPI SWAP1 DUP8 SWAP2 PUSH2 0x6DC JUMPI JUMPDEST POP POP DUP6 SLOAD PUSH1 0x1 PUSH1 0x1 PUSH1 0xA0 SHL SUB AND DUP1 EXTCODESIZE ISZERO PUSH2 0x610 JUMPI DUP7 DUP1 SWAP2 DUP7 PUSH1 0x40 MLOAD DUP1 SWAP5 DUP2 SWAP4 PUSH4 0xCD970A63 PUSH1 0xE0 SHL DUP4 MSTORE DUP12 PUSH1 0x4 DUP5 ADD MSTORE PUSH2 0x422 PUSH1 0x24 DUP5 ADD DUP12 PUSH2 0x2633 JUMP JUMPDEST GAS CALL DUP1 ISZERO PUSH2 0x605 JUMPI SWAP1 DUP8 SWAP2 PUSH2 0x6C8 JUMPI JUMPDEST POP POP PUSH1 0x5 GT DUP1 ISZERO PUSH2 0x6A1 JUMPI JUMPDEST SWAP6 DUP6 SWAP7 PUSH1 0x0 EQ PUSH2 0x628 JUMPI PUSH1 0x1 SLOAD PUSH1 0x1 PUSH1 0x1 PUSH1 0xA0 SHL SUB AND DUP1 EXTCODESIZE ISZERO PUSH2 0x610 JUMPI DUP7 PUSH1 0x40 MLOAD DUP1 SWAP3 PUSH4 0xB1F6A98F PUSH1 0xE0 SHL DUP3 MSTORE DUP9 PUSH1 0x4 DUP4 ADD MSTORE PUSH1 0x40 PUSH1 0x24 DUP4 ADD MSTORE DUP2 DUP4 DUP2 PUSH2 0x4A3 DUP12 DUP3 ADD PUSH1 0x40 SWAP1 PUSH1 0xE DUP2 MSTORE PUSH14 0x145D585B1A5D1E4819985A5B1959 PUSH1 0x92 SHL PUSH1 0x20 DUP3 ADD MSTORE ADD SWAP1 JUMP JUMPDEST SUB SWAP3 GAS CALL SWAP1 DUP2 ISZERO PUSH2 0x605 JUMPI DUP8 SWAP2 PUSH2 0x614 JUMPI JUMPDEST POP POP DUP6 SLOAD PUSH1 0x1 PUSH1 0x1 PUSH1 0xA0 SHL SUB AND SWAP2 DUP3 EXTCODESIZE ISZERO PUSH2 0x610 JUMPI DUP7 DUP1 SWAP4 DUP7 PUSH1 0x40 MLOAD DUP1 SWAP7 DUP2 SWAP4 PUSH4 0xBEC514C3 PUSH1 0xE0 SHL DUP4 MSTORE DUP12 PUSH1 0x4 DUP5 ADD MSTORE PUSH1 0x3 PUSH1 0x24 DUP5 ADD MSTORE GAS CALL DUP1 ISZERO PUSH2 0x605 JUMPI DUP7 SWAP4 DUP9 SWAP2 PUSH2 0x5E6 JUMPI JUMPDEST POP POP SWAP1 PUSH1 0x0 DUP1 MLOAD PUSH1 0x20 PUSH2 0x2F9B DUP4 CODECOPY DUP2 MLOAD SWAP2 MSTORE SWAP2 DUP4 PUSH1 0x0 DUP1 MLOAD PUSH1 0x20 PUSH2 0x2F5B DUP4 CODECOPY DUP2 MLOAD SWAP2 MSTORE PUSH1 0x40 MLOAD PUSH1 0x20 DUP2 MSTORE DUP1 PUSH2 0x551 PUSH1 0x20 DUP3 ADD PUSH1 0x40 SWAP1 PUSH1 0xE DUP2 MSTORE PUSH14 0x145D585B1A5D1E4819985A5B1959 PUSH1 0x92 SHL PUSH1 0x20 DUP3 ADD MSTORE ADD SWAP1 JUMP JUMPDEST SUB SWAP1 LOG2 JUMPDEST PUSH2 0x56C PUSH1 0x40 MLOAD SWAP3 DUP4 SWAP3 PUSH1 0x40 DUP5 MSTORE PUSH1 0x40 DUP5 ADD SWAP2 PUSH2 0x2B45 JUMP JUMPDEST PUSH1 0x1 PUSH1 0x20 DUP4 ADD MSTORE SUB SWAP1 LOG2 DUP4 SLOAD PUSH1 0x1 PUSH1 0x1 PUSH1 0xA0 SHL SUB AND DUP1 EXTCODESIZE ISZERO PUSH2 0x5E2 JUMPI PUSH2 0x5B5 SWAP4 DUP6 PUSH1 0x64 SWAP3 PUSH1 0x1 DUP3 SWAP7 PUSH1 0x40 MLOAD SWAP9 DUP10 SWAP8 DUP9 SWAP7 PUSH4 0x15BA312D PUSH1 0xE0 SHL DUP9 MSTORE PUSH1 0x4 DUP9 ADD MSTORE PUSH1 0x24 DUP8 ADD SWAP1 PUSH2 0x2633 JUMP JUMPDEST DUP5 ADD MSTORE GAS CALL DUP1 ISZERO PUSH2 0x5D7 JUMPI PUSH2 0x5C7 JUMPI POP RETURN JUMPDEST PUSH2 0x5D0 SWAP1 PUSH2 0x2528 JUMP JUMPDEST PUSH2 0x118 JUMPI DUP1 RETURN JUMPDEST PUSH1 0x40 MLOAD RETURNDATASIZE DUP5 DUP3 RETURNDATACOPY RETURNDATASIZE SWAP1 REVERT JUMPDEST DUP5 DUP1 REVERT JUMPDEST PUSH2 0x5F3 SWAP2 SWAP3 SWAP4 SWAP5 POP PUSH2 0x2528 JUMP JUMPDEST PUSH2 0x601 JUMPI SWAP1 DUP5 SWAP2 DUP7 CODESIZE PUSH2 0x4FD JUMP JUMPDEST DUP6 DUP1 REVERT JUMPDEST PUSH1 0x40 MLOAD RETURNDATASIZE DUP10 DUP3 RETURNDATACOPY RETURNDATASIZE SWAP1 REVERT JUMPDEST DUP7 DUP1 REVERT JUMPDEST PUSH2 0x61D SWAP1 PUSH2 0x2528 JUMP JUMPDEST PUSH2 0x601 JUMPI DUP6 CODESIZE PUSH2 0x4B5 JUMP JUMPDEST DUP6 SLOAD PUSH1 0x1 PUSH1 0x1 PUSH1 0xA0 SHL SUB AND SWAP2 DUP3 EXTCODESIZE ISZERO PUSH2 0x610 JUMPI DUP7 DUP1 SWAP4 DUP7 PUSH1 0x40 MLOAD DUP1 SWAP7 DUP2 SWAP4 PUSH4 0xBEC514C3 PUSH1 0xE0 SHL DUP4 MSTORE DUP12 PUSH1 0x4 DUP5 ADD MSTORE PUSH1 0x2 PUSH1 0x24 DUP5 ADD MSTORE GAS CALL DUP1 ISZERO PUSH2 0x605 JUMPI DUP7 SWAP4 DUP9 SWAP2 PUSH2 0x686 JUMPI JUMPDEST POP POP SWAP1 PUSH1 0x0 DUP1 MLOAD PUSH1 0x20 PUSH2 0x2F9B DUP4 CODECOPY DUP2 MLOAD SWAP2 MSTORE SWAP2 PUSH2 0x555 JUMP JUMPDEST PUSH2 0x693 SWAP2 SWAP3 SWAP4 SWAP5 POP PUSH2 0x2528 JUMP JUMPDEST PUSH2 0x601 JUMPI SWAP1 DUP5 SWAP2 DUP7 CODESIZE PUSH2 0x66E JUMP JUMPDEST POP PUSH1 0x4 DUP3 LT ISZERO PUSH2 0x6B4 JUMPI PUSH1 0x3 DUP3 EQ PUSH2 0x43E JUMP JUMPDEST PUSH4 0x4E487B71 PUSH1 0xE0 SHL DUP6 MSTORE PUSH1 0x21 PUSH1 0x4 MSTORE PUSH1 0x24 DUP6 REVERT JUMPDEST PUSH2 0x6D1 SWAP1 PUSH2 0x2528 JUMP JUMPDEST PUSH2 0x601 JUMPI DUP6 CODESIZE PUSH2 0x432 JUMP JUMPDEST PUSH2 0x6E5 SWAP1 PUSH2 0x2528 JUMP JUMPDEST PUSH2 0x601 JUMPI DUP6 CODESIZE PUSH2 0x3E6 JUMP JUMPDEST PUSH2 0x6F9 SWAP1 PUSH2 0x2528 JUMP JUMPDEST PUSH2 0x601 JUMPI DUP6 CODESIZE PUSH2 0x38F JUMP JUMPDEST ADD CALLDATALOAD SWAP1 POP CODESIZE DUP1 PUSH2 0x305 JUMP JUMPDEST DUP5 DUP11 MSTORE PUSH1 0x20 DUP11 KECCAK256 DUP11 SWAP5 POP SWAP2 JUMPDEST PUSH1 0x1F NOT DUP5 AND DUP6 LT PUSH2 0x75D JUMPI PUSH1 0x1 SWAP5 POP DUP4 PUSH1 0x1F NOT DUP2 AND LT PUSH2 0x743 JUMPI JUMPDEST POP POP POP DUP2 SHL ADD SWAP1 SSTORE PUSH2 0x31A JUMP JUMPDEST ADD CALLDATALOAD PUSH1 0x0 NOT PUSH1 0x3 DUP5 SWAP1 SHL PUSH1 0xF8 AND SHR NOT AND SWAP1 SSTORE CODESIZE DUP1 DUP1 PUSH2 0x736 JUMP JUMPDEST DUP2 DUP2 ADD CALLDATALOAD DUP4 SSTORE PUSH1 0x20 SWAP5 DUP6 ADD SWAP5 PUSH1 0x1 SWAP1 SWAP4 ADD SWAP3 ADD PUSH2 0x71B JUMP JUMPDEST SWAP1 SWAP2 POP DUP4 DUP10 MSTORE PUSH1 0x20 DUP10 KECCAK256 PUSH1 0x1F DUP5 ADD PUSH1 0x5 SHR DUP2 ADD PUSH1 0x20 DUP6 LT PUSH2 0x7BB JUMPI JUMPDEST SWAP1 DUP5 SWAP4 SWAP3 SWAP2 JUMPDEST PUSH1 0x1F DUP4 ADD PUSH1 0x5 SHR DUP3 ADD DUP2 LT PUSH2 0x7AD JUMPI POP POP PUSH2 0x2F0 JUMP JUMPDEST DUP12 DUP2 SSTORE DUP6 SWAP5 POP PUSH1 0x1 ADD PUSH2 0x797 JUMP JUMPDEST POP DUP1 PUSH2 0x791 JUMP JUMPDEST PUSH4 0x4E487B71 PUSH1 0xE0 SHL DUP9 MSTORE PUSH1 0x41 PUSH1 0x4 MSTORE PUSH1 0x24 DUP9 REVERT JUMPDEST SWAP5 SWAP3 POP PUSH1 0x20 DUP6 RETURNDATASIZE PUSH1 0x20 GT PUSH2 0x80B JUMPI JUMPDEST DUP2 PUSH2 0x7F2 PUSH1 0x20 SWAP4 DUP4 PUSH2 0x256C JUMP JUMPDEST DUP2 ADD SUB SLT PUSH2 0x806 JUMPI SWAP4 MLOAD SWAP2 SWAP4 PUSH2 0x2BD PUSH2 0x295 JUMP JUMPDEST PUSH1 0x0 DUP1 REVERT JUMPDEST RETURNDATASIZE SWAP2 POP PUSH2 0x7E5 JUMP JUMPDEST PUSH1 0x40 MLOAD PUSH3 0x461BCD PUSH1 0xE5 SHL DUP2 MSTORE PUSH1 0x20 PUSH1 0x4 DUP3 ADD MSTORE PUSH1 0x16 PUSH1 0x24 DUP3 ADD MSTORE PUSH22 0x4D757374206265207265636569766564207374617465 PUSH1 0x50 SHL PUSH1 0x44 DUP3 ADD MSTORE PUSH1 0x64 SWAP1 REVERT JUMPDEST PUSH4 0x4E487B71 PUSH1 0xE0 SHL DUP9 MSTORE PUSH1 0x21 PUSH1 0x4 MSTORE PUSH1 0x24 DUP9 REVERT JUMPDEST PUSH1 0x40 MLOAD PUSH3 0x461BCD PUSH1 0xE5 SHL DUP2 MSTORE PUSH1 0x20 PUSH1 0x4 DUP3 ADD MSTORE PUSH1 0x22 PUSH1 0x24 DUP3 ADD MSTORE PUSH32 0x50726F6475637420616C72656164792072656D6F7665642066726F6D20626174 PUSH1 0x44 DUP3 ADD MSTORE PUSH2 0xC6D PUSH1 0xF3 SHL PUSH1 0x64 DUP3 ADD MSTORE PUSH1 0x84 SWAP1 REVERT JUMPDEST SWAP1 POP PUSH1 0x20 DUP2 RETURNDATASIZE PUSH1 0x20 GT PUSH2 0x8EB JUMPI JUMPDEST DUP2 PUSH2 0x8D0 PUSH1 0x20 SWAP4 DUP4 PUSH2 0x256C JUMP JUMPDEST DUP2 ADD SUB SLT PUSH2 0x8E7 JUMPI PUSH2 0x8E1 SWAP1 PUSH2 0x2749 JUMP JUMPDEST CODESIZE PUSH2 0x250 JUMP JUMPDEST DUP9 DUP1 REVERT JUMPDEST RETURNDATASIZE SWAP2 POP PUSH2 0x8C3 JUMP JUMPDEST PUSH1 0x40 MLOAD RETURNDATASIZE DUP12 DUP3 RETURNDATACOPY RETURNDATASIZE SWAP1 REVERT JUMPDEST PUSH1 0x40 MLOAD PUSH3 0x461BCD PUSH1 0xE5 SHL DUP2 MSTORE PUSH1 0x20 PUSH1 0x4 DUP3 ADD MSTORE PUSH1 0x14 PUSH1 0x24 DUP3 ADD MSTORE PUSH20 0xA0E4DEC8EAC6E840DCDEE840D2DC40C4C2E8C6D PUSH1 0x63 SHL PUSH1 0x44 DUP3 ADD MSTORE PUSH1 0x64 SWAP1 REVERT JUMPDEST SWAP1 POP PUSH1 0x20 DUP2 RETURNDATASIZE PUSH1 0x20 GT PUSH2 0x964 JUMPI JUMPDEST DUP2 PUSH2 0x955 PUSH1 0x20 SWAP4 DUP4 PUSH2 0x256C JUMP JUMPDEST DUP2 ADD SUB SLT PUSH2 0x806 JUMPI MLOAD CODESIZE PUSH2 0x21E JUMP JUMPDEST RETURNDATASIZE SWAP2 POP PUSH2 0x948 JUMP JUMPDEST PUSH1 0x40 MLOAD RETURNDATASIZE DUP13 DUP3 RETURNDATACOPY RETURNDATASIZE SWAP1 REVERT JUMPDEST PUSH2 0x994 SWAP2 SWAP4 POP RETURNDATASIZE DUP1 DUP10 DUP4 RETURNDATACOPY PUSH2 0x98C DUP2 DUP4 PUSH2 0x256C JUMP JUMPDEST DUP2 ADD SWAP1 PUSH2 0x27CA JUMP JUMPDEST SWAP2 CODESIZE PUSH2 0x18C JUMP JUMPDEST POP CALLVALUE PUSH2 0x118 JUMPI PUSH2 0x9AA CALLDATASIZE PUSH2 0x2454 JUMP JUMPDEST SWAP2 PUSH1 0x24 DUP8 PUSH1 0x1 DUP1 PUSH1 0xA0 SWAP11 SWAP10 SWAP9 SWAP8 SWAP6 SWAP11 SHL SUB DUP2 SLOAD AND PUSH1 0x40 MLOAD SWAP3 DUP4 DUP1 SWAP3 PUSH4 0x2E76C56D PUSH1 0xE2 SHL DUP3 MSTORE DUP11 PUSH1 0x4 DUP4 ADD MSTORE GAS STATICCALL SWAP1 DUP2 ISZERO PUSH2 0x605 JUMPI SWAP1 PUSH1 0x20 SWAP2 DUP9 SWAP2 PUSH2 0xF5D JUMPI JUMPDEST POP PUSH2 0xA02 PUSH1 0x1 DUP1 PUSH1 0xA0 SHL SUB PUSH1 0xE0 DUP4 ADD MLOAD MLOAD AND CALLER EQ PUSH2 0x2B66 JUMP JUMPDEST ADD MLOAD PUSH1 0x3 DUP2 LT ISZERO PUSH2 0xF49 JUMPI SWAP1 PUSH2 0xA1D PUSH1 0x2 PUSH1 0x24 SWAP5 SWAP4 EQ PUSH2 0x2BA2 JUMP JUMPDEST PUSH2 0xA2A PUSH1 0x64 DUP7 GT ISZERO PUSH2 0x2AA5 JUMP JUMPDEST PUSH1 0x2 SLOAD PUSH1 0x20 SWAP1 PUSH1 0x1 PUSH1 0x1 PUSH1 0xA0 SHL SUB AND PUSH2 0xA44 DUP2 ISZERO ISZERO PUSH2 0x2AE1 JUMP JUMPDEST PUSH1 0x40 MLOAD SWAP5 DUP6 DUP1 SWAP3 PUSH4 0x56100913 PUSH1 0xE0 SHL DUP3 MSTORE DUP11 PUSH1 0x4 DUP4 ADD MSTORE GAS STATICCALL SWAP3 DUP4 ISZERO PUSH2 0x605 JUMPI DUP8 SWAP4 PUSH2 0xF11 JUMPI JUMPDEST POP PUSH2 0xA93 DUP6 PUSH2 0xA7B PUSH1 0x1 SWAP8 PUSH2 0x2DF2 JUMP JUMPDEST SWAP7 DUP8 SWAP2 DUP10 DUP12 MSTORE PUSH1 0x5 PUSH1 0x20 MSTORE PUSH1 0x40 DUP12 KECCAK256 SWAP1 DUP2 SSTORE ADD PUSH2 0x2B2D JUMP JUMPDEST DUP6 DUP8 MSTORE PUSH1 0x5 PUSH1 0x20 MSTORE PUSH1 0x2 PUSH1 0x40 DUP9 KECCAK256 ADD SWAP2 PUSH1 0x1 PUSH1 0x1 PUSH1 0x40 SHL SUB DUP3 GT PUSH2 0x7C2 JUMPI DUP2 SWAP1 PUSH2 0xABD DUP5 SLOAD PUSH2 0x24EE JUMP JUMPDEST PUSH1 0x1F DUP2 GT PUSH2 0xEC4 JUMPI JUMPDEST POP DUP9 SWAP1 PUSH1 0x1F DUP4 GT PUSH1 0x1 EQ PUSH2 0xE5E JUMPI DUP10 SWAP3 PUSH2 0xE53 JUMPI JUMPDEST POP POP DUP2 PUSH1 0x1 SHL SWAP2 PUSH1 0x0 NOT SWAP1 PUSH1 0x3 SHL SHR NOT AND OR SWAP1 SSTORE JUMPDEST DUP4 DUP6 MSTORE PUSH1 0x5 PUSH1 0x20 DUP2 SWAP1 MSTORE PUSH1 0x40 DUP7 KECCAK256 PUSH1 0x3 DUP2 ADD DUP4 SWAP1 SSTORE TIMESTAMP PUSH1 0x4 DUP3 ADD SSTORE ADD DUP1 SLOAD PUSH1 0x1 PUSH1 0x1 PUSH1 0xA0 SHL SUB NOT AND CALLER OR SWAP1 SSTORE DUP5 SLOAD PUSH1 0x1 PUSH1 0x1 PUSH1 0xA0 SHL SUB AND DUP1 EXTCODESIZE ISZERO PUSH2 0x601 JUMPI SWAP1 DUP6 SWAP4 SWAP3 SWAP2 DUP5 PUSH1 0x40 MLOAD DUP1 SWAP3 PUSH4 0x23DAFD79 PUSH1 0xE1 SHL DUP3 MSTORE DUP9 PUSH1 0x4 DUP4 ADD MSTORE TIMESTAMP PUSH1 0x24 DUP4 ADD MSTORE DUP2 PUSH1 0x44 SWAP9 DUP10 SWAP3 GAS CALL DUP1 ISZERO PUSH2 0x605 JUMPI SWAP1 DUP8 SWAP2 PUSH2 0xE3F JUMPI JUMPDEST POP POP DUP6 SLOAD PUSH1 0x1 PUSH1 0x1 PUSH1 0xA0 SHL SUB AND DUP1 EXTCODESIZE ISZERO PUSH2 0x610 JUMPI DUP7 PUSH2 0xBAA DUP2 SWAP3 DUP11 PUSH1 0x40 MLOAD SWAP5 DUP6 DUP1 SWAP5 DUP2 SWAP4 PUSH4 0x1E509437 PUSH1 0xE0 SHL DUP4 MSTORE DUP14 PUSH1 0x4 DUP5 ADD MSTORE PUSH1 0x40 PUSH1 0x24 DUP5 ADD MSTORE DUP11 DUP14 DUP5 ADD SWAP2 PUSH2 0x2B45 JUMP JUMPDEST SUB SWAP3 GAS CALL DUP1 ISZERO PUSH2 0x605 JUMPI SWAP1 DUP8 SWAP2 PUSH2 0xE2B JUMPI JUMPDEST POP POP DUP6 SLOAD PUSH1 0x1 PUSH1 0x1 PUSH1 0xA0 SHL SUB AND DUP1 EXTCODESIZE ISZERO PUSH2 0x610 JUMPI DUP7 DUP1 SWAP2 DUP7 PUSH1 0x40 MLOAD DUP1 SWAP5 DUP2 SWAP4 PUSH4 0xCD970A63 PUSH1 0xE0 SHL DUP4 MSTORE DUP12 PUSH1 0x4 DUP5 ADD MSTORE PUSH2 0xBF8 PUSH1 0x24 DUP5 ADD DUP12 PUSH2 0x2633 JUMP JUMPDEST GAS CALL DUP1 ISZERO PUSH2 0x605 JUMPI SWAP1 DUP8 SWAP2 PUSH2 0xE17 JUMPI JUMPDEST POP POP PUSH1 0x5 GT DUP1 ISZERO PUSH2 0xE04 JUMPI JUMPDEST SWAP6 DUP6 SWAP7 PUSH1 0x0 EQ PUSH2 0xD8B JUMPI DUP6 SLOAD PUSH1 0x1 PUSH1 0x1 PUSH1 0xA0 SHL SUB AND DUP1 EXTCODESIZE ISZERO PUSH2 0x610 JUMPI DUP7 DUP1 SWAP2 PUSH1 0x24 PUSH1 0x40 MLOAD DUP1 SWAP5 DUP2 SWAP4 PUSH4 0x7EBBF2EF PUSH1 0xE1 SHL DUP4 MSTORE DUP12 PUSH1 0x4 DUP5 ADD MSTORE GAS CALL SWAP1 DUP2 ISZERO PUSH2 0x605 JUMPI DUP8 SWAP2 PUSH2 0xD77 JUMPI JUMPDEST POP POP DUP6 SLOAD PUSH1 0x1 PUSH1 0x1 PUSH1 0xA0 SHL SUB AND SWAP2 DUP3 EXTCODESIZE ISZERO PUSH2 0x610 JUMPI DUP7 DUP1 SWAP4 DUP7 PUSH1 0x40 MLOAD DUP1 SWAP7 DUP2 SWAP4 PUSH4 0xBEC514C3 PUSH1 0xE0 SHL DUP4 MSTORE DUP12 PUSH1 0x4 DUP5 ADD MSTORE PUSH1 0x3 PUSH1 0x24 DUP5 ADD MSTORE GAS CALL DUP1 ISZERO PUSH2 0x605 JUMPI DUP7 SWAP4 DUP9 SWAP2 PUSH2 0xD5C JUMPI JUMPDEST POP POP SWAP1 PUSH1 0x0 DUP1 MLOAD PUSH1 0x20 PUSH2 0x2F9B DUP4 CODECOPY DUP2 MLOAD SWAP2 MSTORE SWAP2 DUP4 PUSH1 0x0 DUP1 MLOAD PUSH1 0x20 PUSH2 0x2F5B DUP4 CODECOPY DUP2 MLOAD SWAP2 MSTORE PUSH1 0x40 MLOAD PUSH1 0x20 DUP2 MSTORE DUP1 PUSH2 0xCF8 PUSH1 0x20 DUP3 ADD PUSH1 0x40 SWAP1 PUSH1 0xE DUP2 MSTORE PUSH14 0x145D585B1A5D1E4819985A5B1959 PUSH1 0x92 SHL PUSH1 0x20 DUP3 ADD MSTORE ADD SWAP1 JUMP JUMPDEST SUB SWAP1 LOG2 JUMPDEST PUSH2 0xD13 PUSH1 0x40 MLOAD SWAP3 DUP4 SWAP3 PUSH1 0x40 DUP5 MSTORE PUSH1 0x40 DUP5 ADD SWAP2 PUSH2 0x2B45 JUMP JUMPDEST PUSH1 0x2 PUSH1 0x20 DUP4 ADD MSTORE SUB SWAP1 LOG2 DUP4 SLOAD PUSH1 0x1 PUSH1 0x1 PUSH1 0xA0 SHL SUB AND DUP1 EXTCODESIZE ISZERO PUSH2 0x5E2 JUMPI PUSH2 0x5B5 SWAP4 DUP6 PUSH1 0x64 SWAP3 PUSH1 0x2 DUP3 SWAP7 PUSH1 0x40 MLOAD SWAP9 DUP10 SWAP8 DUP9 SWAP7 PUSH4 0x15BA312D PUSH1 0xE0 SHL DUP9 MSTORE PUSH1 0x4 DUP9 ADD MSTORE PUSH1 0x24 DUP8 ADD SWAP1 PUSH2 0x2633 JUMP JUMPDEST PUSH2 0xD69 SWAP2 SWAP3 SWAP4 SWAP5 POP PUSH2 0x2528 JUMP JUMPDEST PUSH2 0x601 JUMPI SWAP1 DUP5 SWAP2 DUP7 CODESIZE PUSH2 0xCA4 JUMP JUMPDEST PUSH2 0xD80 SWAP1 PUSH2 0x2528 JUMP JUMPDEST PUSH2 0x601 JUMPI DUP6 CODESIZE PUSH2 0xC5C JUMP JUMPDEST DUP6 SLOAD PUSH1 0x1 PUSH1 0x1 PUSH1 0xA0 SHL SUB AND SWAP2 DUP3 EXTCODESIZE ISZERO PUSH2 0x610 JUMPI DUP7 DUP1 SWAP4 DUP7 PUSH1 0x40 MLOAD DUP1 SWAP7 DUP2 SWAP4 PUSH4 0xBEC514C3 PUSH1 0xE0 SHL DUP4 MSTORE DUP12 PUSH1 0x4 DUP5 ADD MSTORE PUSH1 0x2 PUSH1 0x24 DUP5 ADD MSTORE GAS CALL DUP1 ISZERO PUSH2 0x605 JUMPI DUP7 SWAP4 DUP9 SWAP2 PUSH2 0xDE9 JUMPI JUMPDEST POP POP SWAP1 PUSH1 0x0 DUP1 MLOAD PUSH1 0x20 PUSH2 0x2F9B DUP4 CODECOPY DUP2 MLOAD SWAP2 MSTORE SWAP2 PUSH2 0xCFC JUMP JUMPDEST PUSH2 0xDF6 SWAP2 SWAP3 SWAP4 SWAP5 POP PUSH2 0x2528 JUMP JUMPDEST PUSH2 0x601 JUMPI SWAP1 DUP5 SWAP2 DUP7 CODESIZE PUSH2 0xDD1 JUMP JUMPDEST POP PUSH1 0x4 DUP3 LT ISZERO PUSH2 0x6B4 JUMPI PUSH1 0x3 DUP3 EQ PUSH2 0xC14 JUMP JUMPDEST PUSH2 0xE20 SWAP1 PUSH2 0x2528 JUMP JUMPDEST PUSH2 0x601 JUMPI DUP6 CODESIZE PUSH2 0xC08 JUMP JUMPDEST PUSH2 0xE34 SWAP1 PUSH2 0x2528 JUMP JUMPDEST PUSH2 0x601 JUMPI DUP6 CODESIZE PUSH2 0xBBC JUMP JUMPDEST PUSH2 0xE48 SWAP1 PUSH2 0x2528 JUMP JUMPDEST PUSH2 0x601 JUMPI DUP6 CODESIZE PUSH2 0xB65 JUMP JUMPDEST ADD CALLDATALOAD SWAP1 POP CODESIZE DUP1 PUSH2 0xADB JUMP JUMPDEST DUP5 DUP11 MSTORE PUSH1 0x20 DUP11 KECCAK256 DUP11 SWAP5 POP SWAP2 JUMPDEST PUSH1 0x1F NOT DUP5 AND DUP6 LT PUSH2 0xEAC JUMPI PUSH1 0x1 SWAP5 POP DUP4 PUSH1 0x1F NOT DUP2 AND LT PUSH2 0xE92 JUMPI JUMPDEST POP POP POP DUP2 SHL ADD SWAP1 SSTORE PUSH2 0xAF0 JUMP JUMPDEST ADD CALLDATALOAD PUSH1 0x0 NOT PUSH1 0x3 DUP5 SWAP1 SHL PUSH1 0xF8 AND SHR NOT AND SWAP1 SSTORE CODESIZE DUP1 DUP1 PUSH2 0xE85 JUMP JUMPDEST DUP2 DUP2 ADD CALLDATALOAD DUP4 SSTORE PUSH1 0x20 SWAP5 DUP6 ADD SWAP5 PUSH1 0x1 SWAP1 SWAP4 ADD SWAP3 ADD PUSH2 0xE6A JUMP JUMPDEST SWAP1 SWAP2 POP DUP4 DUP10 MSTORE PUSH1 0x20 DUP10 KECCAK256 PUSH1 0x1F DUP5 ADD PUSH1 0x5 SHR DUP2 ADD PUSH1 0x20 DUP6 LT PUSH2 0xF0A JUMPI JUMPDEST SWAP1 DUP5 SWAP4 SWAP3 SWAP2 JUMPDEST PUSH1 0x1F DUP4 ADD PUSH1 0x5 SHR DUP3 ADD DUP2 LT PUSH2 0xEFC JUMPI POP POP PUSH2 0xAC6 JUMP JUMPDEST DUP12 DUP2 SSTORE DUP6 SWAP5 POP PUSH1 0x1 ADD PUSH2 0xEE6 JUMP JUMPDEST POP DUP1 PUSH2 0xEE0 JUMP JUMPDEST SWAP5 SWAP3 POP PUSH1 0x20 DUP6 RETURNDATASIZE PUSH1 0x20 GT PUSH2 0xF41 JUMPI JUMPDEST DUP2 PUSH2 0xF2D PUSH1 0x20 SWAP4 DUP4 PUSH2 0x256C JUMP JUMPDEST DUP2 ADD SUB SLT PUSH2 0x806 JUMPI SWAP4 MLOAD SWAP2 SWAP4 PUSH2 0xA93 PUSH2 0xA6B JUMP JUMPDEST RETURNDATASIZE SWAP2 POP PUSH2 0xF20 JUMP JUMPDEST PUSH4 0x4E487B71 PUSH1 0xE0 SHL DUP8 MSTORE PUSH1 0x21 PUSH1 0x4 MSTORE PUSH1 0x24 DUP8 REVERT JUMPDEST PUSH2 0xF71 SWAP2 POP RETURNDATASIZE DUP1 DUP11 DUP4 RETURNDATACOPY PUSH2 0x98C DUP2 DUP4 PUSH2 0x256C JUMP JUMPDEST CODESIZE PUSH2 0x9E9 JUMP JUMPDEST POP CALLVALUE PUSH2 0x118 JUMPI PUSH1 0x20 CALLDATASIZE PUSH1 0x3 NOT ADD SLT PUSH2 0x118 JUMPI PUSH2 0xF91 PUSH2 0x2F28 JUMP JUMPDEST POP PUSH1 0x4 CALLDATALOAD DUP2 MSTORE PUSH1 0x5 PUSH1 0x20 MSTORE PUSH1 0x40 DUP2 KECCAK256 PUSH1 0x40 MLOAD SWAP1 PUSH2 0xFAD DUP3 PUSH2 0x2551 JUMP JUMPDEST DUP1 SLOAD DUP3 MSTORE PUSH1 0xFF PUSH1 0x1 DUP3 ADD SLOAD AND PUSH1 0x4 DUP2 LT ISZERO PUSH2 0x1013 JUMPI PUSH2 0x100F SWAP4 POP PUSH1 0x20 DUP4 ADD MSTORE PUSH2 0xFD8 PUSH1 0x2 DUP3 ADD PUSH2 0x258D JUMP JUMPDEST PUSH1 0x40 DUP4 ADD MSTORE PUSH1 0x3 DUP2 ADD SLOAD PUSH1 0x60 DUP4 ADD MSTORE PUSH1 0x4 DUP2 ADD SLOAD PUSH1 0x80 DUP4 ADD MSTORE PUSH1 0x5 PUSH1 0x1 DUP1 PUSH1 0xA0 SHL SUB SWAP2 ADD SLOAD AND PUSH1 0xA0 DUP3 ADD MSTORE PUSH1 0x40 MLOAD SWAP2 DUP3 SWAP2 DUP3 PUSH2 0x269A JUMP JUMPDEST SUB SWAP1 RETURN JUMPDEST PUSH4 0x4E487B71 PUSH1 0xE0 SHL DUP5 MSTORE PUSH1 0x21 PUSH1 0x4 MSTORE PUSH1 0x24 DUP5 REVERT JUMPDEST POP CALLVALUE PUSH2 0x118 JUMPI DUP1 PUSH1 0x3 NOT CALLDATASIZE ADD SLT PUSH2 0x118 JUMPI PUSH1 0x2 SLOAD PUSH1 0x40 MLOAD PUSH1 0x1 PUSH1 0x1 PUSH1 0xA0 SHL SUB SWAP1 SWAP2 AND DUP2 MSTORE PUSH1 0x20 SWAP1 RETURN JUMPDEST POP CALLVALUE PUSH2 0x118 JUMPI PUSH1 0x20 CALLDATASIZE PUSH1 0x3 NOT ADD SLT PUSH2 0x118 JUMPI PUSH1 0x4 CALLDATALOAD PUSH1 0x1 PUSH1 0x1 PUSH1 0xA0 SHL SUB DUP2 DUP2 AND SWAP2 DUP3 SWAP1 SUB PUSH2 0x1120 JUMPI PUSH1 0x20 PUSH1 0x24 SWAP2 DUP5 SLOAD AND PUSH1 0x40 MLOAD SWAP3 DUP4 DUP1 SWAP3 PUSH4 0x44276733 PUSH1 0xE0 SHL DUP3 MSTORE CALLER PUSH1 0x4 DUP4 ADD MSTORE GAS STATICCALL SWAP1 DUP2 ISZERO PUSH2 0x1115 JUMPI DUP4 SWAP2 PUSH2 0x10E7 JUMPI JUMPDEST POP PUSH1 0x5 DUP2 LT ISZERO PUSH2 0x10D3 JUMPI PUSH1 0x4 PUSH2 0x10BD SWAP2 EQ PUSH2 0x2710 JUMP JUMPDEST PUSH1 0x1 PUSH1 0x1 PUSH1 0x60 SHL SUB PUSH1 0xA0 SHL PUSH1 0x3 SLOAD AND OR PUSH1 0x3 SSTORE DUP1 RETURN JUMPDEST PUSH4 0x4E487B71 PUSH1 0xE0 SHL DUP4 MSTORE PUSH1 0x21 PUSH1 0x4 MSTORE PUSH1 0x24 DUP4 REVERT JUMPDEST PUSH2 0x1108 SWAP2 POP PUSH1 0x20 RETURNDATASIZE DUP2 GT PUSH2 0x110E JUMPI JUMPDEST PUSH2 0x1100 DUP2 DUP4 PUSH2 0x256C JUMP JUMPDEST DUP2 ADD SWAP1 PUSH2 0x26F8 JUMP JUMPDEST CODESIZE PUSH2 0x10A7 JUMP JUMPDEST POP RETURNDATASIZE PUSH2 0x10F6 JUMP JUMPDEST PUSH1 0x40 MLOAD RETURNDATASIZE DUP6 DUP3 RETURNDATACOPY RETURNDATASIZE SWAP1 REVERT JUMPDEST DUP3 DUP1 REVERT JUMPDEST POP CALLVALUE PUSH2 0x118 JUMPI PUSH1 0x20 CALLDATASIZE PUSH1 0x3 NOT ADD SLT PUSH2 0x118 JUMPI PUSH1 0x40 SWAP1 PUSH1 0x4 CALLDATALOAD DUP2 MSTORE PUSH1 0x4 PUSH1 0x20 MSTORE KECCAK256 DUP1 SLOAD PUSH2 0x100F PUSH1 0xFF PUSH1 0x1 DUP5 ADD SLOAD AND SWAP3 PUSH2 0x115E PUSH1 0x2 DUP3 ADD PUSH2 0x258D JUMP JUMPDEST SWAP1 PUSH1 0x3 DUP2 ADD SLOAD PUSH1 0x4 DUP3 ADD SLOAD SWAP2 PUSH1 0x5 PUSH1 0x1 DUP1 PUSH1 0xA0 SHL SUB SWAP2 ADD SLOAD AND SWAP3 PUSH1 0x40 MLOAD SWAP7 DUP8 SWAP7 DUP8 PUSH2 0x2656 JUMP JUMPDEST POP CALLVALUE PUSH2 0x118 JUMPI PUSH1 0x20 CALLDATASIZE PUSH1 0x3 NOT ADD SLT PUSH2 0x118 JUMPI PUSH2 0x119E PUSH2 0x2F28 JUMP JUMPDEST POP PUSH1 0x4 CALLDATALOAD DUP2 MSTORE PUSH1 0x4 PUSH1 0x20 MSTORE PUSH1 0x40 DUP2 KECCAK256 PUSH1 0x40 MLOAD SWAP1 PUSH2 0xFAD DUP3 PUSH2 0x2551 JUMP JUMPDEST POP CALLVALUE PUSH2 0x118 JUMPI PUSH1 0x20 CALLDATASIZE PUSH1 0x3 NOT ADD SLT PUSH2 0x118 JUMPI PUSH1 0x4 CALLDATALOAD PUSH1 0x1 PUSH1 0x1 PUSH1 0xA0 SHL SUB DUP2 DUP2 AND SWAP2 DUP3 SWAP1 SUB PUSH2 0x1120 JUMPI PUSH1 0x20 PUSH1 0x24 SWAP2 DUP5 SLOAD AND PUSH1 0x40 MLOAD SWAP3 DUP4 DUP1 SWAP3 PUSH4 0x44276733 PUSH1 0xE0 SHL DUP3 MSTORE CALLER PUSH1 0x4 DUP4 ADD MSTORE GAS STATICCALL SWAP1 DUP2 ISZERO PUSH2 0x1115 JUMPI DUP4 SWAP2 PUSH2 0x123D JUMPI JUMPDEST POP PUSH1 0x5 DUP2 LT ISZERO PUSH2 0x10D3 JUMPI PUSH1 0x4 PUSH2 0x1227 SWAP2 EQ PUSH2 0x2710 JUMP JUMPDEST PUSH1 0x1 PUSH1 0x1 PUSH1 0x60 SHL SUB PUSH1 0xA0 SHL PUSH1 0x2 SLOAD AND OR PUSH1 0x2 SSTORE DUP1 RETURN JUMPDEST PUSH2 0x1255 SWAP2 POP PUSH1 0x20 RETURNDATASIZE DUP2 GT PUSH2 0x110E JUMPI PUSH2 0x1100 DUP2 DUP4 PUSH2 0x256C JUMP JUMPDEST CODESIZE PUSH2 0x1211 JUMP JUMPDEST POP CALLVALUE PUSH2 0x118 JUMPI PUSH1 0x20 CALLDATASIZE PUSH1 0x3 NOT ADD SLT PUSH2 0x118 JUMPI PUSH1 0x40 PUSH1 0x20 SWAP2 PUSH1 0x4 CALLDATALOAD DUP2 MSTORE PUSH1 0x7 DUP4 MSTORE KECCAK256 SLOAD PUSH1 0x40 MLOAD SWAP1 DUP2 MSTORE RETURN JUMPDEST POP CALLVALUE PUSH2 0x118 JUMPI PUSH1 0x20 CALLDATASIZE PUSH1 0x3 NOT ADD SLT PUSH2 0x118 JUMPI PUSH1 0x40 SWAP1 PUSH1 0x4 CALLDATALOAD DUP2 MSTORE PUSH1 0x5 PUSH1 0x20 MSTORE KECCAK256 DUP1 SLOAD PUSH2 0x100F PUSH1 0xFF PUSH1 0x1 DUP5 ADD SLOAD AND SWAP3 PUSH2 0x115E PUSH1 0x2 DUP3 ADD PUSH2 0x258D JUMP JUMPDEST POP CALLVALUE PUSH2 0x118 JUMPI PUSH1 0x40 CALLDATASIZE PUSH1 0x3 NOT ADD SLT PUSH2 0x118 JUMPI PUSH1 0x4 CALLDATALOAD SWAP1 PUSH1 0x24 CALLDATALOAD PUSH1 0x1 PUSH1 0x1 PUSH1 0x40 SHL SUB DUP2 GT PUSH2 0x1512 JUMPI PUSH2 0x12F4 SWAP1 CALLDATASIZE SWAP1 PUSH1 0x4 ADD PUSH2 0x2427 JUMP JUMPDEST SWAP1 SWAP3 PUSH1 0x1 DUP1 PUSH1 0xA0 SHL SUB PUSH1 0x24 DUP5 DUP3 DUP2 SLOAD AND PUSH1 0x40 MLOAD SWAP3 DUP4 DUP1 SWAP3 PUSH4 0x2E76C56D PUSH1 0xE2 SHL DUP3 MSTORE DUP8 PUSH1 0x4 DUP4 ADD MSTORE GAS STATICCALL SWAP1 DUP2 ISZERO PUSH2 0x1507 JUMPI DUP6 SWAP2 PUSH2 0x14ED JUMPI JUMPDEST POP PUSH1 0x80 DUP2 ADD MLOAD ISZERO PUSH2 0x14B3 JUMPI DUP2 PUSH1 0xC0 DUP3 ADD MLOAD MLOAD AND CALLER EQ SWAP1 DUP2 ISZERO PUSH2 0x14A2 JUMPI JUMPDEST POP ISZERO PUSH2 0x145D JUMPI PUSH1 0x3 SLOAD AND SWAP2 PUSH2 0x135E DUP4 ISZERO ISZERO PUSH2 0x2BE5 JUMP JUMPDEST PUSH1 0x40 MLOAD PUSH4 0xC52C7D5 PUSH1 0xE3 SHL DUP2 MSTORE PUSH1 0x20 PUSH1 0x4 DUP3 ADD DUP2 SWAP1 MSTORE SWAP5 SWAP1 SWAP4 DUP6 SWAP1 DUP6 SWAP1 DUP2 DUP5 DUP2 PUSH2 0x138C PUSH1 0x24 DUP3 ADD DUP10 DUP15 PUSH2 0x2B45 JUMP JUMPDEST SUB SWAP3 GAS CALL SWAP4 DUP5 ISZERO PUSH2 0x1450 JUMPI DUP2 SWAP5 PUSH2 0x13FD JUMPI JUMPDEST POP SWAP5 PUSH32 0xF87DAFD8E601AA70C46E6C3BB0C6DA1BDC4482ED21AADF651349DBBC2695024A SWAP2 DUP4 PUSH1 0x40 DUP9 DUP3 DUP9 SWAP10 SWAP11 MSTORE PUSH1 0x6 DUP11 MSTORE DUP8 DUP3 DUP3 KECCAK256 SSTORE DUP8 DUP2 MSTORE PUSH1 0x7 DUP11 MSTORE KECCAK256 SSTORE PUSH2 0x13F2 PUSH1 0x40 MLOAD SWAP3 DUP4 SWAP3 DUP10 DUP5 MSTORE DUP10 DUP5 ADD SWAP2 PUSH2 0x2B45 JUMP JUMPDEST SUB SWAP1 LOG3 PUSH1 0x40 MLOAD SWAP1 DUP2 MSTORE RETURN JUMPDEST SWAP1 SWAP4 POP DUP5 DUP2 DUP2 RETURNDATASIZE DUP4 GT PUSH2 0x1449 JUMPI JUMPDEST PUSH2 0x1415 DUP2 DUP4 PUSH2 0x256C JUMP JUMPDEST DUP2 ADD SUB SLT PUSH2 0x1445 JUMPI MLOAD SWAP3 PUSH32 0xF87DAFD8E601AA70C46E6C3BB0C6DA1BDC4482ED21AADF651349DBBC2695024A PUSH2 0x139E JUMP JUMPDEST DUP4 DUP1 REVERT JUMPDEST POP RETURNDATASIZE PUSH2 0x140B JUMP JUMPDEST POP PUSH1 0x40 MLOAD SWAP1 RETURNDATASIZE SWAP1 DUP3 RETURNDATACOPY RETURNDATASIZE SWAP1 REVERT JUMPDEST PUSH1 0x40 MLOAD PUSH3 0x461BCD PUSH1 0xE5 SHL DUP2 MSTORE PUSH1 0x20 PUSH1 0x4 DUP3 ADD MSTORE PUSH1 0x1F PUSH1 0x24 DUP3 ADD MSTORE PUSH32 0x4E6F7420617574686F72697A656420666F7220746869732070726F6475637400 PUSH1 0x44 DUP3 ADD MSTORE PUSH1 0x64 SWAP1 REVERT JUMPDEST PUSH1 0xE0 ADD MLOAD MLOAD DUP3 AND CALLER EQ SWAP1 POP CODESIZE PUSH2 0x1348 JUMP JUMPDEST PUSH1 0x40 MLOAD PUSH3 0x461BCD PUSH1 0xE5 SHL DUP2 MSTORE PUSH1 0x20 PUSH1 0x4 DUP3 ADD MSTORE PUSH1 0x12 PUSH1 0x24 DUP3 ADD MSTORE PUSH18 0x50726F64756374206E6F7420616374697665 PUSH1 0x70 SHL PUSH1 0x44 DUP3 ADD MSTORE PUSH1 0x64 SWAP1 REVERT JUMPDEST PUSH2 0x1501 SWAP2 POP RETURNDATASIZE DUP1 DUP8 DUP4 RETURNDATACOPY PUSH2 0x98C DUP2 DUP4 PUSH2 0x256C JUMP JUMPDEST CODESIZE PUSH2 0x132B JUMP JUMPDEST PUSH1 0x40 MLOAD RETURNDATASIZE DUP8 DUP3 RETURNDATACOPY RETURNDATASIZE SWAP1 REVERT JUMPDEST POP DUP1 REVERT JUMPDEST POP CALLVALUE PUSH2 0x118 JUMPI DUP1 PUSH1 0x3 NOT CALLDATASIZE ADD SLT PUSH2 0x118 JUMPI PUSH1 0x20 PUSH1 0x40 MLOAD PUSH1 0x5 DUP2 MSTORE RETURN JUMPDEST POP CALLVALUE PUSH2 0x118 JUMPI DUP1 PUSH1 0x3 NOT CALLDATASIZE ADD SLT PUSH2 0x118 JUMPI PUSH1 0x1 SLOAD PUSH1 0x40 MLOAD PUSH1 0x1 PUSH1 0x1 PUSH1 0xA0 SHL SUB SWAP1 SWAP2 AND DUP2 MSTORE PUSH1 0x20 SWAP1 RETURN JUMPDEST POP CALLVALUE PUSH2 0x118 JUMPI PUSH1 0x20 CALLDATASIZE PUSH1 0x3 NOT ADD SLT PUSH2 0x118 JUMPI PUSH1 0x40 PUSH1 0x20 SWAP2 PUSH1 0x4 CALLDATALOAD DUP2 MSTORE PUSH1 0x6 DUP4 MSTORE KECCAK256 SLOAD PUSH1 0x40 MLOAD SWAP1 DUP2 MSTORE RETURN JUMPDEST POP CALLVALUE PUSH2 0x118 JUMPI PUSH2 0x1594 CALLDATASIZE PUSH2 0x2454 JUMP JUMPDEST SWAP1 SWAP2 SWAP4 SWAP6 SWAP5 SWAP3 PUSH1 0x24 DUP7 PUSH1 0x1 DUP1 PUSH1 0xA0 SHL SUB DUP2 SLOAD AND PUSH1 0x40 MLOAD SWAP3 DUP4 DUP1 SWAP3 PUSH4 0x2E76C56D PUSH1 0xE2 SHL DUP3 MSTORE DUP10 PUSH1 0x4 DUP4 ADD MSTORE GAS STATICCALL SWAP1 DUP2 ISZERO PUSH2 0x605 JUMPI SWAP1 PUSH1 0x20 SWAP2 DUP9 SWAP2 PUSH2 0x1D0B JUMPI JUMPDEST POP PUSH2 0x15EB PUSH1 0x1 DUP1 PUSH1 0xA0 SHL SUB PUSH1 0xC0 DUP4 ADD MLOAD MLOAD AND CALLER EQ PUSH2 0x2A1A JUMP JUMPDEST ADD MLOAD PUSH1 0x3 DUP2 LT ISZERO PUSH2 0xF49 JUMPI PUSH1 0x1 PUSH2 0x1602 SWAP2 EQ PUSH2 0x2A59 JUMP JUMPDEST DUP4 DUP7 MSTORE PUSH1 0x6 PUSH1 0x20 MSTORE PUSH2 0x1619 DUP8 PUSH1 0x40 DUP9 KECCAK256 SLOAD EQ PUSH2 0x2C25 JUMP JUMPDEST PUSH1 0x3 SLOAD PUSH1 0x1 PUSH1 0x1 PUSH1 0xA0 SHL SUB AND SWAP7 DUP7 SWAP1 PUSH2 0x1633 DUP10 ISZERO ISZERO PUSH2 0x2BE5 JUMP JUMPDEST PUSH1 0x24 PUSH1 0x40 MLOAD DUP1 SWAP11 DUP2 SWAP4 PUSH4 0xDC6423AB PUSH1 0xE0 SHL DUP4 MSTORE PUSH1 0x4 DUP4 ADD MSTORE GAS STATICCALL SWAP1 DUP2 ISZERO PUSH2 0x1D00 JUMPI DUP7 SWAP8 DUP8 SWAP3 DUP9 SWAP2 DUP10 SWAP2 PUSH2 0x1CCB JUMPI JUMPDEST POP SWAP1 PUSH2 0x166F PUSH2 0x1676 SWAP3 PUSH2 0x2CA7 JUMP JUMPDEST ISZERO ISZERO PUSH2 0x2CF3 JUMP JUMPDEST PUSH1 0x64 DUP9 GT ISZERO PUSH2 0x1CA1 JUMPI PUSH1 0x24 SWAP1 DUP8 SWAP7 JUMPDEST PUSH1 0x2 SLOAD PUSH1 0x40 MLOAD PUSH4 0x56100913 PUSH1 0xE0 SHL DUP2 MSTORE PUSH1 0x4 DUP2 ADD DUP10 SWAP1 MSTORE SWAP4 PUSH1 0x20 SWAP2 DUP6 SWAP2 SWAP1 DUP3 SWAP1 PUSH1 0x1 PUSH1 0x1 PUSH1 0xA0 SHL SUB AND GAS STATICCALL SWAP3 DUP4 ISZERO PUSH2 0x8F3 JUMPI DUP10 SWAP4 PUSH2 0x1C69 JUMPI JUMPDEST POP PUSH2 0x16E6 DUP9 PUSH2 0x16CE PUSH1 0x1 SWAP11 PUSH2 0x2DF2 JUMP JUMPDEST SWAP10 DUP11 SWAP2 DUP11 DUP14 MSTORE PUSH1 0x4 PUSH1 0x20 MSTORE PUSH1 0x40 DUP14 KECCAK256 SWAP1 DUP2 SSTORE ADD PUSH2 0x2B2D JUMP JUMPDEST DUP7 DUP10 MSTORE PUSH1 0x4 PUSH1 0x20 MSTORE PUSH1 0x2 PUSH1 0x40 DUP11 KECCAK256 ADD SWAP2 PUSH1 0x1 PUSH1 0x1 PUSH1 0x40 SHL SUB DUP3 GT PUSH2 0x1C55 JUMPI DUP2 SWAP1 PUSH2 0x1710 DUP5 SLOAD PUSH2 0x24EE JUMP JUMPDEST PUSH1 0x1F DUP2 GT PUSH2 0x1C07 JUMPI JUMPDEST POP DUP11 SWAP1 PUSH1 0x1F DUP4 GT PUSH1 0x1 EQ PUSH2 0x1BA1 JUMPI DUP12 SWAP3 PUSH2 0x1B96 JUMPI JUMPDEST POP POP DUP2 PUSH1 0x1 SHL SWAP2 PUSH1 0x0 NOT SWAP1 PUSH1 0x3 SHL SHR NOT AND OR SWAP1 SSTORE JUMPDEST DUP5 DUP8 MSTORE PUSH1 0x4 PUSH1 0x20 MSTORE PUSH1 0x5 PUSH1 0x40 DUP9 KECCAK256 DUP3 PUSH1 0x3 DUP3 ADD SSTORE TIMESTAMP PUSH1 0x4 DUP3 ADD SSTORE ADD CALLER PUSH1 0x1 PUSH1 0x1 PUSH1 0x60 SHL SUB PUSH1 0xA0 SHL DUP3 SLOAD AND OR SWAP1 SSTORE PUSH1 0x1 DUP1 PUSH1 0xA0 SHL SUB DUP8 SLOAD AND DUP1 EXTCODESIZE ISZERO PUSH2 0x1A88 JUMPI DUP8 DUP1 SWAP2 PUSH1 0x44 PUSH1 0x40 MLOAD DUP1 SWAP5 DUP2 SWAP4 PUSH4 0x37739BB PUSH1 0xE4 SHL DUP4 MSTORE DUP12 PUSH1 0x4 DUP5 ADD MSTORE TIMESTAMP PUSH1 0x24 DUP5 ADD MSTORE GAS CALL DUP1 ISZERO PUSH2 0x1A7D JUMPI SWAP1 DUP9 SWAP2 PUSH2 0x1B82 JUMPI JUMPDEST POP POP DUP7 SLOAD PUSH1 0x1 PUSH1 0x1 PUSH1 0xA0 SHL SUB AND DUP1 EXTCODESIZE ISZERO PUSH2 0x1A88 JUMPI DUP8 PUSH1 0x40 MLOAD DUP1 SWAP3 PUSH4 0x8E64CE7 PUSH1 0xE2 SHL DUP3 MSTORE DUP9 PUSH1 0x4 DUP4 ADD MSTORE PUSH1 0x40 PUSH1 0x24 DUP4 ADD MSTORE DUP2 DUP4 DUP2 PUSH2 0x17F5 PUSH1 0x44 DUP3 ADD DUP12 DUP14 PUSH2 0x2B45 JUMP JUMPDEST SUB SWAP3 GAS CALL DUP1 ISZERO PUSH2 0x1A7D JUMPI SWAP1 DUP9 SWAP2 PUSH2 0x1B6E JUMPI JUMPDEST POP POP DUP7 SLOAD PUSH1 0x1 PUSH1 0x1 PUSH1 0xA0 SHL SUB AND DUP1 EXTCODESIZE ISZERO PUSH2 0x1A88 JUMPI DUP8 DUP1 SWAP2 PUSH1 0x44 PUSH1 0x40 MLOAD DUP1 SWAP5 DUP2 SWAP4 PUSH4 0xCD970A63 PUSH1 0xE0 SHL DUP4 MSTORE DUP12 PUSH1 0x4 DUP5 ADD MSTORE PUSH2 0x1845 DUP14 PUSH1 0x24 DUP6 ADD SWAP1 PUSH2 0x2633 JUMP JUMPDEST GAS CALL DUP1 ISZERO PUSH2 0x1A7D JUMPI SWAP1 DUP9 SWAP2 PUSH2 0x1B5A JUMPI JUMPDEST POP POP PUSH1 0x5 GT DUP1 ISZERO PUSH2 0x1B33 JUMPI JUMPDEST SWAP7 DUP8 DUP8 SWAP9 SWAP1 ISZERO PUSH2 0x1B29 JUMPI JUMPDEST ISZERO PUSH2 0x1AA0 JUMPI PUSH1 0x1 SLOAD PUSH1 0x1 PUSH1 0x1 PUSH1 0xA0 SHL SUB AND DUP1 EXTCODESIZE ISZERO PUSH2 0x1A88 JUMPI DUP8 DUP1 SWAP2 PUSH1 0x84 PUSH1 0x40 MLOAD DUP1 SWAP5 DUP2 SWAP4 PUSH4 0xB1F6A98F PUSH1 0xE0 SHL DUP4 MSTORE DUP12 PUSH1 0x4 DUP5 ADD MSTORE PUSH1 0x40 PUSH1 0x24 DUP5 ADD MSTORE PUSH1 0x17 PUSH1 0x44 DUP5 ADD MSTORE PUSH32 0x4D4C20646574656374656420686967682064616D616765000000000000000000 PUSH1 0x64 DUP5 ADD MSTORE GAS CALL SWAP1 DUP2 ISZERO PUSH2 0x1A7D JUMPI DUP9 SWAP2 PUSH2 0x1A8C JUMPI JUMPDEST POP POP DUP7 SLOAD PUSH1 0x1 PUSH1 0x1 PUSH1 0xA0 SHL SUB AND SWAP3 DUP4 EXTCODESIZE ISZERO PUSH2 0x1A88 JUMPI DUP8 DUP1 SWAP5 PUSH1 0x44 PUSH1 0x40 MLOAD DUP1 SWAP8 DUP2 SWAP4 PUSH4 0xBEC514C3 PUSH1 0xE0 SHL DUP4 MSTORE DUP12 PUSH1 0x4 DUP5 ADD MSTORE PUSH1 0x3 PUSH1 0x24 DUP5 ADD MSTORE GAS CALL DUP1 ISZERO PUSH2 0x1A7D JUMPI DUP7 SWAP5 DUP10 SWAP2 PUSH2 0x1A64 JUMPI JUMPDEST POP POP SWAP3 PUSH1 0x0 DUP1 MLOAD PUSH1 0x20 PUSH2 0x2F9B DUP4 CODECOPY DUP2 MLOAD SWAP2 MSTORE DUP2 SWAP6 PUSH1 0x0 DUP1 MLOAD PUSH1 0x20 PUSH2 0x2F7B DUP4 CODECOPY DUP2 MLOAD SWAP2 MSTORE SWAP6 DUP4 PUSH1 0x0 DUP1 MLOAD PUSH1 0x20 PUSH2 0x2F5B DUP4 CODECOPY DUP2 MLOAD SWAP2 MSTORE PUSH2 0x19C8 PUSH2 0x196D DUP9 PUSH2 0x2E22 JUMP JUMPDEST PUSH2 0x19B4 PUSH1 0x31 PUSH1 0x40 MLOAD DUP1 SWAP4 PUSH17 0x26A6103230B6B0B3B29039B1B7B9329D1 PUSH1 0x7D SHL PUSH1 0x20 DUP4 ADD MSTORE PUSH2 0x19A4 DUP2 MLOAD DUP1 SWAP3 PUSH1 0x20 DUP7 DUP7 ADD SWAP2 ADD PUSH2 0x24A6 JUMP JUMPDEST DUP2 ADD SUB PUSH1 0x11 DUP2 ADD DUP5 MSTORE ADD DUP3 PUSH2 0x256C JUMP JUMPDEST PUSH1 0x40 MLOAD SWAP2 DUP3 SWAP2 PUSH1 0x20 DUP4 MSTORE PUSH1 0x20 DUP4 ADD SWAP1 PUSH2 0x24C9 JUMP JUMPDEST SUB SWAP1 LOG2 JUMPDEST PUSH2 0x19E3 PUSH1 0x40 MLOAD SWAP3 DUP4 SWAP3 PUSH1 0x40 DUP5 MSTORE PUSH1 0x40 DUP5 ADD SWAP2 PUSH2 0x2B45 JUMP JUMPDEST PUSH1 0x1 PUSH1 0x20 DUP4 ADD MSTORE SUB SWAP1 LOG2 PUSH2 0x1A09 PUSH1 0x40 MLOAD SWAP3 DUP4 SWAP3 DUP4 MSTORE PUSH1 0x40 PUSH1 0x20 DUP5 ADD MSTORE PUSH1 0x40 DUP4 ADD SWAP1 PUSH2 0x24C9 JUMP JUMPDEST SUB SWAP1 LOG2 DUP3 SLOAD PUSH1 0x1 PUSH1 0x1 PUSH1 0xA0 SHL SUB AND SWAP2 DUP3 EXTCODESIZE ISZERO PUSH2 0x1A5F JUMPI PUSH1 0x64 DUP5 SWAP3 DUP4 PUSH2 0x1A49 SWAP6 PUSH1 0x40 MLOAD SWAP7 DUP8 SWAP6 DUP7 SWAP5 PUSH4 0x15BA312D PUSH1 0xE0 SHL DUP7 MSTORE PUSH1 0x4 DUP7 ADD MSTORE PUSH1 0x24 DUP6 ADD SWAP1 PUSH2 0x2633 JUMP JUMPDEST PUSH1 0x1 PUSH1 0x44 DUP5 ADD MSTORE GAS CALL DUP1 ISZERO PUSH2 0x5D7 JUMPI PUSH2 0x5C7 JUMPI POP RETURN JUMPDEST POP POP POP REVERT JUMPDEST PUSH2 0x1A70 SWAP2 SWAP3 SWAP6 POP PUSH2 0x2528 JUMP JUMPDEST PUSH2 0x610 JUMPI DUP5 SWAP3 DUP8 CODESIZE PUSH2 0x192D JUMP JUMPDEST PUSH1 0x40 MLOAD RETURNDATASIZE DUP11 DUP3 RETURNDATACOPY RETURNDATASIZE SWAP1 REVERT JUMPDEST DUP8 DUP1 REVERT JUMPDEST PUSH2 0x1A95 SWAP1 PUSH2 0x2528 JUMP JUMPDEST PUSH2 0x610 JUMPI DUP7 CODESIZE PUSH2 0x18E4 JUMP JUMPDEST DUP7 SLOAD PUSH1 0x1 PUSH1 0x1 PUSH1 0xA0 SHL SUB AND SWAP3 DUP4 EXTCODESIZE ISZERO PUSH2 0x1A88 JUMPI DUP8 DUP1 SWAP5 PUSH1 0x44 PUSH1 0x40 MLOAD DUP1 SWAP8 DUP2 SWAP4 PUSH4 0xBEC514C3 PUSH1 0xE0 SHL DUP4 MSTORE DUP12 PUSH1 0x4 DUP5 ADD MSTORE PUSH1 0x2 PUSH1 0x24 DUP5 ADD MSTORE GAS CALL DUP1 ISZERO PUSH2 0x1A7D JUMPI DUP7 SWAP5 DUP10 SWAP2 PUSH2 0x1B10 JUMPI JUMPDEST POP POP SWAP3 PUSH1 0x0 DUP1 MLOAD PUSH1 0x20 PUSH2 0x2F9B DUP4 CODECOPY DUP2 MLOAD SWAP2 MSTORE DUP2 SWAP6 PUSH1 0x0 DUP1 MLOAD PUSH1 0x20 PUSH2 0x2F7B DUP4 CODECOPY DUP2 MLOAD SWAP2 MSTORE SWAP6 PUSH2 0x19CC JUMP JUMPDEST PUSH2 0x1B1C SWAP2 SWAP3 SWAP6 POP PUSH2 0x2528 JUMP JUMPDEST PUSH2 0x610 JUMPI DUP5 SWAP3 DUP8 CODESIZE PUSH2 0x1AE7 JUMP JUMPDEST POP PUSH1 0x4B DUP2 GT PUSH2 0x186C JUMP JUMPDEST POP PUSH1 0x4 DUP6 LT ISZERO PUSH2 0x1B46 JUMPI PUSH1 0x3 DUP6 EQ PUSH2 0x1861 JUMP JUMPDEST PUSH4 0x4E487B71 PUSH1 0xE0 SHL DUP7 MSTORE PUSH1 0x21 PUSH1 0x4 MSTORE PUSH1 0x24 DUP7 REVERT JUMPDEST PUSH2 0x1B63 SWAP1 PUSH2 0x2528 JUMP JUMPDEST PUSH2 0x610 JUMPI DUP7 CODESIZE PUSH2 0x1855 JUMP JUMPDEST PUSH2 0x1B77 SWAP1 PUSH2 0x2528 JUMP JUMPDEST PUSH2 0x610 JUMPI DUP7 CODESIZE PUSH2 0x1807 JUMP JUMPDEST PUSH2 0x1B8B SWAP1 PUSH2 0x2528 JUMP JUMPDEST PUSH2 0x610 JUMPI DUP7 CODESIZE PUSH2 0x17B3 JUMP JUMPDEST ADD CALLDATALOAD SWAP1 POP CODESIZE DUP1 PUSH2 0x172E JUMP JUMPDEST DUP5 DUP13 MSTORE PUSH1 0x20 DUP13 KECCAK256 DUP13 SWAP5 POP SWAP2 JUMPDEST PUSH1 0x1F NOT DUP5 AND DUP6 LT PUSH2 0x1BEF JUMPI PUSH1 0x1 SWAP5 POP DUP4 PUSH1 0x1F NOT DUP2 AND LT PUSH2 0x1BD5 JUMPI JUMPDEST POP POP POP DUP2 SHL ADD SWAP1 SSTORE PUSH2 0x1743 JUMP JUMPDEST ADD CALLDATALOAD PUSH1 0x0 NOT PUSH1 0x3 DUP5 SWAP1 SHL PUSH1 0xF8 AND SHR NOT AND SWAP1 SSTORE CODESIZE DUP1 DUP1 PUSH2 0x1BC8 JUMP JUMPDEST DUP2 DUP2 ADD CALLDATALOAD DUP4 SSTORE PUSH1 0x20 SWAP5 DUP6 ADD SWAP5 PUSH1 0x1 SWAP1 SWAP4 ADD SWAP3 ADD PUSH2 0x1BAD JUMP JUMPDEST SWAP1 SWAP2 POP DUP4 DUP12 MSTORE PUSH1 0x20 DUP12 KECCAK256 PUSH1 0x1F DUP5 ADD PUSH1 0x5 SHR DUP2 ADD PUSH1 0x20 DUP6 LT PUSH2 0x1C4E JUMPI JUMPDEST SWAP1 DUP5 SWAP4 SWAP3 SWAP2 JUMPDEST DUP14 PUSH1 0x1F DUP5 ADD PUSH1 0x5 SHR DUP4 ADD DUP3 LT PUSH2 0x1C41 JUMPI POP POP POP PUSH2 0x1719 JUMP JUMPDEST DUP2 SSTORE DUP6 SWAP5 POP PUSH1 0x1 ADD PUSH2 0x1C29 JUMP JUMPDEST POP DUP1 PUSH2 0x1C23 JUMP JUMPDEST PUSH4 0x4E487B71 PUSH1 0xE0 SHL DUP11 MSTORE PUSH1 0x41 PUSH1 0x4 MSTORE PUSH1 0x24 DUP11 REVERT JUMPDEST SWAP8 SWAP3 POP PUSH1 0x20 DUP9 RETURNDATASIZE PUSH1 0x20 GT PUSH2 0x1C99 JUMPI JUMPDEST DUP2 PUSH2 0x1C85 PUSH1 0x20 SWAP4 DUP4 PUSH2 0x256C JUMP JUMPDEST DUP2 ADD SUB SLT PUSH2 0x806 JUMPI SWAP7 MLOAD SWAP2 SWAP7 PUSH2 0x16E6 PUSH2 0x16BE JUMP JUMPDEST RETURNDATASIZE SWAP2 POP PUSH2 0x1C78 JUMP JUMPDEST DUP8 PUSH1 0x64 SUB PUSH1 0x64 DUP2 GT PUSH2 0x1CB7 JUMPI SWAP1 PUSH1 0x24 SWAP2 SWAP7 PUSH2 0x1685 JUMP JUMPDEST PUSH4 0x4E487B71 PUSH1 0xE0 SHL DUP9 MSTORE PUSH1 0x11 PUSH1 0x4 MSTORE PUSH1 0x24 DUP9 REVERT JUMPDEST SWAP1 POP PUSH2 0x1676 SWAP10 POP PUSH2 0x166F SWAP4 POP PUSH2 0x1CF3 SWAP2 POP RETURNDATASIZE DUP1 DUP11 DUP4 RETURNDATACOPY PUSH2 0x1CEB DUP2 DUP4 PUSH2 0x256C JUMP JUMPDEST DUP2 ADD SWAP1 PUSH2 0x2C66 JUMP JUMPDEST SWAP3 SWAP11 POP SWAP1 SWAP4 SWAP1 SWAP2 SWAP1 PUSH2 0x1661 JUMP JUMPDEST PUSH1 0x40 MLOAD RETURNDATASIZE DUP9 DUP3 RETURNDATACOPY RETURNDATASIZE SWAP1 REVERT JUMPDEST PUSH2 0x1D1F SWAP2 POP RETURNDATASIZE DUP1 DUP11 DUP4 RETURNDATACOPY PUSH2 0x98C DUP2 DUP4 PUSH2 0x256C JUMP JUMPDEST CODESIZE PUSH2 0x15D2 JUMP JUMPDEST POP CALLVALUE PUSH2 0x118 JUMPI PUSH1 0x20 CALLDATASIZE PUSH1 0x3 NOT ADD SLT PUSH2 0x118 JUMPI PUSH2 0x1D66 PUSH2 0x1D45 PUSH1 0x4 CALLDATALOAD PUSH2 0x2D34 JUMP JUMPDEST SWAP2 SWAP4 SWAP1 PUSH1 0x40 MLOAD SWAP5 DUP6 SWAP5 DUP6 MSTORE PUSH1 0x20 DUP6 ADD MSTORE PUSH1 0x80 PUSH1 0x40 DUP6 ADD MSTORE PUSH1 0x80 DUP5 ADD SWAP1 PUSH2 0x24C9 JUMP JUMPDEST SWAP1 ISZERO ISZERO PUSH1 0x60 DUP4 ADD MSTORE SUB SWAP1 RETURN JUMPDEST SWAP1 POP CALLVALUE PUSH2 0x1512 JUMPI PUSH2 0x1D82 CALLDATASIZE PUSH2 0x2454 JUMP JUMPDEST SWAP2 SWAP7 SWAP5 SWAP4 SWAP6 DUP6 DUP2 PUSH1 0x24 DUP2 PUSH1 0x1 DUP1 PUSH1 0xA0 SWAP10 SWAP8 SWAP10 SHL SUB DUP5 SLOAD AND PUSH4 0x2E76C56D PUSH1 0xE2 SHL DUP3 MSTORE DUP10 PUSH1 0x4 DUP4 ADD MSTORE GAS STATICCALL SWAP1 DUP2 ISZERO PUSH2 0x1D00 JUMPI SWAP1 PUSH1 0x20 SWAP2 DUP8 SWAP2 PUSH2 0x240D JUMPI JUMPDEST POP PUSH2 0x1DD6 PUSH1 0x1 DUP1 PUSH1 0xA0 SHL SUB PUSH1 0xE0 DUP4 ADD MLOAD MLOAD AND CALLER EQ PUSH2 0x2B66 JUMP JUMPDEST ADD MLOAD PUSH1 0x3 DUP2 LT ISZERO PUSH2 0x1B46 JUMPI PUSH1 0x2 PUSH2 0x1DED SWAP2 EQ PUSH2 0x2BA2 JUMP JUMPDEST DUP4 DUP6 MSTORE PUSH1 0x6 PUSH1 0x20 MSTORE PUSH2 0x1E04 DUP7 PUSH1 0x40 DUP8 KECCAK256 SLOAD EQ PUSH2 0x2C25 JUMP JUMPDEST PUSH1 0x3 SLOAD PUSH1 0x1 PUSH1 0x1 PUSH1 0xA0 SHL SUB AND SWAP6 DUP6 SWAP1 PUSH2 0x1E1E DUP9 ISZERO ISZERO PUSH2 0x2BE5 JUMP JUMPDEST PUSH1 0x24 PUSH1 0x40 MLOAD DUP1 SWAP10 DUP2 SWAP4 PUSH4 0xDC6423AB PUSH1 0xE0 SHL DUP4 MSTORE PUSH1 0x4 DUP4 ADD MSTORE GAS STATICCALL SWAP1 DUP2 ISZERO PUSH2 0x1507 JUMPI DUP6 SWAP7 DUP7 SWAP3 DUP8 SWAP2 DUP9 SWAP2 PUSH2 0x23E0 JUMPI JUMPDEST POP SWAP1 PUSH2 0x166F PUSH2 0x1E5A SWAP3 PUSH2 0x2CA7 JUMP JUMPDEST PUSH1 0x64 DUP8 GT ISZERO PUSH2 0x23B6 JUMPI PUSH1 0x24 SWAP1 DUP7 SWAP9 JUMPDEST PUSH1 0x2 SLOAD PUSH1 0x40 MLOAD PUSH4 0x56100913 PUSH1 0xE0 SHL DUP2 MSTORE PUSH1 0x4 DUP2 ADD DUP10 SWAP1 MSTORE SWAP4 PUSH1 0x20 SWAP2 DUP6 SWAP2 SWAP1 DUP3 SWAP1 PUSH1 0x1 PUSH1 0x1 PUSH1 0xA0 SHL SUB AND GAS STATICCALL SWAP3 DUP4 ISZERO PUSH2 0x1A7D JUMPI DUP9 SWAP4 PUSH2 0x237E JUMPI JUMPDEST POP PUSH2 0x1ECC DUP11 PUSH2 0x1EB4 PUSH1 0x1 SWAP11 SWAP12 SWAP13 PUSH2 0x2DF2 JUMP JUMPDEST SWAP10 DUP11 SWAP2 DUP11 DUP14 MSTORE PUSH1 0x5 PUSH1 0x20 MSTORE PUSH1 0x40 DUP14 KECCAK256 SWAP1 DUP2 SSTORE ADD PUSH2 0x2B2D JUMP JUMPDEST DUP7 DUP10 MSTORE PUSH1 0x5 PUSH1 0x20 MSTORE PUSH1 0x2 PUSH1 0x40 DUP11 KECCAK256 ADD SWAP2 PUSH1 0x1 PUSH1 0x1 PUSH1 0x40 SHL SUB DUP3 GT PUSH2 0x1C55 JUMPI DUP2 SWAP1 PUSH2 0x1EF6 DUP5 SLOAD PUSH2 0x24EE JUMP JUMPDEST PUSH1 0x1F DUP2 GT PUSH2 0x2330 JUMPI JUMPDEST POP DUP11 SWAP1 PUSH1 0x1F DUP4 GT PUSH1 0x1 EQ PUSH2 0x22CA JUMPI DUP12 SWAP3 PUSH2 0x22BF JUMPI JUMPDEST POP POP DUP2 PUSH1 0x1 SHL SWAP2 PUSH1 0x0 NOT SWAP1 PUSH1 0x3 SHL SHR NOT AND OR SWAP1 SSTORE JUMPDEST DUP5 DUP8 MSTORE PUSH1 0x5 PUSH1 0x20 DUP2 SWAP1 MSTORE PUSH1 0x40 DUP9 KECCAK256 PUSH1 0x3 DUP2 ADD DUP4 SWAP1 SSTORE TIMESTAMP PUSH1 0x4 DUP3 ADD SSTORE ADD DUP1 SLOAD PUSH1 0x1 PUSH1 0x1 PUSH1 0xA0 SHL SUB NOT AND CALLER OR SWAP1 SSTORE DUP7 SLOAD PUSH1 0x1 PUSH1 0x1 PUSH1 0xA0 SHL SUB AND DUP1 EXTCODESIZE ISZERO PUSH2 0x1A88 JUMPI DUP8 DUP1 SWAP2 PUSH1 0x44 PUSH1 0x40 MLOAD DUP1 SWAP5 DUP2 SWAP4 PUSH4 0x23DAFD79 PUSH1 0xE1 SHL DUP4 MSTORE DUP12 PUSH1 0x4 DUP5 ADD MSTORE TIMESTAMP PUSH1 0x24 DUP5 ADD MSTORE GAS CALL DUP1 ISZERO PUSH2 0x1A7D JUMPI PUSH2 0x22AC JUMPI JUMPDEST POP DUP7 SLOAD PUSH1 0x1 PUSH1 0x1 PUSH1 0xA0 SHL SUB AND DUP1 EXTCODESIZE ISZERO PUSH2 0x1A88 JUMPI DUP8 PUSH1 0x40 MLOAD DUP1 SWAP3 PUSH4 0x1E509437 PUSH1 0xE0 SHL DUP3 MSTORE DUP9 PUSH1 0x4 DUP4 ADD MSTORE PUSH1 0x40 PUSH1 0x24 DUP4 ADD MSTORE DUP2 DUP4 DUP2 PUSH2 0x1FD7 PUSH1 0x44 DUP3 ADD DUP12 DUP14 PUSH2 0x2B45 JUMP JUMPDEST SUB SWAP3 GAS CALL DUP1 ISZERO PUSH2 0x1A7D JUMPI SWAP1 DUP9 SWAP2 PUSH2 0x2298 JUMPI JUMPDEST POP POP DUP7 SLOAD PUSH1 0x1 PUSH1 0x1 PUSH1 0xA0 SHL SUB AND DUP1 EXTCODESIZE ISZERO PUSH2 0x1A88 JUMPI DUP8 DUP1 SWAP2 PUSH1 0x44 PUSH1 0x40 MLOAD DUP1 SWAP5 DUP2 SWAP4 PUSH4 0xCD970A63 PUSH1 0xE0 SHL DUP4 MSTORE DUP12 PUSH1 0x4 DUP5 ADD MSTORE PUSH2 0x2027 DUP14 PUSH1 0x24 DUP6 ADD SWAP1 PUSH2 0x2633 JUMP JUMPDEST GAS CALL DUP1 ISZERO PUSH2 0x1A7D JUMPI SWAP1 DUP9 SWAP2 PUSH2 0x2284 JUMPI JUMPDEST POP POP PUSH1 0x5 GT DUP1 ISZERO PUSH2 0x2271 JUMPI JUMPDEST SWAP7 DUP8 DUP8 SWAP9 SWAP1 ISZERO PUSH2 0x2267 JUMPI JUMPDEST ISZERO PUSH2 0x21DE JUMPI DUP7 SLOAD PUSH1 0x1 PUSH1 0x1 PUSH1 0xA0 SHL SUB AND DUP1 EXTCODESIZE ISZERO PUSH2 0x1A88 JUMPI DUP8 DUP1 SWAP2 PUSH1 0x24 PUSH1 0x40 MLOAD DUP1 SWAP5 DUP2 SWAP4 PUSH4 0x7EBBF2EF PUSH1 0xE1 SHL DUP4 MSTORE DUP12 PUSH1 0x4 DUP5 ADD MSTORE GAS CALL SWAP1 DUP2 ISZERO PUSH2 0x1A7D JUMPI DUP9 SWAP2 PUSH2 0x21CA JUMPI JUMPDEST POP POP DUP7 SLOAD PUSH1 0x1 PUSH1 0x1 PUSH1 0xA0 SHL SUB AND SWAP3 DUP4 EXTCODESIZE ISZERO PUSH2 0x1A88 JUMPI DUP8 DUP1 SWAP5 PUSH1 0x44 PUSH1 0x40 MLOAD DUP1 SWAP8 DUP2 SWAP4 PUSH4 0xBEC514C3 PUSH1 0xE0 SHL DUP4 MSTORE DUP12 PUSH1 0x4 DUP5 ADD MSTORE PUSH1 0x3 PUSH1 0x24 DUP5 ADD MSTORE GAS CALL DUP1 ISZERO PUSH2 0x1A7D JUMPI DUP7 SWAP5 DUP10 SWAP2 PUSH2 0x21B1 JUMPI JUMPDEST POP POP SWAP3 PUSH1 0x0 DUP1 MLOAD PUSH1 0x20 PUSH2 0x2F9B DUP4 CODECOPY DUP2 MLOAD SWAP2 MSTORE DUP2 SWAP6 PUSH1 0x0 DUP1 MLOAD PUSH1 0x20 PUSH2 0x2F7B DUP4 CODECOPY DUP2 MLOAD SWAP2 MSTORE SWAP6 DUP4 PUSH1 0x0 DUP1 MLOAD PUSH1 0x20 PUSH2 0x2F5B DUP4 CODECOPY DUP2 MLOAD SWAP2 MSTORE PUSH2 0x211A PUSH2 0x196D DUP9 PUSH2 0x2E22 JUMP JUMPDEST SUB SWAP1 LOG2 JUMPDEST PUSH2 0x2135 PUSH1 0x40 MLOAD SWAP3 DUP4 SWAP3 PUSH1 0x40 DUP5 MSTORE PUSH1 0x40 DUP5 ADD SWAP2 PUSH2 0x2B45 JUMP JUMPDEST PUSH1 0x2 PUSH1 0x20 DUP4 ADD MSTORE SUB SWAP1 LOG2 PUSH2 0x215B PUSH1 0x40 MLOAD SWAP3 DUP4 SWAP3 DUP4 MSTORE PUSH1 0x40 PUSH1 0x20 DUP5 ADD MSTORE PUSH1 0x40 DUP4 ADD SWAP1 PUSH2 0x24C9 JUMP JUMPDEST SUB SWAP1 LOG2 DUP3 SLOAD PUSH1 0x1 PUSH1 0x1 PUSH1 0xA0 SHL SUB AND SWAP2 DUP3 EXTCODESIZE ISZERO PUSH2 0x1A5F JUMPI PUSH1 0x64 DUP5 SWAP3 DUP4 PUSH2 0x219B SWAP6 PUSH1 0x40 MLOAD SWAP7 DUP8 SWAP6 DUP7 SWAP5 PUSH4 0x15BA312D PUSH1 0xE0 SHL DUP7 MSTORE PUSH1 0x4 DUP7 ADD MSTORE PUSH1 0x24 DUP6 ADD SWAP1 PUSH2 0x2633 JUMP JUMPDEST PUSH1 0x2 PUSH1 0x44 DUP5 ADD MSTORE GAS CALL DUP1 ISZERO PUSH2 0x5D7 JUMPI PUSH2 0x5C7 JUMPI POP RETURN JUMPDEST PUSH2 0x21BD SWAP2 SWAP3 SWAP6 POP PUSH2 0x2528 JUMP JUMPDEST PUSH2 0x610 JUMPI DUP5 SWAP3 DUP8 CODESIZE PUSH2 0x20DA JUMP JUMPDEST PUSH2 0x21D3 SWAP1 PUSH2 0x2528 JUMP JUMPDEST PUSH2 0x610 JUMPI DUP7 CODESIZE PUSH2 0x2091 JUMP JUMPDEST DUP7 SLOAD PUSH1 0x1 PUSH1 0x1 PUSH1 0xA0 SHL SUB AND SWAP3 DUP4 EXTCODESIZE ISZERO PUSH2 0x1A88 JUMPI DUP8 DUP1 SWAP5 PUSH1 0x44 PUSH1 0x40 MLOAD DUP1 SWAP8 DUP2 SWAP4 PUSH4 0xBEC514C3 PUSH1 0xE0 SHL DUP4 MSTORE DUP12 PUSH1 0x4 DUP5 ADD MSTORE PUSH1 0x2 PUSH1 0x24 DUP5 ADD MSTORE GAS CALL DUP1 ISZERO PUSH2 0x1A7D JUMPI DUP7 SWAP5 DUP10 SWAP2 PUSH2 0x224E JUMPI JUMPDEST POP POP SWAP3 PUSH1 0x0 DUP1 MLOAD PUSH1 0x20 PUSH2 0x2F9B DUP4 CODECOPY DUP2 MLOAD SWAP2 MSTORE DUP2 SWAP6 PUSH1 0x0 DUP1 MLOAD PUSH1 0x20 PUSH2 0x2F7B DUP4 CODECOPY DUP2 MLOAD SWAP2 MSTORE SWAP6 PUSH2 0x211E JUMP JUMPDEST PUSH2 0x225A SWAP2 SWAP3 SWAP6 POP PUSH2 0x2528 JUMP JUMPDEST PUSH2 0x610 JUMPI DUP5 SWAP3 DUP8 CODESIZE PUSH2 0x2225 JUMP JUMPDEST POP PUSH1 0x4B DUP2 GT PUSH2 0x204E JUMP JUMPDEST POP PUSH1 0x4 DUP6 LT ISZERO PUSH2 0x1B46 JUMPI PUSH1 0x3 DUP6 EQ PUSH2 0x2043 JUMP JUMPDEST PUSH2 0x228D SWAP1 PUSH2 0x2528 JUMP JUMPDEST PUSH2 0x610 JUMPI DUP7 CODESIZE PUSH2 0x2037 JUMP JUMPDEST PUSH2 0x22A1 SWAP1 PUSH2 0x2528 JUMP JUMPDEST PUSH2 0x610 JUMPI DUP7 CODESIZE PUSH2 0x1FE9 JUMP JUMPDEST PUSH2 0x22B8 SWAP1 SWAP8 SWAP2 SWAP8 PUSH2 0x2528 JUMP JUMPDEST SWAP6 CODESIZE PUSH2 0x1F96 JUMP JUMPDEST ADD CALLDATALOAD SWAP1 POP CODESIZE DUP1 PUSH2 0x1F14 JUMP JUMPDEST DUP5 DUP13 MSTORE PUSH1 0x20 DUP13 KECCAK256 DUP13 SWAP5 POP SWAP2 JUMPDEST PUSH1 0x1F NOT DUP5 AND DUP6 LT PUSH2 0x2318 JUMPI PUSH1 0x1 SWAP5 POP DUP4 PUSH1 0x1F NOT DUP2 AND LT PUSH2 0x22FE JUMPI JUMPDEST POP POP POP DUP2 SHL ADD SWAP1 SSTORE PUSH2 0x1F29 JUMP JUMPDEST ADD CALLDATALOAD PUSH1 0x0 NOT PUSH1 0x3 DUP5 SWAP1 SHL PUSH1 0xF8 AND SHR NOT AND SWAP1 SSTORE CODESIZE DUP1 DUP1 PUSH2 0x22F1 JUMP JUMPDEST DUP2 DUP2 ADD CALLDATALOAD DUP4 SSTORE PUSH1 0x20 SWAP5 DUP6 ADD SWAP5 PUSH1 0x1 SWAP1 SWAP4 ADD SWAP3 ADD PUSH2 0x22D6 JUMP JUMPDEST SWAP1 SWAP2 POP DUP4 DUP12 MSTORE PUSH1 0x20 DUP12 KECCAK256 PUSH1 0x1F DUP5 ADD PUSH1 0x5 SHR DUP2 ADD PUSH1 0x20 DUP6 LT PUSH2 0x2377 JUMPI JUMPDEST SWAP1 DUP5 SWAP4 SWAP3 SWAP2 JUMPDEST DUP14 PUSH1 0x1F DUP5 ADD PUSH1 0x5 SHR DUP4 ADD DUP3 LT PUSH2 0x236A JUMPI POP POP POP PUSH2 0x1EFF JUMP JUMPDEST DUP2 SSTORE DUP6 SWAP5 POP PUSH1 0x1 ADD PUSH2 0x2352 JUMP JUMPDEST POP DUP1 PUSH2 0x234C JUMP JUMPDEST SWAP10 SWAP3 POP PUSH1 0x20 DUP11 RETURNDATASIZE PUSH1 0x20 GT PUSH2 0x23AE JUMPI JUMPDEST DUP2 PUSH2 0x239A PUSH1 0x20 SWAP4 DUP4 PUSH2 0x256C JUMP JUMPDEST DUP2 ADD SUB SLT PUSH2 0x1A88 JUMPI SWAP9 MLOAD SWAP2 SWAP9 PUSH2 0x1ECC PUSH2 0x1EA2 JUMP JUMPDEST RETURNDATASIZE SWAP2 POP PUSH2 0x238D JUMP JUMPDEST DUP7 PUSH1 0x64 SUB PUSH1 0x64 DUP2 GT PUSH2 0x23CC JUMPI SWAP1 PUSH1 0x24 SWAP2 SWAP9 PUSH2 0x1E69 JUMP JUMPDEST PUSH4 0x4E487B71 PUSH1 0xE0 SHL DUP8 MSTORE PUSH1 0x11 PUSH1 0x4 MSTORE PUSH1 0x24 DUP8 REVERT JUMPDEST SWAP1 POP PUSH2 0x1E5A SWAP9 POP PUSH2 0x166F SWAP4 POP PUSH2 0x2400 SWAP2 POP RETURNDATASIZE DUP1 DUP10 DUP4 RETURNDATACOPY PUSH2 0x1CEB DUP2 DUP4 PUSH2 0x256C JUMP JUMPDEST SWAP3 SWAP10 POP SWAP1 SWAP4 SWAP1 SWAP2 SWAP1 PUSH2 0x1E4C JUMP JUMPDEST PUSH2 0x2421 SWAP2 POP RETURNDATASIZE DUP1 DUP10 DUP4 RETURNDATACOPY PUSH2 0x98C DUP2 DUP4 PUSH2 0x256C JUMP JUMPDEST CODESIZE PUSH2 0x1DBD JUMP JUMPDEST SWAP2 DUP2 PUSH1 0x1F DUP5 ADD SLT ISZERO PUSH2 0x806 JUMPI DUP3 CALLDATALOAD SWAP2 PUSH1 0x1 PUSH1 0x1 PUSH1 0x40 SHL SUB DUP4 GT PUSH2 0x806 JUMPI PUSH1 0x20 DUP4 DUP2 DUP7 ADD SWAP6 ADD ADD GT PUSH2 0x806 JUMPI JUMP JUMPDEST PUSH1 0x80 PUSH1 0x3 NOT DUP3 ADD SLT PUSH2 0x806 JUMPI PUSH1 0x4 CALLDATALOAD SWAP2 PUSH1 0x24 CALLDATALOAD SWAP2 PUSH1 0x1 PUSH1 0x1 PUSH1 0x40 SHL SUB SWAP2 PUSH1 0x44 CALLDATALOAD DUP4 DUP2 GT PUSH2 0x806 JUMPI DUP3 PUSH2 0x2488 SWAP2 PUSH1 0x4 ADD PUSH2 0x2427 JUMP JUMPDEST SWAP4 SWAP1 SWAP4 SWAP3 PUSH1 0x64 CALLDATALOAD SWAP2 DUP3 GT PUSH2 0x806 JUMPI PUSH2 0x24A2 SWAP2 PUSH1 0x4 ADD PUSH2 0x2427 JUMP JUMPDEST SWAP1 SWAP2 JUMP JUMPDEST PUSH1 0x0 JUMPDEST DUP4 DUP2 LT PUSH2 0x24B9 JUMPI POP POP PUSH1 0x0 SWAP2 ADD MSTORE JUMP JUMPDEST DUP2 DUP2 ADD MLOAD DUP4 DUP3 ADD MSTORE PUSH1 0x20 ADD PUSH2 0x24A9 JUMP JUMPDEST SWAP1 PUSH1 0x20 SWAP2 PUSH2 0x24E2 DUP2 MLOAD DUP1 SWAP3 DUP2 DUP6 MSTORE DUP6 DUP1 DUP7 ADD SWAP2 ADD PUSH2 0x24A6 JUMP JUMPDEST PUSH1 0x1F ADD PUSH1 0x1F NOT AND ADD ADD SWAP1 JUMP JUMPDEST SWAP1 PUSH1 0x1 DUP3 DUP2 SHR SWAP3 AND DUP1 ISZERO PUSH2 0x251E JUMPI JUMPDEST PUSH1 0x20 DUP4 LT EQ PUSH2 0x2508 JUMPI JUMP JUMPDEST PUSH4 0x4E487B71 PUSH1 0xE0 SHL PUSH1 0x0 MSTORE PUSH1 0x22 PUSH1 0x4 MSTORE PUSH1 0x24 PUSH1 0x0 REVERT JUMPDEST SWAP2 PUSH1 0x7F AND SWAP2 PUSH2 0x24FD JUMP JUMPDEST PUSH1 0x1 PUSH1 0x1 PUSH1 0x40 SHL SUB DUP2 GT PUSH2 0x253B JUMPI PUSH1 0x40 MSTORE JUMP JUMPDEST PUSH4 0x4E487B71 PUSH1 0xE0 SHL PUSH1 0x0 MSTORE PUSH1 0x41 PUSH1 0x4 MSTORE PUSH1 0x24 PUSH1 0x0 REVERT JUMPDEST PUSH1 0xC0 DUP2 ADD SWAP1 DUP2 LT PUSH1 0x1 PUSH1 0x1 PUSH1 0x40 SHL SUB DUP3 GT OR PUSH2 0x253B JUMPI PUSH1 0x40 MSTORE JUMP JUMPDEST SWAP1 PUSH1 0x1F DUP1 NOT SWAP2 ADD AND DUP2 ADD SWAP1 DUP2 LT PUSH1 0x1 PUSH1 0x1 PUSH1 0x40 SHL SUB DUP3 GT OR PUSH2 0x253B JUMPI PUSH1 0x40 MSTORE JUMP JUMPDEST SWAP1 PUSH1 0x40 MLOAD SWAP2 DUP3 PUSH1 0x0 DUP3 SLOAD SWAP3 PUSH2 0x25A1 DUP5 PUSH2 0x24EE JUMP JUMPDEST SWAP1 DUP2 DUP5 MSTORE PUSH1 0x1 SWAP5 DUP6 DUP2 AND SWAP1 DUP2 PUSH1 0x0 EQ PUSH2 0x2610 JUMPI POP PUSH1 0x1 EQ PUSH2 0x25CD JUMPI JUMPDEST POP POP PUSH2 0x25CB SWAP3 POP SUB DUP4 PUSH2 0x256C JUMP JUMPDEST JUMP JUMPDEST SWAP1 SWAP4 SWAP2 POP PUSH1 0x0 MSTORE PUSH1 0x20 SWAP1 DUP2 PUSH1 0x0 KECCAK256 SWAP4 PUSH1 0x0 SWAP2 JUMPDEST DUP2 DUP4 LT PUSH2 0x25F8 JUMPI POP POP PUSH2 0x25CB SWAP4 POP DUP3 ADD ADD CODESIZE DUP1 PUSH2 0x25BD JUMP JUMPDEST DUP6 SLOAD DUP9 DUP5 ADD DUP6 ADD MSTORE SWAP5 DUP6 ADD SWAP5 DUP8 SWAP5 POP SWAP2 DUP4 ADD SWAP2 PUSH2 0x25E0 JUMP JUMPDEST SWAP2 POP POP PUSH2 0x25CB SWAP5 POP PUSH1 0x20 SWAP3 POP PUSH1 0xFF NOT AND DUP3 DUP5 ADD MSTORE ISZERO ISZERO PUSH1 0x5 SHL DUP3 ADD ADD CODESIZE DUP1 PUSH2 0x25BD JUMP JUMPDEST SWAP1 PUSH1 0x4 DUP3 LT ISZERO PUSH2 0x2640 JUMPI MSTORE JUMP JUMPDEST PUSH4 0x4E487B71 PUSH1 0xE0 SHL PUSH1 0x0 MSTORE PUSH1 0x21 PUSH1 0x4 MSTORE PUSH1 0x24 PUSH1 0x0 REVERT JUMPDEST SWAP5 SWAP2 SWAP3 PUSH2 0x2672 PUSH1 0xA0 SWAP6 SWAP9 SWAP8 SWAP5 PUSH2 0x2683 SWAP4 DUP9 MSTORE PUSH1 0x20 DUP9 ADD SWAP1 PUSH2 0x2633 JUMP JUMPDEST PUSH1 0xC0 PUSH1 0x40 DUP8 ADD MSTORE PUSH1 0xC0 DUP7 ADD SWAP1 PUSH2 0x24C9 JUMP JUMPDEST SWAP6 PUSH1 0x60 DUP6 ADD MSTORE PUSH1 0x80 DUP5 ADD MSTORE PUSH1 0x1 DUP1 DUP4 SHL SUB AND SWAP2 ADD MSTORE JUMP JUMPDEST PUSH1 0x20 DUP2 MSTORE DUP2 MLOAD PUSH1 0x20 DUP3 ADD MSTORE PUSH2 0x26B7 PUSH1 0x20 DUP4 ADD MLOAD PUSH1 0x40 DUP4 ADD SWAP1 PUSH2 0x2633 JUMP JUMPDEST PUSH1 0xC0 PUSH2 0x26D1 PUSH1 0x40 DUP5 ADD MLOAD DUP3 PUSH1 0x60 DUP6 ADD MSTORE PUSH1 0xE0 DUP5 ADD SWAP1 PUSH2 0x24C9 JUMP JUMPDEST SWAP3 PUSH1 0x60 DUP2 ADD MLOAD PUSH1 0x80 DUP5 ADD MSTORE PUSH1 0x80 DUP2 ADD MLOAD PUSH1 0xA0 DUP5 ADD MSTORE PUSH1 0xA0 PUSH1 0x1 DUP1 DUP3 SHL SUB SWAP2 ADD MLOAD AND SWAP2 ADD MSTORE SWAP1 JUMP JUMPDEST SWAP1 DUP2 PUSH1 0x20 SWAP2 SUB SLT PUSH2 0x806 JUMPI MLOAD PUSH1 0x5 DUP2 LT ISZERO PUSH2 0x806 JUMPI SWAP1 JUMP JUMPDEST ISZERO PUSH2 0x2717 JUMPI JUMP JUMPDEST PUSH1 0x40 MLOAD PUSH3 0x461BCD PUSH1 0xE5 SHL DUP2 MSTORE PUSH1 0x20 PUSH1 0x4 DUP3 ADD MSTORE PUSH1 0xA PUSH1 0x24 DUP3 ADD MSTORE PUSH10 0x27B7363C9030B236B4B7 PUSH1 0xB1 SHL PUSH1 0x44 DUP3 ADD MSTORE PUSH1 0x64 SWAP1 REVERT JUMPDEST MLOAD SWAP1 DUP2 ISZERO ISZERO DUP3 SUB PUSH2 0x806 JUMPI JUMP JUMPDEST PUSH1 0x1 PUSH1 0x1 PUSH1 0x40 SHL SUB DUP2 GT PUSH2 0x253B JUMPI PUSH1 0x1F ADD PUSH1 0x1F NOT AND PUSH1 0x20 ADD SWAP1 JUMP JUMPDEST DUP2 PUSH1 0x1F DUP3 ADD SLT ISZERO PUSH2 0x806 JUMPI DUP1 MLOAD PUSH2 0x2787 DUP2 PUSH2 0x2756 JUMP JUMPDEST SWAP3 PUSH2 0x2795 PUSH1 0x40 MLOAD SWAP5 DUP6 PUSH2 0x256C JUMP JUMPDEST DUP2 DUP5 MSTORE PUSH1 0x20 DUP3 DUP5 ADD ADD GT PUSH2 0x806 JUMPI PUSH2 0x27B3 SWAP2 PUSH1 0x20 DUP1 DUP6 ADD SWAP2 ADD PUSH2 0x24A6 JUMP JUMPDEST SWAP1 JUMP JUMPDEST MLOAD SWAP1 PUSH1 0x1 PUSH1 0x1 PUSH1 0xA0 SHL SUB DUP3 AND DUP3 SUB PUSH2 0x806 JUMPI JUMP JUMPDEST SWAP1 PUSH1 0x20 SWAP1 DUP2 DUP4 DUP3 SUB SLT PUSH2 0x806 JUMPI DUP3 MLOAD PUSH1 0x1 PUSH1 0x1 PUSH1 0x40 SHL SUB SWAP4 DUP5 DUP3 GT PUSH2 0x806 JUMPI ADD DUP1 DUP3 SUB SWAP3 PUSH2 0x2A0 DUP5 SLT PUSH2 0x806 JUMPI PUSH1 0x40 SWAP4 DUP5 MLOAD SWAP6 PUSH2 0x1A0 SWAP2 DUP3 DUP9 ADD DUP9 DUP2 LT DUP4 DUP3 GT OR PUSH2 0x253B JUMPI DUP8 MSTORE DUP5 MLOAD DUP9 MSTORE DUP4 DUP6 ADD MLOAD PUSH1 0x3 DUP2 LT ISZERO PUSH2 0x806 JUMPI DUP5 DUP10 ADD MSTORE DUP7 DUP6 ADD MLOAD PUSH1 0x6 DUP2 LT ISZERO PUSH2 0x806 JUMPI DUP8 DUP10 ADD MSTORE PUSH1 0x60 DUP1 DUP7 ADD MLOAD PUSH1 0x4 DUP2 LT ISZERO PUSH2 0x806 JUMPI DUP2 DUP11 ADD MSTORE PUSH1 0x80 SWAP1 PUSH2 0x2858 DUP3 DUP9 ADD PUSH2 0x2749 JUMP JUMPDEST DUP3 DUP12 ADD MSTORE PUSH1 0xA0 DUP8 ADD MLOAD DUP5 DUP2 GT PUSH2 0x806 JUMPI DUP8 ADD PUSH1 0xE0 DUP2 DUP11 SUB SLT PUSH2 0x806 JUMPI DUP10 MLOAD SWAP1 PUSH1 0xE0 DUP3 ADD DUP3 DUP2 LT DUP8 DUP3 GT OR PUSH2 0x253B JUMPI DUP12 MSTORE DUP1 MLOAD DUP7 DUP2 GT PUSH2 0x806 JUMPI DUP11 PUSH2 0x289D SWAP2 DUP4 ADD PUSH2 0x2771 JUMP JUMPDEST DUP3 MSTORE PUSH2 0x28AA DUP9 DUP3 ADD PUSH2 0x27B6 JUMP JUMPDEST DUP9 DUP4 ADD MSTORE DUP11 DUP2 ADD MLOAD DUP12 DUP4 ADD MSTORE DUP3 DUP2 ADD MLOAD DUP4 DUP4 ADD MSTORE DUP4 DUP2 ADD MLOAD SWAP1 DUP7 DUP3 GT PUSH2 0x806 JUMPI PUSH2 0x28D8 DUP12 PUSH1 0xC0 SWAP4 DUP4 ADD PUSH2 0x2771 JUMP JUMPDEST DUP6 DUP5 ADD MSTORE PUSH1 0xA0 DUP2 ADD MLOAD PUSH1 0xA0 DUP5 ADD MSTORE ADD MLOAD PUSH1 0xC0 DUP3 ADD MSTORE PUSH1 0xA0 DUP12 ADD MSTORE DUP2 PUSH1 0xBF NOT DUP5 ADD SLT PUSH2 0x806 JUMPI DUP9 MLOAD SWAP2 DUP1 DUP4 ADD DUP4 DUP2 LT DUP7 DUP3 GT OR PUSH2 0x253B JUMPI DUP12 SWAP5 PUSH1 0xC0 SWAP2 DUP13 MSTORE PUSH2 0x2920 DUP3 DUP12 ADD PUSH2 0x27B6 JUMP JUMPDEST DUP6 MSTORE PUSH1 0xE0 DUP11 ADD MLOAD DUP10 DUP7 ADD MSTORE PUSH2 0x100 SWAP5 DUP6 DUP12 ADD MLOAD DUP14 DUP3 ADD MSTORE DUP3 PUSH2 0x120 SWAP8 DUP9 DUP14 ADD MLOAD DUP8 DUP5 ADD MSTORE ADD MSTORE PUSH2 0x13F NOT ADD SLT PUSH2 0x806 JUMPI DUP10 MLOAD SWAP2 PUSH2 0x295C DUP4 PUSH2 0x2551 JUMP JUMPDEST PUSH2 0x140 SWAP7 PUSH2 0x296B DUP9 DUP12 ADD PUSH2 0x27B6 JUMP JUMPDEST DUP5 MSTORE PUSH2 0x160 SWAP9 DUP10 DUP12 ADD MLOAD SWAP1 DUP6 ADD MSTORE PUSH2 0x180 SWAP12 DUP13 DUP12 ADD MLOAD SWAP1 DUP6 ADD MSTORE DUP10 ADD MLOAD SWAP1 DUP4 ADD MSTORE PUSH2 0x2999 PUSH2 0x1C0 DUP10 ADD PUSH2 0x27B6 JUMP JUMPDEST SWAP1 DUP3 ADD MSTORE PUSH2 0x1E0 DUP8 ADD MLOAD PUSH1 0xA0 DUP3 ADD MSTORE PUSH1 0xE0 DUP11 ADD MSTORE PUSH2 0x200 DUP7 ADD MLOAD DUP4 DUP2 GT PUSH2 0x806 JUMPI DUP8 PUSH2 0x29C6 SWAP2 DUP9 ADD PUSH2 0x2771 JUMP JUMPDEST SWAP1 DUP10 ADD MSTORE PUSH2 0x220 DUP6 ADD MLOAD DUP3 DUP2 GT PUSH2 0x806 JUMPI DUP7 PUSH2 0x29E3 SWAP2 DUP8 ADD PUSH2 0x2771 JUMP JUMPDEST SWAP1 DUP9 ADD MSTORE PUSH2 0x240 DUP5 ADD MLOAD SWAP1 DUP2 GT PUSH2 0x806 JUMPI PUSH2 0x280 SWAP5 PUSH2 0x2A03 SWAP2 DUP6 ADD PUSH2 0x2771 JUMP JUMPDEST SWAP1 DUP7 ADD MSTORE PUSH2 0x260 DUP3 ADD MLOAD SWAP1 DUP6 ADD MSTORE ADD MLOAD SWAP1 DUP3 ADD MSTORE SWAP1 JUMP JUMPDEST ISZERO PUSH2 0x2A21 JUMPI JUMP JUMPDEST PUSH1 0x40 MLOAD PUSH3 0x461BCD PUSH1 0xE5 SHL DUP2 MSTORE PUSH1 0x20 PUSH1 0x4 DUP3 ADD MSTORE PUSH1 0x10 PUSH1 0x24 DUP3 ADD MSTORE PUSH16 0x27B7363C903234B9BA3934B13ABA37B9 PUSH1 0x81 SHL PUSH1 0x44 DUP3 ADD MSTORE PUSH1 0x64 SWAP1 REVERT JUMPDEST ISZERO PUSH2 0x2A60 JUMPI JUMP JUMPDEST PUSH1 0x40 MLOAD PUSH3 0x461BCD PUSH1 0xE5 SHL DUP2 MSTORE PUSH1 0x20 PUSH1 0x4 DUP3 ADD MSTORE PUSH1 0x1A PUSH1 0x24 DUP3 ADD MSTORE PUSH32 0x4D75737420626520444953545249425554494F4E207374616765000000000000 PUSH1 0x44 DUP3 ADD MSTORE PUSH1 0x64 SWAP1 REVERT JUMPDEST ISZERO PUSH2 0x2AAC JUMPI JUMP JUMPDEST PUSH1 0x40 MLOAD PUSH3 0x461BCD PUSH1 0xE5 SHL DUP2 MSTORE PUSH1 0x20 PUSH1 0x4 DUP3 ADD MSTORE PUSH1 0xD PUSH1 0x24 DUP3 ADD MSTORE PUSH13 0x496E76616C69642073636F7265 PUSH1 0x98 SHL PUSH1 0x44 DUP3 ADD MSTORE PUSH1 0x64 SWAP1 REVERT JUMPDEST ISZERO PUSH2 0x2AE8 JUMPI JUMP JUMPDEST PUSH1 0x40 MLOAD PUSH3 0x461BCD PUSH1 0xE5 SHL DUP2 MSTORE PUSH1 0x20 PUSH1 0x4 DUP3 ADD MSTORE PUSH1 0x1A PUSH1 0x24 DUP3 ADD MSTORE PUSH32 0x54656D7065726174757265206F7261636C65206E6F7420736574000000000000 PUSH1 0x44 DUP3 ADD MSTORE PUSH1 0x64 SWAP1 REVERT JUMPDEST SWAP1 PUSH1 0x4 DUP2 LT ISZERO PUSH2 0x2640 JUMPI PUSH1 0xFF DUP1 NOT DUP4 SLOAD AND SWAP2 AND OR SWAP1 SSTORE JUMP JUMPDEST SWAP1 DUP1 PUSH1 0x20 SWAP4 SWAP3 DUP2 DUP5 MSTORE DUP5 DUP5 ADD CALLDATACOPY PUSH1 0x0 DUP3 DUP3 ADD DUP5 ADD MSTORE PUSH1 0x1F ADD PUSH1 0x1F NOT AND ADD ADD SWAP1 JUMP JUMPDEST ISZERO PUSH2 0x2B6D JUMPI JUMP JUMPDEST PUSH1 0x40 MLOAD PUSH3 0x461BCD PUSH1 0xE5 SHL DUP2 MSTORE PUSH1 0x20 PUSH1 0x4 DUP3 ADD MSTORE PUSH1 0xD PUSH1 0x24 DUP3 ADD MSTORE PUSH13 0x27B7363C903932BA30B4B632B9 PUSH1 0x99 SHL PUSH1 0x44 DUP3 ADD MSTORE PUSH1 0x64 SWAP1 REVERT JUMPDEST ISZERO PUSH2 0x2BA9 JUMPI JUMP JUMPDEST PUSH1 0x40 MLOAD PUSH3 0x461BCD PUSH1 0xE5 SHL DUP2 MSTORE PUSH1 0x20 PUSH1 0x4 DUP3 ADD MSTORE PUSH1 0x14 PUSH1 0x24 DUP3 ADD MSTORE PUSH20 0x4D7573742062652052455441494C207374616765 PUSH1 0x60 SHL PUSH1 0x44 DUP3 ADD MSTORE PUSH1 0x64 SWAP1 REVERT JUMPDEST ISZERO PUSH2 0x2BEC JUMPI JUMP JUMPDEST PUSH1 0x40 MLOAD PUSH3 0x461BCD PUSH1 0xE5 SHL DUP2 MSTORE PUSH1 0x20 PUSH1 0x4 DUP3 ADD MSTORE PUSH1 0x11 PUSH1 0x24 DUP3 ADD MSTORE PUSH17 0x13530813DC9858DB19481B9BDD081CD95D PUSH1 0x7A SHL PUSH1 0x44 DUP3 ADD MSTORE PUSH1 0x64 SWAP1 REVERT JUMPDEST ISZERO PUSH2 0x2C2C JUMPI JUMP JUMPDEST PUSH1 0x40 MLOAD PUSH3 0x461BCD PUSH1 0xE5 SHL DUP2 MSTORE PUSH1 0x20 PUSH1 0x4 DUP3 ADD MSTORE PUSH1 0x12 PUSH1 0x24 DUP3 ADD MSTORE PUSH18 0x125B9D985B1A59081353081C995C5D595CDD PUSH1 0x72 SHL PUSH1 0x44 DUP3 ADD MSTORE PUSH1 0x64 SWAP1 REVERT JUMPDEST SWAP2 SWAP1 SWAP2 PUSH1 0x80 DUP2 DUP5 SUB SLT PUSH2 0x806 JUMPI DUP1 MLOAD SWAP3 PUSH1 0x20 DUP3 ADD MLOAD SWAP1 PUSH1 0x1 PUSH1 0x1 PUSH1 0x40 SHL SUB DUP3 GT PUSH2 0x806 JUMPI PUSH2 0x2C95 SWAP2 DUP4 ADD PUSH2 0x2771 JUMP JUMPDEST SWAP2 PUSH2 0x27B3 PUSH1 0x60 PUSH1 0x40 DUP5 ADD MLOAD SWAP4 ADD PUSH2 0x2749 JUMP JUMPDEST ISZERO PUSH2 0x2CAE JUMPI JUMP JUMPDEST PUSH1 0x40 MLOAD PUSH3 0x461BCD PUSH1 0xE5 SHL DUP2 MSTORE PUSH1 0x20 PUSH1 0x4 DUP3 ADD MSTORE PUSH1 0x1F PUSH1 0x24 DUP3 ADD MSTORE PUSH32 0x4D4C2070726564696374696F6E206E6F742066756C66696C6C65642079657400 PUSH1 0x44 DUP3 ADD MSTORE PUSH1 0x64 SWAP1 REVERT JUMPDEST ISZERO PUSH2 0x2CFA JUMPI JUMP JUMPDEST PUSH1 0x40 MLOAD PUSH3 0x461BCD PUSH1 0xE5 SHL DUP2 MSTORE PUSH1 0x20 PUSH1 0x4 DUP3 ADD MSTORE PUSH1 0x12 PUSH1 0x24 DUP3 ADD MSTORE PUSH18 0x24B73B30B634B210383932B234B1BA34B7B7 PUSH1 0x71 SHL PUSH1 0x44 DUP3 ADD MSTORE PUSH1 0x64 SWAP1 REVERT JUMPDEST PUSH1 0x0 SWAP1 DUP2 MSTORE PUSH1 0x6 PUSH1 0x20 MSTORE PUSH1 0x40 DUP2 KECCAK256 SLOAD DUP1 ISZERO PUSH2 0x2DB6 JUMPI PUSH1 0x3 SLOAD PUSH1 0x40 MLOAD PUSH4 0xDC6423AB PUSH1 0xE0 SHL DUP2 MSTORE PUSH1 0x4 DUP2 ADD DUP4 SWAP1 MSTORE SWAP4 SWAP1 DUP4 SWAP1 DUP6 SWAP1 PUSH1 0x24 SWAP1 DUP3 SWAP1 PUSH1 0x1 PUSH1 0x1 PUSH1 0xA0 SHL SUB AND GAS STATICCALL SWAP2 DUP3 ISZERO PUSH2 0x1115 JUMPI DUP4 SWAP5 DUP5 DUP1 SWAP5 PUSH2 0x2D8F JUMPI JUMPDEST POP POP SWAP4 SWAP3 SWAP2 SWAP1 JUMP JUMPDEST SWAP2 SWAP5 POP SWAP2 SWAP5 POP PUSH2 0x2DA9 SWAP3 POP RETURNDATASIZE DUP1 SWAP2 DUP4 RETURNDATACOPY PUSH2 0x1CEB DUP2 DUP4 PUSH2 0x256C JUMP JUMPDEST SWAP3 SWAP5 SWAP2 SWAP4 SWAP1 POP CODESIZE DUP1 PUSH2 0x2D87 JUMP JUMPDEST POP SWAP1 DUP2 DUP1 SWAP2 PUSH1 0x40 MLOAD PUSH1 0x20 DUP2 ADD DUP2 DUP2 LT PUSH1 0x1 PUSH1 0x1 PUSH1 0x40 SHL SUB DUP3 GT OR PUSH2 0x2DDE JUMPI PUSH1 0x40 MSTORE DUP3 DUP2 MSTORE SWAP2 SWAP1 JUMP JUMPDEST PUSH4 0x4E487B71 PUSH1 0xE0 SHL DUP5 MSTORE PUSH1 0x41 PUSH1 0x4 MSTORE PUSH1 0x24 DUP5 REVERT JUMPDEST PUSH1 0x55 DUP2 LT ISZERO PUSH2 0x2E1C JUMPI PUSH1 0x46 DUP2 LT ISZERO PUSH2 0x2E16 JUMPI PUSH1 0x37 GT ISZERO PUSH2 0x2E11 JUMPI PUSH1 0x3 SWAP1 JUMP JUMPDEST PUSH1 0x2 SWAP1 JUMP JUMPDEST POP PUSH1 0x1 SWAP1 JUMP JUMPDEST POP PUSH1 0x0 SWAP1 JUMP JUMPDEST DUP1 ISZERO PUSH2 0x2EFA JUMPI DUP1 DUP2 PUSH1 0x0 SWAP3 JUMPDEST PUSH2 0x2EE2 JUMPI POP PUSH2 0x2E3C DUP3 PUSH2 0x2756 JUMP JUMPDEST SWAP2 PUSH2 0x2E4A PUSH1 0x40 MLOAD SWAP4 DUP5 PUSH2 0x256C JUMP JUMPDEST DUP1 DUP4 MSTORE DUP2 PUSH1 0x1F NOT PUSH2 0x2E5A DUP4 PUSH2 0x2756 JUMP JUMPDEST ADD SWAP2 PUSH1 0x20 SWAP3 CALLDATASIZE DUP5 DUP8 ADD CALLDATACOPY SWAP1 JUMPDEST PUSH2 0x2E70 JUMPI POP POP POP SWAP1 JUMP JUMPDEST PUSH1 0x0 NOT DUP2 ADD SWAP1 DUP2 GT PUSH2 0x2ECC JUMPI DUP1 SWAP3 PUSH1 0xA SWAP2 PUSH1 0x30 DUP4 DUP4 MOD DUP2 ADD DUP1 SWAP2 GT PUSH2 0x2ECC JUMPI DUP7 MLOAD DUP3 LT ISZERO PUSH2 0x2EB6 JUMPI PUSH1 0xF8 SHL PUSH1 0x1 PUSH1 0x1 PUSH1 0xF8 SHL SUB NOT AND PUSH1 0x0 BYTE SWAP1 DUP7 ADD DUP5 ADD MSTORE8 DIV SWAP2 DUP3 PUSH2 0x2E66 JUMP JUMPDEST PUSH4 0x4E487B71 PUSH1 0xE0 SHL PUSH1 0x0 MSTORE PUSH1 0x32 PUSH1 0x4 MSTORE PUSH1 0x24 PUSH1 0x0 REVERT JUMPDEST PUSH4 0x4E487B71 PUSH1 0xE0 SHL PUSH1 0x0 MSTORE PUSH1 0x11 PUSH1 0x4 MSTORE PUSH1 0x24 PUSH1 0x0 REVERT JUMPDEST SWAP2 PUSH1 0x0 NOT DUP2 EQ PUSH2 0x2ECC JUMPI PUSH1 0x1 PUSH1 0xA SWAP2 ADD SWAP3 DIV DUP1 PUSH2 0x2E2E JUMP JUMPDEST POP PUSH1 0x40 MLOAD PUSH1 0x40 DUP2 ADD DUP2 DUP2 LT PUSH1 0x1 PUSH1 0x1 PUSH1 0x40 SHL SUB DUP3 GT OR PUSH2 0x253B JUMPI PUSH1 0x40 MSTORE PUSH1 0x1 DUP2 MSTORE PUSH1 0x3 PUSH1 0xFC SHL PUSH1 0x20 DUP3 ADD MSTORE SWAP1 JUMP JUMPDEST PUSH1 0x40 MLOAD SWAP1 PUSH2 0x2F35 DUP3 PUSH2 0x2551 JUMP JUMPDEST PUSH1 0x0 PUSH1 0xA0 DUP4 DUP3 DUP2 MSTORE DUP3 PUSH1 0x20 DUP3 ADD MSTORE PUSH1 0x60 PUSH1 0x40 DUP3 ADD MSTORE DUP3 PUSH1 0x60 DUP3 ADD MSTORE DUP3 PUSH1 0x80 DUP3 ADD MSTORE ADD MSTORE JUMP INVALID PREVRANDAO 0x29 0xDE PUSH26 0x67BFE786EC4AC3F822CF4B26A0ED6A63A7DBBBA03684BBF771E9 EXTCODECOPY 0xE3 0xBA NOT 0xD0 PUSH1 0x8F GASLIMIT DUP1 PUSH3 0xE779D5 0x5D RETURNDATASIZE DUP5 SWAP1 PUSH8 0x4E11DA8FB0FA4B55 ADDMOD DUP16 COINBASE GT PUSH27 0xC250FC540105FF02EED8665666E5B20A0955668C4452DD216F3F78 CHAINID SWAP10 PUSH16 0x9057B8E093A26469706673582212203D ADDRESS SWAP6 REVERT SMOD SWAP3 SHL 0xE4 STATICCALL 0x4B EXTCODESIZE 0xEF COINBASE 0xC4 0x2A DUP5 SWAP1 JUMP 0xB7 SDIV 0xEC NOT 0xB5 0x2D 0x2A GASLIMIT 0xCC 0xF 0xCE PUSH10 0x7C8264736F6C63430008 SGT STOP CALLER "},"methodIdentifiers":{"MIN_TEMP()":"638a348c","batchContract()":"5e66bdb3","coreContract()":"e80db5db","damageDetectionOracle()":"d8b5b5a7","distributorQuality(uint256)":"989ee4ea","getDistributorQuality(uint256)":"8c301fbb","getMLPredictionStatus(uint256)":"1090f421","getRetailerQuality(uint256)":"c86dc0a6","mlRequestToProduct(bytes32)":"7d0caea7","productMLRequests(uint256)":"40e288da","requestMLDamagePrediction(uint256,string)":"662a43c7","retailerQuality(uint256)":"7d07dc82","setDamageDetectionOracle(address)":"b0f22082","setTemperatureOracle(address)":"80b31ebc","storeDistributorQualityWithML(uint256,bytes32,string,string)":"3d7766dd","storeDistributorQualityWithOracle(uint256,uint256,string,string)":"d4a8ecbf","storeRetailerQualityWithML(uint256,bytes32,string,string)":"0390a1bb","storeRetailerQualityWithOracle(uint256,uint256,string,string)":"cc87c336","temperatureOracle()":"b320b6fc"}}}}}