{"contracts/AgriTraceBatch.sol":{"AgriTraceBatch":{"abi":[{"inputs":[{"internalType":"address","name":"_coreContract","type":"address"}],"stateMutability":"nonpayable","type":"constructor"},{"anonymous":false,"inputs":[{"indexed":false,"internalType":"uint256","name":"batchId","type":"uint256"},{"indexed":false,"internalType":"address","name":"distributor","type":"address"}],"name":"BatchCreated","type":"event"},{"anonymous":false,"inputs":[{"indexed":false,"internalType":"uint256","name":"batchId","type":"uint256"},{"indexed":false,"internalType":"address","name":"retailer","type":"address"}],"name":"BatchPurchased","type":"event"},{"anonymous":false,"inputs":[{"indexed":true,"internalType":"uint256","name":"productId","type":"uint256"},{"indexed":true,"internalType":"uint256","name":"batchId","type":"uint256"},{"indexed":false,"internalType":"string","name":"reason","type":"string"}],"name":"ProductRemovedFromBatch","type":"event"},{"inputs":[{"internalType":"uint256","name":"","type":"uint256"}],"name":"batches","outputs":[{"internalType":"uint256","name":"batchId","type":"uint256"},{"internalType":"address","name":"distributor","type":"address"},{"internalType":"address","name":"retailer","type":"address"},{"internalType":"uint256","name":"createdAt","type":"uint256"},{"internalType":"bool","name":"isDistributedToRetailer","type":"bool"}],"stateMutability":"view","type":"function"},{"inputs":[],"name":"coreContract","outputs":[{"internalType":"contract AgriTraceCore","name":"","type":"address"}],"stateMutability":"view","type":"function"},{"inputs":[{"internalType":"uint256[]","name":"productIds","type":"uint256[]"}],"name":"createBatch","outputs":[{"internalType":"uint256","name":"","type":"uint256"}],"stateMutability":"nonpayable","type":"function"},{"inputs":[{"internalType":"address","name":"","type":"address"},{"internalType":"uint256","name":"","type":"uint256"}],"name":"distributorBatches","outputs":[{"internalType":"uint256","name":"","type":"uint256"}],"stateMutability":"view","type":"function"},{"inputs":[],"name":"getAvailableBatchesForRetailer","outputs":[{"internalType":"uint256[]","name":"","type":"uint256[]"}],"stateMutability":"view","type":"function"},{"inputs":[{"internalType":"uint256","name":"batchId","type":"uint256"}],"name":"getBatchDetails","outputs":[{"components":[{"internalType":"uint256","name":"batchId","type":"uint256"},{"internalType":"address","name":"distributor","type":"address"},{"internalType":"address","name":"retailer","type":"address"},{"internalType":"uint256[]","name":"productIds","type":"uint256[]"},{"internalType":"uint256","name":"createdAt","type":"uint256"},{"internalType":"bool","name":"isDistributedToRetailer","type":"bool"}],"internalType":"struct AgriTraceLib.Batch","name":"","type":"tuple"}],"stateMutability":"view","type":"function"},{"inputs":[{"internalType":"address","name":"distributor","type":"address"}],"name":"getBatchesByDistributor","outputs":[{"internalType":"uint256[]","name":"","type":"uint256[]"}],"stateMutability":"view","type":"function"},{"inputs":[{"internalType":"address","name":"retailer","type":"address"}],"name":"getBatchesByRetailer","outputs":[{"internalType":"uint256[]","name":"","type":"uint256[]"}],"stateMutability":"view","type":"function"},{"inputs":[{"internalType":"uint256","name":"productId","type":"uint256"}],"name":"getProductBatch","outputs":[{"internalType":"uint256","name":"","type":"uint256"}],"stateMutability":"view","type":"function"},{"inputs":[{"internalType":"uint256","name":"batchId","type":"uint256"}],"name":"getProductsInBatch","outputs":[{"internalType":"uint256[]","name":"","type":"uint256[]"}],"stateMutability":"view","type":"function"},{"inputs":[{"internalType":"address","name":"distributor","type":"address"}],"name":"getUnbatchedProductsByDistributor","outputs":[{"internalType":"uint256[]","name":"","type":"uint256[]"}],"stateMutability":"view","type":"function"},{"inputs":[{"internalType":"uint256","name":"productId","type":"uint256"}],"name":"isProductRemovedFromBatch","outputs":[{"internalType":"bool","name":"","type":"bool"}],"stateMutability":"view","type":"function"},{"inputs":[],"name":"nextBatchId","outputs":[{"internalType":"uint256","name":"","type":"uint256"}],"stateMutability":"view","type":"function"},{"inputs":[{"internalType":"uint256","name":"","type":"uint256"}],"name":"productRemovedFromBatch","outputs":[{"internalType":"bool","name":"","type":"bool"}],"stateMutability":"view","type":"function"},{"inputs":[{"internalType":"uint256","name":"","type":"uint256"}],"name":"productToBatch","outputs":[{"internalType":"uint256","name":"","type":"uint256"}],"stateMutability":"view","type":"function"},{"inputs":[{"internalType":"uint256","name":"batchId","type":"uint256"},{"internalType":"uint256[]","name":"prices","type":"uint256[]"}],"name":"purchaseBatchFromDistributor","outputs":[],"stateMutability":"nonpayable","type":"function"},{"inputs":[{"internalType":"uint256","name":"productId","type":"uint256"},{"internalType":"string","name":"reason","type":"string"}],"name":"removeProductFromBatch","outputs":[],"stateMutability":"nonpayable","type":"function"},{"inputs":[{"internalType":"address","name":"","type":"address"},{"internalType":"uint256","name":"","type":"uint256"}],"name":"retailerBatches","outputs":[{"internalType":"uint256","name":"","type":"uint256"}],"stateMutability":"view","type":"function"}],"evm":{"bytecode":{"linkReferences":{},"object":"60803461007457601f611f3738819003918201601f19168301916001600160401b038311848410176100795780849260209460405283398101031261007457516001600160a01b0381169081900361007457600080546001600160a01b031916919091179055604051611ea790816100908239f35b600080fd5b634e487b7160e01b600052604160045260246000fdfe6080604052600436101561001257600080fd5b60003560e01c806306aa091e1461189c5780630989042f14610d07578063265e2ae8146100e257806349616685146118445780634a0f5da6146111c85780634ccc0c0d1461116f57806366b9f62214610e755780638462a7f814610e575780639d47dcc014610d33578063a0c83c9c14610d07578063b1f6a98f14610aae578063b32c4d8d14610a47578063c4d106fd14610a01578063c6376a5a1461058a578063da04741b146102b2578063e80db5db14610289578063ed49e25e146101185763fd291d6b146100e257600080fd5b34610113576020366003190112610113576004356000526006602052602060ff604060002054166040519015158152f35b600080fd5b3461011357602080600319360112610113576004358015158061027d575b15610245576000526001808252806101546003604060002001611da6565b92600080835b6101f2575b5061016b919250611d03565b9260009182845b610189575b6040518061018588826118ec565b0390f35b82518110156101ed5761019c8184611d35565b516000526006825260ff60406000205416156101c2575b6101bc906119ee565b84610172565b926101e56101bc916101d48686611d35565b516101df828a611d35565b526119ee565b9390506101b3565b610177565b8551811015610240576102058187611d35565b516000526006835260ff604060002054161561022b575b610225906119ee565b8361015a565b90610238610225916119ee565b91905061021c565b61015f565b60405162461bcd60e51b815260048101839052601060248201526f125b9d985b1a590818985d18da08125160821b6044820152606490fd5b50600454811115610136565b34610113576000366003190112610113576000546040516001600160a01b039091168152602090f35b3461011357602080600319360112610113576102cc6118d6565b60008054604051632b85754560e11b81526001600160a01b039493909290918516908484600481855afa9384156104615760009461055b575b508560019316925b8481111561046d575061031f90611d03565b9360009260015b8581111561033c576040518061018589826118ec565b604051632e76c56d60e21b8152600481018290526024906000818381895afa9081156104615760009161043e575b50838a60c08301515116149182610411575b826103e3575b50816103cc575b816103be575b506103a3575b61039e906119ee565b610326565b936103b681866101df61039e948b611d35565b949050610395565b60809150015115158961038f565b905081600052600584526040600020541590610389565b604082015191925060068210156103fd575015908a610382565b634e487b7160e01b60009081526021600452fd5b9150848101516003811015610429576001149161037c565b82634e487b7160e01b60005260216004526000fd5b61045b91503d806000833e61045381836119cc565b810190611a98565b8a61036a565b6040513d6000823e3d90fd5b604051632e76c56d60e21b8152600481018290526024906000818381885afa90811561046157600091610540575b50858960c08301515116149182610528575b8261050e575b50816104f7575b816104e9575b506104d4575b6104cf906119ee565b61030d565b906104e16104cf916119ee565b9190506104c6565b6080915001511515886104c0565b9050816000526005875260406000205415906104ba565b604082015191925060068210156103fd57501590896104b3565b915087810151600381101561042957600114916104ad565b61055591503d806000833e61045381836119cc565b8961049b565b9093508481813d8311610583575b61057381836119cc565b8101031261011357519286610305565b503d610569565b34610113576020806003193601126101135767ffffffffffffffff600435818111610113576105bd903690600401611955565b600054604051634427673360e01b815233600482015292916024916001600160a01b0390811687868581845afa958615610461576000966109d2575b50600595868110156109bd576002036109865782156109545760005b8381106107fd5750506106296004546119ee565b95866004558660005260018097818a52604060002090815501336bffffffffffffffffffffffff60a01b82541617905560045460005260036040600020019083116107e857600160401b83116107e85780548382558084106107be575b50849060005287600020908760005b8581106107ac5750505050600454600052858752426004604060002001556004546000528460406000200160ff19815416905533600052600287526106e1604060002060045490611d71565b60005b82811061072957600454604080518281523360208201528a92917f03b090a5f073126ba1311454936e50b13b4eb5a69549338b4886ff9a0c1bfaed91a1604051908152f35b600454610737828588611d61565b35600052868952604060002055816000541690610755818588611d61565b35823b156101135760009260448492604051958693849263bec514c360e01b845260048401528d8b8401525af1918215610461576107989261079d575b506119ee565b6106e4565b6107a690611986565b89610792565b8a833593019281850155018890610695565b8160005287848a60002092830192015b8281106107dc575050610686565b600081550188906107ce565b83634e487b7160e01b60005260416004526000fd5b610808818588611d61565b604051632e76c56d60e21b8152903560048201526000818781865afa90811561046157600091610939575b50338460c0830151511603610902576040015160068110156108ed576108b45761085e818588611d61565b3560005286895260406000205461087d57610878906119ee565b610615565b60405162461bcd60e51b8152600481018a90526010818701526f082d8e4cac2c8f240d2dc40c4c2e8c6d60831b6044820152606490fd5b60405162461bcd60e51b8152600481018a90526012818701527104e6f742070656e64696e67207069636b75760741b6044820152606490fd5b85634e487b7160e01b60005260216004526000fd5b60405162461bcd60e51b8152600481018b90526010818801526f139bdd081e5bdd5c881c1c9bd91d58dd60821b6044820152606490fd5b61094e91503d806000833e61045381836119cc565b8a610833565b60405162461bcd60e51b815260048101899052600b818601526a08adae0e8f240c4c2e8c6d60ab1b6044820152606490fd5b60405162461bcd60e51b8152600481018990526010818601526f27b7363c903234b9ba3934b13aba37b960811b6044820152606490fd5b84634e487b7160e01b60005260216004526000fd5b6109f3919650883d8a116109fa575b6109eb81836119cc565b810190611d49565b94886105f9565b503d6109e1565b34610113576020366003190112610113576001600160a01b03610a226118d6565b166000526003602052610185610a3b6040600020611da6565b604051918291826118ec565b3461011357602036600319011261011357600435600052600160205260a06040600020805490600180841b0390816001820154169160028201541660ff60056004840154930154169260405194855260208501526040840152606083015215156080820152f35b34610113576040366003190112610113576024803560043567ffffffffffffffff80831161011357366023840112156101135782600401359081116101135736848285010111610113578160005260206005815260406000205415610ccd57826000526006815260ff60406000205416610c985760008054604051632e76c56d60e21b8152600481018690526001600160a01b0391821692909190828981865afa9081156104615760c085928a94600091610c7d575b50015151163314928315610c1f575b50505015610beb579060407f76c9a66f90a8e815139222b7d8f1f629d42ef271c32bf7ac793b041122c1f0ad92828088876000526006845284600020600160ff1982541617905560058452846000205498855196858896875286015201848401376000828201840152601f01601f19168101030190a3005b606490600e866040519262461bcd60e51b845260048401528201526d139bdd08185d5d1a1bdc9a5e995960921b6044820152fd5b604051634427673360e01b815233600482015293509091839182905afa90811561046157600091610c60575b5060058110156108ed57600414858288610b73565b610c779150823d84116109fa576109eb81836119cc565b86610c4b565b610c9291503d806000833e61045381836119cc565b8b610b64565b606490600f866040519262461bcd60e51b845260048401528201526e105b1c9958591e481c995b5bdd9959608a1b6044820152fd5b6064906014866040519262461bcd60e51b84526004840152820152730a0e4dec8eac6e840dcdee840d2dc40c4c2e8c6d60631b6044820152fd5b346101135760203660031901126101135760043560005260056020526020604060002054604051908152f35b346101135760208060031936011261011357600060a0604051610d55816119b0565b82815282848201528260408201526060808201528260808201520152600435600052600190818152604060002060405190610d8f826119b0565b80548252838101546001600160a01b0390811684840190815260028301548216604085019081529094909291610dc760038401611da6565b906060860191825260ff6005600486015495608089019687520154169460a0870195151586528160405198858a5260e08a019851868b01525116604089015251166060870152519360c06080870152845180915281610100870195019160005b828110610e4457845160a08901528551151560c089015287870388f35b8351875295810195928101928801610e27565b34610113576000366003190112610113576020600454604051908152f35b3461011357600036600319011261011357600454600060015b8281111561101b5750610ea090611d03565b60009160015b81811115610ebc576040518061018585826118ec565b80600052600160205260ff6005604060002001541615610ee5575b610ee0906119ee565b610ea6565b6040516376a4f12f60e11b81526004810182905260246000828281305afa91821561046157600092610ff6575b508151610f21575b5050610ed7565b909491939260019560009160018060a01b0360005416925b8251811015610fe857610f4c8184611d35565b5160405190632e76c56d60e21b825260048201526000818781885afa801561046157604091600091610fcd575b50015160068110156108ed57600203610f9a57610f95906119ee565b610f39565b50949593965050505060005b610fb2575b8480610f1a565b92610fc581856101df610ee09487611d35565b939050610fab565b610fe291503d806000833e61045381836119cc565b8b610f79565b509495939692505050610fa6565b6110149192503d806000833e61100c81836119cc565b810190611df7565b9086610f12565b80600052600160205260ff6005604060002001541615611044575b61103f906119ee565b610e8e565b6040516376a4f12f60e11b81526004810182905292919060246000858281305afa94851561046157600095611152575b508451611086575b5090919250611036565b909260019460009160018060a01b0360005416925b8251811015611144576110ae8184611d35565b5160405190632e76c56d60e21b825260048201526000818781885afa801561046157604091600091611129575b50015160068110156108ed576002036110fc576110f7906119ee565b61109b565b5095505050509060005b611114575b9082918461107c565b9061112161103f916119ee565b91905061110b565b61113e91503d806000833e61045381836119cc565b8a6110db565b509592505050919091611106565b6111689195503d806000833e61100c81836119cc565b9385611074565b34610113576040366003190112610113576111886118d6565b6001600160a01b0316600090815260036020526040902080546024359190821015610113576020916111b991611927565b90549060031b1c604051908152f35b346101135760403660031901126101135760243567ffffffffffffffff8111610113576111f9903690600401611955565b9060018060a01b0360005416604051634427673360e01b8152336004820152602081602481855afa90811561046157600091611825575b5060058110156116c6576003036117e8576004356000526001928360205260ff600560406000200154166117af576004356000528360205260018060a01b038460406000200154166040516376a4f12f60e11b81526004356004820152600081602481305afa90811561046157600091611794575b5082815103611744578051156116ff579294926000845b6115d2575b5083949550600435600052836020526005604060002060028101336bffffffffffffffffffffffff60a01b825416179055018460ff198254161790553360005260036020526113166004356040600020611d71565b6040805160043581523360208201527fd435a59c16541ca81adf6cdfe8991cc9c87d2475a457ef2876460222a63d82579190a16000935b61135357005b80518410156115d0576113668482611d35565b516000549094906001600160a01b0316803b156101135760008091604460405180948193636a13931d60e01b83528b6004840152600260248401525af18015610461576115c1575b506000546001600160a01b0316803b15610113576000809160446040518094819363bec514c360e01b83528b60048401528c60248401525af18015610461576115b2575b506000546001600160a01b03169461140b82868a611d61565b35863b156101135760009660848892604051998a938492634736522b60e11b845287600485015233602485015260448401524260648401525af1958615610461576000966115a3575b5085546020906001600160a01b031660a461147085898d611d61565b35604051998a938492636365ce6560e01b84528a6004850152336024850152876044850152600435606485015260848401525af19586156104615760009661156f575b506000546001600160a01b031690813b1561011357600091604483926040519485938492631577e5f360e31b845260048401528b60248401525af1801561046157611560575b506000546001600160a01b031694853b15610113576000956044879260405198899384926342111f2b60e11b845233600485015260248401525af190811561046157869561154b9261155157506119ee565b9361134d565b61155a90611986565b88610792565b61156990611986565b876114f9565b9095506020813d60201161159b575b8161158b602093836119cc565b81010312610113575194886114b3565b3d915061157e565b6115ac90611986565b88611454565b6115bb90611986565b876113f2565b6115ca90611986565b876113ae565b005b939581518510156116f7576115e78583611d35565b5160405190632e76c56d60e21b82526004820152600081602481855afa908115610461576000916116dc575b50604081015160068110156116c65760020361168a5760c00151516001600160a01b031683900361164f5761164887956119ee565b90966112bc565b60405162461bcd60e51b815260206004820152601360248201527224b73b30b634b2103234b9ba3934b13aba37b960691b6044820152606490fd5b60405162461bcd60e51b8152602060048201526014602482015273141c9bd91d58dd081b9bdd081d995c9a599a595960621b6044820152606490fd5b634e487b7160e01b600052602160045260246000fd5b6116f191503d806000833e61045381836119cc565b88611613565b8694506112c1565b60405162461bcd60e51b815260206004820152601a60248201527f4e6f2076616c69642070726f647563747320696e2062617463680000000000006044820152606490fd5b60405162461bcd60e51b815260206004820152602260248201527f5072696365206d69736d6174636820776974682076616c69642070726f647563604482015261747360f01b6064820152608490fd5b6117a991503d806000833e61100c81836119cc565b866112a5565b60405162461bcd60e51b8152602060048201526011602482015270105b1c9958591e481c1d5c98da185cd959607a1b6044820152606490fd5b60405162461bcd60e51b81526020600482015260156024820152744f6e6c792072657461696c65722063616e2062757960581b6044820152606490fd5b61183e915060203d6020116109fa576109eb81836119cc565b84611230565b346101135760403660031901126101135761185d6118d6565b6001600160a01b03166000908152600260205260409020805460243591908210156101135760209161188e91611927565b90546040519160031b1c8152f35b34610113576020366003190112610113576001600160a01b036118bd6118d6565b166000526002602052610185610a3b6040600020611da6565b600435906001600160a01b038216820361011357565b6020908160408183019282815285518094520193019160005b828110611913575050505090565b835185529381019392810192600101611905565b805482101561193f5760005260206000200190600090565b634e487b7160e01b600052603260045260246000fd5b9181601f840112156101135782359167ffffffffffffffff8311610113576020808501948460051b01011161011357565b67ffffffffffffffff811161199a57604052565b634e487b7160e01b600052604160045260246000fd5b60c0810190811067ffffffffffffffff82111761199a57604052565b90601f8019910116810190811067ffffffffffffffff82111761199a57604052565b60001981146119fd5760010190565b634e487b7160e01b600052601160045260246000fd5b919080601f840112156101135782519067ffffffffffffffff821161199a5760405191602091611a4c601f8301601f19168401856119cc565b8184528282870101116101135760005b818110611a7157508260009394955001015290565b8581018301518482018401528201611a5c565b51906001600160a01b038216820361011357565b90602090818382031261011357825167ffffffffffffffff938482116101135701808203926102a08412610113576040938451956101a0918288018881108382111761199a5787528451885283850151600381101561011357848901528685015160068110156101135787890152606080860151600481101561011357818a015260809081870151801515810361011357828b015260a087015184811161011357870160e0818a03126101135789519060e082018281108782111761199a578b528051868111610113578a611b6e918301611a13565b8252611b7b888201611a84565b888301528a8101518b8301528281015183830152838101519086821161011357611ba98b60c0938301611a13565b8584015260a081015160a0840152015160c082015260a08b01528160bf19840112610113578851918083018381108682111761199a578b9460c0918c52611bf1828b01611a84565b855260e08a01518986015261010094858b01518d8201528261012097888d015187840152015261013f19011261011357895191611c2d836119b0565b61014096611c3c888b01611a84565b845261016098898b0151908501526101809b8c8b01519085015289015190830152611c6a6101c08901611a84565b908201526101e087015160a082015260e08a01526102008601518381116101135787611c97918801611a13565b908901526102208501518281116101135786611cb4918701611a13565b908801526102408401519081116101135761028094611cd4918501611a13565b908601526102608201519085015201519082015290565b67ffffffffffffffff811161199a5760051b60200190565b90611d0d82611ceb565b611d1a60405191826119cc565b8281528092611d2b601f1991611ceb565b0190602036910137565b805182101561193f5760209160051b010190565b90816020910312610113575160058110156101135790565b919081101561193f5760051b0190565b8054600160401b81101561199a57611d8e91600182018155611927565b819291549060031b91821b91600019901b1916179055565b9060405191828154918282526020928383019160005283600020936000905b828210611ddd57505050611ddb925003836119cc565b565b855484526001958601958895509381019390910190611dc5565b60209081818403126101135780519067ffffffffffffffff821161011357019180601f84011215610113578251611e2d81611ceb565b93611e3b60405195866119cc565b818552838086019260051b820101928311610113578301905b828210611e62575050505090565b81518152908301908301611e5456fea264697066735822122029cc00685b3e089e084c096f6335a3865cc603242020e8df0b90f40305d4158464736f6c63430008130033","opcodes":"PUSH1 0x80 CALLVALUE PUSH2 0x74 JUMPI PUSH1 0x1F PUSH2 0x1F37 CODESIZE DUP2 SWAP1 SUB SWAP2 DUP3 ADD PUSH1 0x1F NOT AND DUP4 ADD SWAP2 PUSH1 0x1 PUSH1 0x1 PUSH1 0x40 SHL SUB DUP4 GT DUP5 DUP5 LT OR PUSH2 0x79 JUMPI DUP1 DUP5 SWAP3 PUSH1 0x20 SWAP5 PUSH1 0x40 MSTORE DUP4 CODECOPY DUP2 ADD SUB SLT PUSH2 0x74 JUMPI MLOAD PUSH1 0x1 PUSH1 0x1 PUSH1 0xA0 SHL SUB DUP2 AND SWAP1 DUP2 SWAP1 SUB PUSH2 0x74 JUMPI PUSH1 0x0 DUP1 SLOAD PUSH1 0x1 PUSH1 0x1 PUSH1 0xA0 SHL SUB NOT AND SWAP2 SWAP1 SWAP2 OR SWAP1 SSTORE PUSH1 0x40 MLOAD PUSH2 0x1EA7 SWAP1 DUP2 PUSH2 0x90 DUP3 CODECOPY RETURN JUMPDEST PUSH1 0x0 DUP1 REVERT JUMPDEST PUSH4 0x4E487B71 PUSH1 0xE0 SHL PUSH1 0x0 MSTORE PUSH1 0x41 PUSH1 0x4 MSTORE PUSH1 0x24 PUSH1 0x0 REVERT INVALID PUSH1 0x80 PUSH1 0x40 MSTORE PUSH1 0x4 CALLDATASIZE LT ISZERO PUSH2 0x12 JUMPI PUSH1 0x0 DUP1 REVERT JUMPDEST PUSH1 0x0 CALLDATALOAD PUSH1 0xE0 SHR DUP1 PUSH4 0x6AA091E EQ PUSH2 0x189C JUMPI DUP1 PUSH4 0x989042F EQ PUSH2 0xD07 JUMPI DUP1 PUSH4 0x265E2AE8 EQ PUSH2 0xE2 JUMPI DUP1 PUSH4 0x49616685 EQ PUSH2 0x1844 JUMPI DUP1 PUSH4 0x4A0F5DA6 EQ PUSH2 0x11C8 JUMPI DUP1 PUSH4 0x4CCC0C0D EQ PUSH2 0x116F JUMPI DUP1 PUSH4 0x66B9F622 EQ PUSH2 0xE75 JUMPI DUP1 PUSH4 0x8462A7F8 EQ PUSH2 0xE57 JUMPI DUP1 PUSH4 0x9D47DCC0 EQ PUSH2 0xD33 JUMPI DUP1 PUSH4 0xA0C83C9C EQ PUSH2 0xD07 JUMPI DUP1 PUSH4 0xB1F6A98F EQ PUSH2 0xAAE JUMPI DUP1 PUSH4 0xB32C4D8D EQ PUSH2 0xA47 JUMPI DUP1 PUSH4 0xC4D106FD EQ PUSH2 0xA01 JUMPI DUP1 PUSH4 0xC6376A5A EQ PUSH2 0x58A JUMPI DUP1 PUSH4 0xDA04741B EQ PUSH2 0x2B2 JUMPI DUP1 PUSH4 0xE80DB5DB EQ PUSH2 0x289 JUMPI DUP1 PUSH4 0xED49E25E EQ PUSH2 0x118 JUMPI PUSH4 0xFD291D6B EQ PUSH2 0xE2 JUMPI PUSH1 0x0 DUP1 REVERT JUMPDEST CALLVALUE PUSH2 0x113 JUMPI PUSH1 0x20 CALLDATASIZE PUSH1 0x3 NOT ADD SLT PUSH2 0x113 JUMPI PUSH1 0x4 CALLDATALOAD PUSH1 0x0 MSTORE PUSH1 0x6 PUSH1 0x20 MSTORE PUSH1 0x20 PUSH1 0xFF PUSH1 0x40 PUSH1 0x0 KECCAK256 SLOAD AND PUSH1 0x40 MLOAD SWAP1 ISZERO ISZERO DUP2 MSTORE RETURN JUMPDEST PUSH1 0x0 DUP1 REVERT JUMPDEST CALLVALUE PUSH2 0x113 JUMPI PUSH1 0x20 DUP1 PUSH1 0x3 NOT CALLDATASIZE ADD SLT PUSH2 0x113 JUMPI PUSH1 0x4 CALLDATALOAD DUP1 ISZERO ISZERO DUP1 PUSH2 0x27D JUMPI JUMPDEST ISZERO PUSH2 0x245 JUMPI PUSH1 0x0 MSTORE PUSH1 0x1 DUP1 DUP3 MSTORE DUP1 PUSH2 0x154 PUSH1 0x3 PUSH1 0x40 PUSH1 0x0 KECCAK256 ADD PUSH2 0x1DA6 JUMP JUMPDEST SWAP3 PUSH1 0x0 DUP1 DUP4 JUMPDEST PUSH2 0x1F2 JUMPI JUMPDEST POP PUSH2 0x16B SWAP2 SWAP3 POP PUSH2 0x1D03 JUMP JUMPDEST SWAP3 PUSH1 0x0 SWAP2 DUP3 DUP5 JUMPDEST PUSH2 0x189 JUMPI JUMPDEST PUSH1 0x40 MLOAD DUP1 PUSH2 0x185 DUP9 DUP3 PUSH2 0x18EC JUMP JUMPDEST SUB SWAP1 RETURN JUMPDEST DUP3 MLOAD DUP2 LT ISZERO PUSH2 0x1ED JUMPI PUSH2 0x19C DUP2 DUP5 PUSH2 0x1D35 JUMP JUMPDEST MLOAD PUSH1 0x0 MSTORE PUSH1 0x6 DUP3 MSTORE PUSH1 0xFF PUSH1 0x40 PUSH1 0x0 KECCAK256 SLOAD AND ISZERO PUSH2 0x1C2 JUMPI JUMPDEST PUSH2 0x1BC SWAP1 PUSH2 0x19EE JUMP JUMPDEST DUP5 PUSH2 0x172 JUMP JUMPDEST SWAP3 PUSH2 0x1E5 PUSH2 0x1BC SWAP2 PUSH2 0x1D4 DUP7 DUP7 PUSH2 0x1D35 JUMP JUMPDEST MLOAD PUSH2 0x1DF DUP3 DUP11 PUSH2 0x1D35 JUMP JUMPDEST MSTORE PUSH2 0x19EE JUMP JUMPDEST SWAP4 SWAP1 POP PUSH2 0x1B3 JUMP JUMPDEST PUSH2 0x177 JUMP JUMPDEST DUP6 MLOAD DUP2 LT ISZERO PUSH2 0x240 JUMPI PUSH2 0x205 DUP2 DUP8 PUSH2 0x1D35 JUMP JUMPDEST MLOAD PUSH1 0x0 MSTORE PUSH1 0x6 DUP4 MSTORE PUSH1 0xFF PUSH1 0x40 PUSH1 0x0 KECCAK256 SLOAD AND ISZERO PUSH2 0x22B JUMPI JUMPDEST PUSH2 0x225 SWAP1 PUSH2 0x19EE JUMP JUMPDEST DUP4 PUSH2 0x15A JUMP JUMPDEST SWAP1 PUSH2 0x238 PUSH2 0x225 SWAP2 PUSH2 0x19EE JUMP JUMPDEST SWAP2 SWAP1 POP PUSH2 0x21C JUMP JUMPDEST PUSH2 0x15F JUMP JUMPDEST PUSH1 0x40 MLOAD PUSH3 0x461BCD PUSH1 0xE5 SHL DUP2 MSTORE PUSH1 0x4 DUP2 ADD DUP4 SWAP1 MSTORE PUSH1 0x10 PUSH1 0x24 DUP3 ADD MSTORE PUSH16 0x125B9D985B1A590818985D18DA081251 PUSH1 0x82 SHL PUSH1 0x44 DUP3 ADD MSTORE PUSH1 0x64 SWAP1 REVERT JUMPDEST POP PUSH1 0x4 SLOAD DUP2 GT ISZERO PUSH2 0x136 JUMP JUMPDEST CALLVALUE PUSH2 0x113 JUMPI PUSH1 0x0 CALLDATASIZE PUSH1 0x3 NOT ADD SLT PUSH2 0x113 JUMPI PUSH1 0x0 SLOAD PUSH1 0x40 MLOAD PUSH1 0x1 PUSH1 0x1 PUSH1 0xA0 SHL SUB SWAP1 SWAP2 AND DUP2 MSTORE PUSH1 0x20 SWAP1 RETURN JUMPDEST CALLVALUE PUSH2 0x113 JUMPI PUSH1 0x20 DUP1 PUSH1 0x3 NOT CALLDATASIZE ADD SLT PUSH2 0x113 JUMPI PUSH2 0x2CC PUSH2 0x18D6 JUMP JUMPDEST PUSH1 0x0 DUP1 SLOAD PUSH1 0x40 MLOAD PUSH4 0x2B857545 PUSH1 0xE1 SHL DUP2 MSTORE PUSH1 0x1 PUSH1 0x1 PUSH1 0xA0 SHL SUB SWAP5 SWAP4 SWAP1 SWAP3 SWAP1 SWAP2 DUP6 AND SWAP1 DUP5 DUP5 PUSH1 0x4 DUP2 DUP6 GAS STATICCALL SWAP4 DUP5 ISZERO PUSH2 0x461 JUMPI PUSH1 0x0 SWAP5 PUSH2 0x55B JUMPI JUMPDEST POP DUP6 PUSH1 0x1 SWAP4 AND SWAP3 JUMPDEST DUP5 DUP2 GT ISZERO PUSH2 0x46D JUMPI POP PUSH2 0x31F SWAP1 PUSH2 0x1D03 JUMP JUMPDEST SWAP4 PUSH1 0x0 SWAP3 PUSH1 0x1 JUMPDEST DUP6 DUP2 GT ISZERO PUSH2 0x33C JUMPI PUSH1 0x40 MLOAD DUP1 PUSH2 0x185 DUP10 DUP3 PUSH2 0x18EC JUMP JUMPDEST PUSH1 0x40 MLOAD PUSH4 0x2E76C56D PUSH1 0xE2 SHL DUP2 MSTORE PUSH1 0x4 DUP2 ADD DUP3 SWAP1 MSTORE PUSH1 0x24 SWAP1 PUSH1 0x0 DUP2 DUP4 DUP2 DUP10 GAS STATICCALL SWAP1 DUP2 ISZERO PUSH2 0x461 JUMPI PUSH1 0x0 SWAP2 PUSH2 0x43E JUMPI JUMPDEST POP DUP4 DUP11 PUSH1 0xC0 DUP4 ADD MLOAD MLOAD AND EQ SWAP2 DUP3 PUSH2 0x411 JUMPI JUMPDEST DUP3 PUSH2 0x3E3 JUMPI JUMPDEST POP DUP2 PUSH2 0x3CC JUMPI JUMPDEST DUP2 PUSH2 0x3BE JUMPI JUMPDEST POP PUSH2 0x3A3 JUMPI JUMPDEST PUSH2 0x39E SWAP1 PUSH2 0x19EE JUMP JUMPDEST PUSH2 0x326 JUMP JUMPDEST SWAP4 PUSH2 0x3B6 DUP2 DUP7 PUSH2 0x1DF PUSH2 0x39E SWAP5 DUP12 PUSH2 0x1D35 JUMP JUMPDEST SWAP5 SWAP1 POP PUSH2 0x395 JUMP JUMPDEST PUSH1 0x80 SWAP2 POP ADD MLOAD ISZERO ISZERO DUP10 PUSH2 0x38F JUMP JUMPDEST SWAP1 POP DUP2 PUSH1 0x0 MSTORE PUSH1 0x5 DUP5 MSTORE PUSH1 0x40 PUSH1 0x0 KECCAK256 SLOAD ISZERO SWAP1 PUSH2 0x389 JUMP JUMPDEST PUSH1 0x40 DUP3 ADD MLOAD SWAP2 SWAP3 POP PUSH1 0x6 DUP3 LT ISZERO PUSH2 0x3FD JUMPI POP ISZERO SWAP1 DUP11 PUSH2 0x382 JUMP JUMPDEST PUSH4 0x4E487B71 PUSH1 0xE0 SHL PUSH1 0x0 SWAP1 DUP2 MSTORE PUSH1 0x21 PUSH1 0x4 MSTORE REVERT JUMPDEST SWAP2 POP DUP5 DUP2 ADD MLOAD PUSH1 0x3 DUP2 LT ISZERO PUSH2 0x429 JUMPI PUSH1 0x1 EQ SWAP2 PUSH2 0x37C JUMP JUMPDEST DUP3 PUSH4 0x4E487B71 PUSH1 0xE0 SHL PUSH1 0x0 MSTORE PUSH1 0x21 PUSH1 0x4 MSTORE PUSH1 0x0 REVERT JUMPDEST PUSH2 0x45B SWAP2 POP RETURNDATASIZE DUP1 PUSH1 0x0 DUP4 RETURNDATACOPY PUSH2 0x453 DUP2 DUP4 PUSH2 0x19CC JUMP JUMPDEST DUP2 ADD SWAP1 PUSH2 0x1A98 JUMP JUMPDEST DUP11 PUSH2 0x36A JUMP JUMPDEST PUSH1 0x40 MLOAD RETURNDATASIZE PUSH1 0x0 DUP3 RETURNDATACOPY RETURNDATASIZE SWAP1 REVERT JUMPDEST PUSH1 0x40 MLOAD PUSH4 0x2E76C56D PUSH1 0xE2 SHL DUP2 MSTORE PUSH1 0x4 DUP2 ADD DUP3 SWAP1 MSTORE PUSH1 0x24 SWAP1 PUSH1 0x0 DUP2 DUP4 DUP2 DUP9 GAS STATICCALL SWAP1 DUP2 ISZERO PUSH2 0x461 JUMPI PUSH1 0x0 SWAP2 PUSH2 0x540 JUMPI JUMPDEST POP DUP6 DUP10 PUSH1 0xC0 DUP4 ADD MLOAD MLOAD AND EQ SWAP2 DUP3 PUSH2 0x528 JUMPI JUMPDEST DUP3 PUSH2 0x50E JUMPI JUMPDEST POP DUP2 PUSH2 0x4F7 JUMPI JUMPDEST DUP2 PUSH2 0x4E9 JUMPI JUMPDEST POP PUSH2 0x4D4 JUMPI JUMPDEST PUSH2 0x4CF SWAP1 PUSH2 0x19EE JUMP JUMPDEST PUSH2 0x30D JUMP JUMPDEST SWAP1 PUSH2 0x4E1 PUSH2 0x4CF SWAP2 PUSH2 0x19EE JUMP JUMPDEST SWAP2 SWAP1 POP PUSH2 0x4C6 JUMP JUMPDEST PUSH1 0x80 SWAP2 POP ADD MLOAD ISZERO ISZERO DUP9 PUSH2 0x4C0 JUMP JUMPDEST SWAP1 POP DUP2 PUSH1 0x0 MSTORE PUSH1 0x5 DUP8 MSTORE PUSH1 0x40 PUSH1 0x0 KECCAK256 SLOAD ISZERO SWAP1 PUSH2 0x4BA JUMP JUMPDEST PUSH1 0x40 DUP3 ADD MLOAD SWAP2 SWAP3 POP PUSH1 0x6 DUP3 LT ISZERO PUSH2 0x3FD JUMPI POP ISZERO SWAP1 DUP10 PUSH2 0x4B3 JUMP JUMPDEST SWAP2 POP DUP8 DUP2 ADD MLOAD PUSH1 0x3 DUP2 LT ISZERO PUSH2 0x429 JUMPI PUSH1 0x1 EQ SWAP2 PUSH2 0x4AD JUMP JUMPDEST PUSH2 0x555 SWAP2 POP RETURNDATASIZE DUP1 PUSH1 0x0 DUP4 RETURNDATACOPY PUSH2 0x453 DUP2 DUP4 PUSH2 0x19CC JUMP JUMPDEST DUP10 PUSH2 0x49B JUMP JUMPDEST SWAP1 SWAP4 POP DUP5 DUP2 DUP2 RETURNDATASIZE DUP4 GT PUSH2 0x583 JUMPI JUMPDEST PUSH2 0x573 DUP2 DUP4 PUSH2 0x19CC JUMP JUMPDEST DUP2 ADD SUB SLT PUSH2 0x113 JUMPI MLOAD SWAP3 DUP7 PUSH2 0x305 JUMP JUMPDEST POP RETURNDATASIZE PUSH2 0x569 JUMP JUMPDEST CALLVALUE PUSH2 0x113 JUMPI PUSH1 0x20 DUP1 PUSH1 0x3 NOT CALLDATASIZE ADD SLT PUSH2 0x113 JUMPI PUSH8 0xFFFFFFFFFFFFFFFF PUSH1 0x4 CALLDATALOAD DUP2 DUP2 GT PUSH2 0x113 JUMPI PUSH2 0x5BD SWAP1 CALLDATASIZE SWAP1 PUSH1 0x4 ADD PUSH2 0x1955 JUMP JUMPDEST PUSH1 0x0 SLOAD PUSH1 0x40 MLOAD PUSH4 0x44276733 PUSH1 0xE0 SHL DUP2 MSTORE CALLER PUSH1 0x4 DUP3 ADD MSTORE SWAP3 SWAP2 PUSH1 0x24 SWAP2 PUSH1 0x1 PUSH1 0x1 PUSH1 0xA0 SHL SUB SWAP1 DUP2 AND DUP8 DUP7 DUP6 DUP2 DUP5 GAS STATICCALL SWAP6 DUP7 ISZERO PUSH2 0x461 JUMPI PUSH1 0x0 SWAP7 PUSH2 0x9D2 JUMPI JUMPDEST POP PUSH1 0x5 SWAP6 DUP7 DUP2 LT ISZERO PUSH2 0x9BD JUMPI PUSH1 0x2 SUB PUSH2 0x986 JUMPI DUP3 ISZERO PUSH2 0x954 JUMPI PUSH1 0x0 JUMPDEST DUP4 DUP2 LT PUSH2 0x7FD JUMPI POP POP PUSH2 0x629 PUSH1 0x4 SLOAD PUSH2 0x19EE JUMP JUMPDEST SWAP6 DUP7 PUSH1 0x4 SSTORE DUP7 PUSH1 0x0 MSTORE PUSH1 0x1 DUP1 SWAP8 DUP2 DUP11 MSTORE PUSH1 0x40 PUSH1 0x0 KECCAK256 SWAP1 DUP2 SSTORE ADD CALLER PUSH12 0xFFFFFFFFFFFFFFFFFFFFFFFF PUSH1 0xA0 SHL DUP3 SLOAD AND OR SWAP1 SSTORE PUSH1 0x4 SLOAD PUSH1 0x0 MSTORE PUSH1 0x3 PUSH1 0x40 PUSH1 0x0 KECCAK256 ADD SWAP1 DUP4 GT PUSH2 0x7E8 JUMPI PUSH1 0x1 PUSH1 0x40 SHL DUP4 GT PUSH2 0x7E8 JUMPI DUP1 SLOAD DUP4 DUP3 SSTORE DUP1 DUP5 LT PUSH2 0x7BE JUMPI JUMPDEST POP DUP5 SWAP1 PUSH1 0x0 MSTORE DUP8 PUSH1 0x0 KECCAK256 SWAP1 DUP8 PUSH1 0x0 JUMPDEST DUP6 DUP2 LT PUSH2 0x7AC JUMPI POP POP POP POP PUSH1 0x4 SLOAD PUSH1 0x0 MSTORE DUP6 DUP8 MSTORE TIMESTAMP PUSH1 0x4 PUSH1 0x40 PUSH1 0x0 KECCAK256 ADD SSTORE PUSH1 0x4 SLOAD PUSH1 0x0 MSTORE DUP5 PUSH1 0x40 PUSH1 0x0 KECCAK256 ADD PUSH1 0xFF NOT DUP2 SLOAD AND SWAP1 SSTORE CALLER PUSH1 0x0 MSTORE PUSH1 0x2 DUP8 MSTORE PUSH2 0x6E1 PUSH1 0x40 PUSH1 0x0 KECCAK256 PUSH1 0x4 SLOAD SWAP1 PUSH2 0x1D71 JUMP JUMPDEST PUSH1 0x0 JUMPDEST DUP3 DUP2 LT PUSH2 0x729 JUMPI PUSH1 0x4 SLOAD PUSH1 0x40 DUP1 MLOAD DUP3 DUP2 MSTORE CALLER PUSH1 0x20 DUP3 ADD MSTORE DUP11 SWAP3 SWAP2 PUSH32 0x3B090A5F073126BA1311454936E50B13B4EB5A69549338B4886FF9A0C1BFAED SWAP2 LOG1 PUSH1 0x40 MLOAD SWAP1 DUP2 MSTORE RETURN JUMPDEST PUSH1 0x4 SLOAD PUSH2 0x737 DUP3 DUP6 DUP9 PUSH2 0x1D61 JUMP JUMPDEST CALLDATALOAD PUSH1 0x0 MSTORE DUP7 DUP10 MSTORE PUSH1 0x40 PUSH1 0x0 KECCAK256 SSTORE DUP2 PUSH1 0x0 SLOAD AND SWAP1 PUSH2 0x755 DUP2 DUP6 DUP9 PUSH2 0x1D61 JUMP JUMPDEST CALLDATALOAD DUP3 EXTCODESIZE ISZERO PUSH2 0x113 JUMPI PUSH1 0x0 SWAP3 PUSH1 0x44 DUP5 SWAP3 PUSH1 0x40 MLOAD SWAP6 DUP7 SWAP4 DUP5 SWAP3 PUSH4 0xBEC514C3 PUSH1 0xE0 SHL DUP5 MSTORE PUSH1 0x4 DUP5 ADD MSTORE DUP14 DUP12 DUP5 ADD MSTORE GAS CALL SWAP2 DUP3 ISZERO PUSH2 0x461 JUMPI PUSH2 0x798 SWAP3 PUSH2 0x79D JUMPI JUMPDEST POP PUSH2 0x19EE JUMP JUMPDEST PUSH2 0x6E4 JUMP JUMPDEST PUSH2 0x7A6 SWAP1 PUSH2 0x1986 JUMP JUMPDEST DUP10 PUSH2 0x792 JUMP JUMPDEST DUP11 DUP4 CALLDATALOAD SWAP4 ADD SWAP3 DUP2 DUP6 ADD SSTORE ADD DUP9 SWAP1 PUSH2 0x695 JUMP JUMPDEST DUP2 PUSH1 0x0 MSTORE DUP8 DUP5 DUP11 PUSH1 0x0 KECCAK256 SWAP3 DUP4 ADD SWAP3 ADD JUMPDEST DUP3 DUP2 LT PUSH2 0x7DC JUMPI POP POP PUSH2 0x686 JUMP JUMPDEST PUSH1 0x0 DUP2 SSTORE ADD DUP9 SWAP1 PUSH2 0x7CE JUMP JUMPDEST DUP4 PUSH4 0x4E487B71 PUSH1 0xE0 SHL PUSH1 0x0 MSTORE PUSH1 0x41 PUSH1 0x4 MSTORE PUSH1 0x0 REVERT JUMPDEST PUSH2 0x808 DUP2 DUP6 DUP9 PUSH2 0x1D61 JUMP JUMPDEST PUSH1 0x40 MLOAD PUSH4 0x2E76C56D PUSH1 0xE2 SHL DUP2 MSTORE SWAP1 CALLDATALOAD PUSH1 0x4 DUP3 ADD MSTORE PUSH1 0x0 DUP2 DUP8 DUP2 DUP7 GAS STATICCALL SWAP1 DUP2 ISZERO PUSH2 0x461 JUMPI PUSH1 0x0 SWAP2 PUSH2 0x939 JUMPI JUMPDEST POP CALLER DUP5 PUSH1 0xC0 DUP4 ADD MLOAD MLOAD AND SUB PUSH2 0x902 JUMPI PUSH1 0x40 ADD MLOAD PUSH1 0x6 DUP2 LT ISZERO PUSH2 0x8ED JUMPI PUSH2 0x8B4 JUMPI PUSH2 0x85E DUP2 DUP6 DUP9 PUSH2 0x1D61 JUMP JUMPDEST CALLDATALOAD PUSH1 0x0 MSTORE DUP7 DUP10 MSTORE PUSH1 0x40 PUSH1 0x0 KECCAK256 SLOAD PUSH2 0x87D JUMPI PUSH2 0x878 SWAP1 PUSH2 0x19EE JUMP JUMPDEST PUSH2 0x615 JUMP JUMPDEST PUSH1 0x40 MLOAD PUSH3 0x461BCD PUSH1 0xE5 SHL DUP2 MSTORE PUSH1 0x4 DUP2 ADD DUP11 SWAP1 MSTORE PUSH1 0x10 DUP2 DUP8 ADD MSTORE PUSH16 0x82D8E4CAC2C8F240D2DC40C4C2E8C6D PUSH1 0x83 SHL PUSH1 0x44 DUP3 ADD MSTORE PUSH1 0x64 SWAP1 REVERT JUMPDEST PUSH1 0x40 MLOAD PUSH3 0x461BCD PUSH1 0xE5 SHL DUP2 MSTORE PUSH1 0x4 DUP2 ADD DUP11 SWAP1 MSTORE PUSH1 0x12 DUP2 DUP8 ADD MSTORE PUSH18 0x4E6F742070656E64696E67207069636B757 PUSH1 0x74 SHL PUSH1 0x44 DUP3 ADD MSTORE PUSH1 0x64 SWAP1 REVERT JUMPDEST DUP6 PUSH4 0x4E487B71 PUSH1 0xE0 SHL PUSH1 0x0 MSTORE PUSH1 0x21 PUSH1 0x4 MSTORE PUSH1 0x0 REVERT JUMPDEST PUSH1 0x40 MLOAD PUSH3 0x461BCD PUSH1 0xE5 SHL DUP2 MSTORE PUSH1 0x4 DUP2 ADD DUP12 SWAP1 MSTORE PUSH1 0x10 DUP2 DUP9 ADD MSTORE PUSH16 0x139BDD081E5BDD5C881C1C9BD91D58DD PUSH1 0x82 SHL PUSH1 0x44 DUP3 ADD MSTORE PUSH1 0x64 SWAP1 REVERT JUMPDEST PUSH2 0x94E SWAP2 POP RETURNDATASIZE DUP1 PUSH1 0x0 DUP4 RETURNDATACOPY PUSH2 0x453 DUP2 DUP4 PUSH2 0x19CC JUMP JUMPDEST DUP11 PUSH2 0x833 JUMP JUMPDEST PUSH1 0x40 MLOAD PUSH3 0x461BCD PUSH1 0xE5 SHL DUP2 MSTORE PUSH1 0x4 DUP2 ADD DUP10 SWAP1 MSTORE PUSH1 0xB DUP2 DUP7 ADD MSTORE PUSH11 0x8ADAE0E8F240C4C2E8C6D PUSH1 0xAB SHL PUSH1 0x44 DUP3 ADD MSTORE PUSH1 0x64 SWAP1 REVERT JUMPDEST PUSH1 0x40 MLOAD PUSH3 0x461BCD PUSH1 0xE5 SHL DUP2 MSTORE PUSH1 0x4 DUP2 ADD DUP10 SWAP1 MSTORE PUSH1 0x10 DUP2 DUP7 ADD MSTORE PUSH16 0x27B7363C903234B9BA3934B13ABA37B9 PUSH1 0x81 SHL PUSH1 0x44 DUP3 ADD MSTORE PUSH1 0x64 SWAP1 REVERT JUMPDEST DUP5 PUSH4 0x4E487B71 PUSH1 0xE0 SHL PUSH1 0x0 MSTORE PUSH1 0x21 PUSH1 0x4 MSTORE PUSH1 0x0 REVERT JUMPDEST PUSH2 0x9F3 SWAP2 SWAP7 POP DUP9 RETURNDATASIZE DUP11 GT PUSH2 0x9FA JUMPI JUMPDEST PUSH2 0x9EB DUP2 DUP4 PUSH2 0x19CC JUMP JUMPDEST DUP2 ADD SWAP1 PUSH2 0x1D49 JUMP JUMPDEST SWAP5 DUP9 PUSH2 0x5F9 JUMP JUMPDEST POP RETURNDATASIZE PUSH2 0x9E1 JUMP JUMPDEST CALLVALUE PUSH2 0x113 JUMPI PUSH1 0x20 CALLDATASIZE PUSH1 0x3 NOT ADD SLT PUSH2 0x113 JUMPI PUSH1 0x1 PUSH1 0x1 PUSH1 0xA0 SHL SUB PUSH2 0xA22 PUSH2 0x18D6 JUMP JUMPDEST AND PUSH1 0x0 MSTORE PUSH1 0x3 PUSH1 0x20 MSTORE PUSH2 0x185 PUSH2 0xA3B PUSH1 0x40 PUSH1 0x0 KECCAK256 PUSH2 0x1DA6 JUMP JUMPDEST PUSH1 0x40 MLOAD SWAP2 DUP3 SWAP2 DUP3 PUSH2 0x18EC JUMP JUMPDEST CALLVALUE PUSH2 0x113 JUMPI PUSH1 0x20 CALLDATASIZE PUSH1 0x3 NOT ADD SLT PUSH2 0x113 JUMPI PUSH1 0x4 CALLDATALOAD PUSH1 0x0 MSTORE PUSH1 0x1 PUSH1 0x20 MSTORE PUSH1 0xA0 PUSH1 0x40 PUSH1 0x0 KECCAK256 DUP1 SLOAD SWAP1 PUSH1 0x1 DUP1 DUP5 SHL SUB SWAP1 DUP2 PUSH1 0x1 DUP3 ADD SLOAD AND SWAP2 PUSH1 0x2 DUP3 ADD SLOAD AND PUSH1 0xFF PUSH1 0x5 PUSH1 0x4 DUP5 ADD SLOAD SWAP4 ADD SLOAD AND SWAP3 PUSH1 0x40 MLOAD SWAP5 DUP6 MSTORE PUSH1 0x20 DUP6 ADD MSTORE PUSH1 0x40 DUP5 ADD MSTORE PUSH1 0x60 DUP4 ADD MSTORE ISZERO ISZERO PUSH1 0x80 DUP3 ADD MSTORE RETURN JUMPDEST CALLVALUE PUSH2 0x113 JUMPI PUSH1 0x40 CALLDATASIZE PUSH1 0x3 NOT ADD SLT PUSH2 0x113 JUMPI PUSH1 0x24 DUP1 CALLDATALOAD PUSH1 0x4 CALLDATALOAD PUSH8 0xFFFFFFFFFFFFFFFF DUP1 DUP4 GT PUSH2 0x113 JUMPI CALLDATASIZE PUSH1 0x23 DUP5 ADD SLT ISZERO PUSH2 0x113 JUMPI DUP3 PUSH1 0x4 ADD CALLDATALOAD SWAP1 DUP2 GT PUSH2 0x113 JUMPI CALLDATASIZE DUP5 DUP3 DUP6 ADD ADD GT PUSH2 0x113 JUMPI DUP2 PUSH1 0x0 MSTORE PUSH1 0x20 PUSH1 0x5 DUP2 MSTORE PUSH1 0x40 PUSH1 0x0 KECCAK256 SLOAD ISZERO PUSH2 0xCCD JUMPI DUP3 PUSH1 0x0 MSTORE PUSH1 0x6 DUP2 MSTORE PUSH1 0xFF PUSH1 0x40 PUSH1 0x0 KECCAK256 SLOAD AND PUSH2 0xC98 JUMPI PUSH1 0x0 DUP1 SLOAD PUSH1 0x40 MLOAD PUSH4 0x2E76C56D PUSH1 0xE2 SHL DUP2 MSTORE PUSH1 0x4 DUP2 ADD DUP7 SWAP1 MSTORE PUSH1 0x1 PUSH1 0x1 PUSH1 0xA0 SHL SUB SWAP2 DUP3 AND SWAP3 SWAP1 SWAP2 SWAP1 DUP3 DUP10 DUP2 DUP7 GAS STATICCALL SWAP1 DUP2 ISZERO PUSH2 0x461 JUMPI PUSH1 0xC0 DUP6 SWAP3 DUP11 SWAP5 PUSH1 0x0 SWAP2 PUSH2 0xC7D JUMPI JUMPDEST POP ADD MLOAD MLOAD AND CALLER EQ SWAP3 DUP4 ISZERO PUSH2 0xC1F JUMPI JUMPDEST POP POP POP ISZERO PUSH2 0xBEB JUMPI SWAP1 PUSH1 0x40 PUSH32 0x76C9A66F90A8E815139222B7D8F1F629D42EF271C32BF7AC793B041122C1F0AD SWAP3 DUP3 DUP1 DUP9 DUP8 PUSH1 0x0 MSTORE PUSH1 0x6 DUP5 MSTORE DUP5 PUSH1 0x0 KECCAK256 PUSH1 0x1 PUSH1 0xFF NOT DUP3 SLOAD AND OR SWAP1 SSTORE PUSH1 0x5 DUP5 MSTORE DUP5 PUSH1 0x0 KECCAK256 SLOAD SWAP9 DUP6 MLOAD SWAP7 DUP6 DUP9 SWAP7 DUP8 MSTORE DUP7 ADD MSTORE ADD DUP5 DUP5 ADD CALLDATACOPY PUSH1 0x0 DUP3 DUP3 ADD DUP5 ADD MSTORE PUSH1 0x1F ADD PUSH1 0x1F NOT AND DUP2 ADD SUB ADD SWAP1 LOG3 STOP JUMPDEST PUSH1 0x64 SWAP1 PUSH1 0xE DUP7 PUSH1 0x40 MLOAD SWAP3 PUSH3 0x461BCD PUSH1 0xE5 SHL DUP5 MSTORE PUSH1 0x4 DUP5 ADD MSTORE DUP3 ADD MSTORE PUSH14 0x139BDD08185D5D1A1BDC9A5E9959 PUSH1 0x92 SHL PUSH1 0x44 DUP3 ADD MSTORE REVERT JUMPDEST PUSH1 0x40 MLOAD PUSH4 0x44276733 PUSH1 0xE0 SHL DUP2 MSTORE CALLER PUSH1 0x4 DUP3 ADD MSTORE SWAP4 POP SWAP1 SWAP2 DUP4 SWAP2 DUP3 SWAP1 GAS STATICCALL SWAP1 DUP2 ISZERO PUSH2 0x461 JUMPI PUSH1 0x0 SWAP2 PUSH2 0xC60 JUMPI JUMPDEST POP PUSH1 0x5 DUP2 LT ISZERO PUSH2 0x8ED JUMPI PUSH1 0x4 EQ DUP6 DUP3 DUP9 PUSH2 0xB73 JUMP JUMPDEST PUSH2 0xC77 SWAP2 POP DUP3 RETURNDATASIZE DUP5 GT PUSH2 0x9FA JUMPI PUSH2 0x9EB DUP2 DUP4 PUSH2 0x19CC JUMP JUMPDEST DUP7 PUSH2 0xC4B JUMP JUMPDEST PUSH2 0xC92 SWAP2 POP RETURNDATASIZE DUP1 PUSH1 0x0 DUP4 RETURNDATACOPY PUSH2 0x453 DUP2 DUP4 PUSH2 0x19CC JUMP JUMPDEST DUP12 PUSH2 0xB64 JUMP JUMPDEST PUSH1 0x64 SWAP1 PUSH1 0xF DUP7 PUSH1 0x40 MLOAD SWAP3 PUSH3 0x461BCD PUSH1 0xE5 SHL DUP5 MSTORE PUSH1 0x4 DUP5 ADD MSTORE DUP3 ADD MSTORE PUSH15 0x105B1C9958591E481C995B5BDD9959 PUSH1 0x8A SHL PUSH1 0x44 DUP3 ADD MSTORE REVERT JUMPDEST PUSH1 0x64 SWAP1 PUSH1 0x14 DUP7 PUSH1 0x40 MLOAD SWAP3 PUSH3 0x461BCD PUSH1 0xE5 SHL DUP5 MSTORE PUSH1 0x4 DUP5 ADD MSTORE DUP3 ADD MSTORE PUSH20 0xA0E4DEC8EAC6E840DCDEE840D2DC40C4C2E8C6D PUSH1 0x63 SHL PUSH1 0x44 DUP3 ADD MSTORE REVERT JUMPDEST CALLVALUE PUSH2 0x113 JUMPI PUSH1 0x20 CALLDATASIZE PUSH1 0x3 NOT ADD SLT PUSH2 0x113 JUMPI PUSH1 0x4 CALLDATALOAD PUSH1 0x0 MSTORE PUSH1 0x5 PUSH1 0x20 MSTORE PUSH1 0x20 PUSH1 0x40 PUSH1 0x0 KECCAK256 SLOAD PUSH1 0x40 MLOAD SWAP1 DUP2 MSTORE RETURN JUMPDEST CALLVALUE PUSH2 0x113 JUMPI PUSH1 0x20 DUP1 PUSH1 0x3 NOT CALLDATASIZE ADD SLT PUSH2 0x113 JUMPI PUSH1 0x0 PUSH1 0xA0 PUSH1 0x40 MLOAD PUSH2 0xD55 DUP2 PUSH2 0x19B0 JUMP JUMPDEST DUP3 DUP2 MSTORE DUP3 DUP5 DUP3 ADD MSTORE DUP3 PUSH1 0x40 DUP3 ADD MSTORE PUSH1 0x60 DUP1 DUP3 ADD MSTORE DUP3 PUSH1 0x80 DUP3 ADD MSTORE ADD MSTORE PUSH1 0x4 CALLDATALOAD PUSH1 0x0 MSTORE PUSH1 0x1 SWAP1 DUP2 DUP2 MSTORE PUSH1 0x40 PUSH1 0x0 KECCAK256 PUSH1 0x40 MLOAD SWAP1 PUSH2 0xD8F DUP3 PUSH2 0x19B0 JUMP JUMPDEST DUP1 SLOAD DUP3 MSTORE DUP4 DUP2 ADD SLOAD PUSH1 0x1 PUSH1 0x1 PUSH1 0xA0 SHL SUB SWAP1 DUP2 AND DUP5 DUP5 ADD SWAP1 DUP2 MSTORE PUSH1 0x2 DUP4 ADD SLOAD DUP3 AND PUSH1 0x40 DUP6 ADD SWAP1 DUP2 MSTORE SWAP1 SWAP5 SWAP1 SWAP3 SWAP2 PUSH2 0xDC7 PUSH1 0x3 DUP5 ADD PUSH2 0x1DA6 JUMP JUMPDEST SWAP1 PUSH1 0x60 DUP7 ADD SWAP2 DUP3 MSTORE PUSH1 0xFF PUSH1 0x5 PUSH1 0x4 DUP7 ADD SLOAD SWAP6 PUSH1 0x80 DUP10 ADD SWAP7 DUP8 MSTORE ADD SLOAD AND SWAP5 PUSH1 0xA0 DUP8 ADD SWAP6 ISZERO ISZERO DUP7 MSTORE DUP2 PUSH1 0x40 MLOAD SWAP9 DUP6 DUP11 MSTORE PUSH1 0xE0 DUP11 ADD SWAP9 MLOAD DUP7 DUP12 ADD MSTORE MLOAD AND PUSH1 0x40 DUP10 ADD MSTORE MLOAD AND PUSH1 0x60 DUP8 ADD MSTORE MLOAD SWAP4 PUSH1 0xC0 PUSH1 0x80 DUP8 ADD MSTORE DUP5 MLOAD DUP1 SWAP2 MSTORE DUP2 PUSH2 0x100 DUP8 ADD SWAP6 ADD SWAP2 PUSH1 0x0 JUMPDEST DUP3 DUP2 LT PUSH2 0xE44 JUMPI DUP5 MLOAD PUSH1 0xA0 DUP10 ADD MSTORE DUP6 MLOAD ISZERO ISZERO PUSH1 0xC0 DUP10 ADD MSTORE DUP8 DUP8 SUB DUP9 RETURN JUMPDEST DUP4 MLOAD DUP8 MSTORE SWAP6 DUP2 ADD SWAP6 SWAP3 DUP2 ADD SWAP3 DUP9 ADD PUSH2 0xE27 JUMP JUMPDEST CALLVALUE PUSH2 0x113 JUMPI PUSH1 0x0 CALLDATASIZE PUSH1 0x3 NOT ADD SLT PUSH2 0x113 JUMPI PUSH1 0x20 PUSH1 0x4 SLOAD PUSH1 0x40 MLOAD SWAP1 DUP2 MSTORE RETURN JUMPDEST CALLVALUE PUSH2 0x113 JUMPI PUSH1 0x0 CALLDATASIZE PUSH1 0x3 NOT ADD SLT PUSH2 0x113 JUMPI PUSH1 0x4 SLOAD PUSH1 0x0 PUSH1 0x1 JUMPDEST DUP3 DUP2 GT ISZERO PUSH2 0x101B JUMPI POP PUSH2 0xEA0 SWAP1 PUSH2 0x1D03 JUMP JUMPDEST PUSH1 0x0 SWAP2 PUSH1 0x1 JUMPDEST DUP2 DUP2 GT ISZERO PUSH2 0xEBC JUMPI PUSH1 0x40 MLOAD DUP1 PUSH2 0x185 DUP6 DUP3 PUSH2 0x18EC JUMP JUMPDEST DUP1 PUSH1 0x0 MSTORE PUSH1 0x1 PUSH1 0x20 MSTORE PUSH1 0xFF PUSH1 0x5 PUSH1 0x40 PUSH1 0x0 KECCAK256 ADD SLOAD AND ISZERO PUSH2 0xEE5 JUMPI JUMPDEST PUSH2 0xEE0 SWAP1 PUSH2 0x19EE JUMP JUMPDEST PUSH2 0xEA6 JUMP JUMPDEST PUSH1 0x40 MLOAD PUSH4 0x76A4F12F PUSH1 0xE1 SHL DUP2 MSTORE PUSH1 0x4 DUP2 ADD DUP3 SWAP1 MSTORE PUSH1 0x24 PUSH1 0x0 DUP3 DUP3 DUP2 ADDRESS GAS STATICCALL SWAP2 DUP3 ISZERO PUSH2 0x461 JUMPI PUSH1 0x0 SWAP3 PUSH2 0xFF6 JUMPI JUMPDEST POP DUP2 MLOAD PUSH2 0xF21 JUMPI JUMPDEST POP POP PUSH2 0xED7 JUMP JUMPDEST SWAP1 SWAP5 SWAP2 SWAP4 SWAP3 PUSH1 0x1 SWAP6 PUSH1 0x0 SWAP2 PUSH1 0x1 DUP1 PUSH1 0xA0 SHL SUB PUSH1 0x0 SLOAD AND SWAP3 JUMPDEST DUP3 MLOAD DUP2 LT ISZERO PUSH2 0xFE8 JUMPI PUSH2 0xF4C DUP2 DUP5 PUSH2 0x1D35 JUMP JUMPDEST MLOAD PUSH1 0x40 MLOAD SWAP1 PUSH4 0x2E76C56D PUSH1 0xE2 SHL DUP3 MSTORE PUSH1 0x4 DUP3 ADD MSTORE PUSH1 0x0 DUP2 DUP8 DUP2 DUP9 GAS STATICCALL DUP1 ISZERO PUSH2 0x461 JUMPI PUSH1 0x40 SWAP2 PUSH1 0x0 SWAP2 PUSH2 0xFCD JUMPI JUMPDEST POP ADD MLOAD PUSH1 0x6 DUP2 LT ISZERO PUSH2 0x8ED JUMPI PUSH1 0x2 SUB PUSH2 0xF9A JUMPI PUSH2 0xF95 SWAP1 PUSH2 0x19EE JUMP JUMPDEST PUSH2 0xF39 JUMP JUMPDEST POP SWAP5 SWAP6 SWAP4 SWAP7 POP POP POP POP PUSH1 0x0 JUMPDEST PUSH2 0xFB2 JUMPI JUMPDEST DUP5 DUP1 PUSH2 0xF1A JUMP JUMPDEST SWAP3 PUSH2 0xFC5 DUP2 DUP6 PUSH2 0x1DF PUSH2 0xEE0 SWAP5 DUP8 PUSH2 0x1D35 JUMP JUMPDEST SWAP4 SWAP1 POP PUSH2 0xFAB JUMP JUMPDEST PUSH2 0xFE2 SWAP2 POP RETURNDATASIZE DUP1 PUSH1 0x0 DUP4 RETURNDATACOPY PUSH2 0x453 DUP2 DUP4 PUSH2 0x19CC JUMP JUMPDEST DUP12 PUSH2 0xF79 JUMP JUMPDEST POP SWAP5 SWAP6 SWAP4 SWAP7 SWAP3 POP POP POP PUSH2 0xFA6 JUMP JUMPDEST PUSH2 0x1014 SWAP2 SWAP3 POP RETURNDATASIZE DUP1 PUSH1 0x0 DUP4 RETURNDATACOPY PUSH2 0x100C DUP2 DUP4 PUSH2 0x19CC JUMP JUMPDEST DUP2 ADD SWAP1 PUSH2 0x1DF7 JUMP JUMPDEST SWAP1 DUP7 PUSH2 0xF12 JUMP JUMPDEST DUP1 PUSH1 0x0 MSTORE PUSH1 0x1 PUSH1 0x20 MSTORE PUSH1 0xFF PUSH1 0x5 PUSH1 0x40 PUSH1 0x0 KECCAK256 ADD SLOAD AND ISZERO PUSH2 0x1044 JUMPI JUMPDEST PUSH2 0x103F SWAP1 PUSH2 0x19EE JUMP JUMPDEST PUSH2 0xE8E JUMP JUMPDEST PUSH1 0x40 MLOAD PUSH4 0x76A4F12F PUSH1 0xE1 SHL DUP2 MSTORE PUSH1 0x4 DUP2 ADD DUP3 SWAP1 MSTORE SWAP3 SWAP2 SWAP1 PUSH1 0x24 PUSH1 0x0 DUP6 DUP3 DUP2 ADDRESS GAS STATICCALL SWAP5 DUP6 ISZERO PUSH2 0x461 JUMPI PUSH1 0x0 SWAP6 PUSH2 0x1152 JUMPI JUMPDEST POP DUP5 MLOAD PUSH2 0x1086 JUMPI JUMPDEST POP SWAP1 SWAP2 SWAP3 POP PUSH2 0x1036 JUMP JUMPDEST SWAP1 SWAP3 PUSH1 0x1 SWAP5 PUSH1 0x0 SWAP2 PUSH1 0x1 DUP1 PUSH1 0xA0 SHL SUB PUSH1 0x0 SLOAD AND SWAP3 JUMPDEST DUP3 MLOAD DUP2 LT ISZERO PUSH2 0x1144 JUMPI PUSH2 0x10AE DUP2 DUP5 PUSH2 0x1D35 JUMP JUMPDEST MLOAD PUSH1 0x40 MLOAD SWAP1 PUSH4 0x2E76C56D PUSH1 0xE2 SHL DUP3 MSTORE PUSH1 0x4 DUP3 ADD MSTORE PUSH1 0x0 DUP2 DUP8 DUP2 DUP9 GAS STATICCALL DUP1 ISZERO PUSH2 0x461 JUMPI PUSH1 0x40 SWAP2 PUSH1 0x0 SWAP2 PUSH2 0x1129 JUMPI JUMPDEST POP ADD MLOAD PUSH1 0x6 DUP2 LT ISZERO PUSH2 0x8ED JUMPI PUSH1 0x2 SUB PUSH2 0x10FC JUMPI PUSH2 0x10F7 SWAP1 PUSH2 0x19EE JUMP JUMPDEST PUSH2 0x109B JUMP JUMPDEST POP SWAP6 POP POP POP POP SWAP1 PUSH1 0x0 JUMPDEST PUSH2 0x1114 JUMPI JUMPDEST SWAP1 DUP3 SWAP2 DUP5 PUSH2 0x107C JUMP JUMPDEST SWAP1 PUSH2 0x1121 PUSH2 0x103F SWAP2 PUSH2 0x19EE JUMP JUMPDEST SWAP2 SWAP1 POP PUSH2 0x110B JUMP JUMPDEST PUSH2 0x113E SWAP2 POP RETURNDATASIZE DUP1 PUSH1 0x0 DUP4 RETURNDATACOPY PUSH2 0x453 DUP2 DUP4 PUSH2 0x19CC JUMP JUMPDEST DUP11 PUSH2 0x10DB JUMP JUMPDEST POP SWAP6 SWAP3 POP POP POP SWAP2 SWAP1 SWAP2 PUSH2 0x1106 JUMP JUMPDEST PUSH2 0x1168 SWAP2 SWAP6 POP RETURNDATASIZE DUP1 PUSH1 0x0 DUP4 RETURNDATACOPY PUSH2 0x100C DUP2 DUP4 PUSH2 0x19CC JUMP JUMPDEST SWAP4 DUP6 PUSH2 0x1074 JUMP JUMPDEST CALLVALUE PUSH2 0x113 JUMPI PUSH1 0x40 CALLDATASIZE PUSH1 0x3 NOT ADD SLT PUSH2 0x113 JUMPI PUSH2 0x1188 PUSH2 0x18D6 JUMP JUMPDEST PUSH1 0x1 PUSH1 0x1 PUSH1 0xA0 SHL SUB AND PUSH1 0x0 SWAP1 DUP2 MSTORE PUSH1 0x3 PUSH1 0x20 MSTORE PUSH1 0x40 SWAP1 KECCAK256 DUP1 SLOAD PUSH1 0x24 CALLDATALOAD SWAP2 SWAP1 DUP3 LT ISZERO PUSH2 0x113 JUMPI PUSH1 0x20 SWAP2 PUSH2 0x11B9 SWAP2 PUSH2 0x1927 JUMP JUMPDEST SWAP1 SLOAD SWAP1 PUSH1 0x3 SHL SHR PUSH1 0x40 MLOAD SWAP1 DUP2 MSTORE RETURN JUMPDEST CALLVALUE PUSH2 0x113 JUMPI PUSH1 0x40 CALLDATASIZE PUSH1 0x3 NOT ADD SLT PUSH2 0x113 JUMPI PUSH1 0x24 CALLDATALOAD PUSH8 0xFFFFFFFFFFFFFFFF DUP2 GT PUSH2 0x113 JUMPI PUSH2 0x11F9 SWAP1 CALLDATASIZE SWAP1 PUSH1 0x4 ADD PUSH2 0x1955 JUMP JUMPDEST SWAP1 PUSH1 0x1 DUP1 PUSH1 0xA0 SHL SUB PUSH1 0x0 SLOAD AND PUSH1 0x40 MLOAD PUSH4 0x44276733 PUSH1 0xE0 SHL DUP2 MSTORE CALLER PUSH1 0x4 DUP3 ADD MSTORE PUSH1 0x20 DUP2 PUSH1 0x24 DUP2 DUP6 GAS STATICCALL SWAP1 DUP2 ISZERO PUSH2 0x461 JUMPI PUSH1 0x0 SWAP2 PUSH2 0x1825 JUMPI JUMPDEST POP PUSH1 0x5 DUP2 LT ISZERO PUSH2 0x16C6 JUMPI PUSH1 0x3 SUB PUSH2 0x17E8 JUMPI PUSH1 0x4 CALLDATALOAD PUSH1 0x0 MSTORE PUSH1 0x1 SWAP3 DUP4 PUSH1 0x20 MSTORE PUSH1 0xFF PUSH1 0x5 PUSH1 0x40 PUSH1 0x0 KECCAK256 ADD SLOAD AND PUSH2 0x17AF JUMPI PUSH1 0x4 CALLDATALOAD PUSH1 0x0 MSTORE DUP4 PUSH1 0x20 MSTORE PUSH1 0x1 DUP1 PUSH1 0xA0 SHL SUB DUP5 PUSH1 0x40 PUSH1 0x0 KECCAK256 ADD SLOAD AND PUSH1 0x40 MLOAD PUSH4 0x76A4F12F PUSH1 0xE1 SHL DUP2 MSTORE PUSH1 0x4 CALLDATALOAD PUSH1 0x4 DUP3 ADD MSTORE PUSH1 0x0 DUP2 PUSH1 0x24 DUP2 ADDRESS GAS STATICCALL SWAP1 DUP2 ISZERO PUSH2 0x461 JUMPI PUSH1 0x0 SWAP2 PUSH2 0x1794 JUMPI JUMPDEST POP DUP3 DUP2 MLOAD SUB PUSH2 0x1744 JUMPI DUP1 MLOAD ISZERO PUSH2 0x16FF JUMPI SWAP3 SWAP5 SWAP3 PUSH1 0x0 DUP5 JUMPDEST PUSH2 0x15D2 JUMPI JUMPDEST POP DUP4 SWAP5 SWAP6 POP PUSH1 0x4 CALLDATALOAD PUSH1 0x0 MSTORE DUP4 PUSH1 0x20 MSTORE PUSH1 0x5 PUSH1 0x40 PUSH1 0x0 KECCAK256 PUSH1 0x2 DUP2 ADD CALLER PUSH12 0xFFFFFFFFFFFFFFFFFFFFFFFF PUSH1 0xA0 SHL DUP3 SLOAD AND OR SWAP1 SSTORE ADD DUP5 PUSH1 0xFF NOT DUP3 SLOAD AND OR SWAP1 SSTORE CALLER PUSH1 0x0 MSTORE PUSH1 0x3 PUSH1 0x20 MSTORE PUSH2 0x1316 PUSH1 0x4 CALLDATALOAD PUSH1 0x40 PUSH1 0x0 KECCAK256 PUSH2 0x1D71 JUMP JUMPDEST PUSH1 0x40 DUP1 MLOAD PUSH1 0x4 CALLDATALOAD DUP2 MSTORE CALLER PUSH1 0x20 DUP3 ADD MSTORE PUSH32 0xD435A59C16541CA81ADF6CDFE8991CC9C87D2475A457EF2876460222A63D8257 SWAP2 SWAP1 LOG1 PUSH1 0x0 SWAP4 JUMPDEST PUSH2 0x1353 JUMPI STOP JUMPDEST DUP1 MLOAD DUP5 LT ISZERO PUSH2 0x15D0 JUMPI PUSH2 0x1366 DUP5 DUP3 PUSH2 0x1D35 JUMP JUMPDEST MLOAD PUSH1 0x0 SLOAD SWAP1 SWAP5 SWAP1 PUSH1 0x1 PUSH1 0x1 PUSH1 0xA0 SHL SUB AND DUP1 EXTCODESIZE ISZERO PUSH2 0x113 JUMPI PUSH1 0x0 DUP1 SWAP2 PUSH1 0x44 PUSH1 0x40 MLOAD DUP1 SWAP5 DUP2 SWAP4 PUSH4 0x6A13931D PUSH1 0xE0 SHL DUP4 MSTORE DUP12 PUSH1 0x4 DUP5 ADD MSTORE PUSH1 0x2 PUSH1 0x24 DUP5 ADD MSTORE GAS CALL DUP1 ISZERO PUSH2 0x461 JUMPI PUSH2 0x15C1 JUMPI JUMPDEST POP PUSH1 0x0 SLOAD PUSH1 0x1 PUSH1 0x1 PUSH1 0xA0 SHL SUB AND DUP1 EXTCODESIZE ISZERO PUSH2 0x113 JUMPI PUSH1 0x0 DUP1 SWAP2 PUSH1 0x44 PUSH1 0x40 MLOAD DUP1 SWAP5 DUP2 SWAP4 PUSH4 0xBEC514C3 PUSH1 0xE0 SHL DUP4 MSTORE DUP12 PUSH1 0x4 DUP5 ADD MSTORE DUP13 PUSH1 0x24 DUP5 ADD MSTORE GAS CALL DUP1 ISZERO PUSH2 0x461 JUMPI PUSH2 0x15B2 JUMPI JUMPDEST POP PUSH1 0x0 SLOAD PUSH1 0x1 PUSH1 0x1 PUSH1 0xA0 SHL SUB AND SWAP5 PUSH2 0x140B DUP3 DUP7 DUP11 PUSH2 0x1D61 JUMP JUMPDEST CALLDATALOAD DUP7 EXTCODESIZE ISZERO PUSH2 0x113 JUMPI PUSH1 0x0 SWAP7 PUSH1 0x84 DUP9 SWAP3 PUSH1 0x40 MLOAD SWAP10 DUP11 SWAP4 DUP5 SWAP3 PUSH4 0x4736522B PUSH1 0xE1 SHL DUP5 MSTORE DUP8 PUSH1 0x4 DUP6 ADD MSTORE CALLER PUSH1 0x24 DUP6 ADD MSTORE PUSH1 0x44 DUP5 ADD MSTORE TIMESTAMP PUSH1 0x64 DUP5 ADD MSTORE GAS CALL SWAP6 DUP7 ISZERO PUSH2 0x461 JUMPI PUSH1 0x0 SWAP7 PUSH2 0x15A3 JUMPI JUMPDEST POP DUP6 SLOAD PUSH1 0x20 SWAP1 PUSH1 0x1 PUSH1 0x1 PUSH1 0xA0 SHL SUB AND PUSH1 0xA4 PUSH2 0x1470 DUP6 DUP10 DUP14 PUSH2 0x1D61 JUMP JUMPDEST CALLDATALOAD PUSH1 0x40 MLOAD SWAP10 DUP11 SWAP4 DUP5 SWAP3 PUSH4 0x6365CE65 PUSH1 0xE0 SHL DUP5 MSTORE DUP11 PUSH1 0x4 DUP6 ADD MSTORE CALLER PUSH1 0x24 DUP6 ADD MSTORE DUP8 PUSH1 0x44 DUP6 ADD MSTORE PUSH1 0x4 CALLDATALOAD PUSH1 0x64 DUP6 ADD MSTORE PUSH1 0x84 DUP5 ADD MSTORE GAS CALL SWAP6 DUP7 ISZERO PUSH2 0x461 JUMPI PUSH1 0x0 SWAP7 PUSH2 0x156F JUMPI JUMPDEST POP PUSH1 0x0 SLOAD PUSH1 0x1 PUSH1 0x1 PUSH1 0xA0 SHL SUB AND SWAP1 DUP2 EXTCODESIZE ISZERO PUSH2 0x113 JUMPI PUSH1 0x0 SWAP2 PUSH1 0x44 DUP4 SWAP3 PUSH1 0x40 MLOAD SWAP5 DUP6 SWAP4 DUP5 SWAP3 PUSH4 0x1577E5F3 PUSH1 0xE3 SHL DUP5 MSTORE PUSH1 0x4 DUP5 ADD MSTORE DUP12 PUSH1 0x24 DUP5 ADD MSTORE GAS CALL DUP1 ISZERO PUSH2 0x461 JUMPI PUSH2 0x1560 JUMPI JUMPDEST POP PUSH1 0x0 SLOAD PUSH1 0x1 PUSH1 0x1 PUSH1 0xA0 SHL SUB AND SWAP5 DUP6 EXTCODESIZE ISZERO PUSH2 0x113 JUMPI PUSH1 0x0 SWAP6 PUSH1 0x44 DUP8 SWAP3 PUSH1 0x40 MLOAD SWAP9 DUP10 SWAP4 DUP5 SWAP3 PUSH4 0x42111F2B PUSH1 0xE1 SHL DUP5 MSTORE CALLER PUSH1 0x4 DUP6 ADD MSTORE PUSH1 0x24 DUP5 ADD MSTORE GAS CALL SWAP1 DUP2 ISZERO PUSH2 0x461 JUMPI DUP7 SWAP6 PUSH2 0x154B SWAP3 PUSH2 0x1551 JUMPI POP PUSH2 0x19EE JUMP JUMPDEST SWAP4 PUSH2 0x134D JUMP JUMPDEST PUSH2 0x155A SWAP1 PUSH2 0x1986 JUMP JUMPDEST DUP9 PUSH2 0x792 JUMP JUMPDEST PUSH2 0x1569 SWAP1 PUSH2 0x1986 JUMP JUMPDEST DUP8 PUSH2 0x14F9 JUMP JUMPDEST SWAP1 SWAP6 POP PUSH1 0x20 DUP2 RETURNDATASIZE PUSH1 0x20 GT PUSH2 0x159B JUMPI JUMPDEST DUP2 PUSH2 0x158B PUSH1 0x20 SWAP4 DUP4 PUSH2 0x19CC JUMP JUMPDEST DUP2 ADD SUB SLT PUSH2 0x113 JUMPI MLOAD SWAP5 DUP9 PUSH2 0x14B3 JUMP JUMPDEST RETURNDATASIZE SWAP2 POP PUSH2 0x157E JUMP JUMPDEST PUSH2 0x15AC SWAP1 PUSH2 0x1986 JUMP JUMPDEST DUP9 PUSH2 0x1454 JUMP JUMPDEST PUSH2 0x15BB SWAP1 PUSH2 0x1986 JUMP JUMPDEST DUP8 PUSH2 0x13F2 JUMP JUMPDEST PUSH2 0x15CA SWAP1 PUSH2 0x1986 JUMP JUMPDEST DUP8 PUSH2 0x13AE JUMP JUMPDEST STOP JUMPDEST SWAP4 SWAP6 DUP2 MLOAD DUP6 LT ISZERO PUSH2 0x16F7 JUMPI PUSH2 0x15E7 DUP6 DUP4 PUSH2 0x1D35 JUMP JUMPDEST MLOAD PUSH1 0x40 MLOAD SWAP1 PUSH4 0x2E76C56D PUSH1 0xE2 SHL DUP3 MSTORE PUSH1 0x4 DUP3 ADD MSTORE PUSH1 0x0 DUP2 PUSH1 0x24 DUP2 DUP6 GAS STATICCALL SWAP1 DUP2 ISZERO PUSH2 0x461 JUMPI PUSH1 0x0 SWAP2 PUSH2 0x16DC JUMPI JUMPDEST POP PUSH1 0x40 DUP2 ADD MLOAD PUSH1 0x6 DUP2 LT ISZERO PUSH2 0x16C6 JUMPI PUSH1 0x2 SUB PUSH2 0x168A JUMPI PUSH1 0xC0 ADD MLOAD MLOAD PUSH1 0x1 PUSH1 0x1 PUSH1 0xA0 SHL SUB AND DUP4 SWAP1 SUB PUSH2 0x164F JUMPI PUSH2 0x1648 DUP8 SWAP6 PUSH2 0x19EE JUMP JUMPDEST SWAP1 SWAP7 PUSH2 0x12BC JUMP JUMPDEST PUSH1 0x40 MLOAD PUSH3 0x461BCD PUSH1 0xE5 SHL DUP2 MSTORE PUSH1 0x20 PUSH1 0x4 DUP3 ADD MSTORE PUSH1 0x13 PUSH1 0x24 DUP3 ADD MSTORE PUSH19 0x24B73B30B634B2103234B9BA3934B13ABA37B9 PUSH1 0x69 SHL PUSH1 0x44 DUP3 ADD MSTORE PUSH1 0x64 SWAP1 REVERT JUMPDEST PUSH1 0x40 MLOAD PUSH3 0x461BCD PUSH1 0xE5 SHL DUP2 MSTORE PUSH1 0x20 PUSH1 0x4 DUP3 ADD MSTORE PUSH1 0x14 PUSH1 0x24 DUP3 ADD MSTORE PUSH20 0x141C9BD91D58DD081B9BDD081D995C9A599A5959 PUSH1 0x62 SHL PUSH1 0x44 DUP3 ADD MSTORE PUSH1 0x64 SWAP1 REVERT JUMPDEST PUSH4 0x4E487B71 PUSH1 0xE0 SHL PUSH1 0x0 MSTORE PUSH1 0x21 PUSH1 0x4 MSTORE PUSH1 0x24 PUSH1 0x0 REVERT JUMPDEST PUSH2 0x16F1 SWAP2 POP RETURNDATASIZE DUP1 PUSH1 0x0 DUP4 RETURNDATACOPY PUSH2 0x453 DUP2 DUP4 PUSH2 0x19CC JUMP JUMPDEST DUP9 PUSH2 0x1613 JUMP JUMPDEST DUP7 SWAP5 POP PUSH2 0x12C1 JUMP JUMPDEST PUSH1 0x40 MLOAD PUSH3 0x461BCD PUSH1 0xE5 SHL DUP2 MSTORE PUSH1 0x20 PUSH1 0x4 DUP3 ADD MSTORE PUSH1 0x1A PUSH1 0x24 DUP3 ADD MSTORE PUSH32 0x4E6F2076616C69642070726F647563747320696E206261746368000000000000 PUSH1 0x44 DUP3 ADD MSTORE PUSH1 0x64 SWAP1 REVERT JUMPDEST PUSH1 0x40 MLOAD PUSH3 0x461BCD PUSH1 0xE5 SHL DUP2 MSTORE PUSH1 0x20 PUSH1 0x4 DUP3 ADD MSTORE PUSH1 0x22 PUSH1 0x24 DUP3 ADD MSTORE PUSH32 0x5072696365206D69736D6174636820776974682076616C69642070726F647563 PUSH1 0x44 DUP3 ADD MSTORE PUSH2 0x7473 PUSH1 0xF0 SHL PUSH1 0x64 DUP3 ADD MSTORE PUSH1 0x84 SWAP1 REVERT JUMPDEST PUSH2 0x17A9 SWAP2 POP RETURNDATASIZE DUP1 PUSH1 0x0 DUP4 RETURNDATACOPY PUSH2 0x100C DUP2 DUP4 PUSH2 0x19CC JUMP JUMPDEST DUP7 PUSH2 0x12A5 JUMP JUMPDEST PUSH1 0x40 MLOAD PUSH3 0x461BCD PUSH1 0xE5 SHL DUP2 MSTORE PUSH1 0x20 PUSH1 0x4 DUP3 ADD MSTORE PUSH1 0x11 PUSH1 0x24 DUP3 ADD MSTORE PUSH17 0x105B1C9958591E481C1D5C98DA185CD959 PUSH1 0x7A SHL PUSH1 0x44 DUP3 ADD MSTORE PUSH1 0x64 SWAP1 REVERT JUMPDEST PUSH1 0x40 MLOAD PUSH3 0x461BCD PUSH1 0xE5 SHL DUP2 MSTORE PUSH1 0x20 PUSH1 0x4 DUP3 ADD MSTORE PUSH1 0x15 PUSH1 0x24 DUP3 ADD MSTORE PUSH21 0x4F6E6C792072657461696C65722063616E20627579 PUSH1 0x58 SHL PUSH1 0x44 DUP3 ADD MSTORE PUSH1 0x64 SWAP1 REVERT JUMPDEST PUSH2 0x183E SWAP2 POP PUSH1 0x20 RETURNDATASIZE PUSH1 0x20 GT PUSH2 0x9FA JUMPI PUSH2 0x9EB DUP2 DUP4 PUSH2 0x19CC JUMP JUMPDEST DUP5 PUSH2 0x1230 JUMP JUMPDEST CALLVALUE PUSH2 0x113 JUMPI PUSH1 0x40 CALLDATASIZE PUSH1 0x3 NOT ADD SLT PUSH2 0x113 JUMPI PUSH2 0x185D PUSH2 0x18D6 JUMP JUMPDEST PUSH1 0x1 PUSH1 0x1 PUSH1 0xA0 SHL SUB AND PUSH1 0x0 SWAP1 DUP2 MSTORE PUSH1 0x2 PUSH1 0x20 MSTORE PUSH1 0x40 SWAP1 KECCAK256 DUP1 SLOAD PUSH1 0x24 CALLDATALOAD SWAP2 SWAP1 DUP3 LT ISZERO PUSH2 0x113 JUMPI PUSH1 0x20 SWAP2 PUSH2 0x188E SWAP2 PUSH2 0x1927 JUMP JUMPDEST SWAP1 SLOAD PUSH1 0x40 MLOAD SWAP2 PUSH1 0x3 SHL SHR DUP2 MSTORE RETURN JUMPDEST CALLVALUE PUSH2 0x113 JUMPI PUSH1 0x20 CALLDATASIZE PUSH1 0x3 NOT ADD SLT PUSH2 0x113 JUMPI PUSH1 0x1 PUSH1 0x1 PUSH1 0xA0 SHL SUB PUSH2 0x18BD PUSH2 0x18D6 JUMP JUMPDEST AND PUSH1 0x0 MSTORE PUSH1 0x2 PUSH1 0x20 MSTORE PUSH2 0x185 PUSH2 0xA3B PUSH1 0x40 PUSH1 0x0 KECCAK256 PUSH2 0x1DA6 JUMP JUMPDEST PUSH1 0x4 CALLDATALOAD SWAP1 PUSH1 0x1 PUSH1 0x1 PUSH1 0xA0 SHL SUB DUP3 AND DUP3 SUB PUSH2 0x113 JUMPI JUMP JUMPDEST PUSH1 0x20 SWAP1 DUP2 PUSH1 0x40 DUP2 DUP4 ADD SWAP3 DUP3 DUP2 MSTORE DUP6 MLOAD DUP1 SWAP5 MSTORE ADD SWAP4 ADD SWAP2 PUSH1 0x0 JUMPDEST DUP3 DUP2 LT PUSH2 0x1913 JUMPI POP POP POP POP SWAP1 JUMP JUMPDEST DUP4 MLOAD DUP6 MSTORE SWAP4 DUP2 ADD SWAP4 SWAP3 DUP2 ADD SWAP3 PUSH1 0x1 ADD PUSH2 0x1905 JUMP JUMPDEST DUP1 SLOAD DUP3 LT ISZERO PUSH2 0x193F JUMPI PUSH1 0x0 MSTORE PUSH1 0x20 PUSH1 0x0 KECCAK256 ADD SWAP1 PUSH1 0x0 SWAP1 JUMP JUMPDEST PUSH4 0x4E487B71 PUSH1 0xE0 SHL PUSH1 0x0 MSTORE PUSH1 0x32 PUSH1 0x4 MSTORE PUSH1 0x24 PUSH1 0x0 REVERT JUMPDEST SWAP2 DUP2 PUSH1 0x1F DUP5 ADD SLT ISZERO PUSH2 0x113 JUMPI DUP3 CALLDATALOAD SWAP2 PUSH8 0xFFFFFFFFFFFFFFFF DUP4 GT PUSH2 0x113 JUMPI PUSH1 0x20 DUP1 DUP6 ADD SWAP5 DUP5 PUSH1 0x5 SHL ADD ADD GT PUSH2 0x113 JUMPI JUMP JUMPDEST PUSH8 0xFFFFFFFFFFFFFFFF DUP2 GT PUSH2 0x199A JUMPI PUSH1 0x40 MSTORE JUMP JUMPDEST PUSH4 0x4E487B71 PUSH1 0xE0 SHL PUSH1 0x0 MSTORE PUSH1 0x41 PUSH1 0x4 MSTORE PUSH1 0x24 PUSH1 0x0 REVERT JUMPDEST PUSH1 0xC0 DUP2 ADD SWAP1 DUP2 LT PUSH8 0xFFFFFFFFFFFFFFFF DUP3 GT OR PUSH2 0x199A JUMPI PUSH1 0x40 MSTORE JUMP JUMPDEST SWAP1 PUSH1 0x1F DUP1 NOT SWAP2 ADD AND DUP2 ADD SWAP1 DUP2 LT PUSH8 0xFFFFFFFFFFFFFFFF DUP3 GT OR PUSH2 0x199A JUMPI PUSH1 0x40 MSTORE JUMP JUMPDEST PUSH1 0x0 NOT DUP2 EQ PUSH2 0x19FD JUMPI PUSH1 0x1 ADD SWAP1 JUMP JUMPDEST PUSH4 0x4E487B71 PUSH1 0xE0 SHL PUSH1 0x0 MSTORE PUSH1 0x11 PUSH1 0x4 MSTORE PUSH1 0x24 PUSH1 0x0 REVERT JUMPDEST SWAP2 SWAP1 DUP1 PUSH1 0x1F DUP5 ADD SLT ISZERO PUSH2 0x113 JUMPI DUP3 MLOAD SWAP1 PUSH8 0xFFFFFFFFFFFFFFFF DUP3 GT PUSH2 0x199A JUMPI PUSH1 0x40 MLOAD SWAP2 PUSH1 0x20 SWAP2 PUSH2 0x1A4C PUSH1 0x1F DUP4 ADD PUSH1 0x1F NOT AND DUP5 ADD DUP6 PUSH2 0x19CC JUMP JUMPDEST DUP2 DUP5 MSTORE DUP3 DUP3 DUP8 ADD ADD GT PUSH2 0x113 JUMPI PUSH1 0x0 JUMPDEST DUP2 DUP2 LT PUSH2 0x1A71 JUMPI POP DUP3 PUSH1 0x0 SWAP4 SWAP5 SWAP6 POP ADD ADD MSTORE SWAP1 JUMP JUMPDEST DUP6 DUP2 ADD DUP4 ADD MLOAD DUP5 DUP3 ADD DUP5 ADD MSTORE DUP3 ADD PUSH2 0x1A5C JUMP JUMPDEST MLOAD SWAP1 PUSH1 0x1 PUSH1 0x1 PUSH1 0xA0 SHL SUB DUP3 AND DUP3 SUB PUSH2 0x113 JUMPI JUMP JUMPDEST SWAP1 PUSH1 0x20 SWAP1 DUP2 DUP4 DUP3 SUB SLT PUSH2 0x113 JUMPI DUP3 MLOAD PUSH8 0xFFFFFFFFFFFFFFFF SWAP4 DUP5 DUP3 GT PUSH2 0x113 JUMPI ADD DUP1 DUP3 SUB SWAP3 PUSH2 0x2A0 DUP5 SLT PUSH2 0x113 JUMPI PUSH1 0x40 SWAP4 DUP5 MLOAD SWAP6 PUSH2 0x1A0 SWAP2 DUP3 DUP9 ADD DUP9 DUP2 LT DUP4 DUP3 GT OR PUSH2 0x199A JUMPI DUP8 MSTORE DUP5 MLOAD DUP9 MSTORE DUP4 DUP6 ADD MLOAD PUSH1 0x3 DUP2 LT ISZERO PUSH2 0x113 JUMPI DUP5 DUP10 ADD MSTORE DUP7 DUP6 ADD MLOAD PUSH1 0x6 DUP2 LT ISZERO PUSH2 0x113 JUMPI DUP8 DUP10 ADD MSTORE PUSH1 0x60 DUP1 DUP7 ADD MLOAD PUSH1 0x4 DUP2 LT ISZERO PUSH2 0x113 JUMPI DUP2 DUP11 ADD MSTORE PUSH1 0x80 SWAP1 DUP2 DUP8 ADD MLOAD DUP1 ISZERO ISZERO DUP2 SUB PUSH2 0x113 JUMPI DUP3 DUP12 ADD MSTORE PUSH1 0xA0 DUP8 ADD MLOAD DUP5 DUP2 GT PUSH2 0x113 JUMPI DUP8 ADD PUSH1 0xE0 DUP2 DUP11 SUB SLT PUSH2 0x113 JUMPI DUP10 MLOAD SWAP1 PUSH1 0xE0 DUP3 ADD DUP3 DUP2 LT DUP8 DUP3 GT OR PUSH2 0x199A JUMPI DUP12 MSTORE DUP1 MLOAD DUP7 DUP2 GT PUSH2 0x113 JUMPI DUP11 PUSH2 0x1B6E SWAP2 DUP4 ADD PUSH2 0x1A13 JUMP JUMPDEST DUP3 MSTORE PUSH2 0x1B7B DUP9 DUP3 ADD PUSH2 0x1A84 JUMP JUMPDEST DUP9 DUP4 ADD MSTORE DUP11 DUP2 ADD MLOAD DUP12 DUP4 ADD MSTORE DUP3 DUP2 ADD MLOAD DUP4 DUP4 ADD MSTORE DUP4 DUP2 ADD MLOAD SWAP1 DUP7 DUP3 GT PUSH2 0x113 JUMPI PUSH2 0x1BA9 DUP12 PUSH1 0xC0 SWAP4 DUP4 ADD PUSH2 0x1A13 JUMP JUMPDEST DUP6 DUP5 ADD MSTORE PUSH1 0xA0 DUP2 ADD MLOAD PUSH1 0xA0 DUP5 ADD MSTORE ADD MLOAD PUSH1 0xC0 DUP3 ADD MSTORE PUSH1 0xA0 DUP12 ADD MSTORE DUP2 PUSH1 0xBF NOT DUP5 ADD SLT PUSH2 0x113 JUMPI DUP9 MLOAD SWAP2 DUP1 DUP4 ADD DUP4 DUP2 LT DUP7 DUP3 GT OR PUSH2 0x199A JUMPI DUP12 SWAP5 PUSH1 0xC0 SWAP2 DUP13 MSTORE PUSH2 0x1BF1 DUP3 DUP12 ADD PUSH2 0x1A84 JUMP JUMPDEST DUP6 MSTORE PUSH1 0xE0 DUP11 ADD MLOAD DUP10 DUP7 ADD MSTORE PUSH2 0x100 SWAP5 DUP6 DUP12 ADD MLOAD DUP14 DUP3 ADD MSTORE DUP3 PUSH2 0x120 SWAP8 DUP9 DUP14 ADD MLOAD DUP8 DUP5 ADD MSTORE ADD MSTORE PUSH2 0x13F NOT ADD SLT PUSH2 0x113 JUMPI DUP10 MLOAD SWAP2 PUSH2 0x1C2D DUP4 PUSH2 0x19B0 JUMP JUMPDEST PUSH2 0x140 SWAP7 PUSH2 0x1C3C DUP9 DUP12 ADD PUSH2 0x1A84 JUMP JUMPDEST DUP5 MSTORE PUSH2 0x160 SWAP9 DUP10 DUP12 ADD MLOAD SWAP1 DUP6 ADD MSTORE PUSH2 0x180 SWAP12 DUP13 DUP12 ADD MLOAD SWAP1 DUP6 ADD MSTORE DUP10 ADD MLOAD SWAP1 DUP4 ADD MSTORE PUSH2 0x1C6A PUSH2 0x1C0 DUP10 ADD PUSH2 0x1A84 JUMP JUMPDEST SWAP1 DUP3 ADD MSTORE PUSH2 0x1E0 DUP8 ADD MLOAD PUSH1 0xA0 DUP3 ADD MSTORE PUSH1 0xE0 DUP11 ADD MSTORE PUSH2 0x200 DUP7 ADD MLOAD DUP4 DUP2 GT PUSH2 0x113 JUMPI DUP8 PUSH2 0x1C97 SWAP2 DUP9 ADD PUSH2 0x1A13 JUMP JUMPDEST SWAP1 DUP10 ADD MSTORE PUSH2 0x220 DUP6 ADD MLOAD DUP3 DUP2 GT PUSH2 0x113 JUMPI DUP7 PUSH2 0x1CB4 SWAP2 DUP8 ADD PUSH2 0x1A13 JUMP JUMPDEST SWAP1 DUP9 ADD MSTORE PUSH2 0x240 DUP5 ADD MLOAD SWAP1 DUP2 GT PUSH2 0x113 JUMPI PUSH2 0x280 SWAP5 PUSH2 0x1CD4 SWAP2 DUP6 ADD PUSH2 0x1A13 JUMP JUMPDEST SWAP1 DUP7 ADD MSTORE PUSH2 0x260 DUP3 ADD MLOAD SWAP1 DUP6 ADD MSTORE ADD MLOAD SWAP1 DUP3 ADD MSTORE SWAP1 JUMP JUMPDEST PUSH8 0xFFFFFFFFFFFFFFFF DUP2 GT PUSH2 0x199A JUMPI PUSH1 0x5 SHL PUSH1 0x20 ADD SWAP1 JUMP JUMPDEST SWAP1 PUSH2 0x1D0D DUP3 PUSH2 0x1CEB JUMP JUMPDEST PUSH2 0x1D1A PUSH1 0x40 MLOAD SWAP2 DUP3 PUSH2 0x19CC JUMP JUMPDEST DUP3 DUP2 MSTORE DUP1 SWAP3 PUSH2 0x1D2B PUSH1 0x1F NOT SWAP2 PUSH2 0x1CEB JUMP JUMPDEST ADD SWAP1 PUSH1 0x20 CALLDATASIZE SWAP2 ADD CALLDATACOPY JUMP JUMPDEST DUP1 MLOAD DUP3 LT ISZERO PUSH2 0x193F JUMPI PUSH1 0x20 SWAP2 PUSH1 0x5 SHL ADD ADD SWAP1 JUMP JUMPDEST SWAP1 DUP2 PUSH1 0x20 SWAP2 SUB SLT PUSH2 0x113 JUMPI MLOAD PUSH1 0x5 DUP2 LT ISZERO PUSH2 0x113 JUMPI SWAP1 JUMP JUMPDEST SWAP2 SWAP1 DUP2 LT ISZERO PUSH2 0x193F JUMPI PUSH1 0x5 SHL ADD SWAP1 JUMP JUMPDEST DUP1 SLOAD PUSH1 0x1 PUSH1 0x40 SHL DUP2 LT ISZERO PUSH2 0x199A JUMPI PUSH2 0x1D8E SWAP2 PUSH1 0x1 DUP3 ADD DUP2 SSTORE PUSH2 0x1927 JUMP JUMPDEST DUP2 SWAP3 SWAP2 SLOAD SWAP1 PUSH1 0x3 SHL SWAP2 DUP3 SHL SWAP2 PUSH1 0x0 NOT SWAP1 SHL NOT AND OR SWAP1 SSTORE JUMP JUMPDEST SWAP1 PUSH1 0x40 MLOAD SWAP2 DUP3 DUP2 SLOAD SWAP2 DUP3 DUP3 MSTORE PUSH1 0x20 SWAP3 DUP4 DUP4 ADD SWAP2 PUSH1 0x0 MSTORE DUP4 PUSH1 0x0 KECCAK256 SWAP4 PUSH1 0x0 SWAP1 JUMPDEST DUP3 DUP3 LT PUSH2 0x1DDD JUMPI POP POP POP PUSH2 0x1DDB SWAP3 POP SUB DUP4 PUSH2 0x19CC JUMP JUMPDEST JUMP JUMPDEST DUP6 SLOAD DUP5 MSTORE PUSH1 0x1 SWAP6 DUP7 ADD SWAP6 DUP9 SWAP6 POP SWAP4 DUP2 ADD SWAP4 SWAP1 SWAP2 ADD SWAP1 PUSH2 0x1DC5 JUMP JUMPDEST PUSH1 0x20 SWAP1 DUP2 DUP2 DUP5 SUB SLT PUSH2 0x113 JUMPI DUP1 MLOAD SWAP1 PUSH8 0xFFFFFFFFFFFFFFFF DUP3 GT PUSH2 0x113 JUMPI ADD SWAP2 DUP1 PUSH1 0x1F DUP5 ADD SLT ISZERO PUSH2 0x113 JUMPI DUP3 MLOAD PUSH2 0x1E2D DUP2 PUSH2 0x1CEB JUMP JUMPDEST SWAP4 PUSH2 0x1E3B PUSH1 0x40 MLOAD SWAP6 DUP7 PUSH2 0x19CC JUMP JUMPDEST DUP2 DUP6 MSTORE DUP4 DUP1 DUP7 ADD SWAP3 PUSH1 0x5 SHL DUP3 ADD ADD SWAP3 DUP4 GT PUSH2 0x113 JUMPI DUP4 ADD SWAP1 JUMPDEST DUP3 DUP3 LT PUSH2 0x1E62 JUMPI POP POP POP POP SWAP1 JUMP JUMPDEST DUP2 MLOAD DUP2 MSTORE SWAP1 DUP4 ADD SWAP1 DUP4 ADD PUSH2 0x1E54 JUMP INVALID LOG2 PUSH5 0x6970667358 0x22 SLT KECCAK256 0x29 0xCC STOP PUSH9 0x5B3E089E084C096F63 CALLDATALOAD LOG3 DUP7 0x5C 0xC6 SUB 0x24 KECCAK256 KECCAK256 0xE8 0xDF SIGNEXTEND SWAP1 DELEGATECALL SUB SDIV 0xD4 ISZERO DUP5 PUSH5 0x736F6C6343 STOP ADDMOD SGT STOP CALLER "},"methodIdentifiers":{"batches(uint256)":"b32c4d8d","coreContract()":"e80db5db","createBatch(uint256[])":"c6376a5a","distributorBatches(address,uint256)":"49616685","getAvailableBatchesForRetailer()":"66b9f622","getBatchDetails(uint256)":"9d47dcc0","getBatchesByDistributor(address)":"06aa091e","getBatchesByRetailer(address)":"c4d106fd","getProductBatch(uint256)":"0989042f","getProductsInBatch(uint256)":"ed49e25e","getUnbatchedProductsByDistributor(address)":"da04741b","isProductRemovedFromBatch(uint256)":"fd291d6b","nextBatchId()":"8462a7f8","productRemovedFromBatch(uint256)":"265e2ae8","productToBatch(uint256)":"a0c83c9c","purchaseBatchFromDistributor(uint256,uint256[])":"4a0f5da6","removeProductFromBatch(uint256,string)":"b1f6a98f","retailerBatches(address,uint256)":"4ccc0c0d"}}}}}