{"contracts/AgriTraceCore.sol":{"AgriTraceCore":{"abi":[{"inputs":[],"stateMutability":"nonpayable","type":"constructor"},{"anonymous":false,"inputs":[{"indexed":true,"internalType":"uint256","name":"id","type":"uint256"},{"indexed":false,"internalType":"string","name":"ipfsHash","type":"string"},{"indexed":false,"internalType":"enum AgriTraceLib.Stage","name":"stage","type":"uint8"}],"name":"DataStored","type":"event"},{"anonymous":false,"inputs":[{"indexed":true,"internalType":"uint256","name":"productId","type":"uint256"},{"indexed":true,"internalType":"address","name":"consumer","type":"address"},{"indexed":false,"internalType":"uint256","name":"quantity","type":"uint256"}],"name":"ProductBuyed","type":"event"},{"anonymous":false,"inputs":[{"indexed":true,"internalType":"uint256","name":"id","type":"uint256"},{"indexed":true,"internalType":"address","name":"farmer","type":"address"}],"name":"ProductCreated","type":"event"},{"anonymous":false,"inputs":[{"indexed":true,"internalType":"uint256","name":"id","type":"uint256"},{"indexed":true,"internalType":"address","name":"buyer","type":"address"},{"indexed":true,"internalType":"address","name":"seller","type":"address"}],"name":"ProductPurchased","type":"event"},{"anonymous":false,"inputs":[{"indexed":true,"internalType":"uint256","name":"productId","type":"uint256"},{"indexed":false,"internalType":"string","name":"reason","type":"string"}],"name":"ProductRejected","type":"event"},{"anonymous":false,"inputs":[{"indexed":true,"internalType":"uint256","name":"productId","type":"uint256"},{"indexed":false,"internalType":"enum AgriTraceLib.ProductState","name":"newState","type":"uint8"}],"name":"ProductStateChanged","type":"event"},{"inputs":[],"name":"MIN_TEMP","outputs":[{"internalType":"uint256","name":"","type":"uint256"}],"stateMutability":"view","type":"function"},{"inputs":[{"internalType":"address","name":"retailer","type":"address"},{"internalType":"uint256","name":"txId","type":"uint256"}],"name":"addRetailerTxId","outputs":[],"stateMutability":"nonpayable","type":"function"},{"inputs":[],"name":"admin","outputs":[{"internalType":"address","name":"","type":"address"}],"stateMutability":"view","type":"function"},{"inputs":[{"internalType":"address","name":"user","type":"address"},{"internalType":"enum AgriTraceLib.Role","name":"role","type":"uint8"}],"name":"assignRole","outputs":[],"stateMutability":"nonpayable","type":"function"},{"inputs":[],"name":"batchContract","outputs":[{"internalType":"contract AgriTraceBatch","name":"","type":"address"}],"stateMutability":"view","type":"function"},{"inputs":[{"internalType":"string","name":"productType","type":"string"},{"internalType":"uint256","name":"expiresAt","type":"uint256"},{"internalType":"string","name":"origin","type":"string"},{"internalType":"uint256","name":"priceFarm","type":"uint256"},{"internalType":"uint256","name":"quantity","type":"uint256"}],"name":"createProduct","outputs":[{"internalType":"uint256","name":"","type":"uint256"}],"stateMutability":"nonpayable","type":"function"},{"inputs":[{"internalType":"address","name":"from","type":"address"},{"internalType":"address","name":"to","type":"address"},{"internalType":"uint256","name":"productId","type":"uint256"},{"internalType":"uint256","name":"batchId","type":"uint256"},{"internalType":"uint256","name":"price","type":"uint256"}],"name":"createTransaction","outputs":[{"internalType":"uint256","name":"","type":"uint256"}],"stateMutability":"nonpayable","type":"function"},{"inputs":[{"internalType":"uint256","name":"productId","type":"uint256"}],"name":"deactivateProduct","outputs":[],"stateMutability":"nonpayable","type":"function"},{"inputs":[{"internalType":"address","name":"","type":"address"},{"internalType":"uint256","name":"","type":"uint256"}],"name":"distributorTxIds","outputs":[{"internalType":"uint256","name":"","type":"uint256"}],"stateMutability":"view","type":"function"},{"inputs":[],"name":"emergency","outputs":[{"internalType":"contract EmergencyManager","name":"","type":"address"}],"stateMutability":"view","type":"function"},{"inputs":[{"internalType":"address","name":"","type":"address"},{"internalType":"uint256","name":"","type":"uint256"}],"name":"farmerSoldProducts","outputs":[{"internalType":"uint256","name":"","type":"uint256"}],"stateMutability":"view","type":"function"},{"inputs":[],"name":"getAvailableProductsForDistributor","outputs":[{"internalType":"uint256[]","name":"","type":"uint256[]"}],"stateMutability":"view","type":"function"},{"inputs":[{"internalType":"uint256","name":"productId","type":"uint256"}],"name":"getFullTrace","outputs":[{"internalType":"uint256","name":"id","type":"uint256"},{"internalType":"enum AgriTraceLib.Grade","name":"overallGrade","type":"uint8"},{"internalType":"string","name":"farmDataHash","type":"string"},{"internalType":"string","name":"distributionDataHash","type":"string"},{"internalType":"string","name":"retailDataHash","type":"string"},{"internalType":"uint256","name":"buyedQuantity","type":"uint256"}],"stateMutability":"view","type":"function"},{"inputs":[{"internalType":"uint256","name":"productId","type":"uint256"}],"name":"getProduct","outputs":[{"components":[{"internalType":"uint256","name":"id","type":"uint256"},{"internalType":"enum AgriTraceLib.Stage","name":"currentStage","type":"uint8"},{"internalType":"enum AgriTraceLib.ProductState","name":"currentState","type":"uint8"},{"internalType":"enum AgriTraceLib.Grade","name":"overallGrade","type":"uint8"},{"internalType":"bool","name":"isActive","type":"bool"},{"components":[{"internalType":"string","name":"productType","type":"string"},{"internalType":"address","name":"farmer","type":"address"},{"internalType":"uint256","name":"createdAt","type":"uint256"},{"internalType":"uint256","name":"expiresAt","type":"uint256"},{"internalType":"string","name":"origin","type":"string"},{"internalType":"uint256","name":"priceFarm","type":"uint256"},{"internalType":"uint256","name":"quantity","type":"uint256"}],"internalType":"struct AgriTraceLib.FarmData","name":"farmData","type":"tuple"},{"components":[{"internalType":"address","name":"distributor","type":"address"},{"internalType":"uint256","name":"priceDist","type":"uint256"},{"internalType":"uint256","name":"receivedAt","type":"uint256"},{"internalType":"uint256","name":"verifiedAt","type":"uint256"}],"internalType":"struct AgriTraceLib.DistributionData","name":"distributionData","type":"tuple"},{"components":[{"internalType":"address","name":"retailer","type":"address"},{"internalType":"uint256","name":"priceRetail","type":"uint256"},{"internalType":"uint256","name":"receivedAt","type":"uint256"},{"internalType":"uint256","name":"verifiedAt","type":"uint256"},{"internalType":"address","name":"consumer","type":"address"},{"internalType":"uint256","name":"buyedQuantity","type":"uint256"}],"internalType":"struct AgriTraceLib.RetailData","name":"retailData","type":"tuple"},{"internalType":"string","name":"farmDataHash","type":"string"},{"internalType":"string","name":"distributionDataHash","type":"string"},{"internalType":"string","name":"retailDataHash","type":"string"},{"internalType":"uint256","name":"farmerToDistributorTxId","type":"uint256"},{"internalType":"uint256","name":"distributorToRetailerTxId","type":"uint256"}],"internalType":"struct AgriTraceLib.Product","name":"","type":"tuple"}],"stateMutability":"view","type":"function"},{"inputs":[{"internalType":"address","name":"distributor","type":"address"}],"name":"getProductsByDistributor","outputs":[{"internalType":"uint256[]","name":"","type":"uint256[]"}],"stateMutability":"view","type":"function"},{"inputs":[{"internalType":"address","name":"farmer","type":"address"}],"name":"getProductsByFarmer","outputs":[{"internalType":"uint256[]","name":"","type":"uint256[]"}],"stateMutability":"view","type":"function"},{"inputs":[{"internalType":"address","name":"retailer","type":"address"}],"name":"getProductsByRetailer","outputs":[{"internalType":"uint256[]","name":"","type":"uint256[]"}],"stateMutability":"view","type":"function"},{"inputs":[{"internalType":"enum AgriTraceLib.Role","name":"role","type":"uint8"},{"internalType":"address","name":"user","type":"address"}],"name":"getReputation","outputs":[{"internalType":"uint256","name":"","type":"uint256"}],"stateMutability":"view","type":"function"},{"inputs":[{"internalType":"address","name":"user","type":"address"}],"name":"getRole","outputs":[{"internalType":"enum AgriTraceLib.Role","name":"","type":"uint8"}],"stateMutability":"view","type":"function"},{"inputs":[],"name":"getTotalProducts","outputs":[{"internalType":"uint256","name":"","type":"uint256"}],"stateMutability":"view","type":"function"},{"inputs":[{"internalType":"uint256","name":"txId","type":"uint256"}],"name":"getTransaction","outputs":[{"components":[{"internalType":"uint256","name":"txId","type":"uint256"},{"internalType":"address","name":"from","type":"address"},{"internalType":"address","name":"to","type":"address"},{"internalType":"uint256","name":"productId","type":"uint256"},{"internalType":"uint256","name":"batchId","type":"uint256"},{"internalType":"uint256","name":"price","type":"uint256"},{"internalType":"uint256","name":"timestamp","type":"uint256"}],"internalType":"struct AgriTraceLib.Transaction","name":"","type":"tuple"}],"stateMutability":"view","type":"function"},{"inputs":[{"internalType":"address","name":"user","type":"address"}],"name":"getUserDetails","outputs":[{"internalType":"enum AgriTraceLib.Role","name":"role","type":"uint8"},{"internalType":"uint256","name":"farmerReputation","type":"uint256"},{"internalType":"uint256","name":"distributorReputation","type":"uint256"},{"internalType":"uint256","name":"retailerReputation","type":"uint256"},{"internalType":"string","name":"detailsHash","type":"string"}],"stateMutability":"view","type":"function"},{"inputs":[{"internalType":"uint256","name":"productId","type":"uint256"}],"name":"listProductForConsumer","outputs":[],"stateMutability":"nonpayable","type":"function"},{"inputs":[{"internalType":"uint256","name":"productId","type":"uint256"},{"internalType":"address","name":"consumer","type":"address"},{"internalType":"uint256","name":"buyQuantity","type":"uint256"}],"name":"markProductAsBuyed","outputs":[],"stateMutability":"nonpayable","type":"function"},{"inputs":[],"name":"nextProductId","outputs":[{"internalType":"uint256","name":"","type":"uint256"}],"stateMutability":"view","type":"function"},{"inputs":[],"name":"nextTxId","outputs":[{"internalType":"uint256","name":"","type":"uint256"}],"stateMutability":"view","type":"function"},{"inputs":[{"internalType":"uint256","name":"","type":"uint256"}],"name":"products","outputs":[{"internalType":"uint256","name":"id","type":"uint256"},{"internalType":"enum AgriTraceLib.Stage","name":"currentStage","type":"uint8"},{"internalType":"enum AgriTraceLib.ProductState","name":"currentState","type":"uint8"},{"internalType":"enum AgriTraceLib.Grade","name":"overallGrade","type":"uint8"},{"internalType":"bool","name":"isActive","type":"bool"},{"components":[{"internalType":"string","name":"productType","type":"string"},{"internalType":"address","name":"farmer","type":"address"},{"internalType":"uint256","name":"createdAt","type":"uint256"},{"internalType":"uint256","name":"expiresAt","type":"uint256"},{"internalType":"string","name":"origin","type":"string"},{"internalType":"uint256","name":"priceFarm","type":"uint256"},{"internalType":"uint256","name":"quantity","type":"uint256"}],"internalType":"struct AgriTraceLib.FarmData","name":"farmData","type":"tuple"},{"components":[{"internalType":"address","name":"distributor","type":"address"},{"internalType":"uint256","name":"priceDist","type":"uint256"},{"internalType":"uint256","name":"receivedAt","type":"uint256"},{"internalType":"uint256","name":"verifiedAt","type":"uint256"}],"internalType":"struct AgriTraceLib.DistributionData","name":"distributionData","type":"tuple"},{"components":[{"internalType":"address","name":"retailer","type":"address"},{"internalType":"uint256","name":"priceRetail","type":"uint256"},{"internalType":"uint256","name":"receivedAt","type":"uint256"},{"internalType":"uint256","name":"verifiedAt","type":"uint256"},{"internalType":"address","name":"consumer","type":"address"},{"internalType":"uint256","name":"buyedQuantity","type":"uint256"}],"internalType":"struct AgriTraceLib.RetailData","name":"retailData","type":"tuple"},{"internalType":"string","name":"farmDataHash","type":"string"},{"internalType":"string","name":"distributionDataHash","type":"string"},{"internalType":"string","name":"retailDataHash","type":"string"},{"internalType":"uint256","name":"farmerToDistributorTxId","type":"uint256"},{"internalType":"uint256","name":"distributorToRetailerTxId","type":"uint256"}],"stateMutability":"view","type":"function"},{"inputs":[{"internalType":"uint256","name":"productId","type":"uint256"},{"internalType":"uint256","name":"priceDist","type":"uint256"}],"name":"purchaseFromFarmer","outputs":[],"stateMutability":"nonpayable","type":"function"},{"inputs":[],"name":"qualityContract","outputs":[{"internalType":"contract AgriTraceQuality","name":"","type":"address"}],"stateMutability":"view","type":"function"},{"inputs":[{"internalType":"enum AgriTraceLib.Role","name":"role","type":"uint8"},{"internalType":"string","name":"detailsHash","type":"string"}],"name":"registerUser","outputs":[],"stateMutability":"nonpayable","type":"function"},{"inputs":[{"internalType":"enum AgriTraceLib.Role","name":"","type":"uint8"},{"internalType":"address","name":"","type":"address"}],"name":"reputationScores","outputs":[{"internalType":"uint256","name":"","type":"uint256"}],"stateMutability":"view","type":"function"},{"inputs":[{"internalType":"uint256","name":"productId","type":"uint256"}],"name":"requestTemperatureUpdate","outputs":[{"internalType":"bytes32","name":"","type":"bytes32"}],"stateMutability":"nonpayable","type":"function"},{"inputs":[{"internalType":"address","name":"","type":"address"},{"internalType":"uint256","name":"","type":"uint256"}],"name":"retailerTxIds","outputs":[{"internalType":"uint256","name":"","type":"uint256"}],"stateMutability":"view","type":"function"},{"inputs":[{"internalType":"address","name":"","type":"address"}],"name":"roles","outputs":[{"internalType":"enum AgriTraceLib.Role","name":"","type":"uint8"}],"stateMutability":"view","type":"function"},{"inputs":[{"internalType":"address","name":"_batchContract","type":"address"}],"name":"setBatchContract","outputs":[],"stateMutability":"nonpayable","type":"function"},{"inputs":[{"internalType":"address","name":"_qualityContract","type":"address"}],"name":"setQualityContract","outputs":[],"stateMutability":"nonpayable","type":"function"},{"inputs":[{"internalType":"address","name":"_temperatureOracle","type":"address"}],"name":"setTemperatureOracle","outputs":[],"stateMutability":"nonpayable","type":"function"},{"inputs":[{"internalType":"uint256","name":"productId","type":"uint256"},{"internalType":"string","name":"ipfsHash","type":"string"}],"name":"storeFarmDataHash","outputs":[],"stateMutability":"nonpayable","type":"function"},{"inputs":[],"name":"temperatureOracle","outputs":[{"internalType":"contract TemperatureOracle","name":"","type":"address"}],"stateMutability":"view","type":"function"},{"inputs":[{"internalType":"uint256","name":"","type":"uint256"}],"name":"transactions","outputs":[{"internalType":"uint256","name":"txId","type":"uint256"},{"internalType":"address","name":"from","type":"address"},{"internalType":"address","name":"to","type":"address"},{"internalType":"uint256","name":"productId","type":"uint256"},{"internalType":"uint256","name":"batchId","type":"uint256"},{"internalType":"uint256","name":"price","type":"uint256"},{"internalType":"uint256","name":"timestamp","type":"uint256"}],"stateMutability":"view","type":"function"},{"inputs":[{"internalType":"uint256","name":"productId","type":"uint256"},{"internalType":"string","name":"ipfsHash","type":"string"}],"name":"updateProductDistributionDataHash","outputs":[],"stateMutability":"nonpayable","type":"function"},{"inputs":[{"internalType":"uint256","name":"productId","type":"uint256"},{"internalType":"uint256","name":"verifiedAt","type":"uint256"}],"name":"updateProductDistributionVerified","outputs":[],"stateMutability":"nonpayable","type":"function"},{"inputs":[{"internalType":"uint256","name":"productId","type":"uint256"},{"internalType":"uint256","name":"txId","type":"uint256"}],"name":"updateProductDistributorToRetailerTx","outputs":[],"stateMutability":"nonpayable","type":"function"},{"inputs":[{"internalType":"uint256","name":"productId","type":"uint256"},{"internalType":"enum AgriTraceLib.Grade","name":"grade","type":"uint8"}],"name":"updateProductOverallGrade","outputs":[],"stateMutability":"nonpayable","type":"function"},{"inputs":[{"internalType":"uint256","name":"productId","type":"uint256"},{"internalType":"address","name":"retailer","type":"address"},{"internalType":"uint256","name":"priceRetail","type":"uint256"},{"internalType":"uint256","name":"receivedAt","type":"uint256"}],"name":"updateProductRetailData","outputs":[],"stateMutability":"nonpayable","type":"function"},{"inputs":[{"internalType":"uint256","name":"productId","type":"uint256"},{"internalType":"string","name":"ipfsHash","type":"string"}],"name":"updateProductRetailDataHash","outputs":[],"stateMutability":"nonpayable","type":"function"},{"inputs":[{"internalType":"uint256","name":"productId","type":"uint256"},{"internalType":"uint256","name":"verifiedAt","type":"uint256"}],"name":"updateProductRetailVerified","outputs":[],"stateMutability":"nonpayable","type":"function"},{"inputs":[{"internalType":"uint256","name":"productId","type":"uint256"},{"internalType":"enum AgriTraceLib.Stage","name":"newStage","type":"uint8"}],"name":"updateProductStage","outputs":[],"stateMutability":"nonpayable","type":"function"},{"inputs":[{"internalType":"uint256","name":"productId","type":"uint256"},{"internalType":"enum AgriTraceLib.ProductState","name":"newState","type":"uint8"}],"name":"updateProductState","outputs":[],"stateMutability":"nonpayable","type":"function"},{"inputs":[{"internalType":"uint256","name":"productId","type":"uint256"},{"internalType":"enum AgriTraceLib.Grade","name":"grade","type":"uint8"},{"internalType":"enum AgriTraceLib.Stage","name":"stage","type":"uint8"}],"name":"updateReputation","outputs":[],"stateMutability":"nonpayable","type":"function"},{"inputs":[{"internalType":"address","name":"","type":"address"}],"name":"userDataHash","outputs":[{"internalType":"string","name":"","type":"string"}],"stateMutability":"view","type":"function"}],"evm":{"bytecode":{"linkReferences":{},"object":"608060409080825234620000f257600580546001600160a01b031990811633179091556103f38083019291906001600160401b03841183851017620000dc5762003b7d8339338352602091828160009503019084f08015620000d2579160329391859360018060a01b031690600354161760035533825260048152828220600460ff1982541617905560018252600c81528282203383528152838383205560028252600c81528282203383528152838383205560038252600c81528282209033835252205551613a859081620000f88239f35b84513d85823e3d90fd5b634e487b7160e01b600052604160045260246000fd5b600080fdfe6080604052600436101561001257600080fd5b60003560e01c80631290831d146131af57806315ba312d14612ec35780631b9cf32914612d725780631e50943714612da957806322e377ff14612d725780632399339c14612c585780632423bb0b14612c0e5780632f3ebcb014612bac57806333ea3dc814612abe57806337739bb014612a84578063442767331461187c57806347b5faf214612a4a5780634de91a6314612a2c578063570aea8a14612a2c5780635bdb6f71146129e25780635e66bdb3146129b9578063630a195b1461288a5780636357e48b1461283c5780636365ce6514612766578063638a348c1461274a57806365ebd1361461249b5780636a13931d146124445780636ba37e101461209a5780636c0245d01461204257806377f5cfc314611fe05780637882e08214611d235780637acc0b2014611b7e5780637d0c49a8146119fe57806380b31ebc1461199c57806384223e561461194e5780638aff87b2146119305780638e6ca456146118c0578063993746421461187c5780639ace38c214611804578063abbf2f98146117ca578063b320b6fc146117a1578063b890842914611563578063b9db15b414611217578063bd4baddb146111ee578063bec514c314611118578063caa6fea4146110ef578063cc3d967b14611025578063cd970a6314610fc5578063d29bcc5c14610d3b578063d3838ab114610b6b578063d666914714610a56578063dd003ace146104f6578063ec90a7b0146103e1578063f6fa3b92146102c2578063f851a440146102995763fd77e5de1461024d57600080fd5b346102945760203660031901126102945761027360018060a01b036002541633146139a9565b6004356000908152600660205260409020600101805463ff00000019169055005b600080fd5b34610294576000366003190112610294576005546040516001600160a01b039091168152602090f35b3461029457602080600319360112610294576102dc613377565b6007546001600160a01b03918216929091600060015b84811115610389575061030490613963565b9360009260015b858111156103255760405180610321898261333c565b0390f35b806000526006825260406000208385600983015416149081610377575b50610356575b610351906138ae565b61030b565b9361036f8186610369610351948b613995565b526138ae565b949050610348565b60ff91506001015460181c1688610342565b8060005260068452604060002086846009830154161490816103cf575b506103ba575b6103b5906138ae565b6102f2565b906103c76103b5916138ae565b9190506103ac565b60ff91506001015460181c16876103a6565b3461029457602080600319360112610294576103fb613377565b6007546001600160a01b03918216929091600060015b8481111561049e575061042390613963565b9360009260015b858111156104405760405180610321898261333c565b80600052600682526040600020838560038301541614908161048c575b50610471575b61046c906138ae565b61042a565b93610484818661036961046c948b613995565b949050610463565b60ff91506001015460181c168861045d565b8060005260068452604060002086846003830154161490816104e4575b506104cf575b6104ca906138ae565b610411565b906104dc6104ca916138ae565b9190506104c1565b60ff91506001015460181c16876104bb565b346102945760a0366003190112610294576004356001600160401b038111610294576105269036906004016133d2565b906044356001600160401b038111610294576105469036906004016133d2565b600354604051635c975abb60e01b81529294919392906001600160a01b0316602082600481845afa908115610a2d5761058d602092602494600091610a39575b5015613833565b60405163dbac26e960e01b815233600482015292839182905afa8015610a2d576105c0916000916109fe575b501561386f565b33600052600460205260ff6040600020541660058110156109e8576001036109b6576084351515806109ab575b156109755760016105ff6007546138ae565b8060075580600052600660205260406000209081550160ff198154169055600754600052600160406000200161ff00198154169055600754600052600160406000200162ff00001981541690556007546000526001604060002001630100000063ff000000198254161790556007546000526002604060002001916001600160401b03821161089c578190610694845461349c565b601f8111610925575b50600090601f83116001146108bd576000926108b2575b50508160011b916000199060031b1c19161790555b60075460005260066020526003604060002001336001600160601b0360a01b825416179055600754600052426004604060002001556007546000526024356005604060002001556007546000526006604060002001906001600160401b03811161089c57610737825461349c565b601f8111610854575b506000601f82116001146107ef578192936000926107e4575b50508160011b916000199060031b1c19161790555b6007546000526006602052606435600760406000200155600754600052608435600860406000200155602060075480600080516020613a308339815191528360405133847fe8bb4e90e950f7b76a8c4e472b3b5e01d41c478f9eeaea36b4ba991f51133f91600080a360008152a2604051908152f35b013590508380610759565b601f198216938360005260206000209160005b86811061083c5750836001959610610822575b505050811b01905561076e565b0135600019600384901b60f8161c19169055838080610815565b90926020600181928686013581550194019101610802565b826000526020600020601f830160051c81019160208410610892575b601f0160051c01905b8181106108865750610740565b60008155600101610879565b9091508190610870565b634e487b7160e01b600052604160045260246000fd5b0135905085806106b4565b600085815260208120909450915b601f198416851061090d576001945083601f198116106108f3575b505050811b0190556106c9565b0135600019600384901b60f8161c191690558580806108e6565b818101358355602094850194600190930192016108cb565b909150836000526020600020601f840160051c81016020851061096e575b90849392915b601f830160051c8201811061095f57505061069d565b60008155859450600101610949565b5080610943565b60405162461bcd60e51b815260206004820152600e60248201526d496e76616c696420706172616d7360901b6044820152606490fd5b5042602435116105ed565b60405162461bcd60e51b815260206004820152600a6024820152692737ba103330b936b2b960b11b6044820152606490fd5b634e487b7160e01b600052602160045260246000fd5b610a20915060203d602011610a26575b610a188183613543565b81019061381b565b866105b9565b503d610a0e565b6040513d6000823e3d90fd5b610a509150843d8611610a2657610a188183613543565b89610586565b346102945760208060031936011261029457610a70613377565b6007546001600160a01b03918216929091600060015b84811115610b135750610a9890613963565b9360009260015b85811115610ab55760405180610321898261333c565b806000526006825260406000208385600d83015416149081610b01575b50610ae6575b610ae1906138ae565b610a9f565b93610af98186610369610ae1948b613995565b949050610ad8565b60ff91506001015460181c1688610ad2565b806000526006845260406000208684600d83015416149081610b59575b50610b44575b610b3f906138ae565b610a86565b90610b51610b3f916138ae565b919050610b36565b60ff91506001015460181c1687610b30565b346102945760203660031901126102945760043580151580610d2f575b15610cf65760005260066020526040600020604051610ba6816134f1565b8154815260018201549060ff821660038110156109e857602082015260ff8260081c1660068110156109e857604082015260ff8260101c16606082019260048210156109e85760ff91845260181c1615156080820152610c086002840161364a565b60a0820152610c19600984016136b1565b60c0820152610c2a600d84016136ec565b9260e08201938452610c3e60138201613564565b936101008301948552610c5360148301613564565b9261012081019384526017610c6a60158501613564565b936101408301948552601681015461016084015201546101808201525193519460048610156109e857610cec92610cd060a0610cde9351965192519451015195610cbf604051998a998a5260208a0190613758565b60c0604089015260c088019061360a565b90868203606088015261360a565b90848203608086015261360a565b9060a08301520390f35b60405162461bcd60e51b8152602060048201526011602482015270141c9bd91d58dd081b9bdd08199bdd5b99607a1b6044820152606490fd5b50600754811115610b88565b34610294576040366003190112610294576004356005811015610294576001600160401b036024803582811161029457610d799036906004016133d2565b91336000526020946004865260ff604060002054166005811015610fb057610f775760048114610f33578315610ef757610dc8903360005260048752610dc3816040600020613803565b613432565b3360005285526032604060002055600e85526040600020938311610ee35750610df1835461349c565b601f8111610e9d575b50600093601f8311600114610e39575092819293600092610e2e575b5050600019600383901b1c191660019190911b179055005b013590508380610e16565b90601f198316948460005282600020926000905b878210610e85575050836001959610610e6b575b505050811b019055005b0135600019600384901b60f8161c19169055838080610e61565b80600184968294958701358155019501920190610e4d565b8360005284600020601f840160051c810191868510610ed9575b601f0160051c01905b818110610ecd5750610dfa565b60008155600101610ec0565b9091508190610eb7565b634e487b7160e01b60009081526041600452fd5b60405162461bcd60e51b8152600481018790526015818401527411195d185a5b1cc81a185cda081c995c5d5a5c9959605a1b6044820152606490fd5b60405162461bcd60e51b815260048101879052601d818401527f43616e6e6f742073656c662d72656769737465722061732061646d696e0000006044820152606490fd5b60405162461bcd60e51b81526004810187905260128184015271105b1c9958591e481c9959da5cdd195c995960721b6044820152606490fd5b82634e487b7160e01b60005260216004526000fd5b3461029457604036600319011261029457602435600481101561029457610ff760018060a01b036002541633146139a9565b600435600052600660205260016040600020019062ff000082549160101b169062ff00001916179055600080f35b3461029457602080600319360112610294576110d1906103216001600160a01b0361104e613377565b1691826000526004815260ff60406000205416926001600052600c82526040600020816000528252604060002054906002600052600c83526040600020816000528352604060002054906003600052600c8452604060002090600052835260406000205491600e84526110c46040600020613564565b936040519788809861348f565b8601526040850152606084015260a0608084015260a083019061360a565b34610294576000366003190112610294576003546040516001600160a01b039091168152602090f35b3461029457604036600319011261029457600435602435600681101561029457600154336001600160a01b03918216149081156111e0575b501561119b576020600080516020613a308339815191529183600052600682526001604060002001805461ff008360081b169061ff001916179055611198604051809261374b565ba2005b60405162461bcd60e51b815260206004820152601e60248201527f4f6e6c79206261746368206f72207175616c69747920636f6e747261637400006044820152606490fd5b905060025416331483611150565b34610294576000366003190112610294576002546040516001600160a01b039091168152602090f35b3461029457602036600319011261029457604051611234816134f1565b6000815260006020820152600060408201526000606082015260006080820152604051611260816134d6565b6060815260006020820152600060408201526000606082015260606080820152600060a0820152600060c082015260a082015260405161129f8161350d565b6000815260006020820152600060408201526000606082015260c08201526040516112c981613528565b6000815260006020820152600060408201526000606082015260006080820152600060a082015260e082015261010060608183015261012060608184015260006101806101409460608682015282610160820152015260043560005260066020526040600020906040519161133d836134f1565b8054835260018101549060ff821660038110156109e857602085015260ff8260081c1660068110156109e857604085015260ff8260101c1660048110156109e85760179260ff91606087015260181c16151560808501526113a06002820161364a565b60a08501526113b1600982016136b1565b60c08501526113c2600d82016136ec565b60e08501526113d360138201613564565b858501526113e360148201613564565b838501526113f360158201613564565b868501526016810154610160850152015461018083015261018061154c60405195869560208752855160208801526114336020870151604089019061373e565b6114456040870151606089019061374b565b61145760608701516080890190613758565b6080860151151560a088015261153860a0870151956115246114876102a0988960c08d01526102c08c0190613765565b60c08a015180516001600160a01b031660e08d015260208101516101008d015260408101516101208d0152606001516101408c01529360e08a015180516001600160a01b039081166101608e015260208201516101808e015260408201516101a08e015260608201516101c08e01526080820151166101e08d015260a001516102008c015289015193601f1994858c8303016102208d015261360a565b90880151838a8303016102408b015261360a565b91860151908783030161026088015261360a565b926101608101516102808601520151908301520390f35b346102945760208060031936011261029457600354604051635c975abb60e01b81526001600160a01b03916004803592918416908590839081845afa908115610a2d576115bc8692602494600091611784575015613833565b60405163dbac26e960e01b815233600482015292839182905afa8015610a2d576115ee9160009161176757501561386f565b816000541691821561172257816000526006845260ff60016040600020015460181c16156116e857816000526006845260406000203382600983015416149182156116d6575b5050156116a05760009160248492604051948593849263a4f5007360e01b845260048401525af1908115610a2d57600091611673575b50604051908152f35b90508181813d8311611699575b61168a8183613543565b8101031261029457518261166a565b503d611680565b60405162461bcd60e51b815260048101849052600e60248201526d139bdd08185d5d1a1bdc9a5e995960921b6044820152606490fd5b909150600d3392015416148480611634565b60405162461bcd60e51b815260048101859052601260248201527150726f64756374206e6f742061637469766560701b6044820152606490fd5b60405162461bcd60e51b815260048101859052601a60248201527f54656d7065726174757265206f7261636c65206e6f74207365740000000000006044820152606490fd5b61177e9150853d8711610a2657610a188183613543565b856105b9565b61179b9150843d8611610a2657610a188183613543565b88610586565b34610294576000366003190112610294576000546040516001600160a01b039091168152602090f35b34610294576117d836613479565b906117ee60018060a01b036001541633146139ed565b6000526006602052601760406000200155600080f35b3461029457602036600319011261029457600435600052600960205260e0604060002080549060018060a01b0390816001820154169160028201541660038201546004830154916006600585015494015494604051968752602087015260408601526060850152608084015260a083015260c0820152f35b34610294576020366003190112610294576001600160a01b0361189d613377565b166000526004602052602060ff604060002054166118be604051809261348f565bf35b34610294576080366003190112610294576118d961338d565b6001546001600160a01b0391906118f390831633146139ed565b6004356000526006602052604060002091600d830191166001600160601b0360a01b825416179055604435600e820155600f606435910155600080f35b34610294576000366003190112610294576020600854604051908152f35b3461029457604036600319011261029457611967613377565b6001546001600160a01b03919061198190831633146139ed565b16600052600b60205261199a6024356040600020613912565b005b34610294576020366003190112610294576119b5613377565b33600052600460205260ff6040600020541660058110156109e85760046119dc91146137ca565b600080546001600160a01b0319166001600160a01b0392909216919091179055005b3461029457602080600319360112610294576004359060018060a01b03806003541660405190635c975abb60e01b82528382600481845afa908115610a2d57611a538592602494600091611784575015613833565b60405163dbac26e960e01b815233600482015292839182905afa8015610a2d57611a8591600091611b6757501561386f565b82600052600682523390600d604060002001541603611b3357816000526006815260ff60016040600020015460081c1660068110156109e857600203611afc57600080516020613a30833981519152908260005260068152600160406000200161040061ff001982541617905560405160048152a2005b6064906040519062461bcd60e51b82526004820152601060248201526f135d5cdd081899481d995c9a599a595960821b6044820152fd5b6064906040519062461bcd60e51b82526004820152600d60248201526c27b7363c903932ba30b4b632b960991b6044820152fd5b61177e9150843d8611610a2657610a188183613543565b346102945760203660031901126102945760043560005260066020526040600020805460018201549160028101611bb49061364a565b611bc0600983016136b1565b611bcc600d84016136ec565b90611bd960138501613564565b611be560148601613564565b91611bf260158701613564565b936016870154966017015495604051998a998a5260208a0160ff821690611c189161373e565b611c2c60408b0160ff600884901c1661374b565b611c4060608b0160ff601084901c16613758565b60181c60ff16151560808a01526102a08060a08b01528901611c6191613765565b82516001600160a01b031660c08a0152602083015160e08a015260408301516101008a015260609092015161012089015280516001600160a01b039081166101408a015260208201516101608a015260408201516101808a015260608201516101a08a01526080820151166101c089015260a001516101e0880152868103610200880152611cee9161360a565b858103610220870152611d009161360a565b848103610240860152611d129161360a565b916102608401526102808301520390f35b3461029457611d31366133ff565b600354604051635c975abb60e01b815260209493916001600160a01b03919082168682600481845afa908115610a2d57611d778892602494600091611fc3575015613833565b60405163dbac26e960e01b815233600482015292839182905afa8015610a2d57611da991600091611fa657501561386f565b836000526006855233906003604060002001541603611f735782600052600684526001611de260ff826040600020015460181c166138d3565b83600052600685526013604060002001906001600160401b03841161089c57611e0b825461349c565b601f8111611f2a575b506000601f8511600114611ea0577f540105ff02eed8665666e5b20a0955668c4452dd216f3f7846996f9057b8e093959660609493868080956000958693611e95575b501b9084198660031b1c19161790555b60405195869460408652816040870152868601378383018501829052830152601f01601f19168101030190a2005b88013592508c611e57565b601f1985169083600052876000209160005b818110611f1557509386936000937f540105ff02eed8665666e5b20a0955668c4452dd216f3f7846996f9057b8e093999a93866060999810611efc575b505084811b019055611e67565b851960f88860031b161c19908801351690558a80611eef565b86830135845592840192918901918901611eb2565b8260005286600020601f860160051c810191888710611f69575b601f0160051c019082905b828110611f5d575050611e14565b60008155018290611f4f565b9091508190611f44565b60405162461bcd60e51b815260048101859052600b60248201526a27b7363c903330b936b2b960a91b6044820152606490fd5b611fbd9150873d8911610a2657610a188183613543565b876105b9565b611fda9150843d8611610a2657610a188183613543565b8a610586565b3461029457602036600319011261029457611ff9613377565b33600052600460205260ff6040600020541660058110156109e857600461202091146137ca565b600280546001600160a01b0319166001600160a01b0392909216919091179055005b346102945760403660031901126102945761205b613377565b6001600160a01b03166000908152600d60205260409020805460243591908210156102945760209161208c9161344b565b90546040519160031b1c8152f35b34610294576120a836613479565b600354604051635c975abb60e01b81526020939290916001600160a01b039081168584600481845afa938415610a2d5786946120ec9160009161242d575015613833565b6040519586809263dbac26e960e01b825233600483015260249889915afa8015610a2d576121229160009161241657501561386f565b336000526004835260ff604060002054166005811015612401576002036123bd5783600052600680845260019260ff84604060002001541660038110156123a85761236f578560005281855283604060002001549260ff600894851c168381101561235a5761231657866000528286526121a860ff866040600020015460181c166138d3565b81156122e25791600080516020613a308339815191529594939161229a9388600052828752604060002090600382015416958082018161ffff1982541617905560098201916001600160601b0360a01b92338482541617905583600a820155600b4291015561221785546138ae565b8086558a6000528489528060166040600020015580600052600989526040600020908155018682825416179055835460005260026040600020019033908254161790558254600052876003604060002001558254600052600560406000200155815460005242906040600020015533600052600a84526040600020905490613912565b80600052600d82526122b0846040600020613912565b6040519033857f405b8e92032184041314dcddf305e0d97d13b103d3fa162eb2b1c760760bdc0a600080a460008152a2005b60405162461bcd60e51b815260048101879052600d818a01526c496e76616c696420707269636560981b6044820152606490fd5b60405162461bcd60e51b815260048101879052601a818a01527f4e6f7420617661696c61626c6520666f722070757263686173650000000000006044820152606490fd5b88634e487b7160e01b60005260216004526000fd5b60405162461bcd60e51b815260048101869052601281890152714d757374206265204641524d20737461676560701b6044820152606490fd5b87634e487b7160e01b60005260216004526000fd5b60405162461bcd60e51b8152600481018490526018818701527f4f6e6c79206469737472696275746f722063616e2062757900000000000000006044820152606490fd5b85634e487b7160e01b60005260216004526000fd5b611fbd9150853d8711610a2657610a188183613543565b61179b9150863d8811610a2657610a188183613543565b346102945760403660031901126102945760243560038110156102945761247660018060a01b036001541633146139ed565b600435600052600660205260016040600020019060ff80198354169116179055600080f35b34610294576060366003190112610294576004356124b761338d565b600354604051635c975abb60e01b8152919291602091604435916001600160a01b039182168482600481845afa918215610a2d5785926124ff91600091610a39575015613833565b6040519182809263dbac26e960e01b825233600483015260249485915afa8015610a2d576125359160009161272d57501561386f565b846000526006845260ff60016040600020015460081c166006811015612718576004036126e45782156126ae5784600052600684526040600020601260088201549101548103908111612699578311612660578460005260068452601260406000200180549184830180931161264c57508460ff60017fc4e776593902e41e517077b7801b16abf4ad2b754d62899b59d9dc68467477749796958995600080516020613a3083398151915295558560005260068452604060002090601182019b169a8b6001600160601b0360a01b825416179055601281015460088201541115612637575b015460081c1661262d604051809261374b565ba2604051908152a3005b808201805461ff00191661050017905561261a565b634e487b7160e01b60009081526011600452fd5b8360136064926040519262461bcd60e51b84526004840152820152724e6f7420656e6f756768207175616e7469747960681b6044820152fd5b50634e487b7160e01b60009081526011600452fd5b8360106064926040519262461bcd60e51b845260048401528201526f496e76616c6964207175616e7469747960801b6044820152fd5b83600e6064926040519262461bcd60e51b845260048401528201526d135d5cdd081899481b1a5cdd195960921b6044820152fd5b50634e487b7160e01b60009081526021600452fd5b6127449150863d8811610a2657610a188183613543565b886105b9565b3461029457600036600319011261029457602060405160058152f35b346102945760a0366003190112610294576020612781613377565b61278961338d565b6001546001600160a01b0392906127a390841633146139ed565b60089260016127b285546138ae565b8086558060005260098752604060002090815501816001600160601b0360a01b9316838254161790558354600052600260406000200192169082541617905580546000526044356003604060002001558054600052606435600460406000200155805460005260843560056040600020015580546000524260066040600020015554604051908152f35b34610294576020366003190112610294576001600160a01b0361285d613377565b16600052600e6020526103216128766040600020613564565b60405191829160208352602083019061360a565b34610294576040366003190112610294576128a3613377565b60243590600582101561029457336000526020906004825260ff604060002054169060058210156109e8576128dd60046128fb93146137ca565b6001600160a01b031660008181526004845260409020909390613803565b6001600052600c808252604060002083600052825260406000205415612999575b6002600052808252604060002083600052825260406000205415612979575b600360005280825260406000208360005282526040600020541561295b57005b60036000528152604060002091600052526032604060002055600080f35b60026000528082526040600020836000528252603260406000205561293b565b60016000528082526040600020836000528252603260406000205561291c565b34610294576000366003190112610294576001546040516001600160a01b039091168152602090f35b34610294576040366003190112610294576129fb613377565b6001600160a01b03166000908152600a60205260409020805460243591908210156102945760209161208c9161344b565b34610294576000366003190112610294576020600754604051908152f35b3461029457612a5836613479565b90612a6e60018060a01b036002541633146139a9565b6000526006602052601060406000200155600080f35b3461029457612a9236613479565b90612aa860018060a01b036002541633146139a9565b6000526006602052600c60406000200155600080f35b3461029457602036600319011261029457600060c0604051612adf816134d6565b8281528260208201528260408201528260608201528260808201528260a08201520152600435600052600960205260e06040600020604051612b20816134d6565b81549182825260018060a01b0380600183015416906020840191825280600284015416906040850191825260038401549160608601928352816004860154946080880195865260c0600660058901549860a08b01998a520154980197885260405198895251166020880152511660408601525160608501525160808401525160a08301525160c0820152f35b3461029457602036600319011261029457612bc5613377565b33600052600460205260ff6040600020541660058110156109e8576004612bec91146137ca565b600180546001600160a01b0319166001600160a01b0392909216919091179055005b3461029457604036600319011261029457612c27613377565b6001600160a01b03166000908152600b60205260409020805460243591908210156102945760209161208c9161344b565b3461029457612c66366133ff565b91612c7c60018060a01b036002541633146139a9565b600052602091600683526014604060002001916001600160401b03821161089c57612ca7835461349c565b601f8111612d2c575b50600093601f8311600114612ce3575092819293600092610e2e575050600019600383901b1c191660019190911b179055005b90601f198316948460005282600020926000905b878210612d14575050836001959610610e6b57505050811b019055005b80600184968294958701358155019501920190612cf7565b8360005284600020601f840160051c810191868510612d68575b601f0160051c01905b818110612d5c5750612cb0565b60008155600101612d4f565b9091508190612d46565b3461029457612d8a612d83366133a3565b9190613432565b9060018060a01b03166000526020526020604060002054604051908152f35b3461029457612db7366133ff565b91612dcd60018060a01b036002541633146139a9565b600052602091600683526015604060002001916001600160401b03821161089c57612df8835461349c565b601f8111612e7d575b50600093601f8311600114612e34575092819293600092610e2e575050600019600383901b1c191660019190911b179055005b90601f198316948460005282600020926000905b878210612e65575050836001959610610e6b57505050811b019055005b80600184968294958701358155019501920190612e48565b8360005284600020601f840160051c810191868510612eb9575b601f0160051c01905b818110612ead5750612e01565b60008155600101612ea0565b9091508190612e97565b34610294576060366003190112610294576004356024803560048110156102945760443591600390818410156102945760018060a01b0392600295612f0c8588541633146139a9565b8060005260209460068652604060002091888260098189870154169501541698600099861595866000146130df576001600052600c8b526040600020816000528b526040600020549060648210613097575b505082600052600c8a526040600020816000528a526040600020549060648210613057575b50505b14612f8d57005b60005260068652600d604060002001541695610fb05715612ff0575081600052600c835260406000208460005283526040600020549460648610612fcd57005b850180951161264c5750600052600c815260406000209160005252604060002055005b90948290821491821561304d575b505061300657005b80600052600c82526040600020836000528252604060002054938461302757005b600119850194851161264c5750600052600c815260406000209160005252604060002055005b1490508186612ffe565b90919282018092116130825760008c8152600c8b526040808220928252918b52205589908b80612f83565b87634e487b7160e01b60005260116004526000fd5b9091929382018092116130ca57908c9392916001600052600c8c526040600020906000528b526040600020558c80612f5e565b88634e487b7160e01b60005260116004526000fd5b60009b5087841480156131a2575b6130f9575b5050612f86565b6001600052600c8b526040600020816000528b52604060002054908161316b575b505082600052600c8a526040600020816000528a526040600020549081156130f2579192506001198101919082116130825760008c8152600c8b526040808220928252918b52205589908b806130f2565b929350909160011982019182116130ca57908c9392916001600052600c8c526040600020906000528b526040600020558c8061311a565b5060009b50878a146130ed565b3461029457600036600319011261029457600754600060015b8281111561329c57506131da90613963565b60009160015b818111156131f65760405180610321858261333c565b80600052600660209080825260ff90816001604060002001541660038110156109e857159283613276575b83613258575b50505061323d575b613238906138ae565b6131e0565b9261325081856103696132389487613995565b93905061322f565b90919250836000525260016040600020015460181c16858080613227565b9250836000528083528160016040600020015460081c16818110156109e8571592613221565b80600052600660209080825260ff90816001604060002001541660038110156109e857159283613316575b836132f8575b5050506132e3575b6132de906138ae565b6131c8565b906132f06132de916138ae565b9190506132d5565b90919250836000525260016040600020015460181c168480806132cd565b9250836000528083528160016040600020015460081c16818110156109e85715926132c7565b6020908160408183019282815285518094520193019160005b828110613363575050505090565b835185529381019392810192600101613355565b600435906001600160a01b038216820361029457565b602435906001600160a01b038216820361029457565b604090600319011261029457600435600581101561029457906024356001600160a01b03811681036102945790565b9181601f84011215610294578235916001600160401b038311610294576020838186019501011161029457565b9060406003198301126102945760043591602435906001600160401b0382116102945761342e916004016133d2565b9091565b60058110156109e857600052600c602052604060002090565b80548210156134635760005260206000200190600090565b634e487b7160e01b600052603260045260246000fd5b6040906003190112610294576004359060243590565b9060058210156109e85752565b90600182811c921680156134cc575b60208310146134b657565b634e487b7160e01b600052602260045260246000fd5b91607f16916134ab565b60e081019081106001600160401b0382111761089c57604052565b6101a081019081106001600160401b0382111761089c57604052565b608081019081106001600160401b0382111761089c57604052565b60c081019081106001600160401b0382111761089c57604052565b90601f801991011681019081106001600160401b0382111761089c57604052565b90604051918260008254926135788461349c565b9081845260019485811690816000146135e757506001146135a4575b50506135a292500383613543565b565b9093915060005260209081600020936000915b8183106135cf5750506135a293508201013880613594565b855488840185015294850194879450918301916135b7565b9150506135a294506020925060ff191682840152151560051b8201013880613594565b919082519283825260005b848110613636575050826000602080949584010152601f8019910116010190565b602081830181015184830182015201613615565b90604051613657816134d6565b60c06006829461366681613564565b845260018101546001600160a01b03166020850152600281015460408501526003810154606085015261369b60048201613564565b6080850152600581015460a08501520154910152565b906040516136be8161350d565b82546001600160a01b0316815260018301546020820152600283015460408201526003909201546060830152565b906040516136f981613528565b82546001600160a01b039081168252600184015460208301526002840154604083015260038401546060830152600484015416608082015260059092015460a0830152565b9060038210156109e85752565b9060068210156109e85752565b9060048210156109e85752565b9060c0806137b761377f855160e0865260e086019061360a565b60018060a01b03602087015116602086015260408601516040860152606086015160608601526080860151858203608087015261360a565b9360a081015160a0850152015191015290565b156137d157565b60405162461bcd60e51b815260206004820152600a60248201526927b7363c9030b236b4b760b11b6044820152606490fd5b9060058110156109e85760ff80198354169116179055565b90816020910312610294575180151581036102945790565b1561383a57565b60405162461bcd60e51b815260206004820152600d60248201526c14de5cdd195b481c185d5cd959609a1b6044820152606490fd5b1561387657565b60405162461bcd60e51b815260206004820152601060248201526f155cd95c88189b1858dadb1a5cdd195960821b6044820152606490fd5b60001981146138bd5760010190565b634e487b7160e01b600052601160045260246000fd5b156138da57565b60405162461bcd60e51b815260206004820152601060248201526f125b9858dd1a5d99481c1c9bd91d58dd60821b6044820152606490fd5b80546801000000000000000081101561089c576139349160018201815561344b565b819291549060031b91821b91600019901b1916179055565b6001600160401b03811161089c5760051b60200190565b9061396d8261394c565b61397a6040519182613543565b828152809261398b601f199161394c565b0190602036910137565b80518210156134635760209160051b010190565b156139b057565b60405162461bcd60e51b815260206004820152601560248201527413db9b1e481c5d585b1a5d1e4818dbdb9d1c9858dd605a1b6044820152606490fd5b156139f457565b60405162461bcd60e51b815260206004820152601360248201527213db9b1e4818985d18da0818dbdb9d1c9858dd606a1b6044820152606490fdfedf7efc9f6f5bce44cbf5db3d8362387f6d02e0566c37fb4ed10cd3d05b35ecada2646970667358221220eeba6aa0838abab3603960b3be6499d7fe426175bb02d52965c9e21f61f1919564736f6c6343000813003360803461007457601f6103f338819003918201601f19168301916001600160401b038311848410176100795780849260209460405283398101031261007457516001600160a01b0381169081900361007457600080546001600160a81b03191691909117905560405161036390816100908239f35b600080fd5b634e487b7160e01b600052604160045260246000fdfe604060808152600436101561001357600080fd5b600090813560e01c80633f4ba83a1461029c5780635c975abb146101a757806375e3661e1461022c5780638456cb59146101cb578063b187bd26146101a7578063dbac26e914610167578063f851a44014610140578063f9f92be4146100c95763fe575a871461008257600080fd5b346100c55760203660031901126100c5576004356001600160a01b038116908190036100c157818360ff92602095526001855220541690519015158152f35b8280fd5b5080fd5b50346100c55760203660031901126100c5576004356001600160a01b03818116929183900361013c576101009084541633146102f4565b81835260016020528220600160ff198254161790557fffa4e6181777692565cf28528fc88fd1516ea86b56da075235fa575af6a4b8558280a280f35b8380fd5b50346100c557816003193601126100c557905490516001600160a01b039091168152602090f35b50346100c55760203660031901126100c5576004356001600160a01b038116908190036100c157818360ff92602095526001855220541690519015158152f35b50346100c557816003193601126100c55760ff6020925460a01c1690519015158152f35b823461022957806003193601126102295780546101f2336001600160a01b038316146102f4565b60ff60a01b1916600160a01b178155337f62e78cea01bee320cd4e420270b5ea74000d11b0c9f74754ebdbfc544b05a2588280a280f35b80fd5b50346100c55760203660031901126100c5576004356001600160a01b03818116929183900361013c576102639084541633146102f4565b81835260016020528220805460ff191690557f7534c63860313c46c473e4e98328f37017e9674e2162faf1a3ad7a96236c3b7b8280a280f35b823461022957806003193601126102295780546102c3336001600160a01b038316146102f4565b60ff60a01b19168155337f5db9ee0a495bf2e6ff9c91a7834c1ba4fdd244a5e8aa4e537bd38aeae4b073aa8280a280f35b156102fb57565b60405162461bcd60e51b815260206004820152600a60248201526927b7363c9030b236b4b760b11b6044820152606490fdfea2646970667358221220a1e5d7f5ffcfd7ec4aab0e56f1b7a60b520366aa950ebb7fb8d66dfc214fe6e764736f6c63430008130033","opcodes":"PUSH1 0x80 PUSH1 0x40 SWAP1 DUP1 DUP3 MSTORE CALLVALUE PUSH3 0xF2 JUMPI PUSH1 0x5 DUP1 SLOAD PUSH1 0x1 PUSH1 0x1 PUSH1 0xA0 SHL SUB NOT SWAP1 DUP2 AND CALLER OR SWAP1 SWAP2 SSTORE PUSH2 0x3F3 DUP1 DUP4 ADD SWAP3 SWAP2 SWAP1 PUSH1 0x1 PUSH1 0x1 PUSH1 0x40 SHL SUB DUP5 GT DUP4 DUP6 LT OR PUSH3 0xDC JUMPI PUSH3 0x3B7D DUP4 CODECOPY CALLER DUP4 MSTORE PUSH1 0x20 SWAP2 DUP3 DUP2 PUSH1 0x0 SWAP6 SUB ADD SWAP1 DUP5 CREATE DUP1 ISZERO PUSH3 0xD2 JUMPI SWAP2 PUSH1 0x32 SWAP4 SWAP2 DUP6 SWAP4 PUSH1 0x1 DUP1 PUSH1 0xA0 SHL SUB AND SWAP1 PUSH1 0x3 SLOAD AND OR PUSH1 0x3 SSTORE CALLER DUP3 MSTORE PUSH1 0x4 DUP2 MSTORE DUP3 DUP3 KECCAK256 PUSH1 0x4 PUSH1 0xFF NOT DUP3 SLOAD AND OR SWAP1 SSTORE PUSH1 0x1 DUP3 MSTORE PUSH1 0xC DUP2 MSTORE DUP3 DUP3 KECCAK256 CALLER DUP4 MSTORE DUP2 MSTORE DUP4 DUP4 DUP4 KECCAK256 SSTORE PUSH1 0x2 DUP3 MSTORE PUSH1 0xC DUP2 MSTORE DUP3 DUP3 KECCAK256 CALLER DUP4 MSTORE DUP2 MSTORE DUP4 DUP4 DUP4 KECCAK256 SSTORE PUSH1 0x3 DUP3 MSTORE PUSH1 0xC DUP2 MSTORE DUP3 DUP3 KECCAK256 SWAP1 CALLER DUP4 MSTORE MSTORE KECCAK256 SSTORE MLOAD PUSH2 0x3A85 SWAP1 DUP2 PUSH3 0xF8 DUP3 CODECOPY RETURN JUMPDEST DUP5 MLOAD RETURNDATASIZE DUP6 DUP3 RETURNDATACOPY RETURNDATASIZE SWAP1 REVERT JUMPDEST PUSH4 0x4E487B71 PUSH1 0xE0 SHL PUSH1 0x0 MSTORE PUSH1 0x41 PUSH1 0x4 MSTORE PUSH1 0x24 PUSH1 0x0 REVERT JUMPDEST PUSH1 0x0 DUP1 REVERT INVALID PUSH1 0x80 PUSH1 0x40 MSTORE PUSH1 0x4 CALLDATASIZE LT ISZERO PUSH2 0x12 JUMPI PUSH1 0x0 DUP1 REVERT JUMPDEST PUSH1 0x0 CALLDATALOAD PUSH1 0xE0 SHR DUP1 PUSH4 0x1290831D EQ PUSH2 0x31AF JUMPI DUP1 PUSH4 0x15BA312D EQ PUSH2 0x2EC3 JUMPI DUP1 PUSH4 0x1B9CF329 EQ PUSH2 0x2D72 JUMPI DUP1 PUSH4 0x1E509437 EQ PUSH2 0x2DA9 JUMPI DUP1 PUSH4 0x22E377FF EQ PUSH2 0x2D72 JUMPI DUP1 PUSH4 0x2399339C EQ PUSH2 0x2C58 JUMPI DUP1 PUSH4 0x2423BB0B EQ PUSH2 0x2C0E JUMPI DUP1 PUSH4 0x2F3EBCB0 EQ PUSH2 0x2BAC JUMPI DUP1 PUSH4 0x33EA3DC8 EQ PUSH2 0x2ABE JUMPI DUP1 PUSH4 0x37739BB0 EQ PUSH2 0x2A84 JUMPI DUP1 PUSH4 0x44276733 EQ PUSH2 0x187C JUMPI DUP1 PUSH4 0x47B5FAF2 EQ PUSH2 0x2A4A JUMPI DUP1 PUSH4 0x4DE91A63 EQ PUSH2 0x2A2C JUMPI DUP1 PUSH4 0x570AEA8A EQ PUSH2 0x2A2C JUMPI DUP1 PUSH4 0x5BDB6F71 EQ PUSH2 0x29E2 JUMPI DUP1 PUSH4 0x5E66BDB3 EQ PUSH2 0x29B9 JUMPI DUP1 PUSH4 0x630A195B EQ PUSH2 0x288A JUMPI DUP1 PUSH4 0x6357E48B EQ PUSH2 0x283C JUMPI DUP1 PUSH4 0x6365CE65 EQ PUSH2 0x2766 JUMPI DUP1 PUSH4 0x638A348C EQ PUSH2 0x274A JUMPI DUP1 PUSH4 0x65EBD136 EQ PUSH2 0x249B JUMPI DUP1 PUSH4 0x6A13931D EQ PUSH2 0x2444 JUMPI DUP1 PUSH4 0x6BA37E10 EQ PUSH2 0x209A JUMPI DUP1 PUSH4 0x6C0245D0 EQ PUSH2 0x2042 JUMPI DUP1 PUSH4 0x77F5CFC3 EQ PUSH2 0x1FE0 JUMPI DUP1 PUSH4 0x7882E082 EQ PUSH2 0x1D23 JUMPI DUP1 PUSH4 0x7ACC0B20 EQ PUSH2 0x1B7E JUMPI DUP1 PUSH4 0x7D0C49A8 EQ PUSH2 0x19FE JUMPI DUP1 PUSH4 0x80B31EBC EQ PUSH2 0x199C JUMPI DUP1 PUSH4 0x84223E56 EQ PUSH2 0x194E JUMPI DUP1 PUSH4 0x8AFF87B2 EQ PUSH2 0x1930 JUMPI DUP1 PUSH4 0x8E6CA456 EQ PUSH2 0x18C0 JUMPI DUP1 PUSH4 0x99374642 EQ PUSH2 0x187C JUMPI DUP1 PUSH4 0x9ACE38C2 EQ PUSH2 0x1804 JUMPI DUP1 PUSH4 0xABBF2F98 EQ PUSH2 0x17CA JUMPI DUP1 PUSH4 0xB320B6FC EQ PUSH2 0x17A1 JUMPI DUP1 PUSH4 0xB8908429 EQ PUSH2 0x1563 JUMPI DUP1 PUSH4 0xB9DB15B4 EQ PUSH2 0x1217 JUMPI DUP1 PUSH4 0xBD4BADDB EQ PUSH2 0x11EE JUMPI DUP1 PUSH4 0xBEC514C3 EQ PUSH2 0x1118 JUMPI DUP1 PUSH4 0xCAA6FEA4 EQ PUSH2 0x10EF JUMPI DUP1 PUSH4 0xCC3D967B EQ PUSH2 0x1025 JUMPI DUP1 PUSH4 0xCD970A63 EQ PUSH2 0xFC5 JUMPI DUP1 PUSH4 0xD29BCC5C EQ PUSH2 0xD3B JUMPI DUP1 PUSH4 0xD3838AB1 EQ PUSH2 0xB6B JUMPI DUP1 PUSH4 0xD6669147 EQ PUSH2 0xA56 JUMPI DUP1 PUSH4 0xDD003ACE EQ PUSH2 0x4F6 JUMPI DUP1 PUSH4 0xEC90A7B0 EQ PUSH2 0x3E1 JUMPI DUP1 PUSH4 0xF6FA3B92 EQ PUSH2 0x2C2 JUMPI DUP1 PUSH4 0xF851A440 EQ PUSH2 0x299 JUMPI PUSH4 0xFD77E5DE EQ PUSH2 0x24D JUMPI PUSH1 0x0 DUP1 REVERT JUMPDEST CALLVALUE PUSH2 0x294 JUMPI PUSH1 0x20 CALLDATASIZE PUSH1 0x3 NOT ADD SLT PUSH2 0x294 JUMPI PUSH2 0x273 PUSH1 0x1 DUP1 PUSH1 0xA0 SHL SUB PUSH1 0x2 SLOAD AND CALLER EQ PUSH2 0x39A9 JUMP JUMPDEST PUSH1 0x4 CALLDATALOAD PUSH1 0x0 SWAP1 DUP2 MSTORE PUSH1 0x6 PUSH1 0x20 MSTORE PUSH1 0x40 SWAP1 KECCAK256 PUSH1 0x1 ADD DUP1 SLOAD PUSH4 0xFF000000 NOT AND SWAP1 SSTORE STOP JUMPDEST PUSH1 0x0 DUP1 REVERT JUMPDEST CALLVALUE PUSH2 0x294 JUMPI PUSH1 0x0 CALLDATASIZE PUSH1 0x3 NOT ADD SLT PUSH2 0x294 JUMPI PUSH1 0x5 SLOAD PUSH1 0x40 MLOAD PUSH1 0x1 PUSH1 0x1 PUSH1 0xA0 SHL SUB SWAP1 SWAP2 AND DUP2 MSTORE PUSH1 0x20 SWAP1 RETURN JUMPDEST CALLVALUE PUSH2 0x294 JUMPI PUSH1 0x20 DUP1 PUSH1 0x3 NOT CALLDATASIZE ADD SLT PUSH2 0x294 JUMPI PUSH2 0x2DC PUSH2 0x3377 JUMP JUMPDEST PUSH1 0x7 SLOAD PUSH1 0x1 PUSH1 0x1 PUSH1 0xA0 SHL SUB SWAP2 DUP3 AND SWAP3 SWAP1 SWAP2 PUSH1 0x0 PUSH1 0x1 JUMPDEST DUP5 DUP2 GT ISZERO PUSH2 0x389 JUMPI POP PUSH2 0x304 SWAP1 PUSH2 0x3963 JUMP JUMPDEST SWAP4 PUSH1 0x0 SWAP3 PUSH1 0x1 JUMPDEST DUP6 DUP2 GT ISZERO PUSH2 0x325 JUMPI PUSH1 0x40 MLOAD DUP1 PUSH2 0x321 DUP10 DUP3 PUSH2 0x333C JUMP JUMPDEST SUB SWAP1 RETURN JUMPDEST DUP1 PUSH1 0x0 MSTORE PUSH1 0x6 DUP3 MSTORE PUSH1 0x40 PUSH1 0x0 KECCAK256 DUP4 DUP6 PUSH1 0x9 DUP4 ADD SLOAD AND EQ SWAP1 DUP2 PUSH2 0x377 JUMPI JUMPDEST POP PUSH2 0x356 JUMPI JUMPDEST PUSH2 0x351 SWAP1 PUSH2 0x38AE JUMP JUMPDEST PUSH2 0x30B JUMP JUMPDEST SWAP4 PUSH2 0x36F DUP2 DUP7 PUSH2 0x369 PUSH2 0x351 SWAP5 DUP12 PUSH2 0x3995 JUMP JUMPDEST MSTORE PUSH2 0x38AE JUMP JUMPDEST SWAP5 SWAP1 POP PUSH2 0x348 JUMP JUMPDEST PUSH1 0xFF SWAP2 POP PUSH1 0x1 ADD SLOAD PUSH1 0x18 SHR AND DUP9 PUSH2 0x342 JUMP JUMPDEST DUP1 PUSH1 0x0 MSTORE PUSH1 0x6 DUP5 MSTORE PUSH1 0x40 PUSH1 0x0 KECCAK256 DUP7 DUP5 PUSH1 0x9 DUP4 ADD SLOAD AND EQ SWAP1 DUP2 PUSH2 0x3CF JUMPI JUMPDEST POP PUSH2 0x3BA JUMPI JUMPDEST PUSH2 0x3B5 SWAP1 PUSH2 0x38AE JUMP JUMPDEST PUSH2 0x2F2 JUMP JUMPDEST SWAP1 PUSH2 0x3C7 PUSH2 0x3B5 SWAP2 PUSH2 0x38AE JUMP JUMPDEST SWAP2 SWAP1 POP PUSH2 0x3AC JUMP JUMPDEST PUSH1 0xFF SWAP2 POP PUSH1 0x1 ADD SLOAD PUSH1 0x18 SHR AND DUP8 PUSH2 0x3A6 JUMP JUMPDEST CALLVALUE PUSH2 0x294 JUMPI PUSH1 0x20 DUP1 PUSH1 0x3 NOT CALLDATASIZE ADD SLT PUSH2 0x294 JUMPI PUSH2 0x3FB PUSH2 0x3377 JUMP JUMPDEST PUSH1 0x7 SLOAD PUSH1 0x1 PUSH1 0x1 PUSH1 0xA0 SHL SUB SWAP2 DUP3 AND SWAP3 SWAP1 SWAP2 PUSH1 0x0 PUSH1 0x1 JUMPDEST DUP5 DUP2 GT ISZERO PUSH2 0x49E JUMPI POP PUSH2 0x423 SWAP1 PUSH2 0x3963 JUMP JUMPDEST SWAP4 PUSH1 0x0 SWAP3 PUSH1 0x1 JUMPDEST DUP6 DUP2 GT ISZERO PUSH2 0x440 JUMPI PUSH1 0x40 MLOAD DUP1 PUSH2 0x321 DUP10 DUP3 PUSH2 0x333C JUMP JUMPDEST DUP1 PUSH1 0x0 MSTORE PUSH1 0x6 DUP3 MSTORE PUSH1 0x40 PUSH1 0x0 KECCAK256 DUP4 DUP6 PUSH1 0x3 DUP4 ADD SLOAD AND EQ SWAP1 DUP2 PUSH2 0x48C JUMPI JUMPDEST POP PUSH2 0x471 JUMPI JUMPDEST PUSH2 0x46C SWAP1 PUSH2 0x38AE JUMP JUMPDEST PUSH2 0x42A JUMP JUMPDEST SWAP4 PUSH2 0x484 DUP2 DUP7 PUSH2 0x369 PUSH2 0x46C SWAP5 DUP12 PUSH2 0x3995 JUMP JUMPDEST SWAP5 SWAP1 POP PUSH2 0x463 JUMP JUMPDEST PUSH1 0xFF SWAP2 POP PUSH1 0x1 ADD SLOAD PUSH1 0x18 SHR AND DUP9 PUSH2 0x45D JUMP JUMPDEST DUP1 PUSH1 0x0 MSTORE PUSH1 0x6 DUP5 MSTORE PUSH1 0x40 PUSH1 0x0 KECCAK256 DUP7 DUP5 PUSH1 0x3 DUP4 ADD SLOAD AND EQ SWAP1 DUP2 PUSH2 0x4E4 JUMPI JUMPDEST POP PUSH2 0x4CF JUMPI JUMPDEST PUSH2 0x4CA SWAP1 PUSH2 0x38AE JUMP JUMPDEST PUSH2 0x411 JUMP JUMPDEST SWAP1 PUSH2 0x4DC PUSH2 0x4CA SWAP2 PUSH2 0x38AE JUMP JUMPDEST SWAP2 SWAP1 POP PUSH2 0x4C1 JUMP JUMPDEST PUSH1 0xFF SWAP2 POP PUSH1 0x1 ADD SLOAD PUSH1 0x18 SHR AND DUP8 PUSH2 0x4BB JUMP JUMPDEST CALLVALUE PUSH2 0x294 JUMPI PUSH1 0xA0 CALLDATASIZE PUSH1 0x3 NOT ADD SLT PUSH2 0x294 JUMPI PUSH1 0x4 CALLDATALOAD PUSH1 0x1 PUSH1 0x1 PUSH1 0x40 SHL SUB DUP2 GT PUSH2 0x294 JUMPI PUSH2 0x526 SWAP1 CALLDATASIZE SWAP1 PUSH1 0x4 ADD PUSH2 0x33D2 JUMP JUMPDEST SWAP1 PUSH1 0x44 CALLDATALOAD PUSH1 0x1 PUSH1 0x1 PUSH1 0x40 SHL SUB DUP2 GT PUSH2 0x294 JUMPI PUSH2 0x546 SWAP1 CALLDATASIZE SWAP1 PUSH1 0x4 ADD PUSH2 0x33D2 JUMP JUMPDEST PUSH1 0x3 SLOAD PUSH1 0x40 MLOAD PUSH4 0x5C975ABB PUSH1 0xE0 SHL DUP2 MSTORE SWAP3 SWAP5 SWAP2 SWAP4 SWAP3 SWAP1 PUSH1 0x1 PUSH1 0x1 PUSH1 0xA0 SHL SUB AND PUSH1 0x20 DUP3 PUSH1 0x4 DUP2 DUP5 GAS STATICCALL SWAP1 DUP2 ISZERO PUSH2 0xA2D JUMPI PUSH2 0x58D PUSH1 0x20 SWAP3 PUSH1 0x24 SWAP5 PUSH1 0x0 SWAP2 PUSH2 0xA39 JUMPI JUMPDEST POP ISZERO PUSH2 0x3833 JUMP JUMPDEST PUSH1 0x40 MLOAD PUSH4 0xDBAC26E9 PUSH1 0xE0 SHL DUP2 MSTORE CALLER PUSH1 0x4 DUP3 ADD MSTORE SWAP3 DUP4 SWAP2 DUP3 SWAP1 GAS STATICCALL DUP1 ISZERO PUSH2 0xA2D JUMPI PUSH2 0x5C0 SWAP2 PUSH1 0x0 SWAP2 PUSH2 0x9FE JUMPI JUMPDEST POP ISZERO PUSH2 0x386F JUMP JUMPDEST CALLER PUSH1 0x0 MSTORE PUSH1 0x4 PUSH1 0x20 MSTORE PUSH1 0xFF PUSH1 0x40 PUSH1 0x0 KECCAK256 SLOAD AND PUSH1 0x5 DUP2 LT ISZERO PUSH2 0x9E8 JUMPI PUSH1 0x1 SUB PUSH2 0x9B6 JUMPI PUSH1 0x84 CALLDATALOAD ISZERO ISZERO DUP1 PUSH2 0x9AB JUMPI JUMPDEST ISZERO PUSH2 0x975 JUMPI PUSH1 0x1 PUSH2 0x5FF PUSH1 0x7 SLOAD PUSH2 0x38AE JUMP JUMPDEST DUP1 PUSH1 0x7 SSTORE DUP1 PUSH1 0x0 MSTORE PUSH1 0x6 PUSH1 0x20 MSTORE PUSH1 0x40 PUSH1 0x0 KECCAK256 SWAP1 DUP2 SSTORE ADD PUSH1 0xFF NOT DUP2 SLOAD AND SWAP1 SSTORE PUSH1 0x7 SLOAD PUSH1 0x0 MSTORE PUSH1 0x1 PUSH1 0x40 PUSH1 0x0 KECCAK256 ADD PUSH2 0xFF00 NOT DUP2 SLOAD AND SWAP1 SSTORE PUSH1 0x7 SLOAD PUSH1 0x0 MSTORE PUSH1 0x1 PUSH1 0x40 PUSH1 0x0 KECCAK256 ADD PUSH3 0xFF0000 NOT DUP2 SLOAD AND SWAP1 SSTORE PUSH1 0x7 SLOAD PUSH1 0x0 MSTORE PUSH1 0x1 PUSH1 0x40 PUSH1 0x0 KECCAK256 ADD PUSH4 0x1000000 PUSH4 0xFF000000 NOT DUP3 SLOAD AND OR SWAP1 SSTORE PUSH1 0x7 SLOAD PUSH1 0x0 MSTORE PUSH1 0x2 PUSH1 0x40 PUSH1 0x0 KECCAK256 ADD SWAP2 PUSH1 0x1 PUSH1 0x1 PUSH1 0x40 SHL SUB DUP3 GT PUSH2 0x89C JUMPI DUP2 SWAP1 PUSH2 0x694 DUP5 SLOAD PUSH2 0x349C JUMP JUMPDEST PUSH1 0x1F DUP2 GT PUSH2 0x925 JUMPI JUMPDEST POP PUSH1 0x0 SWAP1 PUSH1 0x1F DUP4 GT PUSH1 0x1 EQ PUSH2 0x8BD JUMPI PUSH1 0x0 SWAP3 PUSH2 0x8B2 JUMPI JUMPDEST POP POP DUP2 PUSH1 0x1 SHL SWAP2 PUSH1 0x0 NOT SWAP1 PUSH1 0x3 SHL SHR NOT AND OR SWAP1 SSTORE JUMPDEST PUSH1 0x7 SLOAD PUSH1 0x0 MSTORE PUSH1 0x6 PUSH1 0x20 MSTORE PUSH1 0x3 PUSH1 0x40 PUSH1 0x0 KECCAK256 ADD CALLER PUSH1 0x1 PUSH1 0x1 PUSH1 0x60 SHL SUB PUSH1 0xA0 SHL DUP3 SLOAD AND OR SWAP1 SSTORE PUSH1 0x7 SLOAD PUSH1 0x0 MSTORE TIMESTAMP PUSH1 0x4 PUSH1 0x40 PUSH1 0x0 KECCAK256 ADD SSTORE PUSH1 0x7 SLOAD PUSH1 0x0 MSTORE PUSH1 0x24 CALLDATALOAD PUSH1 0x5 PUSH1 0x40 PUSH1 0x0 KECCAK256 ADD SSTORE PUSH1 0x7 SLOAD PUSH1 0x0 MSTORE PUSH1 0x6 PUSH1 0x40 PUSH1 0x0 KECCAK256 ADD SWAP1 PUSH1 0x1 PUSH1 0x1 PUSH1 0x40 SHL SUB DUP2 GT PUSH2 0x89C JUMPI PUSH2 0x737 DUP3 SLOAD PUSH2 0x349C JUMP JUMPDEST PUSH1 0x1F DUP2 GT PUSH2 0x854 JUMPI JUMPDEST POP PUSH1 0x0 PUSH1 0x1F DUP3 GT PUSH1 0x1 EQ PUSH2 0x7EF JUMPI DUP2 SWAP3 SWAP4 PUSH1 0x0 SWAP3 PUSH2 0x7E4 JUMPI JUMPDEST POP POP DUP2 PUSH1 0x1 SHL SWAP2 PUSH1 0x0 NOT SWAP1 PUSH1 0x3 SHL SHR NOT AND OR SWAP1 SSTORE JUMPDEST PUSH1 0x7 SLOAD PUSH1 0x0 MSTORE PUSH1 0x6 PUSH1 0x20 MSTORE PUSH1 0x64 CALLDATALOAD PUSH1 0x7 PUSH1 0x40 PUSH1 0x0 KECCAK256 ADD SSTORE PUSH1 0x7 SLOAD PUSH1 0x0 MSTORE PUSH1 0x84 CALLDATALOAD PUSH1 0x8 PUSH1 0x40 PUSH1 0x0 KECCAK256 ADD SSTORE PUSH1 0x20 PUSH1 0x7 SLOAD DUP1 PUSH1 0x0 DUP1 MLOAD PUSH1 0x20 PUSH2 0x3A30 DUP4 CODECOPY DUP2 MLOAD SWAP2 MSTORE DUP4 PUSH1 0x40 MLOAD CALLER DUP5 PUSH32 0xE8BB4E90E950F7B76A8C4E472B3B5E01D41C478F9EEAEA36B4BA991F51133F91 PUSH1 0x0 DUP1 LOG3 PUSH1 0x0 DUP2 MSTORE LOG2 PUSH1 0x40 MLOAD SWAP1 DUP2 MSTORE RETURN JUMPDEST ADD CALLDATALOAD SWAP1 POP DUP4 DUP1 PUSH2 0x759 JUMP JUMPDEST PUSH1 0x1F NOT DUP3 AND SWAP4 DUP4 PUSH1 0x0 MSTORE PUSH1 0x20 PUSH1 0x0 KECCAK256 SWAP2 PUSH1 0x0 JUMPDEST DUP7 DUP2 LT PUSH2 0x83C JUMPI POP DUP4 PUSH1 0x1 SWAP6 SWAP7 LT PUSH2 0x822 JUMPI JUMPDEST POP POP POP DUP2 SHL ADD SWAP1 SSTORE PUSH2 0x76E JUMP JUMPDEST ADD CALLDATALOAD PUSH1 0x0 NOT PUSH1 0x3 DUP5 SWAP1 SHL PUSH1 0xF8 AND SHR NOT AND SWAP1 SSTORE DUP4 DUP1 DUP1 PUSH2 0x815 JUMP JUMPDEST SWAP1 SWAP3 PUSH1 0x20 PUSH1 0x1 DUP2 SWAP3 DUP7 DUP7 ADD CALLDATALOAD DUP2 SSTORE ADD SWAP5 ADD SWAP2 ADD PUSH2 0x802 JUMP JUMPDEST DUP3 PUSH1 0x0 MSTORE PUSH1 0x20 PUSH1 0x0 KECCAK256 PUSH1 0x1F DUP4 ADD PUSH1 0x5 SHR DUP2 ADD SWAP2 PUSH1 0x20 DUP5 LT PUSH2 0x892 JUMPI JUMPDEST PUSH1 0x1F ADD PUSH1 0x5 SHR ADD SWAP1 JUMPDEST DUP2 DUP2 LT PUSH2 0x886 JUMPI POP PUSH2 0x740 JUMP JUMPDEST PUSH1 0x0 DUP2 SSTORE PUSH1 0x1 ADD PUSH2 0x879 JUMP JUMPDEST SWAP1 SWAP2 POP DUP2 SWAP1 PUSH2 0x870 JUMP JUMPDEST PUSH4 0x4E487B71 PUSH1 0xE0 SHL PUSH1 0x0 MSTORE PUSH1 0x41 PUSH1 0x4 MSTORE PUSH1 0x24 PUSH1 0x0 REVERT JUMPDEST ADD CALLDATALOAD SWAP1 POP DUP6 DUP1 PUSH2 0x6B4 JUMP JUMPDEST PUSH1 0x0 DUP6 DUP2 MSTORE PUSH1 0x20 DUP2 KECCAK256 SWAP1 SWAP5 POP SWAP2 JUMPDEST PUSH1 0x1F NOT DUP5 AND DUP6 LT PUSH2 0x90D JUMPI PUSH1 0x1 SWAP5 POP DUP4 PUSH1 0x1F NOT DUP2 AND LT PUSH2 0x8F3 JUMPI JUMPDEST POP POP POP DUP2 SHL ADD SWAP1 SSTORE PUSH2 0x6C9 JUMP JUMPDEST ADD CALLDATALOAD PUSH1 0x0 NOT PUSH1 0x3 DUP5 SWAP1 SHL PUSH1 0xF8 AND SHR NOT AND SWAP1 SSTORE DUP6 DUP1 DUP1 PUSH2 0x8E6 JUMP JUMPDEST DUP2 DUP2 ADD CALLDATALOAD DUP4 SSTORE PUSH1 0x20 SWAP5 DUP6 ADD SWAP5 PUSH1 0x1 SWAP1 SWAP4 ADD SWAP3 ADD PUSH2 0x8CB JUMP JUMPDEST SWAP1 SWAP2 POP DUP4 PUSH1 0x0 MSTORE PUSH1 0x20 PUSH1 0x0 KECCAK256 PUSH1 0x1F DUP5 ADD PUSH1 0x5 SHR DUP2 ADD PUSH1 0x20 DUP6 LT PUSH2 0x96E JUMPI JUMPDEST SWAP1 DUP5 SWAP4 SWAP3 SWAP2 JUMPDEST PUSH1 0x1F DUP4 ADD PUSH1 0x5 SHR DUP3 ADD DUP2 LT PUSH2 0x95F JUMPI POP POP PUSH2 0x69D JUMP JUMPDEST PUSH1 0x0 DUP2 SSTORE DUP6 SWAP5 POP PUSH1 0x1 ADD PUSH2 0x949 JUMP JUMPDEST POP DUP1 PUSH2 0x943 JUMP JUMPDEST PUSH1 0x40 MLOAD PUSH3 0x461BCD PUSH1 0xE5 SHL DUP2 MSTORE PUSH1 0x20 PUSH1 0x4 DUP3 ADD MSTORE PUSH1 0xE PUSH1 0x24 DUP3 ADD MSTORE PUSH14 0x496E76616C696420706172616D73 PUSH1 0x90 SHL PUSH1 0x44 DUP3 ADD MSTORE PUSH1 0x64 SWAP1 REVERT JUMPDEST POP TIMESTAMP PUSH1 0x24 CALLDATALOAD GT PUSH2 0x5ED JUMP JUMPDEST PUSH1 0x40 MLOAD PUSH3 0x461BCD PUSH1 0xE5 SHL DUP2 MSTORE PUSH1 0x20 PUSH1 0x4 DUP3 ADD MSTORE PUSH1 0xA PUSH1 0x24 DUP3 ADD MSTORE PUSH10 0x2737BA103330B936B2B9 PUSH1 0xB1 SHL PUSH1 0x44 DUP3 ADD MSTORE PUSH1 0x64 SWAP1 REVERT JUMPDEST PUSH4 0x4E487B71 PUSH1 0xE0 SHL PUSH1 0x0 MSTORE PUSH1 0x21 PUSH1 0x4 MSTORE PUSH1 0x24 PUSH1 0x0 REVERT JUMPDEST PUSH2 0xA20 SWAP2 POP PUSH1 0x20 RETURNDATASIZE PUSH1 0x20 GT PUSH2 0xA26 JUMPI JUMPDEST PUSH2 0xA18 DUP2 DUP4 PUSH2 0x3543 JUMP JUMPDEST DUP2 ADD SWAP1 PUSH2 0x381B JUMP JUMPDEST DUP7 PUSH2 0x5B9 JUMP JUMPDEST POP RETURNDATASIZE PUSH2 0xA0E JUMP JUMPDEST PUSH1 0x40 MLOAD RETURNDATASIZE PUSH1 0x0 DUP3 RETURNDATACOPY RETURNDATASIZE SWAP1 REVERT JUMPDEST PUSH2 0xA50 SWAP2 POP DUP5 RETURNDATASIZE DUP7 GT PUSH2 0xA26 JUMPI PUSH2 0xA18 DUP2 DUP4 PUSH2 0x3543 JUMP JUMPDEST DUP10 PUSH2 0x586 JUMP JUMPDEST CALLVALUE PUSH2 0x294 JUMPI PUSH1 0x20 DUP1 PUSH1 0x3 NOT CALLDATASIZE ADD SLT PUSH2 0x294 JUMPI PUSH2 0xA70 PUSH2 0x3377 JUMP JUMPDEST PUSH1 0x7 SLOAD PUSH1 0x1 PUSH1 0x1 PUSH1 0xA0 SHL SUB SWAP2 DUP3 AND SWAP3 SWAP1 SWAP2 PUSH1 0x0 PUSH1 0x1 JUMPDEST DUP5 DUP2 GT ISZERO PUSH2 0xB13 JUMPI POP PUSH2 0xA98 SWAP1 PUSH2 0x3963 JUMP JUMPDEST SWAP4 PUSH1 0x0 SWAP3 PUSH1 0x1 JUMPDEST DUP6 DUP2 GT ISZERO PUSH2 0xAB5 JUMPI PUSH1 0x40 MLOAD DUP1 PUSH2 0x321 DUP10 DUP3 PUSH2 0x333C JUMP JUMPDEST DUP1 PUSH1 0x0 MSTORE PUSH1 0x6 DUP3 MSTORE PUSH1 0x40 PUSH1 0x0 KECCAK256 DUP4 DUP6 PUSH1 0xD DUP4 ADD SLOAD AND EQ SWAP1 DUP2 PUSH2 0xB01 JUMPI JUMPDEST POP PUSH2 0xAE6 JUMPI JUMPDEST PUSH2 0xAE1 SWAP1 PUSH2 0x38AE JUMP JUMPDEST PUSH2 0xA9F JUMP JUMPDEST SWAP4 PUSH2 0xAF9 DUP2 DUP7 PUSH2 0x369 PUSH2 0xAE1 SWAP5 DUP12 PUSH2 0x3995 JUMP JUMPDEST SWAP5 SWAP1 POP PUSH2 0xAD8 JUMP JUMPDEST PUSH1 0xFF SWAP2 POP PUSH1 0x1 ADD SLOAD PUSH1 0x18 SHR AND DUP9 PUSH2 0xAD2 JUMP JUMPDEST DUP1 PUSH1 0x0 MSTORE PUSH1 0x6 DUP5 MSTORE PUSH1 0x40 PUSH1 0x0 KECCAK256 DUP7 DUP5 PUSH1 0xD DUP4 ADD SLOAD AND EQ SWAP1 DUP2 PUSH2 0xB59 JUMPI JUMPDEST POP PUSH2 0xB44 JUMPI JUMPDEST PUSH2 0xB3F SWAP1 PUSH2 0x38AE JUMP JUMPDEST PUSH2 0xA86 JUMP JUMPDEST SWAP1 PUSH2 0xB51 PUSH2 0xB3F SWAP2 PUSH2 0x38AE JUMP JUMPDEST SWAP2 SWAP1 POP PUSH2 0xB36 JUMP JUMPDEST PUSH1 0xFF SWAP2 POP PUSH1 0x1 ADD SLOAD PUSH1 0x18 SHR AND DUP8 PUSH2 0xB30 JUMP JUMPDEST CALLVALUE PUSH2 0x294 JUMPI PUSH1 0x20 CALLDATASIZE PUSH1 0x3 NOT ADD SLT PUSH2 0x294 JUMPI PUSH1 0x4 CALLDATALOAD DUP1 ISZERO ISZERO DUP1 PUSH2 0xD2F JUMPI JUMPDEST ISZERO PUSH2 0xCF6 JUMPI PUSH1 0x0 MSTORE PUSH1 0x6 PUSH1 0x20 MSTORE PUSH1 0x40 PUSH1 0x0 KECCAK256 PUSH1 0x40 MLOAD PUSH2 0xBA6 DUP2 PUSH2 0x34F1 JUMP JUMPDEST DUP2 SLOAD DUP2 MSTORE PUSH1 0x1 DUP3 ADD SLOAD SWAP1 PUSH1 0xFF DUP3 AND PUSH1 0x3 DUP2 LT ISZERO PUSH2 0x9E8 JUMPI PUSH1 0x20 DUP3 ADD MSTORE PUSH1 0xFF DUP3 PUSH1 0x8 SHR AND PUSH1 0x6 DUP2 LT ISZERO PUSH2 0x9E8 JUMPI PUSH1 0x40 DUP3 ADD MSTORE PUSH1 0xFF DUP3 PUSH1 0x10 SHR AND PUSH1 0x60 DUP3 ADD SWAP3 PUSH1 0x4 DUP3 LT ISZERO PUSH2 0x9E8 JUMPI PUSH1 0xFF SWAP2 DUP5 MSTORE PUSH1 0x18 SHR AND ISZERO ISZERO PUSH1 0x80 DUP3 ADD MSTORE PUSH2 0xC08 PUSH1 0x2 DUP5 ADD PUSH2 0x364A JUMP JUMPDEST PUSH1 0xA0 DUP3 ADD MSTORE PUSH2 0xC19 PUSH1 0x9 DUP5 ADD PUSH2 0x36B1 JUMP JUMPDEST PUSH1 0xC0 DUP3 ADD MSTORE PUSH2 0xC2A PUSH1 0xD DUP5 ADD PUSH2 0x36EC JUMP JUMPDEST SWAP3 PUSH1 0xE0 DUP3 ADD SWAP4 DUP5 MSTORE PUSH2 0xC3E PUSH1 0x13 DUP3 ADD PUSH2 0x3564 JUMP JUMPDEST SWAP4 PUSH2 0x100 DUP4 ADD SWAP5 DUP6 MSTORE PUSH2 0xC53 PUSH1 0x14 DUP4 ADD PUSH2 0x3564 JUMP JUMPDEST SWAP3 PUSH2 0x120 DUP2 ADD SWAP4 DUP5 MSTORE PUSH1 0x17 PUSH2 0xC6A PUSH1 0x15 DUP6 ADD PUSH2 0x3564 JUMP JUMPDEST SWAP4 PUSH2 0x140 DUP4 ADD SWAP5 DUP6 MSTORE PUSH1 0x16 DUP2 ADD SLOAD PUSH2 0x160 DUP5 ADD MSTORE ADD SLOAD PUSH2 0x180 DUP3 ADD MSTORE MLOAD SWAP4 MLOAD SWAP5 PUSH1 0x4 DUP7 LT ISZERO PUSH2 0x9E8 JUMPI PUSH2 0xCEC SWAP3 PUSH2 0xCD0 PUSH1 0xA0 PUSH2 0xCDE SWAP4 MLOAD SWAP7 MLOAD SWAP3 MLOAD SWAP5 MLOAD ADD MLOAD SWAP6 PUSH2 0xCBF PUSH1 0x40 MLOAD SWAP10 DUP11 SWAP10 DUP11 MSTORE PUSH1 0x20 DUP11 ADD SWAP1 PUSH2 0x3758 JUMP JUMPDEST PUSH1 0xC0 PUSH1 0x40 DUP10 ADD MSTORE PUSH1 0xC0 DUP9 ADD SWAP1 PUSH2 0x360A JUMP JUMPDEST SWAP1 DUP7 DUP3 SUB PUSH1 0x60 DUP9 ADD MSTORE PUSH2 0x360A JUMP JUMPDEST SWAP1 DUP5 DUP3 SUB PUSH1 0x80 DUP7 ADD MSTORE PUSH2 0x360A JUMP JUMPDEST SWAP1 PUSH1 0xA0 DUP4 ADD MSTORE SUB SWAP1 RETURN JUMPDEST PUSH1 0x40 MLOAD PUSH3 0x461BCD PUSH1 0xE5 SHL DUP2 MSTORE PUSH1 0x20 PUSH1 0x4 DUP3 ADD MSTORE PUSH1 0x11 PUSH1 0x24 DUP3 ADD MSTORE PUSH17 0x141C9BD91D58DD081B9BDD08199BDD5B99 PUSH1 0x7A SHL PUSH1 0x44 DUP3 ADD MSTORE PUSH1 0x64 SWAP1 REVERT JUMPDEST POP PUSH1 0x7 SLOAD DUP2 GT ISZERO PUSH2 0xB88 JUMP JUMPDEST CALLVALUE PUSH2 0x294 JUMPI PUSH1 0x40 CALLDATASIZE PUSH1 0x3 NOT ADD SLT PUSH2 0x294 JUMPI PUSH1 0x4 CALLDATALOAD PUSH1 0x5 DUP2 LT ISZERO PUSH2 0x294 JUMPI PUSH1 0x1 PUSH1 0x1 PUSH1 0x40 SHL SUB PUSH1 0x24 DUP1 CALLDATALOAD DUP3 DUP2 GT PUSH2 0x294 JUMPI PUSH2 0xD79 SWAP1 CALLDATASIZE SWAP1 PUSH1 0x4 ADD PUSH2 0x33D2 JUMP JUMPDEST SWAP2 CALLER PUSH1 0x0 MSTORE PUSH1 0x20 SWAP5 PUSH1 0x4 DUP7 MSTORE PUSH1 0xFF PUSH1 0x40 PUSH1 0x0 KECCAK256 SLOAD AND PUSH1 0x5 DUP2 LT ISZERO PUSH2 0xFB0 JUMPI PUSH2 0xF77 JUMPI PUSH1 0x4 DUP2 EQ PUSH2 0xF33 JUMPI DUP4 ISZERO PUSH2 0xEF7 JUMPI PUSH2 0xDC8 SWAP1 CALLER PUSH1 0x0 MSTORE PUSH1 0x4 DUP8 MSTORE PUSH2 0xDC3 DUP2 PUSH1 0x40 PUSH1 0x0 KECCAK256 PUSH2 0x3803 JUMP JUMPDEST PUSH2 0x3432 JUMP JUMPDEST CALLER PUSH1 0x0 MSTORE DUP6 MSTORE PUSH1 0x32 PUSH1 0x40 PUSH1 0x0 KECCAK256 SSTORE PUSH1 0xE DUP6 MSTORE PUSH1 0x40 PUSH1 0x0 KECCAK256 SWAP4 DUP4 GT PUSH2 0xEE3 JUMPI POP PUSH2 0xDF1 DUP4 SLOAD PUSH2 0x349C JUMP JUMPDEST PUSH1 0x1F DUP2 GT PUSH2 0xE9D JUMPI JUMPDEST POP PUSH1 0x0 SWAP4 PUSH1 0x1F DUP4 GT PUSH1 0x1 EQ PUSH2 0xE39 JUMPI POP SWAP3 DUP2 SWAP3 SWAP4 PUSH1 0x0 SWAP3 PUSH2 0xE2E JUMPI JUMPDEST POP POP PUSH1 0x0 NOT PUSH1 0x3 DUP4 SWAP1 SHL SHR NOT AND PUSH1 0x1 SWAP2 SWAP1 SWAP2 SHL OR SWAP1 SSTORE STOP JUMPDEST ADD CALLDATALOAD SWAP1 POP DUP4 DUP1 PUSH2 0xE16 JUMP JUMPDEST SWAP1 PUSH1 0x1F NOT DUP4 AND SWAP5 DUP5 PUSH1 0x0 MSTORE DUP3 PUSH1 0x0 KECCAK256 SWAP3 PUSH1 0x0 SWAP1 JUMPDEST DUP8 DUP3 LT PUSH2 0xE85 JUMPI POP POP DUP4 PUSH1 0x1 SWAP6 SWAP7 LT PUSH2 0xE6B JUMPI JUMPDEST POP POP POP DUP2 SHL ADD SWAP1 SSTORE STOP JUMPDEST ADD CALLDATALOAD PUSH1 0x0 NOT PUSH1 0x3 DUP5 SWAP1 SHL PUSH1 0xF8 AND SHR NOT AND SWAP1 SSTORE DUP4 DUP1 DUP1 PUSH2 0xE61 JUMP JUMPDEST DUP1 PUSH1 0x1 DUP5 SWAP7 DUP3 SWAP5 SWAP6 DUP8 ADD CALLDATALOAD DUP2 SSTORE ADD SWAP6 ADD SWAP3 ADD SWAP1 PUSH2 0xE4D JUMP JUMPDEST DUP4 PUSH1 0x0 MSTORE DUP5 PUSH1 0x0 KECCAK256 PUSH1 0x1F DUP5 ADD PUSH1 0x5 SHR DUP2 ADD SWAP2 DUP7 DUP6 LT PUSH2 0xED9 JUMPI JUMPDEST PUSH1 0x1F ADD PUSH1 0x5 SHR ADD SWAP1 JUMPDEST DUP2 DUP2 LT PUSH2 0xECD JUMPI POP PUSH2 0xDFA JUMP JUMPDEST PUSH1 0x0 DUP2 SSTORE PUSH1 0x1 ADD PUSH2 0xEC0 JUMP JUMPDEST SWAP1 SWAP2 POP DUP2 SWAP1 PUSH2 0xEB7 JUMP JUMPDEST PUSH4 0x4E487B71 PUSH1 0xE0 SHL PUSH1 0x0 SWAP1 DUP2 MSTORE PUSH1 0x41 PUSH1 0x4 MSTORE REVERT JUMPDEST PUSH1 0x40 MLOAD PUSH3 0x461BCD PUSH1 0xE5 SHL DUP2 MSTORE PUSH1 0x4 DUP2 ADD DUP8 SWAP1 MSTORE PUSH1 0x15 DUP2 DUP5 ADD MSTORE PUSH21 0x11195D185A5B1CC81A185CDA081C995C5D5A5C9959 PUSH1 0x5A SHL PUSH1 0x44 DUP3 ADD MSTORE PUSH1 0x64 SWAP1 REVERT JUMPDEST PUSH1 0x40 MLOAD PUSH3 0x461BCD PUSH1 0xE5 SHL DUP2 MSTORE PUSH1 0x4 DUP2 ADD DUP8 SWAP1 MSTORE PUSH1 0x1D DUP2 DUP5 ADD MSTORE PUSH32 0x43616E6E6F742073656C662D72656769737465722061732061646D696E000000 PUSH1 0x44 DUP3 ADD MSTORE PUSH1 0x64 SWAP1 REVERT JUMPDEST PUSH1 0x40 MLOAD PUSH3 0x461BCD PUSH1 0xE5 SHL DUP2 MSTORE PUSH1 0x4 DUP2 ADD DUP8 SWAP1 MSTORE PUSH1 0x12 DUP2 DUP5 ADD MSTORE PUSH18 0x105B1C9958591E481C9959DA5CDD195C9959 PUSH1 0x72 SHL PUSH1 0x44 DUP3 ADD MSTORE PUSH1 0x64 SWAP1 REVERT JUMPDEST DUP3 PUSH4 0x4E487B71 PUSH1 0xE0 SHL PUSH1 0x0 MSTORE PUSH1 0x21 PUSH1 0x4 MSTORE PUSH1 0x0 REVERT JUMPDEST CALLVALUE PUSH2 0x294 JUMPI PUSH1 0x40 CALLDATASIZE PUSH1 0x3 NOT ADD SLT PUSH2 0x294 JUMPI PUSH1 0x24 CALLDATALOAD PUSH1 0x4 DUP2 LT ISZERO PUSH2 0x294 JUMPI PUSH2 0xFF7 PUSH1 0x1 DUP1 PUSH1 0xA0 SHL SUB PUSH1 0x2 SLOAD AND CALLER EQ PUSH2 0x39A9 JUMP JUMPDEST PUSH1 0x4 CALLDATALOAD PUSH1 0x0 MSTORE PUSH1 0x6 PUSH1 0x20 MSTORE PUSH1 0x1 PUSH1 0x40 PUSH1 0x0 KECCAK256 ADD SWAP1 PUSH3 0xFF0000 DUP3 SLOAD SWAP2 PUSH1 0x10 SHL AND SWAP1 PUSH3 0xFF0000 NOT AND OR SWAP1 SSTORE PUSH1 0x0 DUP1 RETURN JUMPDEST CALLVALUE PUSH2 0x294 JUMPI PUSH1 0x20 DUP1 PUSH1 0x3 NOT CALLDATASIZE ADD SLT PUSH2 0x294 JUMPI PUSH2 0x10D1 SWAP1 PUSH2 0x321 PUSH1 0x1 PUSH1 0x1 PUSH1 0xA0 SHL SUB PUSH2 0x104E PUSH2 0x3377 JUMP JUMPDEST AND SWAP2 DUP3 PUSH1 0x0 MSTORE PUSH1 0x4 DUP2 MSTORE PUSH1 0xFF PUSH1 0x40 PUSH1 0x0 KECCAK256 SLOAD AND SWAP3 PUSH1 0x1 PUSH1 0x0 MSTORE PUSH1 0xC DUP3 MSTORE PUSH1 0x40 PUSH1 0x0 KECCAK256 DUP2 PUSH1 0x0 MSTORE DUP3 MSTORE PUSH1 0x40 PUSH1 0x0 KECCAK256 SLOAD SWAP1 PUSH1 0x2 PUSH1 0x0 MSTORE PUSH1 0xC DUP4 MSTORE PUSH1 0x40 PUSH1 0x0 KECCAK256 DUP2 PUSH1 0x0 MSTORE DUP4 MSTORE PUSH1 0x40 PUSH1 0x0 KECCAK256 SLOAD SWAP1 PUSH1 0x3 PUSH1 0x0 MSTORE PUSH1 0xC DUP5 MSTORE PUSH1 0x40 PUSH1 0x0 KECCAK256 SWAP1 PUSH1 0x0 MSTORE DUP4 MSTORE PUSH1 0x40 PUSH1 0x0 KECCAK256 SLOAD SWAP2 PUSH1 0xE DUP5 MSTORE PUSH2 0x10C4 PUSH1 0x40 PUSH1 0x0 KECCAK256 PUSH2 0x3564 JUMP JUMPDEST SWAP4 PUSH1 0x40 MLOAD SWAP8 DUP9 DUP1 SWAP9 PUSH2 0x348F JUMP JUMPDEST DUP7 ADD MSTORE PUSH1 0x40 DUP6 ADD MSTORE PUSH1 0x60 DUP5 ADD MSTORE PUSH1 0xA0 PUSH1 0x80 DUP5 ADD MSTORE PUSH1 0xA0 DUP4 ADD SWAP1 PUSH2 0x360A JUMP JUMPDEST CALLVALUE PUSH2 0x294 JUMPI PUSH1 0x0 CALLDATASIZE PUSH1 0x3 NOT ADD SLT PUSH2 0x294 JUMPI PUSH1 0x3 SLOAD PUSH1 0x40 MLOAD PUSH1 0x1 PUSH1 0x1 PUSH1 0xA0 SHL SUB SWAP1 SWAP2 AND DUP2 MSTORE PUSH1 0x20 SWAP1 RETURN JUMPDEST CALLVALUE PUSH2 0x294 JUMPI PUSH1 0x40 CALLDATASIZE PUSH1 0x3 NOT ADD SLT PUSH2 0x294 JUMPI PUSH1 0x4 CALLDATALOAD PUSH1 0x24 CALLDATALOAD PUSH1 0x6 DUP2 LT ISZERO PUSH2 0x294 JUMPI PUSH1 0x1 SLOAD CALLER PUSH1 0x1 PUSH1 0x1 PUSH1 0xA0 SHL SUB SWAP2 DUP3 AND EQ SWAP1 DUP2 ISZERO PUSH2 0x11E0 JUMPI JUMPDEST POP ISZERO PUSH2 0x119B JUMPI PUSH1 0x20 PUSH1 0x0 DUP1 MLOAD PUSH1 0x20 PUSH2 0x3A30 DUP4 CODECOPY DUP2 MLOAD SWAP2 MSTORE SWAP2 DUP4 PUSH1 0x0 MSTORE PUSH1 0x6 DUP3 MSTORE PUSH1 0x1 PUSH1 0x40 PUSH1 0x0 KECCAK256 ADD DUP1 SLOAD PUSH2 0xFF00 DUP4 PUSH1 0x8 SHL AND SWAP1 PUSH2 0xFF00 NOT AND OR SWAP1 SSTORE PUSH2 0x1198 PUSH1 0x40 MLOAD DUP1 SWAP3 PUSH2 0x374B JUMP JUMPDEST LOG2 STOP JUMPDEST PUSH1 0x40 MLOAD PUSH3 0x461BCD PUSH1 0xE5 SHL DUP2 MSTORE PUSH1 0x20 PUSH1 0x4 DUP3 ADD MSTORE PUSH1 0x1E PUSH1 0x24 DUP3 ADD MSTORE PUSH32 0x4F6E6C79206261746368206F72207175616C69747920636F6E74726163740000 PUSH1 0x44 DUP3 ADD MSTORE PUSH1 0x64 SWAP1 REVERT JUMPDEST SWAP1 POP PUSH1 0x2 SLOAD AND CALLER EQ DUP4 PUSH2 0x1150 JUMP JUMPDEST CALLVALUE PUSH2 0x294 JUMPI PUSH1 0x0 CALLDATASIZE PUSH1 0x3 NOT ADD SLT PUSH2 0x294 JUMPI PUSH1 0x2 SLOAD PUSH1 0x40 MLOAD PUSH1 0x1 PUSH1 0x1 PUSH1 0xA0 SHL SUB SWAP1 SWAP2 AND DUP2 MSTORE PUSH1 0x20 SWAP1 RETURN JUMPDEST CALLVALUE PUSH2 0x294 JUMPI PUSH1 0x20 CALLDATASIZE PUSH1 0x3 NOT ADD SLT PUSH2 0x294 JUMPI PUSH1 0x40 MLOAD PUSH2 0x1234 DUP2 PUSH2 0x34F1 JUMP JUMPDEST PUSH1 0x0 DUP2 MSTORE PUSH1 0x0 PUSH1 0x20 DUP3 ADD MSTORE PUSH1 0x0 PUSH1 0x40 DUP3 ADD MSTORE PUSH1 0x0 PUSH1 0x60 DUP3 ADD MSTORE PUSH1 0x0 PUSH1 0x80 DUP3 ADD MSTORE PUSH1 0x40 MLOAD PUSH2 0x1260 DUP2 PUSH2 0x34D6 JUMP JUMPDEST PUSH1 0x60 DUP2 MSTORE PUSH1 0x0 PUSH1 0x20 DUP3 ADD MSTORE PUSH1 0x0 PUSH1 0x40 DUP3 ADD MSTORE PUSH1 0x0 PUSH1 0x60 DUP3 ADD MSTORE PUSH1 0x60 PUSH1 0x80 DUP3 ADD MSTORE PUSH1 0x0 PUSH1 0xA0 DUP3 ADD MSTORE PUSH1 0x0 PUSH1 0xC0 DUP3 ADD MSTORE PUSH1 0xA0 DUP3 ADD MSTORE PUSH1 0x40 MLOAD PUSH2 0x129F DUP2 PUSH2 0x350D JUMP JUMPDEST PUSH1 0x0 DUP2 MSTORE PUSH1 0x0 PUSH1 0x20 DUP3 ADD MSTORE PUSH1 0x0 PUSH1 0x40 DUP3 ADD MSTORE PUSH1 0x0 PUSH1 0x60 DUP3 ADD MSTORE PUSH1 0xC0 DUP3 ADD MSTORE PUSH1 0x40 MLOAD PUSH2 0x12C9 DUP2 PUSH2 0x3528 JUMP JUMPDEST PUSH1 0x0 DUP2 MSTORE PUSH1 0x0 PUSH1 0x20 DUP3 ADD MSTORE PUSH1 0x0 PUSH1 0x40 DUP3 ADD MSTORE PUSH1 0x0 PUSH1 0x60 DUP3 ADD MSTORE PUSH1 0x0 PUSH1 0x80 DUP3 ADD MSTORE PUSH1 0x0 PUSH1 0xA0 DUP3 ADD MSTORE PUSH1 0xE0 DUP3 ADD MSTORE PUSH2 0x100 PUSH1 0x60 DUP2 DUP4 ADD MSTORE PUSH2 0x120 PUSH1 0x60 DUP2 DUP5 ADD MSTORE PUSH1 0x0 PUSH2 0x180 PUSH2 0x140 SWAP5 PUSH1 0x60 DUP7 DUP3 ADD MSTORE DUP3 PUSH2 0x160 DUP3 ADD MSTORE ADD MSTORE PUSH1 0x4 CALLDATALOAD PUSH1 0x0 MSTORE PUSH1 0x6 PUSH1 0x20 MSTORE PUSH1 0x40 PUSH1 0x0 KECCAK256 SWAP1 PUSH1 0x40 MLOAD SWAP2 PUSH2 0x133D DUP4 PUSH2 0x34F1 JUMP JUMPDEST DUP1 SLOAD DUP4 MSTORE PUSH1 0x1 DUP2 ADD SLOAD SWAP1 PUSH1 0xFF DUP3 AND PUSH1 0x3 DUP2 LT ISZERO PUSH2 0x9E8 JUMPI PUSH1 0x20 DUP6 ADD MSTORE PUSH1 0xFF DUP3 PUSH1 0x8 SHR AND PUSH1 0x6 DUP2 LT ISZERO PUSH2 0x9E8 JUMPI PUSH1 0x40 DUP6 ADD MSTORE PUSH1 0xFF DUP3 PUSH1 0x10 SHR AND PUSH1 0x4 DUP2 LT ISZERO PUSH2 0x9E8 JUMPI PUSH1 0x17 SWAP3 PUSH1 0xFF SWAP2 PUSH1 0x60 DUP8 ADD MSTORE PUSH1 0x18 SHR AND ISZERO ISZERO PUSH1 0x80 DUP6 ADD MSTORE PUSH2 0x13A0 PUSH1 0x2 DUP3 ADD PUSH2 0x364A JUMP JUMPDEST PUSH1 0xA0 DUP6 ADD MSTORE PUSH2 0x13B1 PUSH1 0x9 DUP3 ADD PUSH2 0x36B1 JUMP JUMPDEST PUSH1 0xC0 DUP6 ADD MSTORE PUSH2 0x13C2 PUSH1 0xD DUP3 ADD PUSH2 0x36EC JUMP JUMPDEST PUSH1 0xE0 DUP6 ADD MSTORE PUSH2 0x13D3 PUSH1 0x13 DUP3 ADD PUSH2 0x3564 JUMP JUMPDEST DUP6 DUP6 ADD MSTORE PUSH2 0x13E3 PUSH1 0x14 DUP3 ADD PUSH2 0x3564 JUMP JUMPDEST DUP4 DUP6 ADD MSTORE PUSH2 0x13F3 PUSH1 0x15 DUP3 ADD PUSH2 0x3564 JUMP JUMPDEST DUP7 DUP6 ADD MSTORE PUSH1 0x16 DUP2 ADD SLOAD PUSH2 0x160 DUP6 ADD MSTORE ADD SLOAD PUSH2 0x180 DUP4 ADD MSTORE PUSH2 0x180 PUSH2 0x154C PUSH1 0x40 MLOAD SWAP6 DUP7 SWAP6 PUSH1 0x20 DUP8 MSTORE DUP6 MLOAD PUSH1 0x20 DUP9 ADD MSTORE PUSH2 0x1433 PUSH1 0x20 DUP8 ADD MLOAD PUSH1 0x40 DUP10 ADD SWAP1 PUSH2 0x373E JUMP JUMPDEST PUSH2 0x1445 PUSH1 0x40 DUP8 ADD MLOAD PUSH1 0x60 DUP10 ADD SWAP1 PUSH2 0x374B JUMP JUMPDEST PUSH2 0x1457 PUSH1 0x60 DUP8 ADD MLOAD PUSH1 0x80 DUP10 ADD SWAP1 PUSH2 0x3758 JUMP JUMPDEST PUSH1 0x80 DUP7 ADD MLOAD ISZERO ISZERO PUSH1 0xA0 DUP9 ADD MSTORE PUSH2 0x1538 PUSH1 0xA0 DUP8 ADD MLOAD SWAP6 PUSH2 0x1524 PUSH2 0x1487 PUSH2 0x2A0 SWAP9 DUP10 PUSH1 0xC0 DUP14 ADD MSTORE PUSH2 0x2C0 DUP13 ADD SWAP1 PUSH2 0x3765 JUMP JUMPDEST PUSH1 0xC0 DUP11 ADD MLOAD DUP1 MLOAD PUSH1 0x1 PUSH1 0x1 PUSH1 0xA0 SHL SUB AND PUSH1 0xE0 DUP14 ADD MSTORE PUSH1 0x20 DUP2 ADD MLOAD PUSH2 0x100 DUP14 ADD MSTORE PUSH1 0x40 DUP2 ADD MLOAD PUSH2 0x120 DUP14 ADD MSTORE PUSH1 0x60 ADD MLOAD PUSH2 0x140 DUP13 ADD MSTORE SWAP4 PUSH1 0xE0 DUP11 ADD MLOAD DUP1 MLOAD PUSH1 0x1 PUSH1 0x1 PUSH1 0xA0 SHL SUB SWAP1 DUP2 AND PUSH2 0x160 DUP15 ADD MSTORE PUSH1 0x20 DUP3 ADD MLOAD PUSH2 0x180 DUP15 ADD MSTORE PUSH1 0x40 DUP3 ADD MLOAD PUSH2 0x1A0 DUP15 ADD MSTORE PUSH1 0x60 DUP3 ADD MLOAD PUSH2 0x1C0 DUP15 ADD MSTORE PUSH1 0x80 DUP3 ADD MLOAD AND PUSH2 0x1E0 DUP14 ADD MSTORE PUSH1 0xA0 ADD MLOAD PUSH2 0x200 DUP13 ADD MSTORE DUP10 ADD MLOAD SWAP4 PUSH1 0x1F NOT SWAP5 DUP6 DUP13 DUP4 SUB ADD PUSH2 0x220 DUP14 ADD MSTORE PUSH2 0x360A JUMP JUMPDEST SWAP1 DUP9 ADD MLOAD DUP4 DUP11 DUP4 SUB ADD PUSH2 0x240 DUP12 ADD MSTORE PUSH2 0x360A JUMP JUMPDEST SWAP2 DUP7 ADD MLOAD SWAP1 DUP8 DUP4 SUB ADD PUSH2 0x260 DUP9 ADD MSTORE PUSH2 0x360A JUMP JUMPDEST SWAP3 PUSH2 0x160 DUP2 ADD MLOAD PUSH2 0x280 DUP7 ADD MSTORE ADD MLOAD SWAP1 DUP4 ADD MSTORE SUB SWAP1 RETURN JUMPDEST CALLVALUE PUSH2 0x294 JUMPI PUSH1 0x20 DUP1 PUSH1 0x3 NOT CALLDATASIZE ADD SLT PUSH2 0x294 JUMPI PUSH1 0x3 SLOAD PUSH1 0x40 MLOAD PUSH4 0x5C975ABB PUSH1 0xE0 SHL DUP2 MSTORE PUSH1 0x1 PUSH1 0x1 PUSH1 0xA0 SHL SUB SWAP2 PUSH1 0x4 DUP1 CALLDATALOAD SWAP3 SWAP2 DUP5 AND SWAP1 DUP6 SWAP1 DUP4 SWAP1 DUP2 DUP5 GAS STATICCALL SWAP1 DUP2 ISZERO PUSH2 0xA2D JUMPI PUSH2 0x15BC DUP7 SWAP3 PUSH1 0x24 SWAP5 PUSH1 0x0 SWAP2 PUSH2 0x1784 JUMPI POP ISZERO PUSH2 0x3833 JUMP JUMPDEST PUSH1 0x40 MLOAD PUSH4 0xDBAC26E9 PUSH1 0xE0 SHL DUP2 MSTORE CALLER PUSH1 0x4 DUP3 ADD MSTORE SWAP3 DUP4 SWAP2 DUP3 SWAP1 GAS STATICCALL DUP1 ISZERO PUSH2 0xA2D JUMPI PUSH2 0x15EE SWAP2 PUSH1 0x0 SWAP2 PUSH2 0x1767 JUMPI POP ISZERO PUSH2 0x386F JUMP JUMPDEST DUP2 PUSH1 0x0 SLOAD AND SWAP2 DUP3 ISZERO PUSH2 0x1722 JUMPI DUP2 PUSH1 0x0 MSTORE PUSH1 0x6 DUP5 MSTORE PUSH1 0xFF PUSH1 0x1 PUSH1 0x40 PUSH1 0x0 KECCAK256 ADD SLOAD PUSH1 0x18 SHR AND ISZERO PUSH2 0x16E8 JUMPI DUP2 PUSH1 0x0 MSTORE PUSH1 0x6 DUP5 MSTORE PUSH1 0x40 PUSH1 0x0 KECCAK256 CALLER DUP3 PUSH1 0x9 DUP4 ADD SLOAD AND EQ SWAP2 DUP3 ISZERO PUSH2 0x16D6 JUMPI JUMPDEST POP POP ISZERO PUSH2 0x16A0 JUMPI PUSH1 0x0 SWAP2 PUSH1 0x24 DUP5 SWAP3 PUSH1 0x40 MLOAD SWAP5 DUP6 SWAP4 DUP5 SWAP3 PUSH4 0xA4F50073 PUSH1 0xE0 SHL DUP5 MSTORE PUSH1 0x4 DUP5 ADD MSTORE GAS CALL SWAP1 DUP2 ISZERO PUSH2 0xA2D JUMPI PUSH1 0x0 SWAP2 PUSH2 0x1673 JUMPI JUMPDEST POP PUSH1 0x40 MLOAD SWAP1 DUP2 MSTORE RETURN JUMPDEST SWAP1 POP DUP2 DUP2 DUP2 RETURNDATASIZE DUP4 GT PUSH2 0x1699 JUMPI JUMPDEST PUSH2 0x168A DUP2 DUP4 PUSH2 0x3543 JUMP JUMPDEST DUP2 ADD SUB SLT PUSH2 0x294 JUMPI MLOAD DUP3 PUSH2 0x166A JUMP JUMPDEST POP RETURNDATASIZE PUSH2 0x1680 JUMP JUMPDEST PUSH1 0x40 MLOAD PUSH3 0x461BCD PUSH1 0xE5 SHL DUP2 MSTORE PUSH1 0x4 DUP2 ADD DUP5 SWAP1 MSTORE PUSH1 0xE PUSH1 0x24 DUP3 ADD MSTORE PUSH14 0x139BDD08185D5D1A1BDC9A5E9959 PUSH1 0x92 SHL PUSH1 0x44 DUP3 ADD MSTORE PUSH1 0x64 SWAP1 REVERT JUMPDEST SWAP1 SWAP2 POP PUSH1 0xD CALLER SWAP3 ADD SLOAD AND EQ DUP5 DUP1 PUSH2 0x1634 JUMP JUMPDEST PUSH1 0x40 MLOAD PUSH3 0x461BCD PUSH1 0xE5 SHL DUP2 MSTORE PUSH1 0x4 DUP2 ADD DUP6 SWAP1 MSTORE PUSH1 0x12 PUSH1 0x24 DUP3 ADD MSTORE PUSH18 0x50726F64756374206E6F7420616374697665 PUSH1 0x70 SHL PUSH1 0x44 DUP3 ADD MSTORE PUSH1 0x64 SWAP1 REVERT JUMPDEST PUSH1 0x40 MLOAD PUSH3 0x461BCD PUSH1 0xE5 SHL DUP2 MSTORE PUSH1 0x4 DUP2 ADD DUP6 SWAP1 MSTORE PUSH1 0x1A PUSH1 0x24 DUP3 ADD MSTORE PUSH32 0x54656D7065726174757265206F7261636C65206E6F7420736574000000000000 PUSH1 0x44 DUP3 ADD MSTORE PUSH1 0x64 SWAP1 REVERT JUMPDEST PUSH2 0x177E SWAP2 POP DUP6 RETURNDATASIZE DUP8 GT PUSH2 0xA26 JUMPI PUSH2 0xA18 DUP2 DUP4 PUSH2 0x3543 JUMP JUMPDEST DUP6 PUSH2 0x5B9 JUMP JUMPDEST PUSH2 0x179B SWAP2 POP DUP5 RETURNDATASIZE DUP7 GT PUSH2 0xA26 JUMPI PUSH2 0xA18 DUP2 DUP4 PUSH2 0x3543 JUMP JUMPDEST DUP9 PUSH2 0x586 JUMP JUMPDEST CALLVALUE PUSH2 0x294 JUMPI PUSH1 0x0 CALLDATASIZE PUSH1 0x3 NOT ADD SLT PUSH2 0x294 JUMPI PUSH1 0x0 SLOAD PUSH1 0x40 MLOAD PUSH1 0x1 PUSH1 0x1 PUSH1 0xA0 SHL SUB SWAP1 SWAP2 AND DUP2 MSTORE PUSH1 0x20 SWAP1 RETURN JUMPDEST CALLVALUE PUSH2 0x294 JUMPI PUSH2 0x17D8 CALLDATASIZE PUSH2 0x3479 JUMP JUMPDEST SWAP1 PUSH2 0x17EE PUSH1 0x1 DUP1 PUSH1 0xA0 SHL SUB PUSH1 0x1 SLOAD AND CALLER EQ PUSH2 0x39ED JUMP JUMPDEST PUSH1 0x0 MSTORE PUSH1 0x6 PUSH1 0x20 MSTORE PUSH1 0x17 PUSH1 0x40 PUSH1 0x0 KECCAK256 ADD SSTORE PUSH1 0x0 DUP1 RETURN JUMPDEST CALLVALUE PUSH2 0x294 JUMPI PUSH1 0x20 CALLDATASIZE PUSH1 0x3 NOT ADD SLT PUSH2 0x294 JUMPI PUSH1 0x4 CALLDATALOAD PUSH1 0x0 MSTORE PUSH1 0x9 PUSH1 0x20 MSTORE PUSH1 0xE0 PUSH1 0x40 PUSH1 0x0 KECCAK256 DUP1 SLOAD SWAP1 PUSH1 0x1 DUP1 PUSH1 0xA0 SHL SUB SWAP1 DUP2 PUSH1 0x1 DUP3 ADD SLOAD AND SWAP2 PUSH1 0x2 DUP3 ADD SLOAD AND PUSH1 0x3 DUP3 ADD SLOAD PUSH1 0x4 DUP4 ADD SLOAD SWAP2 PUSH1 0x6 PUSH1 0x5 DUP6 ADD SLOAD SWAP5 ADD SLOAD SWAP5 PUSH1 0x40 MLOAD SWAP7 DUP8 MSTORE PUSH1 0x20 DUP8 ADD MSTORE PUSH1 0x40 DUP7 ADD MSTORE PUSH1 0x60 DUP6 ADD MSTORE PUSH1 0x80 DUP5 ADD MSTORE PUSH1 0xA0 DUP4 ADD MSTORE PUSH1 0xC0 DUP3 ADD MSTORE RETURN JUMPDEST CALLVALUE PUSH2 0x294 JUMPI PUSH1 0x20 CALLDATASIZE PUSH1 0x3 NOT ADD SLT PUSH2 0x294 JUMPI PUSH1 0x1 PUSH1 0x1 PUSH1 0xA0 SHL SUB PUSH2 0x189D PUSH2 0x3377 JUMP JUMPDEST AND PUSH1 0x0 MSTORE PUSH1 0x4 PUSH1 0x20 MSTORE PUSH1 0x20 PUSH1 0xFF PUSH1 0x40 PUSH1 0x0 KECCAK256 SLOAD AND PUSH2 0x18BE PUSH1 0x40 MLOAD DUP1 SWAP3 PUSH2 0x348F JUMP JUMPDEST RETURN JUMPDEST CALLVALUE PUSH2 0x294 JUMPI PUSH1 0x80 CALLDATASIZE PUSH1 0x3 NOT ADD SLT PUSH2 0x294 JUMPI PUSH2 0x18D9 PUSH2 0x338D JUMP JUMPDEST PUSH1 0x1 SLOAD PUSH1 0x1 PUSH1 0x1 PUSH1 0xA0 SHL SUB SWAP2 SWAP1 PUSH2 0x18F3 SWAP1 DUP4 AND CALLER EQ PUSH2 0x39ED JUMP JUMPDEST PUSH1 0x4 CALLDATALOAD PUSH1 0x0 MSTORE PUSH1 0x6 PUSH1 0x20 MSTORE PUSH1 0x40 PUSH1 0x0 KECCAK256 SWAP2 PUSH1 0xD DUP4 ADD SWAP2 AND PUSH1 0x1 PUSH1 0x1 PUSH1 0x60 SHL SUB PUSH1 0xA0 SHL DUP3 SLOAD AND OR SWAP1 SSTORE PUSH1 0x44 CALLDATALOAD PUSH1 0xE DUP3 ADD SSTORE PUSH1 0xF PUSH1 0x64 CALLDATALOAD SWAP2 ADD SSTORE PUSH1 0x0 DUP1 RETURN JUMPDEST CALLVALUE PUSH2 0x294 JUMPI PUSH1 0x0 CALLDATASIZE PUSH1 0x3 NOT ADD SLT PUSH2 0x294 JUMPI PUSH1 0x20 PUSH1 0x8 SLOAD PUSH1 0x40 MLOAD SWAP1 DUP2 MSTORE RETURN JUMPDEST CALLVALUE PUSH2 0x294 JUMPI PUSH1 0x40 CALLDATASIZE PUSH1 0x3 NOT ADD SLT PUSH2 0x294 JUMPI PUSH2 0x1967 PUSH2 0x3377 JUMP JUMPDEST PUSH1 0x1 SLOAD PUSH1 0x1 PUSH1 0x1 PUSH1 0xA0 SHL SUB SWAP2 SWAP1 PUSH2 0x1981 SWAP1 DUP4 AND CALLER EQ PUSH2 0x39ED JUMP JUMPDEST AND PUSH1 0x0 MSTORE PUSH1 0xB PUSH1 0x20 MSTORE PUSH2 0x199A PUSH1 0x24 CALLDATALOAD PUSH1 0x40 PUSH1 0x0 KECCAK256 PUSH2 0x3912 JUMP JUMPDEST STOP JUMPDEST CALLVALUE PUSH2 0x294 JUMPI PUSH1 0x20 CALLDATASIZE PUSH1 0x3 NOT ADD SLT PUSH2 0x294 JUMPI PUSH2 0x19B5 PUSH2 0x3377 JUMP JUMPDEST CALLER PUSH1 0x0 MSTORE PUSH1 0x4 PUSH1 0x20 MSTORE PUSH1 0xFF PUSH1 0x40 PUSH1 0x0 KECCAK256 SLOAD AND PUSH1 0x5 DUP2 LT ISZERO PUSH2 0x9E8 JUMPI PUSH1 0x4 PUSH2 0x19DC SWAP2 EQ PUSH2 0x37CA JUMP JUMPDEST PUSH1 0x0 DUP1 SLOAD PUSH1 0x1 PUSH1 0x1 PUSH1 0xA0 SHL SUB NOT AND PUSH1 0x1 PUSH1 0x1 PUSH1 0xA0 SHL SUB SWAP3 SWAP1 SWAP3 AND SWAP2 SWAP1 SWAP2 OR SWAP1 SSTORE STOP JUMPDEST CALLVALUE PUSH2 0x294 JUMPI PUSH1 0x20 DUP1 PUSH1 0x3 NOT CALLDATASIZE ADD SLT PUSH2 0x294 JUMPI PUSH1 0x4 CALLDATALOAD SWAP1 PUSH1 0x1 DUP1 PUSH1 0xA0 SHL SUB DUP1 PUSH1 0x3 SLOAD AND PUSH1 0x40 MLOAD SWAP1 PUSH4 0x5C975ABB PUSH1 0xE0 SHL DUP3 MSTORE DUP4 DUP3 PUSH1 0x4 DUP2 DUP5 GAS STATICCALL SWAP1 DUP2 ISZERO PUSH2 0xA2D JUMPI PUSH2 0x1A53 DUP6 SWAP3 PUSH1 0x24 SWAP5 PUSH1 0x0 SWAP2 PUSH2 0x1784 JUMPI POP ISZERO PUSH2 0x3833 JUMP JUMPDEST PUSH1 0x40 MLOAD PUSH4 0xDBAC26E9 PUSH1 0xE0 SHL DUP2 MSTORE CALLER PUSH1 0x4 DUP3 ADD MSTORE SWAP3 DUP4 SWAP2 DUP3 SWAP1 GAS STATICCALL DUP1 ISZERO PUSH2 0xA2D JUMPI PUSH2 0x1A85 SWAP2 PUSH1 0x0 SWAP2 PUSH2 0x1B67 JUMPI POP ISZERO PUSH2 0x386F JUMP JUMPDEST DUP3 PUSH1 0x0 MSTORE PUSH1 0x6 DUP3 MSTORE CALLER SWAP1 PUSH1 0xD PUSH1 0x40 PUSH1 0x0 KECCAK256 ADD SLOAD AND SUB PUSH2 0x1B33 JUMPI DUP2 PUSH1 0x0 MSTORE PUSH1 0x6 DUP2 MSTORE PUSH1 0xFF PUSH1 0x1 PUSH1 0x40 PUSH1 0x0 KECCAK256 ADD SLOAD PUSH1 0x8 SHR AND PUSH1 0x6 DUP2 LT ISZERO PUSH2 0x9E8 JUMPI PUSH1 0x2 SUB PUSH2 0x1AFC JUMPI PUSH1 0x0 DUP1 MLOAD PUSH1 0x20 PUSH2 0x3A30 DUP4 CODECOPY DUP2 MLOAD SWAP2 MSTORE SWAP1 DUP3 PUSH1 0x0 MSTORE PUSH1 0x6 DUP2 MSTORE PUSH1 0x1 PUSH1 0x40 PUSH1 0x0 KECCAK256 ADD PUSH2 0x400 PUSH2 0xFF00 NOT DUP3 SLOAD AND OR SWAP1 SSTORE PUSH1 0x40 MLOAD PUSH1 0x4 DUP2 MSTORE LOG2 STOP JUMPDEST PUSH1 0x64 SWAP1 PUSH1 0x40 MLOAD SWAP1 PUSH3 0x461BCD PUSH1 0xE5 SHL DUP3 MSTORE PUSH1 0x4 DUP3 ADD MSTORE PUSH1 0x10 PUSH1 0x24 DUP3 ADD MSTORE PUSH16 0x135D5CDD081899481D995C9A599A5959 PUSH1 0x82 SHL PUSH1 0x44 DUP3 ADD MSTORE REVERT JUMPDEST PUSH1 0x64 SWAP1 PUSH1 0x40 MLOAD SWAP1 PUSH3 0x461BCD PUSH1 0xE5 SHL DUP3 MSTORE PUSH1 0x4 DUP3 ADD MSTORE PUSH1 0xD PUSH1 0x24 DUP3 ADD MSTORE PUSH13 0x27B7363C903932BA30B4B632B9 PUSH1 0x99 SHL PUSH1 0x44 DUP3 ADD MSTORE REVERT JUMPDEST PUSH2 0x177E SWAP2 POP DUP5 RETURNDATASIZE DUP7 GT PUSH2 0xA26 JUMPI PUSH2 0xA18 DUP2 DUP4 PUSH2 0x3543 JUMP JUMPDEST CALLVALUE PUSH2 0x294 JUMPI PUSH1 0x20 CALLDATASIZE PUSH1 0x3 NOT ADD SLT PUSH2 0x294 JUMPI PUSH1 0x4 CALLDATALOAD PUSH1 0x0 MSTORE PUSH1 0x6 PUSH1 0x20 MSTORE PUSH1 0x40 PUSH1 0x0 KECCAK256 DUP1 SLOAD PUSH1 0x1 DUP3 ADD SLOAD SWAP2 PUSH1 0x2 DUP2 ADD PUSH2 0x1BB4 SWAP1 PUSH2 0x364A JUMP JUMPDEST PUSH2 0x1BC0 PUSH1 0x9 DUP4 ADD PUSH2 0x36B1 JUMP JUMPDEST PUSH2 0x1BCC PUSH1 0xD DUP5 ADD PUSH2 0x36EC JUMP JUMPDEST SWAP1 PUSH2 0x1BD9 PUSH1 0x13 DUP6 ADD PUSH2 0x3564 JUMP JUMPDEST PUSH2 0x1BE5 PUSH1 0x14 DUP7 ADD PUSH2 0x3564 JUMP JUMPDEST SWAP2 PUSH2 0x1BF2 PUSH1 0x15 DUP8 ADD PUSH2 0x3564 JUMP JUMPDEST SWAP4 PUSH1 0x16 DUP8 ADD SLOAD SWAP7 PUSH1 0x17 ADD SLOAD SWAP6 PUSH1 0x40 MLOAD SWAP10 DUP11 SWAP10 DUP11 MSTORE PUSH1 0x20 DUP11 ADD PUSH1 0xFF DUP3 AND SWAP1 PUSH2 0x1C18 SWAP2 PUSH2 0x373E JUMP JUMPDEST PUSH2 0x1C2C PUSH1 0x40 DUP12 ADD PUSH1 0xFF PUSH1 0x8 DUP5 SWAP1 SHR AND PUSH2 0x374B JUMP JUMPDEST PUSH2 0x1C40 PUSH1 0x60 DUP12 ADD PUSH1 0xFF PUSH1 0x10 DUP5 SWAP1 SHR AND PUSH2 0x3758 JUMP JUMPDEST PUSH1 0x18 SHR PUSH1 0xFF AND ISZERO ISZERO PUSH1 0x80 DUP11 ADD MSTORE PUSH2 0x2A0 DUP1 PUSH1 0xA0 DUP12 ADD MSTORE DUP10 ADD PUSH2 0x1C61 SWAP2 PUSH2 0x3765 JUMP JUMPDEST DUP3 MLOAD PUSH1 0x1 PUSH1 0x1 PUSH1 0xA0 SHL SUB AND PUSH1 0xC0 DUP11 ADD MSTORE PUSH1 0x20 DUP4 ADD MLOAD PUSH1 0xE0 DUP11 ADD MSTORE PUSH1 0x40 DUP4 ADD MLOAD PUSH2 0x100 DUP11 ADD MSTORE PUSH1 0x60 SWAP1 SWAP3 ADD MLOAD PUSH2 0x120 DUP10 ADD MSTORE DUP1 MLOAD PUSH1 0x1 PUSH1 0x1 PUSH1 0xA0 SHL SUB SWAP1 DUP2 AND PUSH2 0x140 DUP11 ADD MSTORE PUSH1 0x20 DUP3 ADD MLOAD PUSH2 0x160 DUP11 ADD MSTORE PUSH1 0x40 DUP3 ADD MLOAD PUSH2 0x180 DUP11 ADD MSTORE PUSH1 0x60 DUP3 ADD MLOAD PUSH2 0x1A0 DUP11 ADD MSTORE PUSH1 0x80 DUP3 ADD MLOAD AND PUSH2 0x1C0 DUP10 ADD MSTORE PUSH1 0xA0 ADD MLOAD PUSH2 0x1E0 DUP9 ADD MSTORE DUP7 DUP2 SUB PUSH2 0x200 DUP9 ADD MSTORE PUSH2 0x1CEE SWAP2 PUSH2 0x360A JUMP JUMPDEST DUP6 DUP2 SUB PUSH2 0x220 DUP8 ADD MSTORE PUSH2 0x1D00 SWAP2 PUSH2 0x360A JUMP JUMPDEST DUP5 DUP2 SUB PUSH2 0x240 DUP7 ADD MSTORE PUSH2 0x1D12 SWAP2 PUSH2 0x360A JUMP JUMPDEST SWAP2 PUSH2 0x260 DUP5 ADD MSTORE PUSH2 0x280 DUP4 ADD MSTORE SUB SWAP1 RETURN JUMPDEST CALLVALUE PUSH2 0x294 JUMPI PUSH2 0x1D31 CALLDATASIZE PUSH2 0x33FF JUMP JUMPDEST PUSH1 0x3 SLOAD PUSH1 0x40 MLOAD PUSH4 0x5C975ABB PUSH1 0xE0 SHL DUP2 MSTORE PUSH1 0x20 SWAP5 SWAP4 SWAP2 PUSH1 0x1 PUSH1 0x1 PUSH1 0xA0 SHL SUB SWAP2 SWAP1 DUP3 AND DUP7 DUP3 PUSH1 0x4 DUP2 DUP5 GAS STATICCALL SWAP1 DUP2 ISZERO PUSH2 0xA2D JUMPI PUSH2 0x1D77 DUP9 SWAP3 PUSH1 0x24 SWAP5 PUSH1 0x0 SWAP2 PUSH2 0x1FC3 JUMPI POP ISZERO PUSH2 0x3833 JUMP JUMPDEST PUSH1 0x40 MLOAD PUSH4 0xDBAC26E9 PUSH1 0xE0 SHL DUP2 MSTORE CALLER PUSH1 0x4 DUP3 ADD MSTORE SWAP3 DUP4 SWAP2 DUP3 SWAP1 GAS STATICCALL DUP1 ISZERO PUSH2 0xA2D JUMPI PUSH2 0x1DA9 SWAP2 PUSH1 0x0 SWAP2 PUSH2 0x1FA6 JUMPI POP ISZERO PUSH2 0x386F JUMP JUMPDEST DUP4 PUSH1 0x0 MSTORE PUSH1 0x6 DUP6 MSTORE CALLER SWAP1 PUSH1 0x3 PUSH1 0x40 PUSH1 0x0 KECCAK256 ADD SLOAD AND SUB PUSH2 0x1F73 JUMPI DUP3 PUSH1 0x0 MSTORE PUSH1 0x6 DUP5 MSTORE PUSH1 0x1 PUSH2 0x1DE2 PUSH1 0xFF DUP3 PUSH1 0x40 PUSH1 0x0 KECCAK256 ADD SLOAD PUSH1 0x18 SHR AND PUSH2 0x38D3 JUMP JUMPDEST DUP4 PUSH1 0x0 MSTORE PUSH1 0x6 DUP6 MSTORE PUSH1 0x13 PUSH1 0x40 PUSH1 0x0 KECCAK256 ADD SWAP1 PUSH1 0x1 PUSH1 0x1 PUSH1 0x40 SHL SUB DUP5 GT PUSH2 0x89C JUMPI PUSH2 0x1E0B DUP3 SLOAD PUSH2 0x349C JUMP JUMPDEST PUSH1 0x1F DUP2 GT PUSH2 0x1F2A JUMPI JUMPDEST POP PUSH1 0x0 PUSH1 0x1F DUP6 GT PUSH1 0x1 EQ PUSH2 0x1EA0 JUMPI PUSH32 0x540105FF02EED8665666E5B20A0955668C4452DD216F3F7846996F9057B8E093 SWAP6 SWAP7 PUSH1 0x60 SWAP5 SWAP4 DUP7 DUP1 DUP1 SWAP6 PUSH1 0x0 SWAP6 DUP7 SWAP4 PUSH2 0x1E95 JUMPI JUMPDEST POP SHL SWAP1 DUP5 NOT DUP7 PUSH1 0x3 SHL SHR NOT AND OR SWAP1 SSTORE JUMPDEST PUSH1 0x40 MLOAD SWAP6 DUP7 SWAP5 PUSH1 0x40 DUP7 MSTORE DUP2 PUSH1 0x40 DUP8 ADD MSTORE DUP7 DUP7 ADD CALLDATACOPY DUP4 DUP4 ADD DUP6 ADD DUP3 SWAP1 MSTORE DUP4 ADD MSTORE PUSH1 0x1F ADD PUSH1 0x1F NOT AND DUP2 ADD SUB ADD SWAP1 LOG2 STOP JUMPDEST DUP9 ADD CALLDATALOAD SWAP3 POP DUP13 PUSH2 0x1E57 JUMP JUMPDEST PUSH1 0x1F NOT DUP6 AND SWAP1 DUP4 PUSH1 0x0 MSTORE DUP8 PUSH1 0x0 KECCAK256 SWAP2 PUSH1 0x0 JUMPDEST DUP2 DUP2 LT PUSH2 0x1F15 JUMPI POP SWAP4 DUP7 SWAP4 PUSH1 0x0 SWAP4 PUSH32 0x540105FF02EED8665666E5B20A0955668C4452DD216F3F7846996F9057B8E093 SWAP10 SWAP11 SWAP4 DUP7 PUSH1 0x60 SWAP10 SWAP9 LT PUSH2 0x1EFC JUMPI JUMPDEST POP POP DUP5 DUP2 SHL ADD SWAP1 SSTORE PUSH2 0x1E67 JUMP JUMPDEST DUP6 NOT PUSH1 0xF8 DUP9 PUSH1 0x3 SHL AND SHR NOT SWAP1 DUP9 ADD CALLDATALOAD AND SWAP1 SSTORE DUP11 DUP1 PUSH2 0x1EEF JUMP JUMPDEST DUP7 DUP4 ADD CALLDATALOAD DUP5 SSTORE SWAP3 DUP5 ADD SWAP3 SWAP2 DUP10 ADD SWAP2 DUP10 ADD PUSH2 0x1EB2 JUMP JUMPDEST DUP3 PUSH1 0x0 MSTORE DUP7 PUSH1 0x0 KECCAK256 PUSH1 0x1F DUP7 ADD PUSH1 0x5 SHR DUP2 ADD SWAP2 DUP9 DUP8 LT PUSH2 0x1F69 JUMPI JUMPDEST PUSH1 0x1F ADD PUSH1 0x5 SHR ADD SWAP1 DUP3 SWAP1 JUMPDEST DUP3 DUP2 LT PUSH2 0x1F5D JUMPI POP POP PUSH2 0x1E14 JUMP JUMPDEST PUSH1 0x0 DUP2 SSTORE ADD DUP3 SWAP1 PUSH2 0x1F4F JUMP JUMPDEST SWAP1 SWAP2 POP DUP2 SWAP1 PUSH2 0x1F44 JUMP JUMPDEST PUSH1 0x40 MLOAD PUSH3 0x461BCD PUSH1 0xE5 SHL DUP2 MSTORE PUSH1 0x4 DUP2 ADD DUP6 SWAP1 MSTORE PUSH1 0xB PUSH1 0x24 DUP3 ADD MSTORE PUSH11 0x27B7363C903330B936B2B9 PUSH1 0xA9 SHL PUSH1 0x44 DUP3 ADD MSTORE PUSH1 0x64 SWAP1 REVERT JUMPDEST PUSH2 0x1FBD SWAP2 POP DUP8 RETURNDATASIZE DUP10 GT PUSH2 0xA26 JUMPI PUSH2 0xA18 DUP2 DUP4 PUSH2 0x3543 JUMP JUMPDEST DUP8 PUSH2 0x5B9 JUMP JUMPDEST PUSH2 0x1FDA SWAP2 POP DUP5 RETURNDATASIZE DUP7 GT PUSH2 0xA26 JUMPI PUSH2 0xA18 DUP2 DUP4 PUSH2 0x3543 JUMP JUMPDEST DUP11 PUSH2 0x586 JUMP JUMPDEST CALLVALUE PUSH2 0x294 JUMPI PUSH1 0x20 CALLDATASIZE PUSH1 0x3 NOT ADD SLT PUSH2 0x294 JUMPI PUSH2 0x1FF9 PUSH2 0x3377 JUMP JUMPDEST CALLER PUSH1 0x0 MSTORE PUSH1 0x4 PUSH1 0x20 MSTORE PUSH1 0xFF PUSH1 0x40 PUSH1 0x0 KECCAK256 SLOAD AND PUSH1 0x5 DUP2 LT ISZERO PUSH2 0x9E8 JUMPI PUSH1 0x4 PUSH2 0x2020 SWAP2 EQ PUSH2 0x37CA JUMP JUMPDEST PUSH1 0x2 DUP1 SLOAD PUSH1 0x1 PUSH1 0x1 PUSH1 0xA0 SHL SUB NOT AND PUSH1 0x1 PUSH1 0x1 PUSH1 0xA0 SHL SUB SWAP3 SWAP1 SWAP3 AND SWAP2 SWAP1 SWAP2 OR SWAP1 SSTORE STOP JUMPDEST CALLVALUE PUSH2 0x294 JUMPI PUSH1 0x40 CALLDATASIZE PUSH1 0x3 NOT ADD SLT PUSH2 0x294 JUMPI PUSH2 0x205B PUSH2 0x3377 JUMP JUMPDEST PUSH1 0x1 PUSH1 0x1 PUSH1 0xA0 SHL SUB AND PUSH1 0x0 SWAP1 DUP2 MSTORE PUSH1 0xD PUSH1 0x20 MSTORE PUSH1 0x40 SWAP1 KECCAK256 DUP1 SLOAD PUSH1 0x24 CALLDATALOAD SWAP2 SWAP1 DUP3 LT ISZERO PUSH2 0x294 JUMPI PUSH1 0x20 SWAP2 PUSH2 0x208C SWAP2 PUSH2 0x344B JUMP JUMPDEST SWAP1 SLOAD PUSH1 0x40 MLOAD SWAP2 PUSH1 0x3 SHL SHR DUP2 MSTORE RETURN JUMPDEST CALLVALUE PUSH2 0x294 JUMPI PUSH2 0x20A8 CALLDATASIZE PUSH2 0x3479 JUMP JUMPDEST PUSH1 0x3 SLOAD PUSH1 0x40 MLOAD PUSH4 0x5C975ABB PUSH1 0xE0 SHL DUP2 MSTORE PUSH1 0x20 SWAP4 SWAP3 SWAP1 SWAP2 PUSH1 0x1 PUSH1 0x1 PUSH1 0xA0 SHL SUB SWAP1 DUP2 AND DUP6 DUP5 PUSH1 0x4 DUP2 DUP5 GAS STATICCALL SWAP4 DUP5 ISZERO PUSH2 0xA2D JUMPI DUP7 SWAP5 PUSH2 0x20EC SWAP2 PUSH1 0x0 SWAP2 PUSH2 0x242D JUMPI POP ISZERO PUSH2 0x3833 JUMP JUMPDEST PUSH1 0x40 MLOAD SWAP6 DUP7 DUP1 SWAP3 PUSH4 0xDBAC26E9 PUSH1 0xE0 SHL DUP3 MSTORE CALLER PUSH1 0x4 DUP4 ADD MSTORE PUSH1 0x24 SWAP9 DUP10 SWAP2 GAS STATICCALL DUP1 ISZERO PUSH2 0xA2D JUMPI PUSH2 0x2122 SWAP2 PUSH1 0x0 SWAP2 PUSH2 0x2416 JUMPI POP ISZERO PUSH2 0x386F JUMP JUMPDEST CALLER PUSH1 0x0 MSTORE PUSH1 0x4 DUP4 MSTORE PUSH1 0xFF PUSH1 0x40 PUSH1 0x0 KECCAK256 SLOAD AND PUSH1 0x5 DUP2 LT ISZERO PUSH2 0x2401 JUMPI PUSH1 0x2 SUB PUSH2 0x23BD JUMPI DUP4 PUSH1 0x0 MSTORE PUSH1 0x6 DUP1 DUP5 MSTORE PUSH1 0x1 SWAP3 PUSH1 0xFF DUP5 PUSH1 0x40 PUSH1 0x0 KECCAK256 ADD SLOAD AND PUSH1 0x3 DUP2 LT ISZERO PUSH2 0x23A8 JUMPI PUSH2 0x236F JUMPI DUP6 PUSH1 0x0 MSTORE DUP2 DUP6 MSTORE DUP4 PUSH1 0x40 PUSH1 0x0 KECCAK256 ADD SLOAD SWAP3 PUSH1 0xFF PUSH1 0x8 SWAP5 DUP6 SHR AND DUP4 DUP2 LT ISZERO PUSH2 0x235A JUMPI PUSH2 0x2316 JUMPI DUP7 PUSH1 0x0 MSTORE DUP3 DUP7 MSTORE PUSH2 0x21A8 PUSH1 0xFF DUP7 PUSH1 0x40 PUSH1 0x0 KECCAK256 ADD SLOAD PUSH1 0x18 SHR AND PUSH2 0x38D3 JUMP JUMPDEST DUP2 ISZERO PUSH2 0x22E2 JUMPI SWAP2 PUSH1 0x0 DUP1 MLOAD PUSH1 0x20 PUSH2 0x3A30 DUP4 CODECOPY DUP2 MLOAD SWAP2 MSTORE SWAP6 SWAP5 SWAP4 SWAP2 PUSH2 0x229A SWAP4 DUP9 PUSH1 0x0 MSTORE DUP3 DUP8 MSTORE PUSH1 0x40 PUSH1 0x0 KECCAK256 SWAP1 PUSH1 0x3 DUP3 ADD SLOAD AND SWAP6 DUP1 DUP3 ADD DUP2 PUSH2 0xFFFF NOT DUP3 SLOAD AND OR SWAP1 SSTORE PUSH1 0x9 DUP3 ADD SWAP2 PUSH1 0x1 PUSH1 0x1 PUSH1 0x60 SHL SUB PUSH1 0xA0 SHL SWAP3 CALLER DUP5 DUP3 SLOAD AND OR SWAP1 SSTORE DUP4 PUSH1 0xA DUP3 ADD SSTORE PUSH1 0xB TIMESTAMP SWAP2 ADD SSTORE PUSH2 0x2217 DUP6 SLOAD PUSH2 0x38AE JUMP JUMPDEST DUP1 DUP7 SSTORE DUP11 PUSH1 0x0 MSTORE DUP5 DUP10 MSTORE DUP1 PUSH1 0x16 PUSH1 0x40 PUSH1 0x0 KECCAK256 ADD SSTORE DUP1 PUSH1 0x0 MSTORE PUSH1 0x9 DUP10 MSTORE PUSH1 0x40 PUSH1 0x0 KECCAK256 SWAP1 DUP2 SSTORE ADD DUP7 DUP3 DUP3 SLOAD AND OR SWAP1 SSTORE DUP4 SLOAD PUSH1 0x0 MSTORE PUSH1 0x2 PUSH1 0x40 PUSH1 0x0 KECCAK256 ADD SWAP1 CALLER SWAP1 DUP3 SLOAD AND OR SWAP1 SSTORE DUP3 SLOAD PUSH1 0x0 MSTORE DUP8 PUSH1 0x3 PUSH1 0x40 PUSH1 0x0 KECCAK256 ADD SSTORE DUP3 SLOAD PUSH1 0x0 MSTORE PUSH1 0x5 PUSH1 0x40 PUSH1 0x0 KECCAK256 ADD SSTORE DUP2 SLOAD PUSH1 0x0 MSTORE TIMESTAMP SWAP1 PUSH1 0x40 PUSH1 0x0 KECCAK256 ADD SSTORE CALLER PUSH1 0x0 MSTORE PUSH1 0xA DUP5 MSTORE PUSH1 0x40 PUSH1 0x0 KECCAK256 SWAP1 SLOAD SWAP1 PUSH2 0x3912 JUMP JUMPDEST DUP1 PUSH1 0x0 MSTORE PUSH1 0xD DUP3 MSTORE PUSH2 0x22B0 DUP5 PUSH1 0x40 PUSH1 0x0 KECCAK256 PUSH2 0x3912 JUMP JUMPDEST PUSH1 0x40 MLOAD SWAP1 CALLER DUP6 PUSH32 0x405B8E92032184041314DCDDF305E0D97D13B103D3FA162EB2B1C760760BDC0A PUSH1 0x0 DUP1 LOG4 PUSH1 0x0 DUP2 MSTORE LOG2 STOP JUMPDEST PUSH1 0x40 MLOAD PUSH3 0x461BCD PUSH1 0xE5 SHL DUP2 MSTORE PUSH1 0x4 DUP2 ADD DUP8 SWAP1 MSTORE PUSH1 0xD DUP2 DUP11 ADD MSTORE PUSH13 0x496E76616C6964207072696365 PUSH1 0x98 SHL PUSH1 0x44 DUP3 ADD MSTORE PUSH1 0x64 SWAP1 REVERT JUMPDEST PUSH1 0x40 MLOAD PUSH3 0x461BCD PUSH1 0xE5 SHL DUP2 MSTORE PUSH1 0x4 DUP2 ADD DUP8 SWAP1 MSTORE PUSH1 0x1A DUP2 DUP11 ADD MSTORE PUSH32 0x4E6F7420617661696C61626C6520666F72207075726368617365000000000000 PUSH1 0x44 DUP3 ADD MSTORE PUSH1 0x64 SWAP1 REVERT JUMPDEST DUP9 PUSH4 0x4E487B71 PUSH1 0xE0 SHL PUSH1 0x0 MSTORE PUSH1 0x21 PUSH1 0x4 MSTORE PUSH1 0x0 REVERT JUMPDEST PUSH1 0x40 MLOAD PUSH3 0x461BCD PUSH1 0xE5 SHL DUP2 MSTORE PUSH1 0x4 DUP2 ADD DUP7 SWAP1 MSTORE PUSH1 0x12 DUP2 DUP10 ADD MSTORE PUSH18 0x4D757374206265204641524D207374616765 PUSH1 0x70 SHL PUSH1 0x44 DUP3 ADD MSTORE PUSH1 0x64 SWAP1 REVERT JUMPDEST DUP8 PUSH4 0x4E487B71 PUSH1 0xE0 SHL PUSH1 0x0 MSTORE PUSH1 0x21 PUSH1 0x4 MSTORE PUSH1 0x0 REVERT JUMPDEST PUSH1 0x40 MLOAD PUSH3 0x461BCD PUSH1 0xE5 SHL DUP2 MSTORE PUSH1 0x4 DUP2 ADD DUP5 SWAP1 MSTORE PUSH1 0x18 DUP2 DUP8 ADD MSTORE PUSH32 0x4F6E6C79206469737472696275746F722063616E206275790000000000000000 PUSH1 0x44 DUP3 ADD MSTORE PUSH1 0x64 SWAP1 REVERT JUMPDEST DUP6 PUSH4 0x4E487B71 PUSH1 0xE0 SHL PUSH1 0x0 MSTORE PUSH1 0x21 PUSH1 0x4 MSTORE PUSH1 0x0 REVERT JUMPDEST PUSH2 0x1FBD SWAP2 POP DUP6 RETURNDATASIZE DUP8 GT PUSH2 0xA26 JUMPI PUSH2 0xA18 DUP2 DUP4 PUSH2 0x3543 JUMP JUMPDEST PUSH2 0x179B SWAP2 POP DUP7 RETURNDATASIZE DUP9 GT PUSH2 0xA26 JUMPI PUSH2 0xA18 DUP2 DUP4 PUSH2 0x3543 JUMP JUMPDEST CALLVALUE PUSH2 0x294 JUMPI PUSH1 0x40 CALLDATASIZE PUSH1 0x3 NOT ADD SLT PUSH2 0x294 JUMPI PUSH1 0x24 CALLDATALOAD PUSH1 0x3 DUP2 LT ISZERO PUSH2 0x294 JUMPI PUSH2 0x2476 PUSH1 0x1 DUP1 PUSH1 0xA0 SHL SUB PUSH1 0x1 SLOAD AND CALLER EQ PUSH2 0x39ED JUMP JUMPDEST PUSH1 0x4 CALLDATALOAD PUSH1 0x0 MSTORE PUSH1 0x6 PUSH1 0x20 MSTORE PUSH1 0x1 PUSH1 0x40 PUSH1 0x0 KECCAK256 ADD SWAP1 PUSH1 0xFF DUP1 NOT DUP4 SLOAD AND SWAP2 AND OR SWAP1 SSTORE PUSH1 0x0 DUP1 RETURN JUMPDEST CALLVALUE PUSH2 0x294 JUMPI PUSH1 0x60 CALLDATASIZE PUSH1 0x3 NOT ADD SLT PUSH2 0x294 JUMPI PUSH1 0x4 CALLDATALOAD PUSH2 0x24B7 PUSH2 0x338D JUMP JUMPDEST PUSH1 0x3 SLOAD PUSH1 0x40 MLOAD PUSH4 0x5C975ABB PUSH1 0xE0 SHL DUP2 MSTORE SWAP2 SWAP3 SWAP2 PUSH1 0x20 SWAP2 PUSH1 0x44 CALLDATALOAD SWAP2 PUSH1 0x1 PUSH1 0x1 PUSH1 0xA0 SHL SUB SWAP2 DUP3 AND DUP5 DUP3 PUSH1 0x4 DUP2 DUP5 GAS STATICCALL SWAP2 DUP3 ISZERO PUSH2 0xA2D JUMPI DUP6 SWAP3 PUSH2 0x24FF SWAP2 PUSH1 0x0 SWAP2 PUSH2 0xA39 JUMPI POP ISZERO PUSH2 0x3833 JUMP JUMPDEST PUSH1 0x40 MLOAD SWAP2 DUP3 DUP1 SWAP3 PUSH4 0xDBAC26E9 PUSH1 0xE0 SHL DUP3 MSTORE CALLER PUSH1 0x4 DUP4 ADD MSTORE PUSH1 0x24 SWAP5 DUP6 SWAP2 GAS STATICCALL DUP1 ISZERO PUSH2 0xA2D JUMPI PUSH2 0x2535 SWAP2 PUSH1 0x0 SWAP2 PUSH2 0x272D JUMPI POP ISZERO PUSH2 0x386F JUMP JUMPDEST DUP5 PUSH1 0x0 MSTORE PUSH1 0x6 DUP5 MSTORE PUSH1 0xFF PUSH1 0x1 PUSH1 0x40 PUSH1 0x0 KECCAK256 ADD SLOAD PUSH1 0x8 SHR AND PUSH1 0x6 DUP2 LT ISZERO PUSH2 0x2718 JUMPI PUSH1 0x4 SUB PUSH2 0x26E4 JUMPI DUP3 ISZERO PUSH2 0x26AE JUMPI DUP5 PUSH1 0x0 MSTORE PUSH1 0x6 DUP5 MSTORE PUSH1 0x40 PUSH1 0x0 KECCAK256 PUSH1 0x12 PUSH1 0x8 DUP3 ADD SLOAD SWAP2 ADD SLOAD DUP2 SUB SWAP1 DUP2 GT PUSH2 0x2699 JUMPI DUP4 GT PUSH2 0x2660 JUMPI DUP5 PUSH1 0x0 MSTORE PUSH1 0x6 DUP5 MSTORE PUSH1 0x12 PUSH1 0x40 PUSH1 0x0 KECCAK256 ADD DUP1 SLOAD SWAP2 DUP5 DUP4 ADD DUP1 SWAP4 GT PUSH2 0x264C JUMPI POP DUP5 PUSH1 0xFF PUSH1 0x1 PUSH32 0xC4E776593902E41E517077B7801B16ABF4AD2B754D62899B59D9DC6846747774 SWAP8 SWAP7 SWAP6 DUP10 SWAP6 PUSH1 0x0 DUP1 MLOAD PUSH1 0x20 PUSH2 0x3A30 DUP4 CODECOPY DUP2 MLOAD SWAP2 MSTORE SWAP6 SSTORE DUP6 PUSH1 0x0 MSTORE PUSH1 0x6 DUP5 MSTORE PUSH1 0x40 PUSH1 0x0 KECCAK256 SWAP1 PUSH1 0x11 DUP3 ADD SWAP12 AND SWAP11 DUP12 PUSH1 0x1 PUSH1 0x1 PUSH1 0x60 SHL SUB PUSH1 0xA0 SHL DUP3 SLOAD AND OR SWAP1 SSTORE PUSH1 0x12 DUP2 ADD SLOAD PUSH1 0x8 DUP3 ADD SLOAD GT ISZERO PUSH2 0x2637 JUMPI JUMPDEST ADD SLOAD PUSH1 0x8 SHR AND PUSH2 0x262D PUSH1 0x40 MLOAD DUP1 SWAP3 PUSH2 0x374B JUMP JUMPDEST LOG2 PUSH1 0x40 MLOAD SWAP1 DUP2 MSTORE LOG3 STOP JUMPDEST DUP1 DUP3 ADD DUP1 SLOAD PUSH2 0xFF00 NOT AND PUSH2 0x500 OR SWAP1 SSTORE PUSH2 0x261A JUMP JUMPDEST PUSH4 0x4E487B71 PUSH1 0xE0 SHL PUSH1 0x0 SWAP1 DUP2 MSTORE PUSH1 0x11 PUSH1 0x4 MSTORE REVERT JUMPDEST DUP4 PUSH1 0x13 PUSH1 0x64 SWAP3 PUSH1 0x40 MLOAD SWAP3 PUSH3 0x461BCD PUSH1 0xE5 SHL DUP5 MSTORE PUSH1 0x4 DUP5 ADD MSTORE DUP3 ADD MSTORE PUSH19 0x4E6F7420656E6F756768207175616E74697479 PUSH1 0x68 SHL PUSH1 0x44 DUP3 ADD MSTORE REVERT JUMPDEST POP PUSH4 0x4E487B71 PUSH1 0xE0 SHL PUSH1 0x0 SWAP1 DUP2 MSTORE PUSH1 0x11 PUSH1 0x4 MSTORE REVERT JUMPDEST DUP4 PUSH1 0x10 PUSH1 0x64 SWAP3 PUSH1 0x40 MLOAD SWAP3 PUSH3 0x461BCD PUSH1 0xE5 SHL DUP5 MSTORE PUSH1 0x4 DUP5 ADD MSTORE DUP3 ADD MSTORE PUSH16 0x496E76616C6964207175616E74697479 PUSH1 0x80 SHL PUSH1 0x44 DUP3 ADD MSTORE REVERT JUMPDEST DUP4 PUSH1 0xE PUSH1 0x64 SWAP3 PUSH1 0x40 MLOAD SWAP3 PUSH3 0x461BCD PUSH1 0xE5 SHL DUP5 MSTORE PUSH1 0x4 DUP5 ADD MSTORE DUP3 ADD MSTORE PUSH14 0x135D5CDD081899481B1A5CDD1959 PUSH1 0x92 SHL PUSH1 0x44 DUP3 ADD MSTORE REVERT JUMPDEST POP PUSH4 0x4E487B71 PUSH1 0xE0 SHL PUSH1 0x0 SWAP1 DUP2 MSTORE PUSH1 0x21 PUSH1 0x4 MSTORE REVERT JUMPDEST PUSH2 0x2744 SWAP2 POP DUP7 RETURNDATASIZE DUP9 GT PUSH2 0xA26 JUMPI PUSH2 0xA18 DUP2 DUP4 PUSH2 0x3543 JUMP JUMPDEST DUP9 PUSH2 0x5B9 JUMP JUMPDEST CALLVALUE PUSH2 0x294 JUMPI PUSH1 0x0 CALLDATASIZE PUSH1 0x3 NOT ADD SLT PUSH2 0x294 JUMPI PUSH1 0x20 PUSH1 0x40 MLOAD PUSH1 0x5 DUP2 MSTORE RETURN JUMPDEST CALLVALUE PUSH2 0x294 JUMPI PUSH1 0xA0 CALLDATASIZE PUSH1 0x3 NOT ADD SLT PUSH2 0x294 JUMPI PUSH1 0x20 PUSH2 0x2781 PUSH2 0x3377 JUMP JUMPDEST PUSH2 0x2789 PUSH2 0x338D JUMP JUMPDEST PUSH1 0x1 SLOAD PUSH1 0x1 PUSH1 0x1 PUSH1 0xA0 SHL SUB SWAP3 SWAP1 PUSH2 0x27A3 SWAP1 DUP5 AND CALLER EQ PUSH2 0x39ED JUMP JUMPDEST PUSH1 0x8 SWAP3 PUSH1 0x1 PUSH2 0x27B2 DUP6 SLOAD PUSH2 0x38AE JUMP JUMPDEST DUP1 DUP7 SSTORE DUP1 PUSH1 0x0 MSTORE PUSH1 0x9 DUP8 MSTORE PUSH1 0x40 PUSH1 0x0 KECCAK256 SWAP1 DUP2 SSTORE ADD DUP2 PUSH1 0x1 PUSH1 0x1 PUSH1 0x60 SHL SUB PUSH1 0xA0 SHL SWAP4 AND DUP4 DUP3 SLOAD AND OR SWAP1 SSTORE DUP4 SLOAD PUSH1 0x0 MSTORE PUSH1 0x2 PUSH1 0x40 PUSH1 0x0 KECCAK256 ADD SWAP3 AND SWAP1 DUP3 SLOAD AND OR SWAP1 SSTORE DUP1 SLOAD PUSH1 0x0 MSTORE PUSH1 0x44 CALLDATALOAD PUSH1 0x3 PUSH1 0x40 PUSH1 0x0 KECCAK256 ADD SSTORE DUP1 SLOAD PUSH1 0x0 MSTORE PUSH1 0x64 CALLDATALOAD PUSH1 0x4 PUSH1 0x40 PUSH1 0x0 KECCAK256 ADD SSTORE DUP1 SLOAD PUSH1 0x0 MSTORE PUSH1 0x84 CALLDATALOAD PUSH1 0x5 PUSH1 0x40 PUSH1 0x0 KECCAK256 ADD SSTORE DUP1 SLOAD PUSH1 0x0 MSTORE TIMESTAMP PUSH1 0x6 PUSH1 0x40 PUSH1 0x0 KECCAK256 ADD SSTORE SLOAD PUSH1 0x40 MLOAD SWAP1 DUP2 MSTORE RETURN JUMPDEST CALLVALUE PUSH2 0x294 JUMPI PUSH1 0x20 CALLDATASIZE PUSH1 0x3 NOT ADD SLT PUSH2 0x294 JUMPI PUSH1 0x1 PUSH1 0x1 PUSH1 0xA0 SHL SUB PUSH2 0x285D PUSH2 0x3377 JUMP JUMPDEST AND PUSH1 0x0 MSTORE PUSH1 0xE PUSH1 0x20 MSTORE PUSH2 0x321 PUSH2 0x2876 PUSH1 0x40 PUSH1 0x0 KECCAK256 PUSH2 0x3564 JUMP JUMPDEST PUSH1 0x40 MLOAD SWAP2 DUP3 SWAP2 PUSH1 0x20 DUP4 MSTORE PUSH1 0x20 DUP4 ADD SWAP1 PUSH2 0x360A JUMP JUMPDEST CALLVALUE PUSH2 0x294 JUMPI PUSH1 0x40 CALLDATASIZE PUSH1 0x3 NOT ADD SLT PUSH2 0x294 JUMPI PUSH2 0x28A3 PUSH2 0x3377 JUMP JUMPDEST PUSH1 0x24 CALLDATALOAD SWAP1 PUSH1 0x5 DUP3 LT ISZERO PUSH2 0x294 JUMPI CALLER PUSH1 0x0 MSTORE PUSH1 0x20 SWAP1 PUSH1 0x4 DUP3 MSTORE PUSH1 0xFF PUSH1 0x40 PUSH1 0x0 KECCAK256 SLOAD AND SWAP1 PUSH1 0x5 DUP3 LT ISZERO PUSH2 0x9E8 JUMPI PUSH2 0x28DD PUSH1 0x4 PUSH2 0x28FB SWAP4 EQ PUSH2 0x37CA JUMP JUMPDEST PUSH1 0x1 PUSH1 0x1 PUSH1 0xA0 SHL SUB AND PUSH1 0x0 DUP2 DUP2 MSTORE PUSH1 0x4 DUP5 MSTORE PUSH1 0x40 SWAP1 KECCAK256 SWAP1 SWAP4 SWAP1 PUSH2 0x3803 JUMP JUMPDEST PUSH1 0x1 PUSH1 0x0 MSTORE PUSH1 0xC DUP1 DUP3 MSTORE PUSH1 0x40 PUSH1 0x0 KECCAK256 DUP4 PUSH1 0x0 MSTORE DUP3 MSTORE PUSH1 0x40 PUSH1 0x0 KECCAK256 SLOAD ISZERO PUSH2 0x2999 JUMPI JUMPDEST PUSH1 0x2 PUSH1 0x0 MSTORE DUP1 DUP3 MSTORE PUSH1 0x40 PUSH1 0x0 KECCAK256 DUP4 PUSH1 0x0 MSTORE DUP3 MSTORE PUSH1 0x40 PUSH1 0x0 KECCAK256 SLOAD ISZERO PUSH2 0x2979 JUMPI JUMPDEST PUSH1 0x3 PUSH1 0x0 MSTORE DUP1 DUP3 MSTORE PUSH1 0x40 PUSH1 0x0 KECCAK256 DUP4 PUSH1 0x0 MSTORE DUP3 MSTORE PUSH1 0x40 PUSH1 0x0 KECCAK256 SLOAD ISZERO PUSH2 0x295B JUMPI STOP JUMPDEST PUSH1 0x3 PUSH1 0x0 MSTORE DUP2 MSTORE PUSH1 0x40 PUSH1 0x0 KECCAK256 SWAP2 PUSH1 0x0 MSTORE MSTORE PUSH1 0x32 PUSH1 0x40 PUSH1 0x0 KECCAK256 SSTORE PUSH1 0x0 DUP1 RETURN JUMPDEST PUSH1 0x2 PUSH1 0x0 MSTORE DUP1 DUP3 MSTORE PUSH1 0x40 PUSH1 0x0 KECCAK256 DUP4 PUSH1 0x0 MSTORE DUP3 MSTORE PUSH1 0x32 PUSH1 0x40 PUSH1 0x0 KECCAK256 SSTORE PUSH2 0x293B JUMP JUMPDEST PUSH1 0x1 PUSH1 0x0 MSTORE DUP1 DUP3 MSTORE PUSH1 0x40 PUSH1 0x0 KECCAK256 DUP4 PUSH1 0x0 MSTORE DUP3 MSTORE PUSH1 0x32 PUSH1 0x40 PUSH1 0x0 KECCAK256 SSTORE PUSH2 0x291C JUMP JUMPDEST CALLVALUE PUSH2 0x294 JUMPI PUSH1 0x0 CALLDATASIZE PUSH1 0x3 NOT ADD SLT PUSH2 0x294 JUMPI PUSH1 0x1 SLOAD PUSH1 0x40 MLOAD PUSH1 0x1 PUSH1 0x1 PUSH1 0xA0 SHL SUB SWAP1 SWAP2 AND DUP2 MSTORE PUSH1 0x20 SWAP1 RETURN JUMPDEST CALLVALUE PUSH2 0x294 JUMPI PUSH1 0x40 CALLDATASIZE PUSH1 0x3 NOT ADD SLT PUSH2 0x294 JUMPI PUSH2 0x29FB PUSH2 0x3377 JUMP JUMPDEST PUSH1 0x1 PUSH1 0x1 PUSH1 0xA0 SHL SUB AND PUSH1 0x0 SWAP1 DUP2 MSTORE PUSH1 0xA PUSH1 0x20 MSTORE PUSH1 0x40 SWAP1 KECCAK256 DUP1 SLOAD PUSH1 0x24 CALLDATALOAD SWAP2 SWAP1 DUP3 LT ISZERO PUSH2 0x294 JUMPI PUSH1 0x20 SWAP2 PUSH2 0x208C SWAP2 PUSH2 0x344B JUMP JUMPDEST CALLVALUE PUSH2 0x294 JUMPI PUSH1 0x0 CALLDATASIZE PUSH1 0x3 NOT ADD SLT PUSH2 0x294 JUMPI PUSH1 0x20 PUSH1 0x7 SLOAD PUSH1 0x40 MLOAD SWAP1 DUP2 MSTORE RETURN JUMPDEST CALLVALUE PUSH2 0x294 JUMPI PUSH2 0x2A58 CALLDATASIZE PUSH2 0x3479 JUMP JUMPDEST SWAP1 PUSH2 0x2A6E PUSH1 0x1 DUP1 PUSH1 0xA0 SHL SUB PUSH1 0x2 SLOAD AND CALLER EQ PUSH2 0x39A9 JUMP JUMPDEST PUSH1 0x0 MSTORE PUSH1 0x6 PUSH1 0x20 MSTORE PUSH1 0x10 PUSH1 0x40 PUSH1 0x0 KECCAK256 ADD SSTORE PUSH1 0x0 DUP1 RETURN JUMPDEST CALLVALUE PUSH2 0x294 JUMPI PUSH2 0x2A92 CALLDATASIZE PUSH2 0x3479 JUMP JUMPDEST SWAP1 PUSH2 0x2AA8 PUSH1 0x1 DUP1 PUSH1 0xA0 SHL SUB PUSH1 0x2 SLOAD AND CALLER EQ PUSH2 0x39A9 JUMP JUMPDEST PUSH1 0x0 MSTORE PUSH1 0x6 PUSH1 0x20 MSTORE PUSH1 0xC PUSH1 0x40 PUSH1 0x0 KECCAK256 ADD SSTORE PUSH1 0x0 DUP1 RETURN JUMPDEST CALLVALUE PUSH2 0x294 JUMPI PUSH1 0x20 CALLDATASIZE PUSH1 0x3 NOT ADD SLT PUSH2 0x294 JUMPI PUSH1 0x0 PUSH1 0xC0 PUSH1 0x40 MLOAD PUSH2 0x2ADF DUP2 PUSH2 0x34D6 JUMP JUMPDEST DUP3 DUP2 MSTORE DUP3 PUSH1 0x20 DUP3 ADD MSTORE DUP3 PUSH1 0x40 DUP3 ADD MSTORE DUP3 PUSH1 0x60 DUP3 ADD MSTORE DUP3 PUSH1 0x80 DUP3 ADD MSTORE DUP3 PUSH1 0xA0 DUP3 ADD MSTORE ADD MSTORE PUSH1 0x4 CALLDATALOAD PUSH1 0x0 MSTORE PUSH1 0x9 PUSH1 0x20 MSTORE PUSH1 0xE0 PUSH1 0x40 PUSH1 0x0 KECCAK256 PUSH1 0x40 MLOAD PUSH2 0x2B20 DUP2 PUSH2 0x34D6 JUMP JUMPDEST DUP2 SLOAD SWAP2 DUP3 DUP3 MSTORE PUSH1 0x1 DUP1 PUSH1 0xA0 SHL SUB DUP1 PUSH1 0x1 DUP4 ADD SLOAD AND SWAP1 PUSH1 0x20 DUP5 ADD SWAP2 DUP3 MSTORE DUP1 PUSH1 0x2 DUP5 ADD SLOAD AND SWAP1 PUSH1 0x40 DUP6 ADD SWAP2 DUP3 MSTORE PUSH1 0x3 DUP5 ADD SLOAD SWAP2 PUSH1 0x60 DUP7 ADD SWAP3 DUP4 MSTORE DUP2 PUSH1 0x4 DUP7 ADD SLOAD SWAP5 PUSH1 0x80 DUP9 ADD SWAP6 DUP7 MSTORE PUSH1 0xC0 PUSH1 0x6 PUSH1 0x5 DUP10 ADD SLOAD SWAP9 PUSH1 0xA0 DUP12 ADD SWAP10 DUP11 MSTORE ADD SLOAD SWAP9 ADD SWAP8 DUP9 MSTORE PUSH1 0x40 MLOAD SWAP9 DUP10 MSTORE MLOAD AND PUSH1 0x20 DUP9 ADD MSTORE MLOAD AND PUSH1 0x40 DUP7 ADD MSTORE MLOAD PUSH1 0x60 DUP6 ADD MSTORE MLOAD PUSH1 0x80 DUP5 ADD MSTORE MLOAD PUSH1 0xA0 DUP4 ADD MSTORE MLOAD PUSH1 0xC0 DUP3 ADD MSTORE RETURN JUMPDEST CALLVALUE PUSH2 0x294 JUMPI PUSH1 0x20 CALLDATASIZE PUSH1 0x3 NOT ADD SLT PUSH2 0x294 JUMPI PUSH2 0x2BC5 PUSH2 0x3377 JUMP JUMPDEST CALLER PUSH1 0x0 MSTORE PUSH1 0x4 PUSH1 0x20 MSTORE PUSH1 0xFF PUSH1 0x40 PUSH1 0x0 KECCAK256 SLOAD AND PUSH1 0x5 DUP2 LT ISZERO PUSH2 0x9E8 JUMPI PUSH1 0x4 PUSH2 0x2BEC SWAP2 EQ PUSH2 0x37CA JUMP JUMPDEST PUSH1 0x1 DUP1 SLOAD PUSH1 0x1 PUSH1 0x1 PUSH1 0xA0 SHL SUB NOT AND PUSH1 0x1 PUSH1 0x1 PUSH1 0xA0 SHL SUB SWAP3 SWAP1 SWAP3 AND SWAP2 SWAP1 SWAP2 OR SWAP1 SSTORE STOP JUMPDEST CALLVALUE PUSH2 0x294 JUMPI PUSH1 0x40 CALLDATASIZE PUSH1 0x3 NOT ADD SLT PUSH2 0x294 JUMPI PUSH2 0x2C27 PUSH2 0x3377 JUMP JUMPDEST PUSH1 0x1 PUSH1 0x1 PUSH1 0xA0 SHL SUB AND PUSH1 0x0 SWAP1 DUP2 MSTORE PUSH1 0xB PUSH1 0x20 MSTORE PUSH1 0x40 SWAP1 KECCAK256 DUP1 SLOAD PUSH1 0x24 CALLDATALOAD SWAP2 SWAP1 DUP3 LT ISZERO PUSH2 0x294 JUMPI PUSH1 0x20 SWAP2 PUSH2 0x208C SWAP2 PUSH2 0x344B JUMP JUMPDEST CALLVALUE PUSH2 0x294 JUMPI PUSH2 0x2C66 CALLDATASIZE PUSH2 0x33FF JUMP JUMPDEST SWAP2 PUSH2 0x2C7C PUSH1 0x1 DUP1 PUSH1 0xA0 SHL SUB PUSH1 0x2 SLOAD AND CALLER EQ PUSH2 0x39A9 JUMP JUMPDEST PUSH1 0x0 MSTORE PUSH1 0x20 SWAP2 PUSH1 0x6 DUP4 MSTORE PUSH1 0x14 PUSH1 0x40 PUSH1 0x0 KECCAK256 ADD SWAP2 PUSH1 0x1 PUSH1 0x1 PUSH1 0x40 SHL SUB DUP3 GT PUSH2 0x89C JUMPI PUSH2 0x2CA7 DUP4 SLOAD PUSH2 0x349C JUMP JUMPDEST PUSH1 0x1F DUP2 GT PUSH2 0x2D2C JUMPI JUMPDEST POP PUSH1 0x0 SWAP4 PUSH1 0x1F DUP4 GT PUSH1 0x1 EQ PUSH2 0x2CE3 JUMPI POP SWAP3 DUP2 SWAP3 SWAP4 PUSH1 0x0 SWAP3 PUSH2 0xE2E JUMPI POP POP PUSH1 0x0 NOT PUSH1 0x3 DUP4 SWAP1 SHL SHR NOT AND PUSH1 0x1 SWAP2 SWAP1 SWAP2 SHL OR SWAP1 SSTORE STOP JUMPDEST SWAP1 PUSH1 0x1F NOT DUP4 AND SWAP5 DUP5 PUSH1 0x0 MSTORE DUP3 PUSH1 0x0 KECCAK256 SWAP3 PUSH1 0x0 SWAP1 JUMPDEST DUP8 DUP3 LT PUSH2 0x2D14 JUMPI POP POP DUP4 PUSH1 0x1 SWAP6 SWAP7 LT PUSH2 0xE6B JUMPI POP POP POP DUP2 SHL ADD SWAP1 SSTORE STOP JUMPDEST DUP1 PUSH1 0x1 DUP5 SWAP7 DUP3 SWAP5 SWAP6 DUP8 ADD CALLDATALOAD DUP2 SSTORE ADD SWAP6 ADD SWAP3 ADD SWAP1 PUSH2 0x2CF7 JUMP JUMPDEST DUP4 PUSH1 0x0 MSTORE DUP5 PUSH1 0x0 KECCAK256 PUSH1 0x1F DUP5 ADD PUSH1 0x5 SHR DUP2 ADD SWAP2 DUP7 DUP6 LT PUSH2 0x2D68 JUMPI JUMPDEST PUSH1 0x1F ADD PUSH1 0x5 SHR ADD SWAP1 JUMPDEST DUP2 DUP2 LT PUSH2 0x2D5C JUMPI POP PUSH2 0x2CB0 JUMP JUMPDEST PUSH1 0x0 DUP2 SSTORE PUSH1 0x1 ADD PUSH2 0x2D4F JUMP JUMPDEST SWAP1 SWAP2 POP DUP2 SWAP1 PUSH2 0x2D46 JUMP JUMPDEST CALLVALUE PUSH2 0x294 JUMPI PUSH2 0x2D8A PUSH2 0x2D83 CALLDATASIZE PUSH2 0x33A3 JUMP JUMPDEST SWAP2 SWAP1 PUSH2 0x3432 JUMP JUMPDEST SWAP1 PUSH1 0x1 DUP1 PUSH1 0xA0 SHL SUB AND PUSH1 0x0 MSTORE PUSH1 0x20 MSTORE PUSH1 0x20 PUSH1 0x40 PUSH1 0x0 KECCAK256 SLOAD PUSH1 0x40 MLOAD SWAP1 DUP2 MSTORE RETURN JUMPDEST CALLVALUE PUSH2 0x294 JUMPI PUSH2 0x2DB7 CALLDATASIZE PUSH2 0x33FF JUMP JUMPDEST SWAP2 PUSH2 0x2DCD PUSH1 0x1 DUP1 PUSH1 0xA0 SHL SUB PUSH1 0x2 SLOAD AND CALLER EQ PUSH2 0x39A9 JUMP JUMPDEST PUSH1 0x0 MSTORE PUSH1 0x20 SWAP2 PUSH1 0x6 DUP4 MSTORE PUSH1 0x15 PUSH1 0x40 PUSH1 0x0 KECCAK256 ADD SWAP2 PUSH1 0x1 PUSH1 0x1 PUSH1 0x40 SHL SUB DUP3 GT PUSH2 0x89C JUMPI PUSH2 0x2DF8 DUP4 SLOAD PUSH2 0x349C JUMP JUMPDEST PUSH1 0x1F DUP2 GT PUSH2 0x2E7D JUMPI JUMPDEST POP PUSH1 0x0 SWAP4 PUSH1 0x1F DUP4 GT PUSH1 0x1 EQ PUSH2 0x2E34 JUMPI POP SWAP3 DUP2 SWAP3 SWAP4 PUSH1 0x0 SWAP3 PUSH2 0xE2E JUMPI POP POP PUSH1 0x0 NOT PUSH1 0x3 DUP4 SWAP1 SHL SHR NOT AND PUSH1 0x1 SWAP2 SWAP1 SWAP2 SHL OR SWAP1 SSTORE STOP JUMPDEST SWAP1 PUSH1 0x1F NOT DUP4 AND SWAP5 DUP5 PUSH1 0x0 MSTORE DUP3 PUSH1 0x0 KECCAK256 SWAP3 PUSH1 0x0 SWAP1 JUMPDEST DUP8 DUP3 LT PUSH2 0x2E65 JUMPI POP POP DUP4 PUSH1 0x1 SWAP6 SWAP7 LT PUSH2 0xE6B JUMPI POP POP POP DUP2 SHL ADD SWAP1 SSTORE STOP JUMPDEST DUP1 PUSH1 0x1 DUP5 SWAP7 DUP3 SWAP5 SWAP6 DUP8 ADD CALLDATALOAD DUP2 SSTORE ADD SWAP6 ADD SWAP3 ADD SWAP1 PUSH2 0x2E48 JUMP JUMPDEST DUP4 PUSH1 0x0 MSTORE DUP5 PUSH1 0x0 KECCAK256 PUSH1 0x1F DUP5 ADD PUSH1 0x5 SHR DUP2 ADD SWAP2 DUP7 DUP6 LT PUSH2 0x2EB9 JUMPI JUMPDEST PUSH1 0x1F ADD PUSH1 0x5 SHR ADD SWAP1 JUMPDEST DUP2 DUP2 LT PUSH2 0x2EAD JUMPI POP PUSH2 0x2E01 JUMP JUMPDEST PUSH1 0x0 DUP2 SSTORE PUSH1 0x1 ADD PUSH2 0x2EA0 JUMP JUMPDEST SWAP1 SWAP2 POP DUP2 SWAP1 PUSH2 0x2E97 JUMP JUMPDEST CALLVALUE PUSH2 0x294 JUMPI PUSH1 0x60 CALLDATASIZE PUSH1 0x3 NOT ADD SLT PUSH2 0x294 JUMPI PUSH1 0x4 CALLDATALOAD PUSH1 0x24 DUP1 CALLDATALOAD PUSH1 0x4 DUP2 LT ISZERO PUSH2 0x294 JUMPI PUSH1 0x44 CALLDATALOAD SWAP2 PUSH1 0x3 SWAP1 DUP2 DUP5 LT ISZERO PUSH2 0x294 JUMPI PUSH1 0x1 DUP1 PUSH1 0xA0 SHL SUB SWAP3 PUSH1 0x2 SWAP6 PUSH2 0x2F0C DUP6 DUP9 SLOAD AND CALLER EQ PUSH2 0x39A9 JUMP JUMPDEST DUP1 PUSH1 0x0 MSTORE PUSH1 0x20 SWAP5 PUSH1 0x6 DUP7 MSTORE PUSH1 0x40 PUSH1 0x0 KECCAK256 SWAP2 DUP9 DUP3 PUSH1 0x9 DUP2 DUP10 DUP8 ADD SLOAD AND SWAP6 ADD SLOAD AND SWAP9 PUSH1 0x0 SWAP10 DUP7 ISZERO SWAP6 DUP7 PUSH1 0x0 EQ PUSH2 0x30DF JUMPI PUSH1 0x1 PUSH1 0x0 MSTORE PUSH1 0xC DUP12 MSTORE PUSH1 0x40 PUSH1 0x0 KECCAK256 DUP2 PUSH1 0x0 MSTORE DUP12 MSTORE PUSH1 0x40 PUSH1 0x0 KECCAK256 SLOAD SWAP1 PUSH1 0x64 DUP3 LT PUSH2 0x3097 JUMPI JUMPDEST POP POP DUP3 PUSH1 0x0 MSTORE PUSH1 0xC DUP11 MSTORE PUSH1 0x40 PUSH1 0x0 KECCAK256 DUP2 PUSH1 0x0 MSTORE DUP11 MSTORE PUSH1 0x40 PUSH1 0x0 KECCAK256 SLOAD SWAP1 PUSH1 0x64 DUP3 LT PUSH2 0x3057 JUMPI JUMPDEST POP POP JUMPDEST EQ PUSH2 0x2F8D JUMPI STOP JUMPDEST PUSH1 0x0 MSTORE PUSH1 0x6 DUP7 MSTORE PUSH1 0xD PUSH1 0x40 PUSH1 0x0 KECCAK256 ADD SLOAD AND SWAP6 PUSH2 0xFB0 JUMPI ISZERO PUSH2 0x2FF0 JUMPI POP DUP2 PUSH1 0x0 MSTORE PUSH1 0xC DUP4 MSTORE PUSH1 0x40 PUSH1 0x0 KECCAK256 DUP5 PUSH1 0x0 MSTORE DUP4 MSTORE PUSH1 0x40 PUSH1 0x0 KECCAK256 SLOAD SWAP5 PUSH1 0x64 DUP7 LT PUSH2 0x2FCD JUMPI STOP JUMPDEST DUP6 ADD DUP1 SWAP6 GT PUSH2 0x264C JUMPI POP PUSH1 0x0 MSTORE PUSH1 0xC DUP2 MSTORE PUSH1 0x40 PUSH1 0x0 KECCAK256 SWAP2 PUSH1 0x0 MSTORE MSTORE PUSH1 0x40 PUSH1 0x0 KECCAK256 SSTORE STOP JUMPDEST SWAP1 SWAP5 DUP3 SWAP1 DUP3 EQ SWAP2 DUP3 ISZERO PUSH2 0x304D JUMPI JUMPDEST POP POP PUSH2 0x3006 JUMPI STOP JUMPDEST DUP1 PUSH1 0x0 MSTORE PUSH1 0xC DUP3 MSTORE PUSH1 0x40 PUSH1 0x0 KECCAK256 DUP4 PUSH1 0x0 MSTORE DUP3 MSTORE PUSH1 0x40 PUSH1 0x0 KECCAK256 SLOAD SWAP4 DUP5 PUSH2 0x3027 JUMPI STOP JUMPDEST PUSH1 0x1 NOT DUP6 ADD SWAP5 DUP6 GT PUSH2 0x264C JUMPI POP PUSH1 0x0 MSTORE PUSH1 0xC DUP2 MSTORE PUSH1 0x40 PUSH1 0x0 KECCAK256 SWAP2 PUSH1 0x0 MSTORE MSTORE PUSH1 0x40 PUSH1 0x0 KECCAK256 SSTORE STOP JUMPDEST EQ SWAP1 POP DUP2 DUP7 PUSH2 0x2FFE JUMP JUMPDEST SWAP1 SWAP2 SWAP3 DUP3 ADD DUP1 SWAP3 GT PUSH2 0x3082 JUMPI PUSH1 0x0 DUP13 DUP2 MSTORE PUSH1 0xC DUP12 MSTORE PUSH1 0x40 DUP1 DUP3 KECCAK256 SWAP3 DUP3 MSTORE SWAP2 DUP12 MSTORE KECCAK256 SSTORE DUP10 SWAP1 DUP12 DUP1 PUSH2 0x2F83 JUMP JUMPDEST DUP8 PUSH4 0x4E487B71 PUSH1 0xE0 SHL PUSH1 0x0 MSTORE PUSH1 0x11 PUSH1 0x4 MSTORE PUSH1 0x0 REVERT JUMPDEST SWAP1 SWAP2 SWAP3 SWAP4 DUP3 ADD DUP1 SWAP3 GT PUSH2 0x30CA JUMPI SWAP1 DUP13 SWAP4 SWAP3 SWAP2 PUSH1 0x1 PUSH1 0x0 MSTORE PUSH1 0xC DUP13 MSTORE PUSH1 0x40 PUSH1 0x0 KECCAK256 SWAP1 PUSH1 0x0 MSTORE DUP12 MSTORE PUSH1 0x40 PUSH1 0x0 KECCAK256 SSTORE DUP13 DUP1 PUSH2 0x2F5E JUMP JUMPDEST DUP9 PUSH4 0x4E487B71 PUSH1 0xE0 SHL PUSH1 0x0 MSTORE PUSH1 0x11 PUSH1 0x4 MSTORE PUSH1 0x0 REVERT JUMPDEST PUSH1 0x0 SWAP12 POP DUP8 DUP5 EQ DUP1 ISZERO PUSH2 0x31A2 JUMPI JUMPDEST PUSH2 0x30F9 JUMPI JUMPDEST POP POP PUSH2 0x2F86 JUMP JUMPDEST PUSH1 0x1 PUSH1 0x0 MSTORE PUSH1 0xC DUP12 MSTORE PUSH1 0x40 PUSH1 0x0 KECCAK256 DUP2 PUSH1 0x0 MSTORE DUP12 MSTORE PUSH1 0x40 PUSH1 0x0 KECCAK256 SLOAD SWAP1 DUP2 PUSH2 0x316B JUMPI JUMPDEST POP POP DUP3 PUSH1 0x0 MSTORE PUSH1 0xC DUP11 MSTORE PUSH1 0x40 PUSH1 0x0 KECCAK256 DUP2 PUSH1 0x0 MSTORE DUP11 MSTORE PUSH1 0x40 PUSH1 0x0 KECCAK256 SLOAD SWAP1 DUP2 ISZERO PUSH2 0x30F2 JUMPI SWAP2 SWAP3 POP PUSH1 0x1 NOT DUP2 ADD SWAP2 SWAP1 DUP3 GT PUSH2 0x3082 JUMPI PUSH1 0x0 DUP13 DUP2 MSTORE PUSH1 0xC DUP12 MSTORE PUSH1 0x40 DUP1 DUP3 KECCAK256 SWAP3 DUP3 MSTORE SWAP2 DUP12 MSTORE KECCAK256 SSTORE DUP10 SWAP1 DUP12 DUP1 PUSH2 0x30F2 JUMP JUMPDEST SWAP3 SWAP4 POP SWAP1 SWAP2 PUSH1 0x1 NOT DUP3 ADD SWAP2 DUP3 GT PUSH2 0x30CA JUMPI SWAP1 DUP13 SWAP4 SWAP3 SWAP2 PUSH1 0x1 PUSH1 0x0 MSTORE PUSH1 0xC DUP13 MSTORE PUSH1 0x40 PUSH1 0x0 KECCAK256 SWAP1 PUSH1 0x0 MSTORE DUP12 MSTORE PUSH1 0x40 PUSH1 0x0 KECCAK256 SSTORE DUP13 DUP1 PUSH2 0x311A JUMP JUMPDEST POP PUSH1 0x0 SWAP12 POP DUP8 DUP11 EQ PUSH2 0x30ED JUMP JUMPDEST CALLVALUE PUSH2 0x294 JUMPI PUSH1 0x0 CALLDATASIZE PUSH1 0x3 NOT ADD SLT PUSH2 0x294 JUMPI PUSH1 0x7 SLOAD PUSH1 0x0 PUSH1 0x1 JUMPDEST DUP3 DUP2 GT ISZERO PUSH2 0x329C JUMPI POP PUSH2 0x31DA SWAP1 PUSH2 0x3963 JUMP JUMPDEST PUSH1 0x0 SWAP2 PUSH1 0x1 JUMPDEST DUP2 DUP2 GT ISZERO PUSH2 0x31F6 JUMPI PUSH1 0x40 MLOAD DUP1 PUSH2 0x321 DUP6 DUP3 PUSH2 0x333C JUMP JUMPDEST DUP1 PUSH1 0x0 MSTORE PUSH1 0x6 PUSH1 0x20 SWAP1 DUP1 DUP3 MSTORE PUSH1 0xFF SWAP1 DUP2 PUSH1 0x1 PUSH1 0x40 PUSH1 0x0 KECCAK256 ADD SLOAD AND PUSH1 0x3 DUP2 LT ISZERO PUSH2 0x9E8 JUMPI ISZERO SWAP3 DUP4 PUSH2 0x3276 JUMPI JUMPDEST DUP4 PUSH2 0x3258 JUMPI JUMPDEST POP POP POP PUSH2 0x323D JUMPI JUMPDEST PUSH2 0x3238 SWAP1 PUSH2 0x38AE JUMP JUMPDEST PUSH2 0x31E0 JUMP JUMPDEST SWAP3 PUSH2 0x3250 DUP2 DUP6 PUSH2 0x369 PUSH2 0x3238 SWAP5 DUP8 PUSH2 0x3995 JUMP JUMPDEST SWAP4 SWAP1 POP PUSH2 0x322F JUMP JUMPDEST SWAP1 SWAP2 SWAP3 POP DUP4 PUSH1 0x0 MSTORE MSTORE PUSH1 0x1 PUSH1 0x40 PUSH1 0x0 KECCAK256 ADD SLOAD PUSH1 0x18 SHR AND DUP6 DUP1 DUP1 PUSH2 0x3227 JUMP JUMPDEST SWAP3 POP DUP4 PUSH1 0x0 MSTORE DUP1 DUP4 MSTORE DUP2 PUSH1 0x1 PUSH1 0x40 PUSH1 0x0 KECCAK256 ADD SLOAD PUSH1 0x8 SHR AND DUP2 DUP2 LT ISZERO PUSH2 0x9E8 JUMPI ISZERO SWAP3 PUSH2 0x3221 JUMP JUMPDEST DUP1 PUSH1 0x0 MSTORE PUSH1 0x6 PUSH1 0x20 SWAP1 DUP1 DUP3 MSTORE PUSH1 0xFF SWAP1 DUP2 PUSH1 0x1 PUSH1 0x40 PUSH1 0x0 KECCAK256 ADD SLOAD AND PUSH1 0x3 DUP2 LT ISZERO PUSH2 0x9E8 JUMPI ISZERO SWAP3 DUP4 PUSH2 0x3316 JUMPI JUMPDEST DUP4 PUSH2 0x32F8 JUMPI JUMPDEST POP POP POP PUSH2 0x32E3 JUMPI JUMPDEST PUSH2 0x32DE SWAP1 PUSH2 0x38AE JUMP JUMPDEST PUSH2 0x31C8 JUMP JUMPDEST SWAP1 PUSH2 0x32F0 PUSH2 0x32DE SWAP2 PUSH2 0x38AE JUMP JUMPDEST SWAP2 SWAP1 POP PUSH2 0x32D5 JUMP JUMPDEST SWAP1 SWAP2 SWAP3 POP DUP4 PUSH1 0x0 MSTORE MSTORE PUSH1 0x1 PUSH1 0x40 PUSH1 0x0 KECCAK256 ADD SLOAD PUSH1 0x18 SHR AND DUP5 DUP1 DUP1 PUSH2 0x32CD JUMP JUMPDEST SWAP3 POP DUP4 PUSH1 0x0 MSTORE DUP1 DUP4 MSTORE DUP2 PUSH1 0x1 PUSH1 0x40 PUSH1 0x0 KECCAK256 ADD SLOAD PUSH1 0x8 SHR AND DUP2 DUP2 LT ISZERO PUSH2 0x9E8 JUMPI ISZERO SWAP3 PUSH2 0x32C7 JUMP JUMPDEST PUSH1 0x20 SWAP1 DUP2 PUSH1 0x40 DUP2 DUP4 ADD SWAP3 DUP3 DUP2 MSTORE DUP6 MLOAD DUP1 SWAP5 MSTORE ADD SWAP4 ADD SWAP2 PUSH1 0x0 JUMPDEST DUP3 DUP2 LT PUSH2 0x3363 JUMPI POP POP POP POP SWAP1 JUMP JUMPDEST DUP4 MLOAD DUP6 MSTORE SWAP4 DUP2 ADD SWAP4 SWAP3 DUP2 ADD SWAP3 PUSH1 0x1 ADD PUSH2 0x3355 JUMP JUMPDEST PUSH1 0x4 CALLDATALOAD SWAP1 PUSH1 0x1 PUSH1 0x1 PUSH1 0xA0 SHL SUB DUP3 AND DUP3 SUB PUSH2 0x294 JUMPI JUMP JUMPDEST PUSH1 0x24 CALLDATALOAD SWAP1 PUSH1 0x1 PUSH1 0x1 PUSH1 0xA0 SHL SUB DUP3 AND DUP3 SUB PUSH2 0x294 JUMPI JUMP JUMPDEST PUSH1 0x40 SWAP1 PUSH1 0x3 NOT ADD SLT PUSH2 0x294 JUMPI PUSH1 0x4 CALLDATALOAD PUSH1 0x5 DUP2 LT ISZERO PUSH2 0x294 JUMPI SWAP1 PUSH1 0x24 CALLDATALOAD PUSH1 0x1 PUSH1 0x1 PUSH1 0xA0 SHL SUB DUP2 AND DUP2 SUB PUSH2 0x294 JUMPI SWAP1 JUMP JUMPDEST SWAP2 DUP2 PUSH1 0x1F DUP5 ADD SLT ISZERO PUSH2 0x294 JUMPI DUP3 CALLDATALOAD SWAP2 PUSH1 0x1 PUSH1 0x1 PUSH1 0x40 SHL SUB DUP4 GT PUSH2 0x294 JUMPI PUSH1 0x20 DUP4 DUP2 DUP7 ADD SWAP6 ADD ADD GT PUSH2 0x294 JUMPI JUMP JUMPDEST SWAP1 PUSH1 0x40 PUSH1 0x3 NOT DUP4 ADD SLT PUSH2 0x294 JUMPI PUSH1 0x4 CALLDATALOAD SWAP2 PUSH1 0x24 CALLDATALOAD SWAP1 PUSH1 0x1 PUSH1 0x1 PUSH1 0x40 SHL SUB DUP3 GT PUSH2 0x294 JUMPI PUSH2 0x342E SWAP2 PUSH1 0x4 ADD PUSH2 0x33D2 JUMP JUMPDEST SWAP1 SWAP2 JUMP JUMPDEST PUSH1 0x5 DUP2 LT ISZERO PUSH2 0x9E8 JUMPI PUSH1 0x0 MSTORE PUSH1 0xC PUSH1 0x20 MSTORE PUSH1 0x40 PUSH1 0x0 KECCAK256 SWAP1 JUMP JUMPDEST DUP1 SLOAD DUP3 LT ISZERO PUSH2 0x3463 JUMPI PUSH1 0x0 MSTORE PUSH1 0x20 PUSH1 0x0 KECCAK256 ADD SWAP1 PUSH1 0x0 SWAP1 JUMP JUMPDEST PUSH4 0x4E487B71 PUSH1 0xE0 SHL PUSH1 0x0 MSTORE PUSH1 0x32 PUSH1 0x4 MSTORE PUSH1 0x24 PUSH1 0x0 REVERT JUMPDEST PUSH1 0x40 SWAP1 PUSH1 0x3 NOT ADD SLT PUSH2 0x294 JUMPI PUSH1 0x4 CALLDATALOAD SWAP1 PUSH1 0x24 CALLDATALOAD SWAP1 JUMP JUMPDEST SWAP1 PUSH1 0x5 DUP3 LT ISZERO PUSH2 0x9E8 JUMPI MSTORE JUMP JUMPDEST SWAP1 PUSH1 0x1 DUP3 DUP2 SHR SWAP3 AND DUP1 ISZERO PUSH2 0x34CC JUMPI JUMPDEST PUSH1 0x20 DUP4 LT EQ PUSH2 0x34B6 JUMPI JUMP JUMPDEST PUSH4 0x4E487B71 PUSH1 0xE0 SHL PUSH1 0x0 MSTORE PUSH1 0x22 PUSH1 0x4 MSTORE PUSH1 0x24 PUSH1 0x0 REVERT JUMPDEST SWAP2 PUSH1 0x7F AND SWAP2 PUSH2 0x34AB JUMP JUMPDEST PUSH1 0xE0 DUP2 ADD SWAP1 DUP2 LT PUSH1 0x1 PUSH1 0x1 PUSH1 0x40 SHL SUB DUP3 GT OR PUSH2 0x89C JUMPI PUSH1 0x40 MSTORE JUMP JUMPDEST PUSH2 0x1A0 DUP2 ADD SWAP1 DUP2 LT PUSH1 0x1 PUSH1 0x1 PUSH1 0x40 SHL SUB DUP3 GT OR PUSH2 0x89C JUMPI PUSH1 0x40 MSTORE JUMP JUMPDEST PUSH1 0x80 DUP2 ADD SWAP1 DUP2 LT PUSH1 0x1 PUSH1 0x1 PUSH1 0x40 SHL SUB DUP3 GT OR PUSH2 0x89C JUMPI PUSH1 0x40 MSTORE JUMP JUMPDEST PUSH1 0xC0 DUP2 ADD SWAP1 DUP2 LT PUSH1 0x1 PUSH1 0x1 PUSH1 0x40 SHL SUB DUP3 GT OR PUSH2 0x89C JUMPI PUSH1 0x40 MSTORE JUMP JUMPDEST SWAP1 PUSH1 0x1F DUP1 NOT SWAP2 ADD AND DUP2 ADD SWAP1 DUP2 LT PUSH1 0x1 PUSH1 0x1 PUSH1 0x40 SHL SUB DUP3 GT OR PUSH2 0x89C JUMPI PUSH1 0x40 MSTORE JUMP JUMPDEST SWAP1 PUSH1 0x40 MLOAD SWAP2 DUP3 PUSH1 0x0 DUP3 SLOAD SWAP3 PUSH2 0x3578 DUP5 PUSH2 0x349C JUMP JUMPDEST SWAP1 DUP2 DUP5 MSTORE PUSH1 0x1 SWAP5 DUP6 DUP2 AND SWAP1 DUP2 PUSH1 0x0 EQ PUSH2 0x35E7 JUMPI POP PUSH1 0x1 EQ PUSH2 0x35A4 JUMPI JUMPDEST POP POP PUSH2 0x35A2 SWAP3 POP SUB DUP4 PUSH2 0x3543 JUMP JUMPDEST JUMP JUMPDEST SWAP1 SWAP4 SWAP2 POP PUSH1 0x0 MSTORE PUSH1 0x20 SWAP1 DUP2 PUSH1 0x0 KECCAK256 SWAP4 PUSH1 0x0 SWAP2 JUMPDEST DUP2 DUP4 LT PUSH2 0x35CF JUMPI POP POP PUSH2 0x35A2 SWAP4 POP DUP3 ADD ADD CODESIZE DUP1 PUSH2 0x3594 JUMP JUMPDEST DUP6 SLOAD DUP9 DUP5 ADD DUP6 ADD MSTORE SWAP5 DUP6 ADD SWAP5 DUP8 SWAP5 POP SWAP2 DUP4 ADD SWAP2 PUSH2 0x35B7 JUMP JUMPDEST SWAP2 POP POP PUSH2 0x35A2 SWAP5 POP PUSH1 0x20 SWAP3 POP PUSH1 0xFF NOT AND DUP3 DUP5 ADD MSTORE ISZERO ISZERO PUSH1 0x5 SHL DUP3 ADD ADD CODESIZE DUP1 PUSH2 0x3594 JUMP JUMPDEST SWAP2 SWAP1 DUP3 MLOAD SWAP3 DUP4 DUP3 MSTORE PUSH1 0x0 JUMPDEST DUP5 DUP2 LT PUSH2 0x3636 JUMPI POP POP DUP3 PUSH1 0x0 PUSH1 0x20 DUP1 SWAP5 SWAP6 DUP5 ADD ADD MSTORE PUSH1 0x1F DUP1 NOT SWAP2 ADD AND ADD ADD SWAP1 JUMP JUMPDEST PUSH1 0x20 DUP2 DUP4 ADD DUP2 ADD MLOAD DUP5 DUP4 ADD DUP3 ADD MSTORE ADD PUSH2 0x3615 JUMP JUMPDEST SWAP1 PUSH1 0x40 MLOAD PUSH2 0x3657 DUP2 PUSH2 0x34D6 JUMP JUMPDEST PUSH1 0xC0 PUSH1 0x6 DUP3 SWAP5 PUSH2 0x3666 DUP2 PUSH2 0x3564 JUMP JUMPDEST DUP5 MSTORE PUSH1 0x1 DUP2 ADD SLOAD PUSH1 0x1 PUSH1 0x1 PUSH1 0xA0 SHL SUB AND PUSH1 0x20 DUP6 ADD MSTORE PUSH1 0x2 DUP2 ADD SLOAD PUSH1 0x40 DUP6 ADD MSTORE PUSH1 0x3 DUP2 ADD SLOAD PUSH1 0x60 DUP6 ADD MSTORE PUSH2 0x369B PUSH1 0x4 DUP3 ADD PUSH2 0x3564 JUMP JUMPDEST PUSH1 0x80 DUP6 ADD MSTORE PUSH1 0x5 DUP2 ADD SLOAD PUSH1 0xA0 DUP6 ADD MSTORE ADD SLOAD SWAP2 ADD MSTORE JUMP JUMPDEST SWAP1 PUSH1 0x40 MLOAD PUSH2 0x36BE DUP2 PUSH2 0x350D JUMP JUMPDEST DUP3 SLOAD PUSH1 0x1 PUSH1 0x1 PUSH1 0xA0 SHL SUB AND DUP2 MSTORE PUSH1 0x1 DUP4 ADD SLOAD PUSH1 0x20 DUP3 ADD MSTORE PUSH1 0x2 DUP4 ADD SLOAD PUSH1 0x40 DUP3 ADD MSTORE PUSH1 0x3 SWAP1 SWAP3 ADD SLOAD PUSH1 0x60 DUP4 ADD MSTORE JUMP JUMPDEST SWAP1 PUSH1 0x40 MLOAD PUSH2 0x36F9 DUP2 PUSH2 0x3528 JUMP JUMPDEST DUP3 SLOAD PUSH1 0x1 PUSH1 0x1 PUSH1 0xA0 SHL SUB SWAP1 DUP2 AND DUP3 MSTORE PUSH1 0x1 DUP5 ADD SLOAD PUSH1 0x20 DUP4 ADD MSTORE PUSH1 0x2 DUP5 ADD SLOAD PUSH1 0x40 DUP4 ADD MSTORE PUSH1 0x3 DUP5 ADD SLOAD PUSH1 0x60 DUP4 ADD MSTORE PUSH1 0x4 DUP5 ADD SLOAD AND PUSH1 0x80 DUP3 ADD MSTORE PUSH1 0x5 SWAP1 SWAP3 ADD SLOAD PUSH1 0xA0 DUP4 ADD MSTORE JUMP JUMPDEST SWAP1 PUSH1 0x3 DUP3 LT ISZERO PUSH2 0x9E8 JUMPI MSTORE JUMP JUMPDEST SWAP1 PUSH1 0x6 DUP3 LT ISZERO PUSH2 0x9E8 JUMPI MSTORE JUMP JUMPDEST SWAP1 PUSH1 0x4 DUP3 LT ISZERO PUSH2 0x9E8 JUMPI MSTORE JUMP JUMPDEST SWAP1 PUSH1 0xC0 DUP1 PUSH2 0x37B7 PUSH2 0x377F DUP6 MLOAD PUSH1 0xE0 DUP7 MSTORE PUSH1 0xE0 DUP7 ADD SWAP1 PUSH2 0x360A JUMP JUMPDEST PUSH1 0x1 DUP1 PUSH1 0xA0 SHL SUB PUSH1 0x20 DUP8 ADD MLOAD AND PUSH1 0x20 DUP7 ADD MSTORE PUSH1 0x40 DUP7 ADD MLOAD PUSH1 0x40 DUP7 ADD MSTORE PUSH1 0x60 DUP7 ADD MLOAD PUSH1 0x60 DUP7 ADD MSTORE PUSH1 0x80 DUP7 ADD MLOAD DUP6 DUP3 SUB PUSH1 0x80 DUP8 ADD MSTORE PUSH2 0x360A JUMP JUMPDEST SWAP4 PUSH1 0xA0 DUP2 ADD MLOAD PUSH1 0xA0 DUP6 ADD MSTORE ADD MLOAD SWAP2 ADD MSTORE SWAP1 JUMP JUMPDEST ISZERO PUSH2 0x37D1 JUMPI JUMP JUMPDEST PUSH1 0x40 MLOAD PUSH3 0x461BCD PUSH1 0xE5 SHL DUP2 MSTORE PUSH1 0x20 PUSH1 0x4 DUP3 ADD MSTORE PUSH1 0xA PUSH1 0x24 DUP3 ADD MSTORE PUSH10 0x27B7363C9030B236B4B7 PUSH1 0xB1 SHL PUSH1 0x44 DUP3 ADD MSTORE PUSH1 0x64 SWAP1 REVERT JUMPDEST SWAP1 PUSH1 0x5 DUP2 LT ISZERO PUSH2 0x9E8 JUMPI PUSH1 0xFF DUP1 NOT DUP4 SLOAD AND SWAP2 AND OR SWAP1 SSTORE JUMP JUMPDEST SWAP1 DUP2 PUSH1 0x20 SWAP2 SUB SLT PUSH2 0x294 JUMPI MLOAD DUP1 ISZERO ISZERO DUP2 SUB PUSH2 0x294 JUMPI SWAP1 JUMP JUMPDEST ISZERO PUSH2 0x383A JUMPI JUMP JUMPDEST PUSH1 0x40 MLOAD PUSH3 0x461BCD PUSH1 0xE5 SHL DUP2 MSTORE PUSH1 0x20 PUSH1 0x4 DUP3 ADD MSTORE PUSH1 0xD PUSH1 0x24 DUP3 ADD MSTORE PUSH13 0x14DE5CDD195B481C185D5CD959 PUSH1 0x9A SHL PUSH1 0x44 DUP3 ADD MSTORE PUSH1 0x64 SWAP1 REVERT JUMPDEST ISZERO PUSH2 0x3876 JUMPI JUMP JUMPDEST PUSH1 0x40 MLOAD PUSH3 0x461BCD PUSH1 0xE5 SHL DUP2 MSTORE PUSH1 0x20 PUSH1 0x4 DUP3 ADD MSTORE PUSH1 0x10 PUSH1 0x24 DUP3 ADD MSTORE PUSH16 0x155CD95C88189B1858DADB1A5CDD1959 PUSH1 0x82 SHL PUSH1 0x44 DUP3 ADD MSTORE PUSH1 0x64 SWAP1 REVERT JUMPDEST PUSH1 0x0 NOT DUP2 EQ PUSH2 0x38BD JUMPI PUSH1 0x1 ADD SWAP1 JUMP JUMPDEST PUSH4 0x4E487B71 PUSH1 0xE0 SHL PUSH1 0x0 MSTORE PUSH1 0x11 PUSH1 0x4 MSTORE PUSH1 0x24 PUSH1 0x0 REVERT JUMPDEST ISZERO PUSH2 0x38DA JUMPI JUMP JUMPDEST PUSH1 0x40 MLOAD PUSH3 0x461BCD PUSH1 0xE5 SHL DUP2 MSTORE PUSH1 0x20 PUSH1 0x4 DUP3 ADD MSTORE PUSH1 0x10 PUSH1 0x24 DUP3 ADD MSTORE PUSH16 0x125B9858DD1A5D99481C1C9BD91D58DD PUSH1 0x82 SHL PUSH1 0x44 DUP3 ADD MSTORE PUSH1 0x64 SWAP1 REVERT JUMPDEST DUP1 SLOAD PUSH9 0x10000000000000000 DUP2 LT ISZERO PUSH2 0x89C JUMPI PUSH2 0x3934 SWAP2 PUSH1 0x1 DUP3 ADD DUP2 SSTORE PUSH2 0x344B JUMP JUMPDEST DUP2 SWAP3 SWAP2 SLOAD SWAP1 PUSH1 0x3 SHL SWAP2 DUP3 SHL SWAP2 PUSH1 0x0 NOT SWAP1 SHL NOT AND OR SWAP1 SSTORE JUMP JUMPDEST PUSH1 0x1 PUSH1 0x1 PUSH1 0x40 SHL SUB DUP2 GT PUSH2 0x89C JUMPI PUSH1 0x5 SHL PUSH1 0x20 ADD SWAP1 JUMP JUMPDEST SWAP1 PUSH2 0x396D DUP3 PUSH2 0x394C JUMP JUMPDEST PUSH2 0x397A PUSH1 0x40 MLOAD SWAP2 DUP3 PUSH2 0x3543 JUMP JUMPDEST DUP3 DUP2 MSTORE DUP1 SWAP3 PUSH2 0x398B PUSH1 0x1F NOT SWAP2 PUSH2 0x394C JUMP JUMPDEST ADD SWAP1 PUSH1 0x20 CALLDATASIZE SWAP2 ADD CALLDATACOPY JUMP JUMPDEST DUP1 MLOAD DUP3 LT ISZERO PUSH2 0x3463 JUMPI PUSH1 0x20 SWAP2 PUSH1 0x5 SHL ADD ADD SWAP1 JUMP JUMPDEST ISZERO PUSH2 0x39B0 JUMPI JUMP JUMPDEST PUSH1 0x40 MLOAD PUSH3 0x461BCD PUSH1 0xE5 SHL DUP2 MSTORE PUSH1 0x20 PUSH1 0x4 DUP3 ADD MSTORE PUSH1 0x15 PUSH1 0x24 DUP3 ADD MSTORE PUSH21 0x13DB9B1E481C5D585B1A5D1E4818DBDB9D1C9858DD PUSH1 0x5A SHL PUSH1 0x44 DUP3 ADD MSTORE PUSH1 0x64 SWAP1 REVERT JUMPDEST ISZERO PUSH2 0x39F4 JUMPI JUMP JUMPDEST PUSH1 0x40 MLOAD PUSH3 0x461BCD PUSH1 0xE5 SHL DUP2 MSTORE PUSH1 0x20 PUSH1 0x4 DUP3 ADD MSTORE PUSH1 0x13 PUSH1 0x24 DUP3 ADD MSTORE PUSH19 0x13DB9B1E4818985D18DA0818DBDB9D1C9858DD PUSH1 0x6A SHL PUSH1 0x44 DUP3 ADD MSTORE PUSH1 0x64 SWAP1 REVERT INVALID 0xDF PUSH31 0xFC9F6F5BCE44CBF5DB3D8362387F6D02E0566C37FB4ED10CD3D05B35ECADA2 PUSH5 0x6970667358 0x22 SLT KECCAK256 0xEE 0xBA PUSH11 0xA0838ABAB3603960B3BE64 SWAP10 0xD7 INVALID TIMESTAMP PUSH2 0x75BB MUL 0xD5 0x29 PUSH6 0xC9E21F61F191 SWAP6 PUSH5 0x736F6C6343 STOP ADDMOD SGT STOP CALLER PUSH1 0x80 CALLVALUE PUSH2 0x74 JUMPI PUSH1 0x1F PUSH2 0x3F3 CODESIZE DUP2 SWAP1 SUB SWAP2 DUP3 ADD PUSH1 0x1F NOT AND DUP4 ADD SWAP2 PUSH1 0x1 PUSH1 0x1 PUSH1 0x40 SHL SUB DUP4 GT DUP5 DUP5 LT OR PUSH2 0x79 JUMPI DUP1 DUP5 SWAP3 PUSH1 0x20 SWAP5 PUSH1 0x40 MSTORE DUP4 CODECOPY DUP2 ADD SUB SLT PUSH2 0x74 JUMPI MLOAD PUSH1 0x1 PUSH1 0x1 PUSH1 0xA0 SHL SUB DUP2 AND SWAP1 DUP2 SWAP1 SUB PUSH2 0x74 JUMPI PUSH1 0x0 DUP1 SLOAD PUSH1 0x1 PUSH1 0x1 PUSH1 0xA8 SHL SUB NOT AND SWAP2 SWAP1 SWAP2 OR SWAP1 SSTORE PUSH1 0x40 MLOAD PUSH2 0x363 SWAP1 DUP2 PUSH2 0x90 DUP3 CODECOPY RETURN JUMPDEST PUSH1 0x0 DUP1 REVERT JUMPDEST PUSH4 0x4E487B71 PUSH1 0xE0 SHL PUSH1 0x0 MSTORE PUSH1 0x41 PUSH1 0x4 MSTORE PUSH1 0x24 PUSH1 0x0 REVERT INVALID PUSH1 0x40 PUSH1 0x80 DUP2 MSTORE PUSH1 0x4 CALLDATASIZE LT ISZERO PUSH2 0x13 JUMPI PUSH1 0x0 DUP1 REVERT JUMPDEST PUSH1 0x0 SWAP1 DUP2 CALLDATALOAD PUSH1 0xE0 SHR DUP1 PUSH4 0x3F4BA83A EQ PUSH2 0x29C JUMPI DUP1 PUSH4 0x5C975ABB EQ PUSH2 0x1A7 JUMPI DUP1 PUSH4 0x75E3661E EQ PUSH2 0x22C JUMPI DUP1 PUSH4 0x8456CB59 EQ PUSH2 0x1CB JUMPI DUP1 PUSH4 0xB187BD26 EQ PUSH2 0x1A7 JUMPI DUP1 PUSH4 0xDBAC26E9 EQ PUSH2 0x167 JUMPI DUP1 PUSH4 0xF851A440 EQ PUSH2 0x140 JUMPI DUP1 PUSH4 0xF9F92BE4 EQ PUSH2 0xC9 JUMPI PUSH4 0xFE575A87 EQ PUSH2 0x82 JUMPI PUSH1 0x0 DUP1 REVERT JUMPDEST CALLVALUE PUSH2 0xC5 JUMPI PUSH1 0x20 CALLDATASIZE PUSH1 0x3 NOT ADD SLT PUSH2 0xC5 JUMPI PUSH1 0x4 CALLDATALOAD PUSH1 0x1 PUSH1 0x1 PUSH1 0xA0 SHL SUB DUP2 AND SWAP1 DUP2 SWAP1 SUB PUSH2 0xC1 JUMPI DUP2 DUP4 PUSH1 0xFF SWAP3 PUSH1 0x20 SWAP6 MSTORE PUSH1 0x1 DUP6 MSTORE KECCAK256 SLOAD AND SWAP1 MLOAD SWAP1 ISZERO ISZERO DUP2 MSTORE RETURN JUMPDEST DUP3 DUP1 REVERT JUMPDEST POP DUP1 REVERT JUMPDEST POP CALLVALUE PUSH2 0xC5 JUMPI PUSH1 0x20 CALLDATASIZE PUSH1 0x3 NOT ADD SLT PUSH2 0xC5 JUMPI PUSH1 0x4 CALLDATALOAD PUSH1 0x1 PUSH1 0x1 PUSH1 0xA0 SHL SUB DUP2 DUP2 AND SWAP3 SWAP2 DUP4 SWAP1 SUB PUSH2 0x13C JUMPI PUSH2 0x100 SWAP1 DUP5 SLOAD AND CALLER EQ PUSH2 0x2F4 JUMP JUMPDEST DUP2 DUP4 MSTORE PUSH1 0x1 PUSH1 0x20 MSTORE DUP3 KECCAK256 PUSH1 0x1 PUSH1 0xFF NOT DUP3 SLOAD AND OR SWAP1 SSTORE PUSH32 0xFFA4E6181777692565CF28528FC88FD1516EA86B56DA075235FA575AF6A4B855 DUP3 DUP1 LOG2 DUP1 RETURN JUMPDEST DUP4 DUP1 REVERT JUMPDEST POP CALLVALUE PUSH2 0xC5 JUMPI DUP2 PUSH1 0x3 NOT CALLDATASIZE ADD SLT PUSH2 0xC5 JUMPI SWAP1 SLOAD SWAP1 MLOAD PUSH1 0x1 PUSH1 0x1 PUSH1 0xA0 SHL SUB SWAP1 SWAP2 AND DUP2 MSTORE PUSH1 0x20 SWAP1 RETURN JUMPDEST POP CALLVALUE PUSH2 0xC5 JUMPI PUSH1 0x20 CALLDATASIZE PUSH1 0x3 NOT ADD SLT PUSH2 0xC5 JUMPI PUSH1 0x4 CALLDATALOAD PUSH1 0x1 PUSH1 0x1 PUSH1 0xA0 SHL SUB DUP2 AND SWAP1 DUP2 SWAP1 SUB PUSH2 0xC1 JUMPI DUP2 DUP4 PUSH1 0xFF SWAP3 PUSH1 0x20 SWAP6 MSTORE PUSH1 0x1 DUP6 MSTORE KECCAK256 SLOAD AND SWAP1 MLOAD SWAP1 ISZERO ISZERO DUP2 MSTORE RETURN JUMPDEST POP CALLVALUE PUSH2 0xC5 JUMPI DUP2 PUSH1 0x3 NOT CALLDATASIZE ADD SLT PUSH2 0xC5 JUMPI PUSH1 0xFF PUSH1 0x20 SWAP3 SLOAD PUSH1 0xA0 SHR AND SWAP1 MLOAD SWAP1 ISZERO ISZERO DUP2 MSTORE RETURN JUMPDEST DUP3 CALLVALUE PUSH2 0x229 JUMPI DUP1 PUSH1 0x3 NOT CALLDATASIZE ADD SLT PUSH2 0x229 JUMPI DUP1 SLOAD PUSH2 0x1F2 CALLER PUSH1 0x1 PUSH1 0x1 PUSH1 0xA0 SHL SUB DUP4 AND EQ PUSH2 0x2F4 JUMP JUMPDEST PUSH1 0xFF PUSH1 0xA0 SHL NOT AND PUSH1 0x1 PUSH1 0xA0 SHL OR DUP2 SSTORE CALLER PUSH32 0x62E78CEA01BEE320CD4E420270B5EA74000D11B0C9F74754EBDBFC544B05A258 DUP3 DUP1 LOG2 DUP1 RETURN JUMPDEST DUP1 REVERT JUMPDEST POP CALLVALUE PUSH2 0xC5 JUMPI PUSH1 0x20 CALLDATASIZE PUSH1 0x3 NOT ADD SLT PUSH2 0xC5 JUMPI PUSH1 0x4 CALLDATALOAD PUSH1 0x1 PUSH1 0x1 PUSH1 0xA0 SHL SUB DUP2 DUP2 AND SWAP3 SWAP2 DUP4 SWAP1 SUB PUSH2 0x13C JUMPI PUSH2 0x263 SWAP1 DUP5 SLOAD AND CALLER EQ PUSH2 0x2F4 JUMP JUMPDEST DUP2 DUP4 MSTORE PUSH1 0x1 PUSH1 0x20 MSTORE DUP3 KECCAK256 DUP1 SLOAD PUSH1 0xFF NOT AND SWAP1 SSTORE PUSH32 0x7534C63860313C46C473E4E98328F37017E9674E2162FAF1A3AD7A96236C3B7B DUP3 DUP1 LOG2 DUP1 RETURN JUMPDEST DUP3 CALLVALUE PUSH2 0x229 JUMPI DUP1 PUSH1 0x3 NOT CALLDATASIZE ADD SLT PUSH2 0x229 JUMPI DUP1 SLOAD PUSH2 0x2C3 CALLER PUSH1 0x1 PUSH1 0x1 PUSH1 0xA0 SHL SUB DUP4 AND EQ PUSH2 0x2F4 JUMP JUMPDEST PUSH1 0xFF PUSH1 0xA0 SHL NOT AND DUP2 SSTORE CALLER PUSH32 0x5DB9EE0A495BF2E6FF9C91A7834C1BA4FDD244A5E8AA4E537BD38AEAE4B073AA DUP3 DUP1 LOG2 DUP1 RETURN JUMPDEST ISZERO PUSH2 0x2FB JUMPI JUMP JUMPDEST PUSH1 0x40 MLOAD PUSH3 0x461BCD PUSH1 0xE5 SHL DUP2 MSTORE PUSH1 0x20 PUSH1 0x4 DUP3 ADD MSTORE PUSH1 0xA PUSH1 0x24 DUP3 ADD MSTORE PUSH10 0x27B7363C9030B236B4B7 PUSH1 0xB1 SHL PUSH1 0x44 DUP3 ADD MSTORE PUSH1 0x64 SWAP1 REVERT INVALID LOG2 PUSH5 0x6970667358 0x22 SLT KECCAK256 LOG1 0xE5 0xD7 CREATE2 SELFDESTRUCT 0xCF 0xD7 0xEC 0x4A 0xAB 0xE JUMP CALL 0xB7 0xA6 SIGNEXTEND MSTORE SUB PUSH7 0xAA950EBB7FB8D6 PUSH14 0xFC214FE6E764736F6C6343000813 STOP CALLER "},"methodIdentifiers":{"MIN_TEMP()":"638a348c","addRetailerTxId(address,uint256)":"84223e56","admin()":"f851a440","assignRole(address,uint8)":"630a195b","batchContract()":"5e66bdb3","createProduct(string,uint256,string,uint256,uint256)":"dd003ace","createTransaction(address,address,uint256,uint256,uint256)":"6365ce65","deactivateProduct(uint256)":"fd77e5de","distributorTxIds(address,uint256)":"5bdb6f71","emergency()":"caa6fea4","farmerSoldProducts(address,uint256)":"6c0245d0","getAvailableProductsForDistributor()":"1290831d","getFullTrace(uint256)":"d3838ab1","getProduct(uint256)":"b9db15b4","getProductsByDistributor(address)":"f6fa3b92","getProductsByFarmer(address)":"ec90a7b0","getProductsByRetailer(address)":"d6669147","getReputation(uint8,address)":"1b9cf329","getRole(address)":"44276733","getTotalProducts()":"570aea8a","getTransaction(uint256)":"33ea3dc8","getUserDetails(address)":"cc3d967b","listProductForConsumer(uint256)":"7d0c49a8","markProductAsBuyed(uint256,address,uint256)":"65ebd136","nextProductId()":"4de91a63","nextTxId()":"8aff87b2","products(uint256)":"7acc0b20","purchaseFromFarmer(uint256,uint256)":"6ba37e10","qualityContract()":"bd4baddb","registerUser(uint8,string)":"d29bcc5c","reputationScores(uint8,address)":"22e377ff","requestTemperatureUpdate(uint256)":"b8908429","retailerTxIds(address,uint256)":"2423bb0b","roles(address)":"99374642","setBatchContract(address)":"2f3ebcb0","setQualityContract(address)":"77f5cfc3","setTemperatureOracle(address)":"80b31ebc","storeFarmDataHash(uint256,string)":"7882e082","temperatureOracle()":"b320b6fc","transactions(uint256)":"9ace38c2","updateProductDistributionDataHash(uint256,string)":"2399339c","updateProductDistributionVerified(uint256,uint256)":"37739bb0","updateProductDistributorToRetailerTx(uint256,uint256)":"abbf2f98","updateProductOverallGrade(uint256,uint8)":"cd970a63","updateProductRetailData(uint256,address,uint256,uint256)":"8e6ca456","updateProductRetailDataHash(uint256,string)":"1e509437","updateProductRetailVerified(uint256,uint256)":"47b5faf2","updateProductStage(uint256,uint8)":"6a13931d","updateProductState(uint256,uint8)":"bec514c3","updateReputation(uint256,uint8,uint8)":"15ba312d","userDataHash(address)":"6357e48b"}}}}}