{"contracts/TemperatureOracle.sol":{"TemperatureOracle":{"abi":[{"inputs":[],"stateMutability":"nonpayable","type":"constructor"},{"anonymous":false,"inputs":[{"indexed":true,"internalType":"bytes32","name":"id","type":"bytes32"}],"name":"ChainlinkCancelled","type":"event"},{"anonymous":false,"inputs":[{"indexed":true,"internalType":"bytes32","name":"id","type":"bytes32"}],"name":"ChainlinkFulfilled","type":"event"},{"anonymous":false,"inputs":[{"indexed":true,"internalType":"bytes32","name":"id","type":"bytes32"}],"name":"ChainlinkRequested","type":"event"},{"anonymous":false,"inputs":[{"indexed":true,"internalType":"uint256","name":"productId","type":"uint256"},{"indexed":false,"internalType":"uint256","name":"temperature","type":"uint256"}],"name":"CriticalTemperatureDetected","type":"event"},{"anonymous":false,"inputs":[{"indexed":true,"internalType":"address","name":"from","type":"address"},{"indexed":true,"internalType":"address","name":"to","type":"address"}],"name":"OwnershipTransferRequested","type":"event"},{"anonymous":false,"inputs":[{"indexed":true,"internalType":"address","name":"from","type":"address"},{"indexed":true,"internalType":"address","name":"to","type":"address"}],"name":"OwnershipTransferred","type":"event"},{"anonymous":false,"inputs":[{"indexed":true,"internalType":"bytes32","name":"requestId","type":"bytes32"},{"indexed":false,"internalType":"uint256","name":"productId","type":"uint256"}],"name":"RequestTemperature","type":"event"},{"anonymous":false,"inputs":[{"indexed":true,"internalType":"bytes32","name":"requestId","type":"bytes32"},{"indexed":false,"internalType":"uint256","name":"temperature","type":"uint256"},{"indexed":false,"internalType":"uint256","name":"productId","type":"uint256"}],"name":"TemperatureReceived","type":"event"},{"inputs":[],"name":"acceptOwnership","outputs":[],"stateMutability":"nonpayable","type":"function"},{"inputs":[{"internalType":"bytes32","name":"_requestId","type":"bytes32"},{"internalType":"uint256","name":"_temperature","type":"uint256"}],"name":"fulfill","outputs":[],"stateMutability":"nonpayable","type":"function"},{"inputs":[{"internalType":"uint256","name":"productId","type":"uint256"}],"name":"getCurrentTemperature","outputs":[{"internalType":"uint256","name":"","type":"uint256"}],"stateMutability":"view","type":"function"},{"inputs":[{"internalType":"uint256","name":"productId","type":"uint256"}],"name":"getLatestTemperatureForProduct","outputs":[{"internalType":"uint256","name":"","type":"uint256"}],"stateMutability":"view","type":"function"},{"inputs":[{"internalType":"uint256","name":"","type":"uint256"}],"name":"latestTemperatureByProduct","outputs":[{"internalType":"uint256","name":"","type":"uint256"}],"stateMutability":"view","type":"function"},{"inputs":[],"name":"owner","outputs":[{"internalType":"address","name":"","type":"address"}],"stateMutability":"view","type":"function"},{"inputs":[{"internalType":"uint256","name":"productId","type":"uint256"}],"name":"requestTemperatureForProduct","outputs":[{"internalType":"bytes32","name":"requestId","type":"bytes32"}],"stateMutability":"nonpayable","type":"function"},{"inputs":[{"internalType":"bytes32","name":"","type":"bytes32"}],"name":"requestToProductId","outputs":[{"internalType":"uint256","name":"","type":"uint256"}],"stateMutability":"view","type":"function"},{"inputs":[{"internalType":"bytes32","name":"","type":"bytes32"}],"name":"requestToRequester","outputs":[{"internalType":"address","name":"","type":"address"}],"stateMutability":"view","type":"function"},{"inputs":[{"internalType":"address","name":"to","type":"address"}],"name":"transferOwnership","outputs":[],"stateMutability":"nonpayable","type":"function"},{"inputs":[],"name":"withdrawLink","outputs":[],"stateMutability":"nonpayable","type":"function"}],"evm":{"bytecode":{"linkReferences":{},"object":"608080604052346100e357600160045533156100a157736090149792daaee9d1d568c9f9a6f6b46aa29efd60018060a01b03193381600654161760065573779877a7b0d9e8603169ddbd7836e478b462478981600254161760025560035416176003557f636139383336366363373331343935376238633031326337326630356165656260085567016345785d8a000060095560405161127790816100e98239f35b62461bcd60e51b815260206004820152601860248201527f43616e6e6f7420736574206f776e657220746f207a65726f00000000000000006044820152606490fd5b600080fdfe6080604052600436101561001257600080fd5b60003560e01c80631085a271146100bd5780633f66286a146100b85780634357855e146100b3578063561009131461009a5780635ded83d01461009a57806379ba5097146100ae5780638da5cb5b146100a95780638dc654a2146100a4578063a4f500731461009f578063b6ec77091461009a5763f2fde38b1461009557600080fd5b61058d565b610209565b610437565b61031e565b6102f5565b610235565b610122565b6100ee565b346100e95760203660031901126100e957600435600052600a6020526020604060002054604051908152f35b600080fd5b346100e95760203660031901126100e957600435600052600b602052602060018060a01b0360406000205416604051908152f35b346100e95760403660031901126100e9576004356000818152600560205260408120549091906001600160a01b031633036101b357806101826101726101b0936000526005602052604060002090565b80546001600160a01b0319169055565b807f7cc135e0cebb02c3480ae5d74d377283180a2601f8f644edf7987b009316c63a8480a2602435906111b1565b80f35b60405162461bcd60e51b815260206004820152602860248201527f536f75726365206d75737420626520746865206f7261636c65206f6620746865604482015267081c995c5d595cdd60c21b6064820152608490fd5b346100e95760203660031901126100e957600435600052600c6020526020604060002054604051908152f35b346100e9576000806003193601126102f2576007546001600160a01b0390811633036102b4576006546001600160a01b0316600680546001600160a01b0319163317905590600780546001600160a01b03191690553391167f8be0079c531659141344cd1fd0a4f28419497f9722a3daafe3b4186f6b6457e08380a380f35b60405162461bcd60e51b815260206004820152601660248201527526bab9ba10313290383937b837b9b2b21037bbb732b960511b6044820152606490fd5b80fd5b346100e95760003660031901126100e9576006546040516001600160a01b039091168152602090f35b346100e9576000806003193601126102f257610338610655565b60025461035b9061034f906001600160a01b031681565b6001600160a01b031690565b6040516370a0823160e01b8152306004820152602091908281602481855afa90811561040557849284926103bb92859161040a575b5060405163a9059cbb60e01b8152336004820152602481019190915293849283919082906044820190565b03925af1908115610405576101b09284926103d8575b5050611200565b6103f79250803d106103fe575b6103ef81836106fa565b810190610a71565b38806103d1565b503d6103e5565b610aad565b61042a9150843d8611610430575b61042281836106fa565b8101906111f1565b38610390565b503d610418565b346100e95760203660031901126100e9576105896105766004357fe78d462e5b267f45854758f0687f24365bbc54861f62fa130714b75dcb2416ad610516600854610480610912565b50610489610912565b90610492610912565b5061012060808301516104a36108e7565b506101006020820152604051809152600081520160405281523060208201526321abc2af60e11b60408201526104e96104da61071c565b6104e261073b565b90836107dc565b6104fc6104f4610774565b6104e2610794565b61050d6105076107bb565b826107f7565b60095490610959565b9282849361052e85600052600a602052604060002090565b556105663361054786600052600b602052604060002090565b80546001600160a01b0319166001600160a01b03909216919091179055565b6040519081529081906020820190565b0390a26040519081529081906020820190565b0390f35b346100e95760203660031901126100e9576004356001600160a01b038116908190036100e9576105bb610655565b33811461061057600780546001600160a01b031916821790556006546105e9906001600160a01b031661034f565b7fed8889f560326eb138920d842192f0eb3dd22b4f139c87a2c57538e05bae1278600080a3005b60405162461bcd60e51b815260206004820152601760248201527f43616e6e6f74207472616e7366657220746f2073656c660000000000000000006044820152606490fd5b6006546001600160a01b0316330361066957565b60405162461bcd60e51b815260206004820152601660248201527527b7363c9031b0b63630b1363290313c9037bbb732b960511b6044820152606490fd5b634e487b7160e01b600052604160045260246000fd5b6040810190811067ffffffffffffffff8211176106d957604052565b6106a7565b6060810190811067ffffffffffffffff8211176106d957604052565b90601f8019910116810190811067ffffffffffffffff8211176106d957604052565b60405190610729826106bd565b600382526219d95d60ea1b6020830152565b60405190610748826106bd565b601c82527f687474703a2f2f3132372e302e302e313a353030312f73656e736f72000000006020830152565b60405190610781826106bd565b60048252630e0c2e8d60e31b6020830152565b604051906107a1826106bd565b600b82526a74656d706572617475726560a81b6020830152565b604051906107c8826106bd565b600582526474696d657360d81b6020830152565b60800180516107f593926107ef91611111565b51611111565b565b60806108069101918251611111565b5161080f6108e7565b508051519061081c6108e7565b5060208101918251808210156108c1575b5081519081518160186020839486010153146108b5575b505061084e6108e7565b508051519161085b6108e7565b508260010190816001116108b057518111610898575b5051600182820101606460ff19825116179052600181519201918211610895575050565b52565b6108a46108aa91610dff565b82610e15565b38610871565b610a00565b60010190523880610844565b6108cd6108e091610dff565b6108d984519185610c06565b5083610e71565b503861082d565b604051906040820182811067ffffffffffffffff8211176106d9576040526000602083606081520152565b6040519060a0820182811067ffffffffffffffff8211176106d957604052816000815260006020820152600060408201526000606082015260806109546108e7565b910152565b6003546004546001810193916001600160a01b0316848211610a00576109fd946004556109f884516109ea608063ffffffff60e01b604089015116970151516040519788936320214ca360e11b60208601526000602486015260006044860152606485015230608485015260a48401528560c4840152600160e4840152610100610104840152610124830190610a31565b03601f1981018652856106fa565b610b11565b90565b634e487b7160e01b600052601160045260246000fd5b90602082018092116108b057565b919082018092116108b057565b919082519283825260005b848110610a5d575050826000602080949584010152601f8019910116010190565b602081830181015184830182015201610a3c565b908160209103126100e9575180151581036100e95790565b6109fd939260609260018060a01b0316825260208201528160408201520190610a31565b6040513d6000823e3d90fd5b15610ac057565b60405162461bcd60e51b815260206004820152602360248201527f756e61626c6520746f207472616e73666572416e6443616c6c20746f206f7261604482015262636c6560e81b6064820152608490fd5b92610bbd9293602092604051848101916bffffffffffffffffffffffff193060601b168352603482015260348152610b48816106de565b51902094610b6482610547886000526005602052604060002090565b60006040518096819582948a7fb5e6e01e79f91267dc17b4e6314d5d4d03593d2ceee0fbb452b750bd70ea5af98680a2600254610ba9906001600160a01b031661034f565b630200057560e51b85529660048501610a89565b03925af18015610405576109fd91600091610bd9575b50610ab9565b610bf1915060203d81116103fe576103ef81836106fa565b38610bd3565b601f198101919082116108b057565b90610c0f6108e7565b50601f811680610c35575b50806020830152604051808352600081520160200160405290565b602003602081116108b05781018091116108b05738610c1a565b610c576108e7565b50805151610c636108e7565b50602082015180821015610c95575b50815190815181607b602083948601015314610c8d57505090565b600101905290565b6108cd610ca191610dff565b5038610c72565b610cb06108e7565b50805151610cbc6108e7565b50602082015180821015610ce6575b50815190815181607a602083948601015314610c8d57505090565b6108cd610cf291610dff565b5038610ccb565b610d016108e7565b50805151610d0d6108e7565b50602082015180821015610d37575b508151908151816079602083948601015314610c8d57505090565b6108cd610d4391610dff565b5038610d1c565b610d526108e7565b50805151610d5e6108e7565b50602082015180821015610d88575b508151908151816078602083948601015314610c8d57505090565b6108cd610d9491610dff565b5038610d6d565b90610da46108e7565b50815151610db06108e7565b50602083015180821015610dd9575b5082519182519182916020828601015314610c8d57505090565b610de5610df891610dff565b610df185519186610c06565b5084610e71565b5038610dbf565b908160011b91808304600214901517156108b057565b80519082610e216108e7565b50601f841680610e51575b50610e4e93508060208301526040518083526000815201602001604052610e71565b50565b9050602003602081116108b05783018093116108b057610e4e9238610e2c565b90610e7a6108e7565b5081515190805190610e8a6108e7565b50610e988151831115610f49565b610ea28284610a24565b602091829182870151809111610f1e575b5085518051908387820101968601918211610f16575b505001915b81811015610ef05760001991036101000a019081199051169082511617905290565b9192610f0b610f05610f119286518152610a16565b94610a16565b92610bf7565b610ece565b523880610ec9565b610f3d610f38610f4392610f328989610a24565b90610f50565b610dff565b87610e15565b38610eb3565b156100e957565b818111610f5b575090565b905090565b90610f696108e7565b5081515190610f766108e7565b5081600801806008116108b05760208401518111610fc0575b508251906008838301019067ffffffffffffffff19825116179052600881519201918211610fbc57505090565b5290565b610fcc610fd291610dff565b84610e15565b38610f8f565b90610fe16108e7565b5081515190610fee6108e7565b5081600401806004116108b05760208401518111611030575b508251906004838301019063ffffffff19825116179052600481519201918211610fbc57505090565b610fcc61103c91610dff565b38611007565b9061104b6108e7565b50815151906110586108e7565b5081600201806002116108b05760208401518111611098575b508251906002838301019061ffff19825116179052600281519201918211610fbc57505090565b610fcc6110a491610dff565b38611071565b906110b36108e7565b50815151906110c06108e7565b5081600101806001116108b057602084015181116110ff575b508251906001838301019060ff19825116179052600181519201918211610fbc57505090565b610fcc61110b91610dff565b386110d9565b8151610e4e92919067ffffffffffffffff8116601781116111435750606060ff61113d92161782610d9b565b50610e71565b905060ff81116111615761113d9061115a83610d4a565b50826110aa565b61ffff811161117e5761113d9061117783610cf9565b5082611042565b63ffffffff811161119d5761113d9061119683610ca8565b5082610fd8565b61113d906111aa83610c4f565b5082610f60565b610172916064600091838352600a60205260408320548352600c602052046040822055818152600a6020526040812055600052600b602052604060002090565b908160209103126100e9575190565b1561120757565b60405162461bcd60e51b81526020600482015260126024820152712ab730b13632903a37903a3930b739b332b960711b6044820152606490fdfea26469706673582212202f5f9d7fdbfc33d00e28847adb4b488250108b5258ee91eb985c892c92d5719264736f6c63430008130033","opcodes":"PUSH1 0x80 DUP1 PUSH1 0x40 MSTORE CALLVALUE PUSH2 0xE3 JUMPI PUSH1 0x1 PUSH1 0x4 SSTORE CALLER ISZERO PUSH2 0xA1 JUMPI PUSH20 0x6090149792DAAEE9D1D568C9F9A6F6B46AA29EFD PUSH1 0x1 DUP1 PUSH1 0xA0 SHL SUB NOT CALLER DUP2 PUSH1 0x6 SLOAD AND OR PUSH1 0x6 SSTORE PUSH20 0x779877A7B0D9E8603169DDBD7836E478B4624789 DUP2 PUSH1 0x2 SLOAD AND OR PUSH1 0x2 SSTORE PUSH1 0x3 SLOAD AND OR PUSH1 0x3 SSTORE PUSH32 0x6361393833363663633733313439353762386330313263373266303561656562 PUSH1 0x8 SSTORE PUSH8 0x16345785D8A0000 PUSH1 0x9 SSTORE PUSH1 0x40 MLOAD PUSH2 0x1277 SWAP1 DUP2 PUSH2 0xE9 DUP3 CODECOPY RETURN JUMPDEST PUSH3 0x461BCD PUSH1 0xE5 SHL DUP2 MSTORE PUSH1 0x20 PUSH1 0x4 DUP3 ADD MSTORE PUSH1 0x18 PUSH1 0x24 DUP3 ADD MSTORE PUSH32 0x43616E6E6F7420736574206F776E657220746F207A65726F0000000000000000 PUSH1 0x44 DUP3 ADD MSTORE PUSH1 0x64 SWAP1 REVERT JUMPDEST PUSH1 0x0 DUP1 REVERT INVALID PUSH1 0x80 PUSH1 0x40 MSTORE PUSH1 0x4 CALLDATASIZE LT ISZERO PUSH2 0x12 JUMPI PUSH1 0x0 DUP1 REVERT JUMPDEST PUSH1 0x0 CALLDATALOAD PUSH1 0xE0 SHR DUP1 PUSH4 0x1085A271 EQ PUSH2 0xBD JUMPI DUP1 PUSH4 0x3F66286A EQ PUSH2 0xB8 JUMPI DUP1 PUSH4 0x4357855E EQ PUSH2 0xB3 JUMPI DUP1 PUSH4 0x56100913 EQ PUSH2 0x9A JUMPI DUP1 PUSH4 0x5DED83D0 EQ PUSH2 0x9A JUMPI DUP1 PUSH4 0x79BA5097 EQ PUSH2 0xAE JUMPI DUP1 PUSH4 0x8DA5CB5B EQ PUSH2 0xA9 JUMPI DUP1 PUSH4 0x8DC654A2 EQ PUSH2 0xA4 JUMPI DUP1 PUSH4 0xA4F50073 EQ PUSH2 0x9F JUMPI DUP1 PUSH4 0xB6EC7709 EQ PUSH2 0x9A JUMPI PUSH4 0xF2FDE38B EQ PUSH2 0x95 JUMPI PUSH1 0x0 DUP1 REVERT JUMPDEST PUSH2 0x58D JUMP JUMPDEST PUSH2 0x209 JUMP JUMPDEST PUSH2 0x437 JUMP JUMPDEST PUSH2 0x31E JUMP JUMPDEST PUSH2 0x2F5 JUMP JUMPDEST PUSH2 0x235 JUMP JUMPDEST PUSH2 0x122 JUMP JUMPDEST PUSH2 0xEE JUMP JUMPDEST CALLVALUE PUSH2 0xE9 JUMPI PUSH1 0x20 CALLDATASIZE PUSH1 0x3 NOT ADD SLT PUSH2 0xE9 JUMPI PUSH1 0x4 CALLDATALOAD PUSH1 0x0 MSTORE PUSH1 0xA PUSH1 0x20 MSTORE PUSH1 0x20 PUSH1 0x40 PUSH1 0x0 KECCAK256 SLOAD PUSH1 0x40 MLOAD SWAP1 DUP2 MSTORE RETURN JUMPDEST PUSH1 0x0 DUP1 REVERT JUMPDEST CALLVALUE PUSH2 0xE9 JUMPI PUSH1 0x20 CALLDATASIZE PUSH1 0x3 NOT ADD SLT PUSH2 0xE9 JUMPI PUSH1 0x4 CALLDATALOAD PUSH1 0x0 MSTORE PUSH1 0xB PUSH1 0x20 MSTORE PUSH1 0x20 PUSH1 0x1 DUP1 PUSH1 0xA0 SHL SUB PUSH1 0x40 PUSH1 0x0 KECCAK256 SLOAD AND PUSH1 0x40 MLOAD SWAP1 DUP2 MSTORE RETURN JUMPDEST CALLVALUE PUSH2 0xE9 JUMPI PUSH1 0x40 CALLDATASIZE PUSH1 0x3 NOT ADD SLT PUSH2 0xE9 JUMPI PUSH1 0x4 CALLDATALOAD PUSH1 0x0 DUP2 DUP2 MSTORE PUSH1 0x5 PUSH1 0x20 MSTORE PUSH1 0x40 DUP2 KECCAK256 SLOAD SWAP1 SWAP2 SWAP1 PUSH1 0x1 PUSH1 0x1 PUSH1 0xA0 SHL SUB AND CALLER SUB PUSH2 0x1B3 JUMPI DUP1 PUSH2 0x182 PUSH2 0x172 PUSH2 0x1B0 SWAP4 PUSH1 0x0 MSTORE PUSH1 0x5 PUSH1 0x20 MSTORE PUSH1 0x40 PUSH1 0x0 KECCAK256 SWAP1 JUMP JUMPDEST DUP1 SLOAD PUSH1 0x1 PUSH1 0x1 PUSH1 0xA0 SHL SUB NOT AND SWAP1 SSTORE JUMP JUMPDEST DUP1 PUSH32 0x7CC135E0CEBB02C3480AE5D74D377283180A2601F8F644EDF7987B009316C63A DUP5 DUP1 LOG2 PUSH1 0x24 CALLDATALOAD SWAP1 PUSH2 0x11B1 JUMP JUMPDEST DUP1 RETURN JUMPDEST PUSH1 0x40 MLOAD PUSH3 0x461BCD PUSH1 0xE5 SHL DUP2 MSTORE PUSH1 0x20 PUSH1 0x4 DUP3 ADD MSTORE PUSH1 0x28 PUSH1 0x24 DUP3 ADD MSTORE PUSH32 0x536F75726365206D75737420626520746865206F7261636C65206F6620746865 PUSH1 0x44 DUP3 ADD MSTORE PUSH8 0x81C995C5D595CDD PUSH1 0xC2 SHL PUSH1 0x64 DUP3 ADD MSTORE PUSH1 0x84 SWAP1 REVERT JUMPDEST CALLVALUE PUSH2 0xE9 JUMPI PUSH1 0x20 CALLDATASIZE PUSH1 0x3 NOT ADD SLT PUSH2 0xE9 JUMPI PUSH1 0x4 CALLDATALOAD PUSH1 0x0 MSTORE PUSH1 0xC PUSH1 0x20 MSTORE PUSH1 0x20 PUSH1 0x40 PUSH1 0x0 KECCAK256 SLOAD PUSH1 0x40 MLOAD SWAP1 DUP2 MSTORE RETURN JUMPDEST CALLVALUE PUSH2 0xE9 JUMPI PUSH1 0x0 DUP1 PUSH1 0x3 NOT CALLDATASIZE ADD SLT PUSH2 0x2F2 JUMPI PUSH1 0x7 SLOAD PUSH1 0x1 PUSH1 0x1 PUSH1 0xA0 SHL SUB SWAP1 DUP2 AND CALLER SUB PUSH2 0x2B4 JUMPI PUSH1 0x6 SLOAD PUSH1 0x1 PUSH1 0x1 PUSH1 0xA0 SHL SUB AND PUSH1 0x6 DUP1 SLOAD PUSH1 0x1 PUSH1 0x1 PUSH1 0xA0 SHL SUB NOT AND CALLER OR SWAP1 SSTORE SWAP1 PUSH1 0x7 DUP1 SLOAD PUSH1 0x1 PUSH1 0x1 PUSH1 0xA0 SHL SUB NOT AND SWAP1 SSTORE CALLER SWAP2 AND PUSH32 0x8BE0079C531659141344CD1FD0A4F28419497F9722A3DAAFE3B4186F6B6457E0 DUP4 DUP1 LOG3 DUP1 RETURN JUMPDEST PUSH1 0x40 MLOAD PUSH3 0x461BCD PUSH1 0xE5 SHL DUP2 MSTORE PUSH1 0x20 PUSH1 0x4 DUP3 ADD MSTORE PUSH1 0x16 PUSH1 0x24 DUP3 ADD MSTORE PUSH22 0x26BAB9BA10313290383937B837B9B2B21037BBB732B9 PUSH1 0x51 SHL PUSH1 0x44 DUP3 ADD MSTORE PUSH1 0x64 SWAP1 REVERT JUMPDEST DUP1 REVERT JUMPDEST CALLVALUE PUSH2 0xE9 JUMPI PUSH1 0x0 CALLDATASIZE PUSH1 0x3 NOT ADD SLT PUSH2 0xE9 JUMPI PUSH1 0x6 SLOAD PUSH1 0x40 MLOAD PUSH1 0x1 PUSH1 0x1 PUSH1 0xA0 SHL SUB SWAP1 SWAP2 AND DUP2 MSTORE PUSH1 0x20 SWAP1 RETURN JUMPDEST CALLVALUE PUSH2 0xE9 JUMPI PUSH1 0x0 DUP1 PUSH1 0x3 NOT CALLDATASIZE ADD SLT PUSH2 0x2F2 JUMPI PUSH2 0x338 PUSH2 0x655 JUMP JUMPDEST PUSH1 0x2 SLOAD PUSH2 0x35B SWAP1 PUSH2 0x34F SWAP1 PUSH1 0x1 PUSH1 0x1 PUSH1 0xA0 SHL SUB AND DUP2 JUMP JUMPDEST PUSH1 0x1 PUSH1 0x1 PUSH1 0xA0 SHL SUB AND SWAP1 JUMP JUMPDEST PUSH1 0x40 MLOAD PUSH4 0x70A08231 PUSH1 0xE0 SHL DUP2 MSTORE ADDRESS PUSH1 0x4 DUP3 ADD MSTORE PUSH1 0x20 SWAP2 SWAP1 DUP3 DUP2 PUSH1 0x24 DUP2 DUP6 GAS STATICCALL SWAP1 DUP2 ISZERO PUSH2 0x405 JUMPI DUP5 SWAP3 DUP5 SWAP3 PUSH2 0x3BB SWAP3 DUP6 SWAP2 PUSH2 0x40A JUMPI JUMPDEST POP PUSH1 0x40 MLOAD PUSH4 0xA9059CBB PUSH1 0xE0 SHL DUP2 MSTORE CALLER PUSH1 0x4 DUP3 ADD MSTORE PUSH1 0x24 DUP2 ADD SWAP2 SWAP1 SWAP2 MSTORE SWAP4 DUP5 SWAP3 DUP4 SWAP2 SWAP1 DUP3 SWAP1 PUSH1 0x44 DUP3 ADD SWAP1 JUMP JUMPDEST SUB SWAP3 GAS CALL SWAP1 DUP2 ISZERO PUSH2 0x405 JUMPI PUSH2 0x1B0 SWAP3 DUP5 SWAP3 PUSH2 0x3D8 JUMPI JUMPDEST POP POP PUSH2 0x1200 JUMP JUMPDEST PUSH2 0x3F7 SWAP3 POP DUP1 RETURNDATASIZE LT PUSH2 0x3FE JUMPI JUMPDEST PUSH2 0x3EF DUP2 DUP4 PUSH2 0x6FA JUMP JUMPDEST DUP2 ADD SWAP1 PUSH2 0xA71 JUMP JUMPDEST CODESIZE DUP1 PUSH2 0x3D1 JUMP JUMPDEST POP RETURNDATASIZE PUSH2 0x3E5 JUMP JUMPDEST PUSH2 0xAAD JUMP JUMPDEST PUSH2 0x42A SWAP2 POP DUP5 RETURNDATASIZE DUP7 GT PUSH2 0x430 JUMPI JUMPDEST PUSH2 0x422 DUP2 DUP4 PUSH2 0x6FA JUMP JUMPDEST DUP2 ADD SWAP1 PUSH2 0x11F1 JUMP JUMPDEST CODESIZE PUSH2 0x390 JUMP JUMPDEST POP RETURNDATASIZE PUSH2 0x418 JUMP JUMPDEST CALLVALUE PUSH2 0xE9 JUMPI PUSH1 0x20 CALLDATASIZE PUSH1 0x3 NOT ADD SLT PUSH2 0xE9 JUMPI PUSH2 0x589 PUSH2 0x576 PUSH1 0x4 CALLDATALOAD PUSH32 0xE78D462E5B267F45854758F0687F24365BBC54861F62FA130714B75DCB2416AD PUSH2 0x516 PUSH1 0x8 SLOAD PUSH2 0x480 PUSH2 0x912 JUMP JUMPDEST POP PUSH2 0x489 PUSH2 0x912 JUMP JUMPDEST SWAP1 PUSH2 0x492 PUSH2 0x912 JUMP JUMPDEST POP PUSH2 0x120 PUSH1 0x80 DUP4 ADD MLOAD PUSH2 0x4A3 PUSH2 0x8E7 JUMP JUMPDEST POP PUSH2 0x100 PUSH1 0x20 DUP3 ADD MSTORE PUSH1 0x40 MLOAD DUP1 SWAP2 MSTORE PUSH1 0x0 DUP2 MSTORE ADD PUSH1 0x40 MSTORE DUP2 MSTORE ADDRESS PUSH1 0x20 DUP3 ADD MSTORE PUSH4 0x21ABC2AF PUSH1 0xE1 SHL PUSH1 0x40 DUP3 ADD MSTORE PUSH2 0x4E9 PUSH2 0x4DA PUSH2 0x71C JUMP JUMPDEST PUSH2 0x4E2 PUSH2 0x73B JUMP JUMPDEST SWAP1 DUP4 PUSH2 0x7DC JUMP JUMPDEST PUSH2 0x4FC PUSH2 0x4F4 PUSH2 0x774 JUMP JUMPDEST PUSH2 0x4E2 PUSH2 0x794 JUMP JUMPDEST PUSH2 0x50D PUSH2 0x507 PUSH2 0x7BB JUMP JUMPDEST DUP3 PUSH2 0x7F7 JUMP JUMPDEST PUSH1 0x9 SLOAD SWAP1 PUSH2 0x959 JUMP JUMPDEST SWAP3 DUP3 DUP5 SWAP4 PUSH2 0x52E DUP6 PUSH1 0x0 MSTORE PUSH1 0xA PUSH1 0x20 MSTORE PUSH1 0x40 PUSH1 0x0 KECCAK256 SWAP1 JUMP JUMPDEST SSTORE PUSH2 0x566 CALLER PUSH2 0x547 DUP7 PUSH1 0x0 MSTORE PUSH1 0xB PUSH1 0x20 MSTORE PUSH1 0x40 PUSH1 0x0 KECCAK256 SWAP1 JUMP JUMPDEST DUP1 SLOAD PUSH1 0x1 PUSH1 0x1 PUSH1 0xA0 SHL SUB NOT AND PUSH1 0x1 PUSH1 0x1 PUSH1 0xA0 SHL SUB SWAP1 SWAP3 AND SWAP2 SWAP1 SWAP2 OR SWAP1 SSTORE JUMP JUMPDEST PUSH1 0x40 MLOAD SWAP1 DUP2 MSTORE SWAP1 DUP2 SWAP1 PUSH1 0x20 DUP3 ADD SWAP1 JUMP JUMPDEST SUB SWAP1 LOG2 PUSH1 0x40 MLOAD SWAP1 DUP2 MSTORE SWAP1 DUP2 SWAP1 PUSH1 0x20 DUP3 ADD SWAP1 JUMP JUMPDEST SUB SWAP1 RETURN JUMPDEST CALLVALUE PUSH2 0xE9 JUMPI PUSH1 0x20 CALLDATASIZE PUSH1 0x3 NOT ADD SLT PUSH2 0xE9 JUMPI PUSH1 0x4 CALLDATALOAD PUSH1 0x1 PUSH1 0x1 PUSH1 0xA0 SHL SUB DUP2 AND SWAP1 DUP2 SWAP1 SUB PUSH2 0xE9 JUMPI PUSH2 0x5BB PUSH2 0x655 JUMP JUMPDEST CALLER DUP2 EQ PUSH2 0x610 JUMPI PUSH1 0x7 DUP1 SLOAD PUSH1 0x1 PUSH1 0x1 PUSH1 0xA0 SHL SUB NOT AND DUP3 OR SWAP1 SSTORE PUSH1 0x6 SLOAD PUSH2 0x5E9 SWAP1 PUSH1 0x1 PUSH1 0x1 PUSH1 0xA0 SHL SUB AND PUSH2 0x34F JUMP JUMPDEST PUSH32 0xED8889F560326EB138920D842192F0EB3DD22B4F139C87A2C57538E05BAE1278 PUSH1 0x0 DUP1 LOG3 STOP JUMPDEST PUSH1 0x40 MLOAD PUSH3 0x461BCD PUSH1 0xE5 SHL DUP2 MSTORE PUSH1 0x20 PUSH1 0x4 DUP3 ADD MSTORE PUSH1 0x17 PUSH1 0x24 DUP3 ADD MSTORE PUSH32 0x43616E6E6F74207472616E7366657220746F2073656C66000000000000000000 PUSH1 0x44 DUP3 ADD MSTORE PUSH1 0x64 SWAP1 REVERT JUMPDEST PUSH1 0x6 SLOAD PUSH1 0x1 PUSH1 0x1 PUSH1 0xA0 SHL SUB AND CALLER SUB PUSH2 0x669 JUMPI JUMP JUMPDEST PUSH1 0x40 MLOAD PUSH3 0x461BCD PUSH1 0xE5 SHL DUP2 MSTORE PUSH1 0x20 PUSH1 0x4 DUP3 ADD MSTORE PUSH1 0x16 PUSH1 0x24 DUP3 ADD MSTORE PUSH22 0x27B7363C9031B0B63630B1363290313C9037BBB732B9 PUSH1 0x51 SHL PUSH1 0x44 DUP3 ADD MSTORE PUSH1 0x64 SWAP1 REVERT JUMPDEST PUSH4 0x4E487B71 PUSH1 0xE0 SHL PUSH1 0x0 MSTORE PUSH1 0x41 PUSH1 0x4 MSTORE PUSH1 0x24 PUSH1 0x0 REVERT JUMPDEST PUSH1 0x40 DUP2 ADD SWAP1 DUP2 LT PUSH8 0xFFFFFFFFFFFFFFFF DUP3 GT OR PUSH2 0x6D9 JUMPI PUSH1 0x40 MSTORE JUMP JUMPDEST PUSH2 0x6A7 JUMP JUMPDEST PUSH1 0x60 DUP2 ADD SWAP1 DUP2 LT PUSH8 0xFFFFFFFFFFFFFFFF DUP3 GT OR PUSH2 0x6D9 JUMPI PUSH1 0x40 MSTORE JUMP JUMPDEST SWAP1 PUSH1 0x1F DUP1 NOT SWAP2 ADD AND DUP2 ADD SWAP1 DUP2 LT PUSH8 0xFFFFFFFFFFFFFFFF DUP3 GT OR PUSH2 0x6D9 JUMPI PUSH1 0x40 MSTORE JUMP JUMPDEST PUSH1 0x40 MLOAD SWAP1 PUSH2 0x729 DUP3 PUSH2 0x6BD JUMP JUMPDEST PUSH1 0x3 DUP3 MSTORE PUSH3 0x19D95D PUSH1 0xEA SHL PUSH1 0x20 DUP4 ADD MSTORE JUMP JUMPDEST PUSH1 0x40 MLOAD SWAP1 PUSH2 0x748 DUP3 PUSH2 0x6BD JUMP JUMPDEST PUSH1 0x1C DUP3 MSTORE PUSH32 0x687474703A2F2F3132372E302E302E313A353030312F73656E736F7200000000 PUSH1 0x20 DUP4 ADD MSTORE JUMP JUMPDEST PUSH1 0x40 MLOAD SWAP1 PUSH2 0x781 DUP3 PUSH2 0x6BD JUMP JUMPDEST PUSH1 0x4 DUP3 MSTORE PUSH4 0xE0C2E8D PUSH1 0xE3 SHL PUSH1 0x20 DUP4 ADD MSTORE JUMP JUMPDEST PUSH1 0x40 MLOAD SWAP1 PUSH2 0x7A1 DUP3 PUSH2 0x6BD JUMP JUMPDEST PUSH1 0xB DUP3 MSTORE PUSH11 0x74656D7065726174757265 PUSH1 0xA8 SHL PUSH1 0x20 DUP4 ADD MSTORE JUMP JUMPDEST PUSH1 0x40 MLOAD SWAP1 PUSH2 0x7C8 DUP3 PUSH2 0x6BD JUMP JUMPDEST PUSH1 0x5 DUP3 MSTORE PUSH5 0x74696D6573 PUSH1 0xD8 SHL PUSH1 0x20 DUP4 ADD MSTORE JUMP JUMPDEST PUSH1 0x80 ADD DUP1 MLOAD PUSH2 0x7F5 SWAP4 SWAP3 PUSH2 0x7EF SWAP2 PUSH2 0x1111 JUMP JUMPDEST MLOAD PUSH2 0x1111 JUMP JUMPDEST JUMP JUMPDEST PUSH1 0x80 PUSH2 0x806 SWAP2 ADD SWAP2 DUP3 MLOAD PUSH2 0x1111 JUMP JUMPDEST MLOAD PUSH2 0x80F PUSH2 0x8E7 JUMP JUMPDEST POP DUP1 MLOAD MLOAD SWAP1 PUSH2 0x81C PUSH2 0x8E7 JUMP JUMPDEST POP PUSH1 0x20 DUP2 ADD SWAP2 DUP3 MLOAD DUP1 DUP3 LT ISZERO PUSH2 0x8C1 JUMPI JUMPDEST POP DUP2 MLOAD SWAP1 DUP2 MLOAD DUP2 PUSH1 0x18 PUSH1 0x20 DUP4 SWAP5 DUP7 ADD ADD MSTORE8 EQ PUSH2 0x8B5 JUMPI JUMPDEST POP POP PUSH2 0x84E PUSH2 0x8E7 JUMP JUMPDEST POP DUP1 MLOAD MLOAD SWAP2 PUSH2 0x85B PUSH2 0x8E7 JUMP JUMPDEST POP DUP3 PUSH1 0x1 ADD SWAP1 DUP2 PUSH1 0x1 GT PUSH2 0x8B0 JUMPI MLOAD DUP2 GT PUSH2 0x898 JUMPI JUMPDEST POP MLOAD PUSH1 0x1 DUP3 DUP3 ADD ADD PUSH1 0x64 PUSH1 0xFF NOT DUP3 MLOAD AND OR SWAP1 MSTORE PUSH1 0x1 DUP2 MLOAD SWAP3 ADD SWAP2 DUP3 GT PUSH2 0x895 JUMPI POP POP JUMP JUMPDEST MSTORE JUMP JUMPDEST PUSH2 0x8A4 PUSH2 0x8AA SWAP2 PUSH2 0xDFF JUMP JUMPDEST DUP3 PUSH2 0xE15 JUMP JUMPDEST CODESIZE PUSH2 0x871 JUMP JUMPDEST PUSH2 0xA00 JUMP JUMPDEST PUSH1 0x1 ADD SWAP1 MSTORE CODESIZE DUP1 PUSH2 0x844 JUMP JUMPDEST PUSH2 0x8CD PUSH2 0x8E0 SWAP2 PUSH2 0xDFF JUMP JUMPDEST PUSH2 0x8D9 DUP5 MLOAD SWAP2 DUP6 PUSH2 0xC06 JUMP JUMPDEST POP DUP4 PUSH2 0xE71 JUMP JUMPDEST POP CODESIZE PUSH2 0x82D JUMP JUMPDEST PUSH1 0x40 MLOAD SWAP1 PUSH1 0x40 DUP3 ADD DUP3 DUP2 LT PUSH8 0xFFFFFFFFFFFFFFFF DUP3 GT OR PUSH2 0x6D9 JUMPI PUSH1 0x40 MSTORE PUSH1 0x0 PUSH1 0x20 DUP4 PUSH1 0x60 DUP2 MSTORE ADD MSTORE JUMP JUMPDEST PUSH1 0x40 MLOAD SWAP1 PUSH1 0xA0 DUP3 ADD DUP3 DUP2 LT PUSH8 0xFFFFFFFFFFFFFFFF DUP3 GT OR PUSH2 0x6D9 JUMPI PUSH1 0x40 MSTORE DUP2 PUSH1 0x0 DUP2 MSTORE PUSH1 0x0 PUSH1 0x20 DUP3 ADD MSTORE PUSH1 0x0 PUSH1 0x40 DUP3 ADD MSTORE PUSH1 0x0 PUSH1 0x60 DUP3 ADD MSTORE PUSH1 0x80 PUSH2 0x954 PUSH2 0x8E7 JUMP JUMPDEST SWAP2 ADD MSTORE JUMP JUMPDEST PUSH1 0x3 SLOAD PUSH1 0x4 SLOAD PUSH1 0x1 DUP2 ADD SWAP4 SWAP2 PUSH1 0x1 PUSH1 0x1 PUSH1 0xA0 SHL SUB AND DUP5 DUP3 GT PUSH2 0xA00 JUMPI PUSH2 0x9FD SWAP5 PUSH1 0x4 SSTORE PUSH2 0x9F8 DUP5 MLOAD PUSH2 0x9EA PUSH1 0x80 PUSH4 0xFFFFFFFF PUSH1 0xE0 SHL PUSH1 0x40 DUP10 ADD MLOAD AND SWAP8 ADD MLOAD MLOAD PUSH1 0x40 MLOAD SWAP8 DUP9 SWAP4 PUSH4 0x20214CA3 PUSH1 0xE1 SHL PUSH1 0x20 DUP7 ADD MSTORE PUSH1 0x0 PUSH1 0x24 DUP7 ADD MSTORE PUSH1 0x0 PUSH1 0x44 DUP7 ADD MSTORE PUSH1 0x64 DUP6 ADD MSTORE ADDRESS PUSH1 0x84 DUP6 ADD MSTORE PUSH1 0xA4 DUP5 ADD MSTORE DUP6 PUSH1 0xC4 DUP5 ADD MSTORE PUSH1 0x1 PUSH1 0xE4 DUP5 ADD MSTORE PUSH2 0x100 PUSH2 0x104 DUP5 ADD MSTORE PUSH2 0x124 DUP4 ADD SWAP1 PUSH2 0xA31 JUMP JUMPDEST SUB PUSH1 0x1F NOT DUP2 ADD DUP7 MSTORE DUP6 PUSH2 0x6FA JUMP JUMPDEST PUSH2 0xB11 JUMP JUMPDEST SWAP1 JUMP JUMPDEST PUSH4 0x4E487B71 PUSH1 0xE0 SHL PUSH1 0x0 MSTORE PUSH1 0x11 PUSH1 0x4 MSTORE PUSH1 0x24 PUSH1 0x0 REVERT JUMPDEST SWAP1 PUSH1 0x20 DUP3 ADD DUP1 SWAP3 GT PUSH2 0x8B0 JUMPI JUMP JUMPDEST SWAP2 SWAP1 DUP3 ADD DUP1 SWAP3 GT PUSH2 0x8B0 JUMPI JUMP JUMPDEST SWAP2 SWAP1 DUP3 MLOAD SWAP3 DUP4 DUP3 MSTORE PUSH1 0x0 JUMPDEST DUP5 DUP2 LT PUSH2 0xA5D JUMPI POP POP DUP3 PUSH1 0x0 PUSH1 0x20 DUP1 SWAP5 SWAP6 DUP5 ADD ADD MSTORE PUSH1 0x1F DUP1 NOT SWAP2 ADD AND ADD ADD SWAP1 JUMP JUMPDEST PUSH1 0x20 DUP2 DUP4 ADD DUP2 ADD MLOAD DUP5 DUP4 ADD DUP3 ADD MSTORE ADD PUSH2 0xA3C JUMP JUMPDEST SWAP1 DUP2 PUSH1 0x20 SWAP2 SUB SLT PUSH2 0xE9 JUMPI MLOAD DUP1 ISZERO ISZERO DUP2 SUB PUSH2 0xE9 JUMPI SWAP1 JUMP JUMPDEST PUSH2 0x9FD SWAP4 SWAP3 PUSH1 0x60 SWAP3 PUSH1 0x1 DUP1 PUSH1 0xA0 SHL SUB AND DUP3 MSTORE PUSH1 0x20 DUP3 ADD MSTORE DUP2 PUSH1 0x40 DUP3 ADD MSTORE ADD SWAP1 PUSH2 0xA31 JUMP JUMPDEST PUSH1 0x40 MLOAD RETURNDATASIZE PUSH1 0x0 DUP3 RETURNDATACOPY RETURNDATASIZE SWAP1 REVERT JUMPDEST ISZERO PUSH2 0xAC0 JUMPI JUMP JUMPDEST PUSH1 0x40 MLOAD PUSH3 0x461BCD PUSH1 0xE5 SHL DUP2 MSTORE PUSH1 0x20 PUSH1 0x4 DUP3 ADD MSTORE PUSH1 0x23 PUSH1 0x24 DUP3 ADD MSTORE PUSH32 0x756E61626C6520746F207472616E73666572416E6443616C6C20746F206F7261 PUSH1 0x44 DUP3 ADD MSTORE PUSH3 0x636C65 PUSH1 0xE8 SHL PUSH1 0x64 DUP3 ADD MSTORE PUSH1 0x84 SWAP1 REVERT JUMPDEST SWAP3 PUSH2 0xBBD SWAP3 SWAP4 PUSH1 0x20 SWAP3 PUSH1 0x40 MLOAD DUP5 DUP2 ADD SWAP2 PUSH12 0xFFFFFFFFFFFFFFFFFFFFFFFF NOT ADDRESS PUSH1 0x60 SHL AND DUP4 MSTORE PUSH1 0x34 DUP3 ADD MSTORE PUSH1 0x34 DUP2 MSTORE PUSH2 0xB48 DUP2 PUSH2 0x6DE JUMP JUMPDEST MLOAD SWAP1 KECCAK256 SWAP5 PUSH2 0xB64 DUP3 PUSH2 0x547 DUP9 PUSH1 0x0 MSTORE PUSH1 0x5 PUSH1 0x20 MSTORE PUSH1 0x40 PUSH1 0x0 KECCAK256 SWAP1 JUMP JUMPDEST PUSH1 0x0 PUSH1 0x40 MLOAD DUP1 SWAP7 DUP2 SWAP6 DUP3 SWAP5 DUP11 PUSH32 0xB5E6E01E79F91267DC17B4E6314D5D4D03593D2CEEE0FBB452B750BD70EA5AF9 DUP7 DUP1 LOG2 PUSH1 0x2 SLOAD PUSH2 0xBA9 SWAP1 PUSH1 0x1 PUSH1 0x1 PUSH1 0xA0 SHL SUB AND PUSH2 0x34F JUMP JUMPDEST PUSH4 0x2000575 PUSH1 0xE5 SHL DUP6 MSTORE SWAP7 PUSH1 0x4 DUP6 ADD PUSH2 0xA89 JUMP JUMPDEST SUB SWAP3 GAS CALL DUP1 ISZERO PUSH2 0x405 JUMPI PUSH2 0x9FD SWAP2 PUSH1 0x0 SWAP2 PUSH2 0xBD9 JUMPI JUMPDEST POP PUSH2 0xAB9 JUMP JUMPDEST PUSH2 0xBF1 SWAP2 POP PUSH1 0x20 RETURNDATASIZE DUP2 GT PUSH2 0x3FE JUMPI PUSH2 0x3EF DUP2 DUP4 PUSH2 0x6FA JUMP JUMPDEST CODESIZE PUSH2 0xBD3 JUMP JUMPDEST PUSH1 0x1F NOT DUP2 ADD SWAP2 SWAP1 DUP3 GT PUSH2 0x8B0 JUMPI JUMP JUMPDEST SWAP1 PUSH2 0xC0F PUSH2 0x8E7 JUMP JUMPDEST POP PUSH1 0x1F DUP2 AND DUP1 PUSH2 0xC35 JUMPI JUMPDEST POP DUP1 PUSH1 0x20 DUP4 ADD MSTORE PUSH1 0x40 MLOAD DUP1 DUP4 MSTORE PUSH1 0x0 DUP2 MSTORE ADD PUSH1 0x20 ADD PUSH1 0x40 MSTORE SWAP1 JUMP JUMPDEST PUSH1 0x20 SUB PUSH1 0x20 DUP2 GT PUSH2 0x8B0 JUMPI DUP2 ADD DUP1 SWAP2 GT PUSH2 0x8B0 JUMPI CODESIZE PUSH2 0xC1A JUMP JUMPDEST PUSH2 0xC57 PUSH2 0x8E7 JUMP JUMPDEST POP DUP1 MLOAD MLOAD PUSH2 0xC63 PUSH2 0x8E7 JUMP JUMPDEST POP PUSH1 0x20 DUP3 ADD MLOAD DUP1 DUP3 LT ISZERO PUSH2 0xC95 JUMPI JUMPDEST POP DUP2 MLOAD SWAP1 DUP2 MLOAD DUP2 PUSH1 0x7B PUSH1 0x20 DUP4 SWAP5 DUP7 ADD ADD MSTORE8 EQ PUSH2 0xC8D JUMPI POP POP SWAP1 JUMP JUMPDEST PUSH1 0x1 ADD SWAP1 MSTORE SWAP1 JUMP JUMPDEST PUSH2 0x8CD PUSH2 0xCA1 SWAP2 PUSH2 0xDFF JUMP JUMPDEST POP CODESIZE PUSH2 0xC72 JUMP JUMPDEST PUSH2 0xCB0 PUSH2 0x8E7 JUMP JUMPDEST POP DUP1 MLOAD MLOAD PUSH2 0xCBC PUSH2 0x8E7 JUMP JUMPDEST POP PUSH1 0x20 DUP3 ADD MLOAD DUP1 DUP3 LT ISZERO PUSH2 0xCE6 JUMPI JUMPDEST POP DUP2 MLOAD SWAP1 DUP2 MLOAD DUP2 PUSH1 0x7A PUSH1 0x20 DUP4 SWAP5 DUP7 ADD ADD MSTORE8 EQ PUSH2 0xC8D JUMPI POP POP SWAP1 JUMP JUMPDEST PUSH2 0x8CD PUSH2 0xCF2 SWAP2 PUSH2 0xDFF JUMP JUMPDEST POP CODESIZE PUSH2 0xCCB JUMP JUMPDEST PUSH2 0xD01 PUSH2 0x8E7 JUMP JUMPDEST POP DUP1 MLOAD MLOAD PUSH2 0xD0D PUSH2 0x8E7 JUMP JUMPDEST POP PUSH1 0x20 DUP3 ADD MLOAD DUP1 DUP3 LT ISZERO PUSH2 0xD37 JUMPI JUMPDEST POP DUP2 MLOAD SWAP1 DUP2 MLOAD DUP2 PUSH1 0x79 PUSH1 0x20 DUP4 SWAP5 DUP7 ADD ADD MSTORE8 EQ PUSH2 0xC8D JUMPI POP POP SWAP1 JUMP JUMPDEST PUSH2 0x8CD PUSH2 0xD43 SWAP2 PUSH2 0xDFF JUMP JUMPDEST POP CODESIZE PUSH2 0xD1C JUMP JUMPDEST PUSH2 0xD52 PUSH2 0x8E7 JUMP JUMPDEST POP DUP1 MLOAD MLOAD PUSH2 0xD5E PUSH2 0x8E7 JUMP JUMPDEST POP PUSH1 0x20 DUP3 ADD MLOAD DUP1 DUP3 LT ISZERO PUSH2 0xD88 JUMPI JUMPDEST POP DUP2 MLOAD SWAP1 DUP2 MLOAD DUP2 PUSH1 0x78 PUSH1 0x20 DUP4 SWAP5 DUP7 ADD ADD MSTORE8 EQ PUSH2 0xC8D JUMPI POP POP SWAP1 JUMP JUMPDEST PUSH2 0x8CD PUSH2 0xD94 SWAP2 PUSH2 0xDFF JUMP JUMPDEST POP CODESIZE PUSH2 0xD6D JUMP JUMPDEST SWAP1 PUSH2 0xDA4 PUSH2 0x8E7 JUMP JUMPDEST POP DUP2 MLOAD MLOAD PUSH2 0xDB0 PUSH2 0x8E7 JUMP JUMPDEST POP PUSH1 0x20 DUP4 ADD MLOAD DUP1 DUP3 LT ISZERO PUSH2 0xDD9 JUMPI JUMPDEST POP DUP3 MLOAD SWAP2 DUP3 MLOAD SWAP2 DUP3 SWAP2 PUSH1 0x20 DUP3 DUP7 ADD ADD MSTORE8 EQ PUSH2 0xC8D JUMPI POP POP SWAP1 JUMP JUMPDEST PUSH2 0xDE5 PUSH2 0xDF8 SWAP2 PUSH2 0xDFF JUMP JUMPDEST PUSH2 0xDF1 DUP6 MLOAD SWAP2 DUP7 PUSH2 0xC06 JUMP JUMPDEST POP DUP5 PUSH2 0xE71 JUMP JUMPDEST POP CODESIZE PUSH2 0xDBF JUMP JUMPDEST SWAP1 DUP2 PUSH1 0x1 SHL SWAP2 DUP1 DUP4 DIV PUSH1 0x2 EQ SWAP1 ISZERO OR ISZERO PUSH2 0x8B0 JUMPI JUMP JUMPDEST DUP1 MLOAD SWAP1 DUP3 PUSH2 0xE21 PUSH2 0x8E7 JUMP JUMPDEST POP PUSH1 0x1F DUP5 AND DUP1 PUSH2 0xE51 JUMPI JUMPDEST POP PUSH2 0xE4E SWAP4 POP DUP1 PUSH1 0x20 DUP4 ADD MSTORE PUSH1 0x40 MLOAD DUP1 DUP4 MSTORE PUSH1 0x0 DUP2 MSTORE ADD PUSH1 0x20 ADD PUSH1 0x40 MSTORE PUSH2 0xE71 JUMP JUMPDEST POP JUMP JUMPDEST SWAP1 POP PUSH1 0x20 SUB PUSH1 0x20 DUP2 GT PUSH2 0x8B0 JUMPI DUP4 ADD DUP1 SWAP4 GT PUSH2 0x8B0 JUMPI PUSH2 0xE4E SWAP3 CODESIZE PUSH2 0xE2C JUMP JUMPDEST SWAP1 PUSH2 0xE7A PUSH2 0x8E7 JUMP JUMPDEST POP DUP2 MLOAD MLOAD SWAP1 DUP1 MLOAD SWAP1 PUSH2 0xE8A PUSH2 0x8E7 JUMP JUMPDEST POP PUSH2 0xE98 DUP2 MLOAD DUP4 GT ISZERO PUSH2 0xF49 JUMP JUMPDEST PUSH2 0xEA2 DUP3 DUP5 PUSH2 0xA24 JUMP JUMPDEST PUSH1 0x20 SWAP2 DUP3 SWAP2 DUP3 DUP8 ADD MLOAD DUP1 SWAP2 GT PUSH2 0xF1E JUMPI JUMPDEST POP DUP6 MLOAD DUP1 MLOAD SWAP1 DUP4 DUP8 DUP3 ADD ADD SWAP7 DUP7 ADD SWAP2 DUP3 GT PUSH2 0xF16 JUMPI JUMPDEST POP POP ADD SWAP2 JUMPDEST DUP2 DUP2 LT ISZERO PUSH2 0xEF0 JUMPI PUSH1 0x0 NOT SWAP2 SUB PUSH2 0x100 EXP ADD SWAP1 DUP2 NOT SWAP1 MLOAD AND SWAP1 DUP3 MLOAD AND OR SWAP1 MSTORE SWAP1 JUMP JUMPDEST SWAP2 SWAP3 PUSH2 0xF0B PUSH2 0xF05 PUSH2 0xF11 SWAP3 DUP7 MLOAD DUP2 MSTORE PUSH2 0xA16 JUMP JUMPDEST SWAP5 PUSH2 0xA16 JUMP JUMPDEST SWAP3 PUSH2 0xBF7 JUMP JUMPDEST PUSH2 0xECE JUMP JUMPDEST MSTORE CODESIZE DUP1 PUSH2 0xEC9 JUMP JUMPDEST PUSH2 0xF3D PUSH2 0xF38 PUSH2 0xF43 SWAP3 PUSH2 0xF32 DUP10 DUP10 PUSH2 0xA24 JUMP JUMPDEST SWAP1 PUSH2 0xF50 JUMP JUMPDEST PUSH2 0xDFF JUMP JUMPDEST DUP8 PUSH2 0xE15 JUMP JUMPDEST CODESIZE PUSH2 0xEB3 JUMP JUMPDEST ISZERO PUSH2 0xE9 JUMPI JUMP JUMPDEST DUP2 DUP2 GT PUSH2 0xF5B JUMPI POP SWAP1 JUMP JUMPDEST SWAP1 POP SWAP1 JUMP JUMPDEST SWAP1 PUSH2 0xF69 PUSH2 0x8E7 JUMP JUMPDEST POP DUP2 MLOAD MLOAD SWAP1 PUSH2 0xF76 PUSH2 0x8E7 JUMP JUMPDEST POP DUP2 PUSH1 0x8 ADD DUP1 PUSH1 0x8 GT PUSH2 0x8B0 JUMPI PUSH1 0x20 DUP5 ADD MLOAD DUP2 GT PUSH2 0xFC0 JUMPI JUMPDEST POP DUP3 MLOAD SWAP1 PUSH1 0x8 DUP4 DUP4 ADD ADD SWAP1 PUSH8 0xFFFFFFFFFFFFFFFF NOT DUP3 MLOAD AND OR SWAP1 MSTORE PUSH1 0x8 DUP2 MLOAD SWAP3 ADD SWAP2 DUP3 GT PUSH2 0xFBC JUMPI POP POP SWAP1 JUMP JUMPDEST MSTORE SWAP1 JUMP JUMPDEST PUSH2 0xFCC PUSH2 0xFD2 SWAP2 PUSH2 0xDFF JUMP JUMPDEST DUP5 PUSH2 0xE15 JUMP JUMPDEST CODESIZE PUSH2 0xF8F JUMP JUMPDEST SWAP1 PUSH2 0xFE1 PUSH2 0x8E7 JUMP JUMPDEST POP DUP2 MLOAD MLOAD SWAP1 PUSH2 0xFEE PUSH2 0x8E7 JUMP JUMPDEST POP DUP2 PUSH1 0x4 ADD DUP1 PUSH1 0x4 GT PUSH2 0x8B0 JUMPI PUSH1 0x20 DUP5 ADD MLOAD DUP2 GT PUSH2 0x1030 JUMPI JUMPDEST POP DUP3 MLOAD SWAP1 PUSH1 0x4 DUP4 DUP4 ADD ADD SWAP1 PUSH4 0xFFFFFFFF NOT DUP3 MLOAD AND OR SWAP1 MSTORE PUSH1 0x4 DUP2 MLOAD SWAP3 ADD SWAP2 DUP3 GT PUSH2 0xFBC JUMPI POP POP SWAP1 JUMP JUMPDEST PUSH2 0xFCC PUSH2 0x103C SWAP2 PUSH2 0xDFF JUMP JUMPDEST CODESIZE PUSH2 0x1007 JUMP JUMPDEST SWAP1 PUSH2 0x104B PUSH2 0x8E7 JUMP JUMPDEST POP DUP2 MLOAD MLOAD SWAP1 PUSH2 0x1058 PUSH2 0x8E7 JUMP JUMPDEST POP DUP2 PUSH1 0x2 ADD DUP1 PUSH1 0x2 GT PUSH2 0x8B0 JUMPI PUSH1 0x20 DUP5 ADD MLOAD DUP2 GT PUSH2 0x1098 JUMPI JUMPDEST POP DUP3 MLOAD SWAP1 PUSH1 0x2 DUP4 DUP4 ADD ADD SWAP1 PUSH2 0xFFFF NOT DUP3 MLOAD AND OR SWAP1 MSTORE PUSH1 0x2 DUP2 MLOAD SWAP3 ADD SWAP2 DUP3 GT PUSH2 0xFBC JUMPI POP POP SWAP1 JUMP JUMPDEST PUSH2 0xFCC PUSH2 0x10A4 SWAP2 PUSH2 0xDFF JUMP JUMPDEST CODESIZE PUSH2 0x1071 JUMP JUMPDEST SWAP1 PUSH2 0x10B3 PUSH2 0x8E7 JUMP JUMPDEST POP DUP2 MLOAD MLOAD SWAP1 PUSH2 0x10C0 PUSH2 0x8E7 JUMP JUMPDEST POP DUP2 PUSH1 0x1 ADD DUP1 PUSH1 0x1 GT PUSH2 0x8B0 JUMPI PUSH1 0x20 DUP5 ADD MLOAD DUP2 GT PUSH2 0x10FF JUMPI JUMPDEST POP DUP3 MLOAD SWAP1 PUSH1 0x1 DUP4 DUP4 ADD ADD SWAP1 PUSH1 0xFF NOT DUP3 MLOAD AND OR SWAP1 MSTORE PUSH1 0x1 DUP2 MLOAD SWAP3 ADD SWAP2 DUP3 GT PUSH2 0xFBC JUMPI POP POP SWAP1 JUMP JUMPDEST PUSH2 0xFCC PUSH2 0x110B SWAP2 PUSH2 0xDFF JUMP JUMPDEST CODESIZE PUSH2 0x10D9 JUMP JUMPDEST DUP2 MLOAD PUSH2 0xE4E SWAP3 SWAP2 SWAP1 PUSH8 0xFFFFFFFFFFFFFFFF DUP2 AND PUSH1 0x17 DUP2 GT PUSH2 0x1143 JUMPI POP PUSH1 0x60 PUSH1 0xFF PUSH2 0x113D SWAP3 AND OR DUP3 PUSH2 0xD9B JUMP JUMPDEST POP PUSH2 0xE71 JUMP JUMPDEST SWAP1 POP PUSH1 0xFF DUP2 GT PUSH2 0x1161 JUMPI PUSH2 0x113D SWAP1 PUSH2 0x115A DUP4 PUSH2 0xD4A JUMP JUMPDEST POP DUP3 PUSH2 0x10AA JUMP JUMPDEST PUSH2 0xFFFF DUP2 GT PUSH2 0x117E JUMPI PUSH2 0x113D SWAP1 PUSH2 0x1177 DUP4 PUSH2 0xCF9 JUMP JUMPDEST POP DUP3 PUSH2 0x1042 JUMP JUMPDEST PUSH4 0xFFFFFFFF DUP2 GT PUSH2 0x119D JUMPI PUSH2 0x113D SWAP1 PUSH2 0x1196 DUP4 PUSH2 0xCA8 JUMP JUMPDEST POP DUP3 PUSH2 0xFD8 JUMP JUMPDEST PUSH2 0x113D SWAP1 PUSH2 0x11AA DUP4 PUSH2 0xC4F JUMP JUMPDEST POP DUP3 PUSH2 0xF60 JUMP JUMPDEST PUSH2 0x172 SWAP2 PUSH1 0x64 PUSH1 0x0 SWAP2 DUP4 DUP4 MSTORE PUSH1 0xA PUSH1 0x20 MSTORE PUSH1 0x40 DUP4 KECCAK256 SLOAD DUP4 MSTORE PUSH1 0xC PUSH1 0x20 MSTORE DIV PUSH1 0x40 DUP3 KECCAK256 SSTORE DUP2 DUP2 MSTORE PUSH1 0xA PUSH1 0x20 MSTORE PUSH1 0x40 DUP2 KECCAK256 SSTORE PUSH1 0x0 MSTORE PUSH1 0xB PUSH1 0x20 MSTORE PUSH1 0x40 PUSH1 0x0 KECCAK256 SWAP1 JUMP JUMPDEST SWAP1 DUP2 PUSH1 0x20 SWAP2 SUB SLT PUSH2 0xE9 JUMPI MLOAD SWAP1 JUMP JUMPDEST ISZERO PUSH2 0x1207 JUMPI JUMP JUMPDEST PUSH1 0x40 MLOAD PUSH3 0x461BCD PUSH1 0xE5 SHL DUP2 MSTORE PUSH1 0x20 PUSH1 0x4 DUP3 ADD MSTORE PUSH1 0x12 PUSH1 0x24 DUP3 ADD MSTORE PUSH18 0x2AB730B13632903A37903A3930B739B332B9 PUSH1 0x71 SHL PUSH1 0x44 DUP3 ADD MSTORE PUSH1 0x64 SWAP1 REVERT INVALID LOG2 PUSH5 0x6970667358 0x22 SLT KECCAK256 0x2F 0x5F SWAP14 PUSH32 0xDBFC33D00E28847ADB4B488250108B5258EE91EB985C892C92D5719264736F6C PUSH4 0x43000813 STOP CALLER "},"methodIdentifiers":{"acceptOwnership()":"79ba5097","fulfill(bytes32,uint256)":"4357855e","getCurrentTemperature(uint256)":"56100913","getLatestTemperatureForProduct(uint256)":"5ded83d0","latestTemperatureByProduct(uint256)":"b6ec7709","owner()":"8da5cb5b","requestTemperatureForProduct(uint256)":"a4f50073","requestToProductId(bytes32)":"1085a271","requestToRequester(bytes32)":"3f66286a","transferOwnership(address)":"f2fde38b","withdrawLink()":"8dc654a2"}}}}}