{
  "_format": "hh-sol-artifact-1",
  "contractName": "AgriTraceBatch",
  "sourceName": "contracts/AgriTraceBatch.sol",
  "abi": [
    {
      "inputs": [
        {
          "internalType": "address",
          "name": "_coreContract",
          "type": "address"
        }
      ],
      "stateMutability": "nonpayable",
      "type": "constructor"
    },
    {
      "anonymous": false,
      "inputs": [
        {
          "indexed": false,
          "internalType": "uint256",
          "name": "batchId",
          "type": "uint256"
        },
        {
          "indexed": false,
          "internalType": "address",
          "name": "distributor",
          "type": "address"
        }
      ],
      "name": "BatchCreated",
      "type": "event"
    },
    {
      "anonymous": false,
      "inputs": [
        {
          "indexed": false,
          "internalType": "uint256",
          "name": "batchId",
          "type": "uint256"
        },
        {
          "indexed": false,
          "internalType": "address",
          "name": "retailer",
          "type": "address"
        }
      ],
      "name": "BatchPurchased",
      "type": "event"
    },
    {
      "anonymous": false,
      "inputs": [
        {
          "indexed": true,
          "internalType": "uint256",
          "name": "productId",
          "type": "uint256"
        },
        {
          "indexed": true,
          "internalType": "uint256",
          "name": "batchId",
          "type": "uint256"
        },
        {
          "indexed": false,
          "internalType": "string",
          "name": "reason",
          "type": "string"
        }
      ],
      "name": "ProductRemovedFromBatch",
      "type": "event"
    },
    {
      "inputs": [
        {
          "internalType": "uint256",
          "name": "",
          "type": "uint256"
        }
      ],
      "name": "batches",
      "outputs": [
        {
          "internalType": "uint256",
          "name": "batchId",
          "type": "uint256"
        },
        {
          "internalType": "address",
          "name": "distributor",
          "type": "address"
        },
        {
          "internalType": "address",
          "name": "retailer",
          "type": "address"
        },
        {
          "internalType": "uint256",
          "name": "createdAt",
          "type": "uint256"
        },
        {
          "internalType": "bool",
          "name": "isDistributedToRetailer",
          "type": "bool"
        }
      ],
      "stateMutability": "view",
      "type": "function"
    },
    {
      "inputs": [],
      "name": "coreContract",
      "outputs": [
        {
          "internalType": "contract AgriTraceCore",
          "name": "",
          "type": "address"
        }
      ],
      "stateMutability": "view",
      "type": "function"
    },
    {
      "inputs": [
        {
          "internalType": "uint256[]",
          "name": "productIds",
          "type": "uint256[]"
        }
      ],
      "name": "createBatch",
      "outputs": [
        {
          "internalType": "uint256",
          "name": "",
          "type": "uint256"
        }
      ],
      "stateMutability": "nonpayable",
      "type": "function"
    },
    {
      "inputs": [
        {
          "internalType": "address",
          "name": "",
          "type": "address"
        },
        {
          "internalType": "uint256",
          "name": "",
          "type": "uint256"
        }
      ],
      "name": "distributorBatches",
      "outputs": [
        {
          "internalType": "uint256",
          "name": "",
          "type": "uint256"
        }
      ],
      "stateMutability": "view",
      "type": "function"
    },
    {
      "inputs": [],
      "name": "getAvailableBatchesForRetailer",
      "outputs": [
        {
          "internalType": "uint256[]",
          "name": "",
          "type": "uint256[]"
        }
      ],
      "stateMutability": "view",
      "type": "function"
    },
    {
      "inputs": [
        {
          "internalType": "uint256",
          "name": "batchId",
          "type": "uint256"
        }
      ],
      "name": "getBatchDetails",
      "outputs": [
        {
          "components": [
            {
              "internalType": "uint256",
              "name": "batchId",
              "type": "uint256"
            },
            {
              "internalType": "address",
              "name": "distributor",
              "type": "address"
            },
            {
              "internalType": "address",
              "name": "retailer",
              "type": "address"
            },
            {
              "internalType": "uint256[]",
              "name": "productIds",
              "type": "uint256[]"
            },
            {
              "internalType": "uint256",
              "name": "createdAt",
              "type": "uint256"
            },
            {
              "internalType": "bool",
              "name": "isDistributedToRetailer",
              "type": "bool"
            }
          ],
          "internalType": "struct AgriTraceLib.Batch",
          "name": "",
          "type": "tuple"
        }
      ],
      "stateMutability": "view",
      "type": "function"
    },
    {
      "inputs": [
        {
          "internalType": "address",
          "name": "distributor",
          "type": "address"
        }
      ],
      "name": "getBatchesByDistributor",
      "outputs": [
        {
          "internalType": "uint256[]",
          "name": "",
          "type": "uint256[]"
        }
      ],
      "stateMutability": "view",
      "type": "function"
    },
    {
      "inputs": [
        {
          "internalType": "address",
          "name": "retailer",
          "type": "address"
        }
      ],
      "name": "getBatchesByRetailer",
      "outputs": [
        {
          "internalType": "uint256[]",
          "name": "",
          "type": "uint256[]"
        }
      ],
      "stateMutability": "view",
      "type": "function"
    },
    {
      "inputs": [
        {
          "internalType": "uint256",
          "name": "productId",
          "type": "uint256"
        }
      ],
      "name": "getProductBatch",
      "outputs": [
        {
          "internalType": "uint256",
          "name": "",
          "type": "uint256"
        }
      ],
      "stateMutability": "view",
      "type": "function"
    },
    {
      "inputs": [
        {
          "internalType": "uint256",
          "name": "batchId",
          "type": "uint256"
        }
      ],
      "name": "getProductsInBatch",
      "outputs": [
        {
          "internalType": "uint256[]",
          "name": "",
          "type": "uint256[]"
        }
      ],
      "stateMutability": "view",
      "type": "function"
    },
    {
      "inputs": [
        {
          "internalType": "address",
          "name": "distributor",
          "type": "address"
        }
      ],
      "name": "getUnbatchedProductsByDistributor",
      "outputs": [
        {
          "internalType": "uint256[]",
          "name": "",
          "type": "uint256[]"
        }
      ],
      "stateMutability": "view",
      "type": "function"
    },
    {
      "inputs": [
        {
          "internalType": "uint256",
          "name": "productId",
          "type": "uint256"
        }
      ],
      "name": "isProductRemovedFromBatch",
      "outputs": [
        {
          "internalType": "bool",
          "name": "",
          "type": "bool"
        }
      ],
      "stateMutability": "view",
      "type": "function"
    },
    {
      "inputs": [],
      "name": "nextBatchId",
      "outputs": [
        {
          "internalType": "uint256",
          "name": "",
          "type": "uint256"
        }
      ],
      "stateMutability": "view",
      "type": "function"
    },
    {
      "inputs": [
        {
          "internalType": "uint256",
          "name": "",
          "type": "uint256"
        }
      ],
      "name": "productRemovedFromBatch",
      "outputs": [
        {
          "internalType": "bool",
          "name": "",
          "type": "bool"
        }
      ],
      "stateMutability": "view",
      "type": "function"
    },
    {
      "inputs": [
        {
          "internalType": "uint256",
          "name": "",
          "type": "uint256"
        }
      ],
      "name": "productToBatch",
      "outputs": [
        {
          "internalType": "uint256",
          "name": "",
          "type": "uint256"
        }
      ],
      "stateMutability": "view",
      "type": "function"
    },
    {
      "inputs": [
        {
          "internalType": "uint256",
          "name": "batchId",
          "type": "uint256"
        },
        {
          "internalType": "uint256[]",
          "name": "prices",
          "type": "uint256[]"
        }
      ],
      "name": "purchaseBatchFromDistributor",
      "outputs": [],
      "stateMutability": "nonpayable",
      "type": "function"
    },
    {
      "inputs": [
        {
          "internalType": "uint256",
          "name": "productId",
          "type": "uint256"
        },
        {
          "internalType": "string",
          "name": "reason",
          "type": "string"
        }
      ],
      "name": "removeProductFromBatch",
      "outputs": [],
      "stateMutability": "nonpayable",
      "type": "function"
    },
    {
      "inputs": [
        {
          "internalType": "address",
          "name": "",
          "type": "address"
        },
        {
          "internalType": "uint256",
          "name": "",
          "type": "uint256"
        }
      ],
      "name": "retailerBatches",
      "outputs": [
        {
          "internalType": "uint256",
          "name": "",
          "type": "uint256"
        }
      ],
      "stateMutability": "view",
      "type": "function"
    }
  ],
  "bytecode": "0x60803461007457601f611f3738819003918201601f19168301916001600160401b038311848410176100795780849260209460405283398101031261007457516001600160a01b0381169081900361007457600080546001600160a01b031916919091179055604051611ea790816100908239f35b600080fd5b634e487b7160e01b600052604160045260246000fdfe6080604052600436101561001257600080fd5b60003560e01c806306aa091e1461189c5780630989042f14610d07578063265e2ae8146100e257806349616685146118445780634a0f5da6146111c85780634ccc0c0d1461116f57806366b9f62214610e755780638462a7f814610e575780639d47dcc014610d33578063a0c83c9c14610d07578063b1f6a98f14610aae578063b32c4d8d14610a47578063c4d106fd14610a01578063c6376a5a1461058a578063da04741b146102b2578063e80db5db14610289578063ed49e25e146101185763fd291d6b146100e257600080fd5b34610113576020366003190112610113576004356000526006602052602060ff604060002054166040519015158152f35b600080fd5b3461011357602080600319360112610113576004358015158061027d575b15610245576000526001808252806101546003604060002001611da6565b92600080835b6101f2575b5061016b919250611d03565b9260009182845b610189575b6040518061018588826118ec565b0390f35b82518110156101ed5761019c8184611d35565b516000526006825260ff60406000205416156101c2575b6101bc906119ee565b84610172565b926101e56101bc916101d48686611d35565b516101df828a611d35565b526119ee565b9390506101b3565b610177565b8551811015610240576102058187611d35565b516000526006835260ff604060002054161561022b575b610225906119ee565b8361015a565b90610238610225916119ee565b91905061021c565b61015f565b60405162461bcd60e51b815260048101839052601060248201526f125b9d985b1a590818985d18da08125160821b6044820152606490fd5b50600454811115610136565b34610113576000366003190112610113576000546040516001600160a01b039091168152602090f35b3461011357602080600319360112610113576102cc6118d6565b60008054604051632b85754560e11b81526001600160a01b039493909290918516908484600481855afa9384156104615760009461055b575b508560019316925b8481111561046d575061031f90611d03565b9360009260015b8581111561033c576040518061018589826118ec565b604051632e76c56d60e21b8152600481018290526024906000818381895afa9081156104615760009161043e575b50838a60c08301515116149182610411575b826103e3575b50816103cc575b816103be575b506103a3575b61039e906119ee565b610326565b936103b681866101df61039e948b611d35565b949050610395565b60809150015115158961038f565b905081600052600584526040600020541590610389565b604082015191925060068210156103fd575015908a610382565b634e487b7160e01b60009081526021600452fd5b9150848101516003811015610429576001149161037c565b82634e487b7160e01b60005260216004526000fd5b61045b91503d806000833e61045381836119cc565b810190611a98565b8a61036a565b6040513d6000823e3d90fd5b604051632e76c56d60e21b8152600481018290526024906000818381885afa90811561046157600091610540575b50858960c08301515116149182610528575b8261050e575b50816104f7575b816104e9575b506104d4575b6104cf906119ee565b61030d565b906104e16104cf916119ee565b9190506104c6565b6080915001511515886104c0565b9050816000526005875260406000205415906104ba565b604082015191925060068210156103fd57501590896104b3565b915087810151600381101561042957600114916104ad565b61055591503d806000833e61045381836119cc565b8961049b565b9093508481813d8311610583575b61057381836119cc565b8101031261011357519286610305565b503d610569565b34610113576020806003193601126101135767ffffffffffffffff600435818111610113576105bd903690600401611955565b600054604051634427673360e01b815233600482015292916024916001600160a01b0390811687868581845afa958615610461576000966109d2575b50600595868110156109bd576002036109865782156109545760005b8381106107fd5750506106296004546119ee565b95866004558660005260018097818a52604060002090815501336bffffffffffffffffffffffff60a01b82541617905560045460005260036040600020019083116107e857600160401b83116107e85780548382558084106107be575b50849060005287600020908760005b8581106107ac5750505050600454600052858752426004604060002001556004546000528460406000200160ff19815416905533600052600287526106e1604060002060045490611d71565b60005b82811061072957600454604080518281523360208201528a92917f03b090a5f073126ba1311454936e50b13b4eb5a69549338b4886ff9a0c1bfaed91a1604051908152f35b600454610737828588611d61565b35600052868952604060002055816000541690610755818588611d61565b35823b156101135760009260448492604051958693849263bec514c360e01b845260048401528d8b8401525af1918215610461576107989261079d575b506119ee565b6106e4565b6107a690611986565b89610792565b8a833593019281850155018890610695565b8160005287848a60002092830192015b8281106107dc575050610686565b600081550188906107ce565b83634e487b7160e01b60005260416004526000fd5b610808818588611d61565b604051632e76c56d60e21b8152903560048201526000818781865afa90811561046157600091610939575b50338460c0830151511603610902576040015160068110156108ed576108b45761085e818588611d61565b3560005286895260406000205461087d57610878906119ee565b610615565b60405162461bcd60e51b8152600481018a90526010818701526f082d8e4cac2c8f240d2dc40c4c2e8c6d60831b6044820152606490fd5b60405162461bcd60e51b8152600481018a90526012818701527104e6f742070656e64696e67207069636b75760741b6044820152606490fd5b85634e487b7160e01b60005260216004526000fd5b60405162461bcd60e51b8152600481018b90526010818801526f139bdd081e5bdd5c881c1c9bd91d58dd60821b6044820152606490fd5b61094e91503d806000833e61045381836119cc565b8a610833565b60405162461bcd60e51b815260048101899052600b818601526a08adae0e8f240c4c2e8c6d60ab1b6044820152606490fd5b60405162461bcd60e51b8152600481018990526010818601526f27b7363c903234b9ba3934b13aba37b960811b6044820152606490fd5b84634e487b7160e01b60005260216004526000fd5b6109f3919650883d8a116109fa575b6109eb81836119cc565b810190611d49565b94886105f9565b503d6109e1565b34610113576020366003190112610113576001600160a01b03610a226118d6565b166000526003602052610185610a3b6040600020611da6565b604051918291826118ec565b3461011357602036600319011261011357600435600052600160205260a06040600020805490600180841b0390816001820154169160028201541660ff60056004840154930154169260405194855260208501526040840152606083015215156080820152f35b34610113576040366003190112610113576024803560043567ffffffffffffffff80831161011357366023840112156101135782600401359081116101135736848285010111610113578160005260206005815260406000205415610ccd57826000526006815260ff60406000205416610c985760008054604051632e76c56d60e21b8152600481018690526001600160a01b0391821692909190828981865afa9081156104615760c085928a94600091610c7d575b50015151163314928315610c1f575b50505015610beb579060407f76c9a66f90a8e815139222b7d8f1f629d42ef271c32bf7ac793b041122c1f0ad92828088876000526006845284600020600160ff1982541617905560058452846000205498855196858896875286015201848401376000828201840152601f01601f19168101030190a3005b606490600e866040519262461bcd60e51b845260048401528201526d139bdd08185d5d1a1bdc9a5e995960921b6044820152fd5b604051634427673360e01b815233600482015293509091839182905afa90811561046157600091610c60575b5060058110156108ed57600414858288610b73565b610c779150823d84116109fa576109eb81836119cc565b86610c4b565b610c9291503d806000833e61045381836119cc565b8b610b64565b606490600f866040519262461bcd60e51b845260048401528201526e105b1c9958591e481c995b5bdd9959608a1b6044820152fd5b6064906014866040519262461bcd60e51b84526004840152820152730a0e4dec8eac6e840dcdee840d2dc40c4c2e8c6d60631b6044820152fd5b346101135760203660031901126101135760043560005260056020526020604060002054604051908152f35b346101135760208060031936011261011357600060a0604051610d55816119b0565b82815282848201528260408201526060808201528260808201520152600435600052600190818152604060002060405190610d8f826119b0565b80548252838101546001600160a01b0390811684840190815260028301548216604085019081529094909291610dc760038401611da6565b906060860191825260ff6005600486015495608089019687520154169460a0870195151586528160405198858a5260e08a019851868b01525116604089015251166060870152519360c06080870152845180915281610100870195019160005b828110610e4457845160a08901528551151560c089015287870388f35b8351875295810195928101928801610e27565b34610113576000366003190112610113576020600454604051908152f35b3461011357600036600319011261011357600454600060015b8281111561101b5750610ea090611d03565b60009160015b81811115610ebc576040518061018585826118ec565b80600052600160205260ff6005604060002001541615610ee5575b610ee0906119ee565b610ea6565b6040516376a4f12f60e11b81526004810182905260246000828281305afa91821561046157600092610ff6575b508151610f21575b5050610ed7565b909491939260019560009160018060a01b0360005416925b8251811015610fe857610f4c8184611d35565b5160405190632e76c56d60e21b825260048201526000818781885afa801561046157604091600091610fcd575b50015160068110156108ed57600203610f9a57610f95906119ee565b610f39565b50949593965050505060005b610fb2575b8480610f1a565b92610fc581856101df610ee09487611d35565b939050610fab565b610fe291503d806000833e61045381836119cc565b8b610f79565b509495939692505050610fa6565b6110149192503d806000833e61100c81836119cc565b810190611df7565b9086610f12565b80600052600160205260ff6005604060002001541615611044575b61103f906119ee565b610e8e565b6040516376a4f12f60e11b81526004810182905292919060246000858281305afa94851561046157600095611152575b508451611086575b5090919250611036565b909260019460009160018060a01b0360005416925b8251811015611144576110ae8184611d35565b5160405190632e76c56d60e21b825260048201526000818781885afa801561046157604091600091611129575b50015160068110156108ed576002036110fc576110f7906119ee565b61109b565b5095505050509060005b611114575b9082918461107c565b9061112161103f916119ee565b91905061110b565b61113e91503d806000833e61045381836119cc565b8a6110db565b509592505050919091611106565b6111689195503d806000833e61100c81836119cc565b9385611074565b34610113576040366003190112610113576111886118d6565b6001600160a01b0316600090815260036020526040902080546024359190821015610113576020916111b991611927565b90549060031b1c604051908152f35b346101135760403660031901126101135760243567ffffffffffffffff8111610113576111f9903690600401611955565b9060018060a01b0360005416604051634427673360e01b8152336004820152602081602481855afa90811561046157600091611825575b5060058110156116c6576003036117e8576004356000526001928360205260ff600560406000200154166117af576004356000528360205260018060a01b038460406000200154166040516376a4f12f60e11b81526004356004820152600081602481305afa90811561046157600091611794575b5082815103611744578051156116ff579294926000845b6115d2575b5083949550600435600052836020526005604060002060028101336bffffffffffffffffffffffff60a01b825416179055018460ff198254161790553360005260036020526113166004356040600020611d71565b6040805160043581523360208201527fd435a59c16541ca81adf6cdfe8991cc9c87d2475a457ef2876460222a63d82579190a16000935b61135357005b80518410156115d0576113668482611d35565b516000549094906001600160a01b0316803b156101135760008091604460405180948193636a13931d60e01b83528b6004840152600260248401525af18015610461576115c1575b506000546001600160a01b0316803b15610113576000809160446040518094819363bec514c360e01b83528b60048401528c60248401525af18015610461576115b2575b506000546001600160a01b03169461140b82868a611d61565b35863b156101135760009660848892604051998a938492634736522b60e11b845287600485015233602485015260448401524260648401525af1958615610461576000966115a3575b5085546020906001600160a01b031660a461147085898d611d61565b35604051998a938492636365ce6560e01b84528a6004850152336024850152876044850152600435606485015260848401525af19586156104615760009661156f575b506000546001600160a01b031690813b1561011357600091604483926040519485938492631577e5f360e31b845260048401528b60248401525af1801561046157611560575b506000546001600160a01b031694853b15610113576000956044879260405198899384926342111f2b60e11b845233600485015260248401525af190811561046157869561154b9261155157506119ee565b9361134d565b61155a90611986565b88610792565b61156990611986565b876114f9565b9095506020813d60201161159b575b8161158b602093836119cc565b81010312610113575194886114b3565b3d915061157e565b6115ac90611986565b88611454565b6115bb90611986565b876113f2565b6115ca90611986565b876113ae565b005b939581518510156116f7576115e78583611d35565b5160405190632e76c56d60e21b82526004820152600081602481855afa908115610461576000916116dc575b50604081015160068110156116c65760020361168a5760c00151516001600160a01b031683900361164f5761164887956119ee565b90966112bc565b60405162461bcd60e51b815260206004820152601360248201527224b73b30b634b2103234b9ba3934b13aba37b960691b6044820152606490fd5b60405162461bcd60e51b8152602060048201526014602482015273141c9bd91d58dd081b9bdd081d995c9a599a595960621b6044820152606490fd5b634e487b7160e01b600052602160045260246000fd5b6116f191503d806000833e61045381836119cc565b88611613565b8694506112c1565b60405162461bcd60e51b815260206004820152601a60248201527f4e6f2076616c69642070726f647563747320696e2062617463680000000000006044820152606490fd5b60405162461bcd60e51b815260206004820152602260248201527f5072696365206d69736d6174636820776974682076616c69642070726f647563604482015261747360f01b6064820152608490fd5b6117a991503d806000833e61100c81836119cc565b866112a5565b60405162461bcd60e51b8152602060048201526011602482015270105b1c9958591e481c1d5c98da185cd959607a1b6044820152606490fd5b60405162461bcd60e51b81526020600482015260156024820152744f6e6c792072657461696c65722063616e2062757960581b6044820152606490fd5b61183e915060203d6020116109fa576109eb81836119cc565b84611230565b346101135760403660031901126101135761185d6118d6565b6001600160a01b03166000908152600260205260409020805460243591908210156101135760209161188e91611927565b90546040519160031b1c8152f35b34610113576020366003190112610113576001600160a01b036118bd6118d6565b166000526002602052610185610a3b6040600020611da6565b600435906001600160a01b038216820361011357565b6020908160408183019282815285518094520193019160005b828110611913575050505090565b835185529381019392810192600101611905565b805482101561193f5760005260206000200190600090565b634e487b7160e01b600052603260045260246000fd5b9181601f840112156101135782359167ffffffffffffffff8311610113576020808501948460051b01011161011357565b67ffffffffffffffff811161199a57604052565b634e487b7160e01b600052604160045260246000fd5b60c0810190811067ffffffffffffffff82111761199a57604052565b90601f8019910116810190811067ffffffffffffffff82111761199a57604052565b60001981146119fd5760010190565b634e487b7160e01b600052601160045260246000fd5b919080601f840112156101135782519067ffffffffffffffff821161199a5760405191602091611a4c601f8301601f19168401856119cc565b8184528282870101116101135760005b818110611a7157508260009394955001015290565b8581018301518482018401528201611a5c565b51906001600160a01b038216820361011357565b90602090818382031261011357825167ffffffffffffffff938482116101135701808203926102a08412610113576040938451956101a0918288018881108382111761199a5787528451885283850151600381101561011357848901528685015160068110156101135787890152606080860151600481101561011357818a015260809081870151801515810361011357828b015260a087015184811161011357870160e0818a03126101135789519060e082018281108782111761199a578b528051868111610113578a611b6e918301611a13565b8252611b7b888201611a84565b888301528a8101518b8301528281015183830152838101519086821161011357611ba98b60c0938301611a13565b8584015260a081015160a0840152015160c082015260a08b01528160bf19840112610113578851918083018381108682111761199a578b9460c0918c52611bf1828b01611a84565b855260e08a01518986015261010094858b01518d8201528261012097888d015187840152015261013f19011261011357895191611c2d836119b0565b61014096611c3c888b01611a84565b845261016098898b0151908501526101809b8c8b01519085015289015190830152611c6a6101c08901611a84565b908201526101e087015160a082015260e08a01526102008601518381116101135787611c97918801611a13565b908901526102208501518281116101135786611cb4918701611a13565b908801526102408401519081116101135761028094611cd4918501611a13565b908601526102608201519085015201519082015290565b67ffffffffffffffff811161199a5760051b60200190565b90611d0d82611ceb565b611d1a60405191826119cc565b8281528092611d2b601f1991611ceb565b0190602036910137565b805182101561193f5760209160051b010190565b90816020910312610113575160058110156101135790565b919081101561193f5760051b0190565b8054600160401b81101561199a57611d8e91600182018155611927565b819291549060031b91821b91600019901b1916179055565b9060405191828154918282526020928383019160005283600020936000905b828210611ddd57505050611ddb925003836119cc565b565b855484526001958601958895509381019390910190611dc5565b60209081818403126101135780519067ffffffffffffffff821161011357019180601f84011215610113578251611e2d81611ceb565b93611e3b60405195866119cc565b818552838086019260051b820101928311610113578301905b828210611e62575050505090565b81518152908301908301611e5456fea264697066735822122029cc00685b3e089e084c096f6335a3865cc603242020e8df0b90f40305d4158464736f6c63430008130033",
  "linkReferences": {},
  "deployedLinkReferences": {}
}