{
  "_format": "hh-sol-artifact-1",
  "contractName": "DamageDetectionConsumer",
  "sourceName": "contracts/DamageDetectionConsumer.sol",
  "abi": [
    {
      "inputs": [],
      "stateMutability": "nonpayable",
      "type": "constructor"
    },
    {
      "anonymous": false,
      "inputs": [
        {
          "indexed": true,
          "internalType": "bytes32",
          "name": "id",
          "type": "bytes32"
        }
      ],
      "name": "ChainlinkCancelled",
      "type": "event"
    },
    {
      "anonymous": false,
      "inputs": [
        {
          "indexed": true,
          "internalType": "bytes32",
          "name": "id",
          "type": "bytes32"
        }
      ],
      "name": "ChainlinkFulfilled",
      "type": "event"
    },
    {
      "anonymous": false,
      "inputs": [
        {
          "indexed": true,
          "internalType": "bytes32",
          "name": "id",
          "type": "bytes32"
        }
      ],
      "name": "ChainlinkRequested",
      "type": "event"
    },
    {
      "anonymous": false,
      "inputs": [
        {
          "indexed": true,
          "internalType": "address",
          "name": "from",
          "type": "address"
        },
        {
          "indexed": true,
          "internalType": "address",
          "name": "to",
          "type": "address"
        }
      ],
      "name": "OwnershipTransferRequested",
      "type": "event"
    },
    {
      "anonymous": false,
      "inputs": [
        {
          "indexed": true,
          "internalType": "address",
          "name": "from",
          "type": "address"
        },
        {
          "indexed": true,
          "internalType": "address",
          "name": "to",
          "type": "address"
        }
      ],
      "name": "OwnershipTransferred",
      "type": "event"
    },
    {
      "anonymous": false,
      "inputs": [
        {
          "indexed": true,
          "internalType": "bytes32",
          "name": "requestId",
          "type": "bytes32"
        },
        {
          "indexed": false,
          "internalType": "uint256",
          "name": "damageScore",
          "type": "uint256"
        },
        {
          "indexed": false,
          "internalType": "string",
          "name": "prediction",
          "type": "string"
        },
        {
          "indexed": false,
          "internalType": "uint256",
          "name": "confidence",
          "type": "uint256"
        }
      ],
      "name": "PredictionReceived",
      "type": "event"
    },
    {
      "anonymous": false,
      "inputs": [
        {
          "indexed": true,
          "internalType": "bytes32",
          "name": "requestId",
          "type": "bytes32"
        },
        {
          "indexed": false,
          "internalType": "string",
          "name": "imageUrl",
          "type": "string"
        }
      ],
      "name": "PredictionRequested",
      "type": "event"
    },
    {
      "inputs": [],
      "name": "acceptOwnership",
      "outputs": [],
      "stateMutability": "nonpayable",
      "type": "function"
    },
    {
      "inputs": [],
      "name": "apiEndpoint",
      "outputs": [
        {
          "internalType": "string",
          "name": "",
          "type": "string"
        }
      ],
      "stateMutability": "view",
      "type": "function"
    },
    {
      "inputs": [
        {
          "internalType": "bytes32",
          "name": "_requestId",
          "type": "bytes32"
        },
        {
          "internalType": "uint256",
          "name": "_damageScore",
          "type": "uint256"
        }
      ],
      "name": "fulfill",
      "outputs": [],
      "stateMutability": "nonpayable",
      "type": "function"
    },
    {
      "inputs": [
        {
          "internalType": "bytes32",
          "name": "requestId",
          "type": "bytes32"
        }
      ],
      "name": "getPrediction",
      "outputs": [
        {
          "internalType": "uint256",
          "name": "damageScore",
          "type": "uint256"
        },
        {
          "internalType": "string",
          "name": "prediction",
          "type": "string"
        },
        {
          "internalType": "uint256",
          "name": "timestamp",
          "type": "uint256"
        },
        {
          "internalType": "bool",
          "name": "fulfilled",
          "type": "bool"
        }
      ],
      "stateMutability": "view",
      "type": "function"
    },
    {
      "inputs": [
        {
          "internalType": "bytes32",
          "name": "requestId",
          "type": "bytes32"
        }
      ],
      "name": "getRequestStatus",
      "outputs": [
        {
          "internalType": "bool",
          "name": "exists",
          "type": "bool"
        },
        {
          "internalType": "bool",
          "name": "fulfilled",
          "type": "bool"
        }
      ],
      "stateMutability": "view",
      "type": "function"
    },
    {
      "inputs": [
        {
          "internalType": "bytes32",
          "name": "requestId",
          "type": "bytes32"
        }
      ],
      "name": "getRequester",
      "outputs": [
        {
          "internalType": "address",
          "name": "",
          "type": "address"
        }
      ],
      "stateMutability": "view",
      "type": "function"
    },
    {
      "inputs": [],
      "name": "owner",
      "outputs": [
        {
          "internalType": "address",
          "name": "",
          "type": "address"
        }
      ],
      "stateMutability": "view",
      "type": "function"
    },
    {
      "inputs": [
        {
          "internalType": "bytes32",
          "name": "",
          "type": "bytes32"
        }
      ],
      "name": "predictions",
      "outputs": [
        {
          "internalType": "uint256",
          "name": "damageScore",
          "type": "uint256"
        },
        {
          "internalType": "string",
          "name": "prediction",
          "type": "string"
        },
        {
          "internalType": "uint256",
          "name": "confidence",
          "type": "uint256"
        },
        {
          "internalType": "uint256",
          "name": "timestamp",
          "type": "uint256"
        },
        {
          "internalType": "bool",
          "name": "fulfilled",
          "type": "bool"
        }
      ],
      "stateMutability": "view",
      "type": "function"
    },
    {
      "inputs": [
        {
          "internalType": "string",
          "name": "imageUrl",
          "type": "string"
        }
      ],
      "name": "requestDamagePrediction",
      "outputs": [
        {
          "internalType": "bytes32",
          "name": "requestId",
          "type": "bytes32"
        }
      ],
      "stateMutability": "nonpayable",
      "type": "function"
    },
    {
      "inputs": [
        {
          "internalType": "bytes32",
          "name": "",
          "type": "bytes32"
        }
      ],
      "name": "requesters",
      "outputs": [
        {
          "internalType": "address",
          "name": "",
          "type": "address"
        }
      ],
      "stateMutability": "view",
      "type": "function"
    },
    {
      "inputs": [
        {
          "internalType": "address",
          "name": "to",
          "type": "address"
        }
      ],
      "name": "transferOwnership",
      "outputs": [],
      "stateMutability": "nonpayable",
      "type": "function"
    },
    {
      "inputs": [
        {
          "internalType": "string",
          "name": "newEndpoint",
          "type": "string"
        }
      ],
      "name": "updateApiEndpoint",
      "outputs": [],
      "stateMutability": "nonpayable",
      "type": "function"
    },
    {
      "inputs": [],
      "name": "withdrawLink",
      "outputs": [],
      "stateMutability": "nonpayable",
      "type": "function"
    }
  ],
  "bytecode": "0x6080806040523461019d5760019081600455331561015b5750600680546001600160a01b03199081163317909155600a5480831c9083168015610151575b602082101461013b57601f81116100f2575b736090149792daaee9d1d568c9f9a6f6b46aa29efd82603a7f687474703a2f2f3132372e302e302e313a353030302f7072656469637400000001600a5573779877a7b0d9e8603169ddbd7836e478b462478981600254161760025560035416176003557f636139383336366363373331343935376238633031326337326630356165656260085567016345785d8a00006009556040516119359081620001a38239f35b600a600052601f0160051c7fc65a7bb8d6351c1cf70c95a316cc6a92839c986682d98bc35f958f4883f9d2a8908101905b818110610130575061004f565b600081558301610123565b634e487b7160e01b600052602260045260246000fd5b90607f169061003d565b62461bcd60e51b815260206004820152601860248201527f43616e6e6f7420736574206f776e657220746f207a65726f00000000000000006044820152606490fd5b600080fdfe6080604052600436101561001257600080fd5b60003560e01c80634357855e146100e257806345d07664146100dd57806358381bbd146100bf5780635d9eaeaf146100d857806362963ea8146100d357806379ba5097146100ce5780638da5cb5b146100c95780638dc654a2146100c45780639eb04ecc146100bf578063b8f230f2146100ba578063dc6423ab146100b5578063f25ecd5d146100b05763f2fde38b146100ab57600080fd5b610ad4565b610a08565b610978565b610860565b610219565b610747565b61071e565b61065e565b6104fa565b610406565b6101ce565b346101c95760403660031901126101c9576004356000818152600560205260408120549091906001600160a01b031633036101735780610142610132610170936000526005602052604060002090565b80546001600160a01b0319169055565b807f7cc135e0cebb02c3480ae5d74d377283180a2601f8f644edf7987b009316c63a8480a2602435906117aa565b80f35b60405162461bcd60e51b815260206004820152602860248201527f536f75726365206d75737420626520746865206f7261636c65206f6620746865604482015267081c995c5d595cdd60c21b6064820152608490fd5b600080fd5b346101c95760203660031901126101c957600435600052600c602052604060018060a01b038160002054161515600b60205260ff600483600020015416825191825215156020820152f35b346101c95760203660031901126101c957600435600052600c602052602060018060a01b0360406000205416604051908152f35b90600182811c9216801561027d575b602083101461026757565b634e487b7160e01b600052602260045260246000fd5b91607f169161025c565b634e487b7160e01b600052604160045260246000fd5b60a0810190811067ffffffffffffffff8211176102b957604052565b610287565b6040810190811067ffffffffffffffff8211176102b957604052565b6060810190811067ffffffffffffffff8211176102b957604052565b90601f8019910116810190811067ffffffffffffffff8211176102b957604052565b906040519182600082549261032c8461024d565b90818452600194858116908160001461039b5750600114610358575b5050610356925003836102f6565b565b9093915060005260209081600020936000915b81831061038357505061035693508201013880610348565b8554888401850152948501948794509183019161036b565b91505061035694506020925060ff191682840152151560051b8201013880610348565b60005b8381106103d15750506000910152565b81810151838201526020016103c1565b906020916103fa815180928185528580860191016103be565b601f01601f1916010190565b346101c95760203660031901126101c957600435600052600b6020526040600020805461043560018301610318565b9160028101549060ff600460038301549201541690610466604051958695865260a0602087015260a08601906103e1565b9260408501526060840152151560808301520390f35b604051906103568261029d565b60206003198201126101c95767ffffffffffffffff6004358181116101c957826023820112156101c95780600401359182116102b957604051926104d7601f8401601f1916602001856102f6565b828452602483830101116101c95781600092602460209301838601378301015290565b346101c95761065a61064961050e36610489565b6008549061051a610d2d565b507ff86f7803a2abeaef723d8e0dd836c467c4a5c31e508a13c3306b9c982da1613f610604610547610d2d565b61054f610d2d565b5060808101519461055e610d02565b50610100602087015261012060409687518091526000815201865281523060208201526321abc2af60e11b858201526105e185516105d3816105c56105bf6105a860208401610bee565b6a3f696d6167655f75726c3d60a81b8152600b0190565b89610c6b565b03601f1981018352826102f6565b6105db610c82565b83610ce9565b6105fb6105ec610ca1565b6105f4610cc1565b9083610ce9565b60095490610d63565b93849261063e3361061f86600052600c602052604060002090565b80546001600160a01b0319166001600160a01b03909216919091179055565b8451918291826109f4565b0390a2519081529081906020820190565b0390f35b346101c95760008060031936011261071b576007546001600160a01b0390811633036106dd576006546001600160a01b0316600680546001600160a01b0319163317905590600780546001600160a01b03191690553391167f8be0079c531659141344cd1fd0a4f28419497f9722a3daafe3b4186f6b6457e08380a380f35b60405162461bcd60e51b815260206004820152601660248201527526bab9ba10313290383937b837b9b2b21037bbb732b960511b6044820152606490fd5b80fd5b346101c95760003660031901126101c9576006546040516001600160a01b039091168152602090f35b346101c95760008060031936011261071b57610761610b9c565b60025461078490610778906001600160a01b031681565b6001600160a01b031690565b6040516370a0823160e01b8152306004820152602091908281602481855afa90811561082e57849284926107e4928591610833575b5060405163a9059cbb60e01b8152336004820152602481019190915293849283919082906044820190565b03925af190811561082e57610170928492610801575b505061189e565b6108209250803d10610827575b61081881836102f6565b810190610e3d565b38806107fa565b503d61080e565b610e79565b6108539150843d8611610859575b61084b81836102f6565b81019061188f565b386107b9565b503d610841565b346101c95761086e36610489565b610876610b9c565b805167ffffffffffffffff81116102b95761089b81610896600a5461024d565b611524565b602080601f83116001146108d8575081926000926108cd575b5050600019600383901b1c191660019190911b17600a55005b0151905038806108b4565b90601f198316936108f9600a6000526000805160206118e083398151915290565b926000905b868210610935575050836001951061091c575b505050811b01600a55005b015160001960f88460031b161c19169055388080610911565b806001859682949686015181550195019301906108fe565b9294939060609261096b9185526080602086015260808501906103e1565b9460408401521515910152565b346101c95760203660031901126101c957600435600052600b6020526040600020604051906109a68261029d565b8054825261065a6109b960018301610318565b928360208201526002830154604082015260ff600460038501549485606085015201541615159081608082015251926040519485948561094d565b906020610a059281815201906103e1565b90565b346101c95760008060031936011261071b576040519080600a54610a2b8161024d565b80855291600191808316908115610aaa5750600114610a61575b61065a85610a55818703826102f6565b604051918291826109f4565b9250600a83526000805160206118e08339815191525b828410610a92575050508101602001610a558261065a610a45565b80546020858701810191909152909301928101610a77565b86955061065a96935060209250610a5594915060ff191682840152151560051b8201019293610a45565b346101c95760203660031901126101c9576004356001600160a01b038116908190036101c957610b02610b9c565b338114610b5757600780546001600160a01b03191682179055600654610b30906001600160a01b0316610778565b7fed8889f560326eb138920d842192f0eb3dd22b4f139c87a2c57538e05bae1278600080a3005b60405162461bcd60e51b815260206004820152601760248201527f43616e6e6f74207472616e7366657220746f2073656c660000000000000000006044820152606490fd5b6006546001600160a01b03163303610bb057565b60405162461bcd60e51b815260206004820152601660248201527527b7363c9031b0b63630b1363290313c9037bbb732b960511b6044820152606490fd5b600a5460009291610bfe8261024d565b91600190818116908115610c585750600114610c1957505050565b9091929350600a6000526000805160206118e0833981519152906000915b848310610c45575050500190565b8181602092548587015201920191610c37565b60ff191683525050811515909102019150565b90610c7e602092828151948592016103be565b0190565b60405190610c8f826102be565b600382526219d95d60ea1b6020830152565b60405190610cae826102be565b60048252630e0c2e8d60e31b6020830152565b60405190610cce826102be565b600c82526b64616d6167655f73636f726560a01b6020830152565b60800180516103569392610cfc91610fd2565b51610fd2565b604051906040820182811067ffffffffffffffff8211176102b9576040526000602083606081520152565b60405190610d3a8261029d565b81600081526000602082015260006040820152600060608201526080610d5e610d02565b910152565b6003546004546001810193916001600160a01b0316848211610e0757610a0594600455610e028451610df4608063ffffffff60e01b604089015116970151516040519788936320214ca360e11b60208601526000602486015260006044860152606485015230608485015260a48401528560c4840152600160e48401526101006101048401526101248301906103e1565b03601f1981018652856102f6565b610edd565b634e487b7160e01b600052601160045260246000fd5b9060208201809211610e2b57565b610e07565b91908201809211610e2b57565b908160209103126101c9575180151581036101c95790565b610a05939260609260018060a01b03168252602082015281604082015201906103e1565b6040513d6000823e3d90fd5b15610e8c57565b60405162461bcd60e51b815260206004820152602360248201527f756e61626c6520746f207472616e73666572416e6443616c6c20746f206f7261604482015262636c6560e81b6064820152608490fd5b92610f899293602092604051848101916bffffffffffffffffffffffff193060601b168352603482015260348152610f14816102da565b51902094610f308261061f886000526005602052604060002090565b60006040518096819582948a7fb5e6e01e79f91267dc17b4e6314d5d4d03593d2ceee0fbb452b750bd70ea5af98680a2600254610f75906001600160a01b0316610778565b630200057560e51b85529660048501610e55565b03925af1801561082e57610a0591600091610fa5575b50610e85565b610fbd915060203d81116108275761081881836102f6565b38610f9f565b601f19810191908211610e2b57565b815161100492919067ffffffffffffffff8116601781116110075750606060ff610ffe92161782611323565b50611077565b50565b905060ff811161102557610ffe9061101e836112d3565b50826114bd565b61ffff811161104257610ffe9061103b83611283565b5082611455565b63ffffffff811161106157610ffe9061105a83611233565b50826113eb565b6110759061106e836111d5565b5082611379565b505b90611080610d02565b5081515190805190611090610d02565b5061109e815183111561114f565b6110a88284610e30565b602091829182870151809111611124575b508551805190838782010196860191821161111c575b505001915b818110156110f65760001991036101000a019081199051169082511617905290565b919261111161110b6111179286518152610e1d565b94610e1d565b92610fc3565b6110d4565b5238806110cf565b61114361113e611149926111388989610e30565b906111c5565b611156565b8761116c565b386110b9565b156101c957565b908160011b9180830460021490151715610e2b57565b80519082611178610d02565b50601f8416806111a5575b5061100493508060208301526040518083526000815201602001604052611077565b905060200360208111610e2b578301809311610e2b576110049238611183565b8181116111d0575090565b905090565b6111dd610d02565b508051516111e9610d02565b5060208201518082101561121b575b50815190815181607b60208394860101531461121357505090565b600101905290565b61122761122d91611156565b8361116c565b386111f8565b61123b610d02565b50805151611247610d02565b50602082015180821015611271575b50815190815181607a60208394860101531461121357505090565b61122761127d91611156565b38611256565b61128b610d02565b50805151611297610d02565b506020820151808210156112c1575b50815190815181607960208394860101531461121357505090565b6112276112cd91611156565b386112a6565b6112db610d02565b508051516112e7610d02565b50602082015180821015611311575b50815190815181607860208394860101531461121357505090565b61122761131d91611156565b386112f6565b9061132c610d02565b50815151611338610d02565b50602083015180821015611361575b508251918251918291602082860101531461121357505090565b61136d61137391611156565b8461116c565b38611347565b90611382610d02565b508151519061138f610d02565b508160080180600811610e2b57602084015181116113d9575b508251906008838301019067ffffffffffffffff198251161790526008815192019182116113d557505090565b5290565b61136d6113e591611156565b386113a8565b906113f4610d02565b5081515190611401610d02565b508160040180600411610e2b5760208401518111611443575b508251906004838301019063ffffffff198251161790526004815192019182116113d557505090565b61136d61144f91611156565b3861141a565b9061145e610d02565b508151519061146b610d02565b508160020180600211610e2b57602084015181116114ab575b508251906002838301019061ffff198251161790526002815192019182116113d557505090565b61136d6114b791611156565b38611484565b906114c6610d02565b50815151906114d3610d02565b508160010180600111610e2b5760208401518111611512575b508251906001838301019060ff198251161790526001815192019182116113d557505090565b61136d61151e91611156565b386114ec565b601f8111611530575050565b600090600a82526000805160206118e0833981519152906020601f850160051c83019410611579575b601f0160051c01915b82811061156e57505050565b818155600101611562565b9092508290611559565b90601f811161159157505050565b600091825260208220906020601f850160051c830194106115cd575b601f0160051c01915b8281106115c257505050565b8181556001016115b6565b90925082906115ad565b815181556001918282016020808301519485519167ffffffffffffffff83116102b95761160e83611608865461024d565b86611583565b80601f8411600114611680575092828060809460049794611662976103569b600094611675575b50501b916000199060031b1c19161790555b60408101516002860155606081015160038601550151151590565b91019060ff801983541691151516179055565b015192503880611635565b9193949596601f19841661169987600052602060002090565b936000905b8282106116e75750509361035698979360049793611662979383608098106116ce575b505050811b019055611647565b015160001960f88460031b161c191690553880806116c1565b80888697829497870151815501960194019061169e565b9291908352602090606082850152600091815461171a8161024d565b9283606088015260019182811690816000146117825750600114611747575b505050506040600091930152565b60009081528281209094505b83851061176e57505050508201608001604060003880611739565b805487860160800152938201938101611753565b9150506000945060809250604093915060ff191682870152151560051b850101913880611739565b907fd04bca54e51216033a86f91ba389d04c524d80e6154d8a5851add24b533a47909060328111156118695761183d6040516117e5816102be565b60068152653937ba3a32b760d11b60208201525b61180161047c565b908382526020820152600060408201524260608201526118246080820160019052565b61183885600052600b602052604060002090565b6115d7565b600161185384600052600b602052604060002090565b0190611864604051928392836116fe565b0390a2565b61183d604051611878816102be565b60058152640cce4cae6d60db1b60208201526117f9565b908160209103126101c9575190565b156118a557565b60405162461bcd60e51b81526020600482015260126024820152712ab730b13632903a37903a3930b739b332b960711b6044820152606490fdfec65a7bb8d6351c1cf70c95a316cc6a92839c986682d98bc35f958f4883f9d2a8a26469706673582212209f35c93f603e07fbd88c2760bae195febe33878439d03fac6accd174ba6e802f64736f6c63430008130033",
  "linkReferences": {},
  "deployedLinkReferences": {}
}