{
  "_format": "hh-sol-artifact-1",
  "contractName": "QualityOracle",
  "sourceName": "contracts/QualityOracle.sol",
  "abi": [
    {
      "inputs": [],
      "stateMutability": "nonpayable",
      "type": "constructor"
    },
    {
      "anonymous": false,
      "inputs": [
        {
          "indexed": true,
          "internalType": "uint256",
          "name": "productId",
          "type": "uint256"
        },
        {
          "indexed": false,
          "internalType": "uint256",
          "name": "score",
          "type": "uint256"
        },
        {
          "indexed": false,
          "internalType": "enum AgriTraceLib.Grade",
          "name": "grade",
          "type": "uint8"
        },
        {
          "indexed": false,
          "internalType": "address",
          "name": "assessor",
          "type": "address"
        },
        {
          "indexed": false,
          "internalType": "string",
          "name": "ipfsHash",
          "type": "string"
        },
        {
          "indexed": false,
          "internalType": "uint256",
          "name": "temperature",
          "type": "uint256"
        }
      ],
      "name": "QualityAssessed",
      "type": "event"
    },
    {
      "inputs": [
        {
          "internalType": "uint256",
          "name": "productId",
          "type": "uint256"
        },
        {
          "internalType": "uint256",
          "name": "score",
          "type": "uint256"
        },
        {
          "internalType": "string",
          "name": "damageLevel",
          "type": "string"
        },
        {
          "internalType": "string",
          "name": "ipfsHash",
          "type": "string"
        },
        {
          "internalType": "uint256",
          "name": "temperature",
          "type": "uint256"
        }
      ],
      "name": "assessQuality",
      "outputs": [],
      "stateMutability": "nonpayable",
      "type": "function"
    },
    {
      "inputs": [],
      "name": "core",
      "outputs": [
        {
          "internalType": "address",
          "name": "",
          "type": "address"
        }
      ],
      "stateMutability": "view",
      "type": "function"
    },
    {
      "inputs": [
        {
          "internalType": "uint256",
          "name": "productId",
          "type": "uint256"
        }
      ],
      "name": "getQualityHistory",
      "outputs": [
        {
          "components": [
            {
              "internalType": "uint256",
              "name": "score",
              "type": "uint256"
            },
            {
              "internalType": "enum AgriTraceLib.Grade",
              "name": "grade",
              "type": "uint8"
            },
            {
              "internalType": "string",
              "name": "damageLevel",
              "type": "string"
            },
            {
              "internalType": "uint256",
              "name": "temperature",
              "type": "uint256"
            },
            {
              "internalType": "uint256",
              "name": "timestamp",
              "type": "uint256"
            },
            {
              "internalType": "address",
              "name": "assessor",
              "type": "address"
            }
          ],
          "internalType": "struct AgriTraceLib.Quality[]",
          "name": "",
          "type": "tuple[]"
        }
      ],
      "stateMutability": "view",
      "type": "function"
    },
    {
      "inputs": [
        {
          "internalType": "uint256",
          "name": "",
          "type": "uint256"
        },
        {
          "internalType": "uint256",
          "name": "",
          "type": "uint256"
        }
      ],
      "name": "qualityHistory",
      "outputs": [
        {
          "internalType": "uint256",
          "name": "score",
          "type": "uint256"
        },
        {
          "internalType": "enum AgriTraceLib.Grade",
          "name": "grade",
          "type": "uint8"
        },
        {
          "internalType": "string",
          "name": "damageLevel",
          "type": "string"
        },
        {
          "internalType": "uint256",
          "name": "temperature",
          "type": "uint256"
        },
        {
          "internalType": "uint256",
          "name": "timestamp",
          "type": "uint256"
        },
        {
          "internalType": "address",
          "name": "assessor",
          "type": "address"
        }
      ],
      "stateMutability": "view",
      "type": "function"
    }
  ],
  "bytecode": "0x6080806040523461002857600080546001600160a01b03191633179055610864908161002e8239f35b600080fdfe6080604052600436101561001257600080fd5b60003560e01c806342675ada146102c35780636babbf161461021d578063f2f4eb26146101f45763f7ba0af11461004857600080fd5b346101ef576020806003193601126101ef57600435600052600180825260406000209081549267ffffffffffffffff84116101d9578284604051936005916100948582851b01876106dd565b8086528486018094600052856000206000915b83831061015e57505050506040519484869586019181875251809252604082818801951b87010194936000905b8382106100e15787870388f35b918496819592949698508190603f198b82030185528951908151815261010d83830151848301906107a5565b610125604083015160c08060408501528301906107b2565b91606080820151908301526080808201519083015260a0908160018060a01b0391015116910152980192019201879695939194926100d4565b936006888298999660409b989b51610175816106c1565b8554815261018b60ff86880154168483016107f2565b610197600287016106ff565b604082015260038601546060820152600486015460808201528c8601546001600160a01b031660a08201528152979a96999896979290940193920191016100a7565b634e487b7160e01b600052604160045260246000fd5b600080fd5b346101ef5760003660031901126101ef576000546040516001600160a01b039091168152602090f35b346101ef5760403660031901126101ef57602435600435600052600160205260406000209081548110156101ef5761025491610655565b50805460ff6001830154169161026c600282016106ff565b6003820154916102af600482015491600560018060a01b03910154169261029e604051978897885260208801906107a5565b60c0604087015260c08601906107b2565b926060850152608084015260a08301520390f35b346101ef5760a03660031901126101ef5760443567ffffffffffffffff81116101ef576102f4903690600401610627565b9060643567ffffffffffffffff81116101ef57610315903690600401610627565b9290916103236024356107fe565b9161032e60806106c1565b60243560805261033f8360a06107f2565b67ffffffffffffffff81116101d95760405191610366601f8301601f1916602001846106dd565b81835236828201116101ef5781600092602092838601378301015260c05260843560e0524261010052326101205260043560009081526001602052604090208054680100000000000000008110156101d9576103c791600182018155610655565b92909261061157608051835560a051600184019060048110156105fb5760ff8019835416911617905560406080015190815167ffffffffffffffff81116101d95785926104176002870154610687565b601f81116105a4575b50602090601f831160011461050b5791807f435841eda5b2426a90d5a1877d323898df1e5668cda157e75b2b07172f1641939792600594600092610500575b50508160011b916000199060031b1c19161760028201555b60e051600382015561010051600482015561012051910180546001600160a01b0319166001600160a01b039290921691821790556040516024358152936104c29060208601906107a5565b604084015260a060608401528160a084015260c0830137600060c08483010152608435608082015260c08160043594601f80199101168101030190a2005b01519050898061045f565b6002879392970160005260206000209060005b601f19841681106105895750916001917f435841eda5b2426a90d5a1877d323898df1e5668cda157e75b2b07172f164193986005959483601f19811610610570575b505050811b016002820155610477565b015160001960f88460031b161c19169055898080610560565b8189015183556020988901988a97506001909301920161051e565b9091929350600286016000526020600020601f840160051c8101602085106105f4575b908895949392915b601f830160051c820181106105e5575050610420565b600081558996506001016105cf565b50806105c7565b634e487b7160e01b600052602160045260246000fd5b634e487b7160e01b600052600060045260246000fd5b9181601f840112156101ef5782359167ffffffffffffffff83116101ef57602083818601950101116101ef57565b8054821015610671576000526006602060002091020190600090565b634e487b7160e01b600052603260045260246000fd5b90600182811c921680156106b7575b60208310146106a157565b634e487b7160e01b600052602260045260246000fd5b91607f1691610696565b60c0810190811067ffffffffffffffff8211176101d957604052565b90601f8019910116810190811067ffffffffffffffff8211176101d957604052565b906040519182600082549261071384610687565b908184526001948581169081600014610782575060011461073f575b505061073d925003836106dd565b565b9093915060005260209081600020936000915b81831061076a57505061073d9350820101388061072f565b85548884018501529485019487945091830191610752565b91505061073d94506020925060ff191682840152151560051b820101388061072f565b9060048210156105fb5752565b919082519283825260005b8481106107de575050826000602080949584010152601f8019910116010190565b6020818301810151848301820152016107bd565b60048210156105fb5752565b6055811015610828576046811015610822576037111561081d57600390565b600290565b50600190565b5060009056fea2646970667358221220d8ad0c60424cc22b9d73aa265e8fb71ed9448269c42903f87a572e371d204ad864736f6c63430008130033",
  "linkReferences": {},
  "deployedLinkReferences": {}
}