{
  "_format": "hh-sol-artifact-1",
  "contractName": "TemperatureOracle",
  "sourceName": "contracts/TemperatureOracle.sol",
  "abi": [
    {
      "inputs": [],
      "stateMutability": "nonpayable",
      "type": "constructor"
    },
    {
      "anonymous": false,
      "inputs": [
        {
          "indexed": true,
          "internalType": "bytes32",
          "name": "id",
          "type": "bytes32"
        }
      ],
      "name": "ChainlinkCancelled",
      "type": "event"
    },
    {
      "anonymous": false,
      "inputs": [
        {
          "indexed": true,
          "internalType": "bytes32",
          "name": "id",
          "type": "bytes32"
        }
      ],
      "name": "ChainlinkFulfilled",
      "type": "event"
    },
    {
      "anonymous": false,
      "inputs": [
        {
          "indexed": true,
          "internalType": "bytes32",
          "name": "id",
          "type": "bytes32"
        }
      ],
      "name": "ChainlinkRequested",
      "type": "event"
    },
    {
      "anonymous": false,
      "inputs": [
        {
          "indexed": true,
          "internalType": "uint256",
          "name": "productId",
          "type": "uint256"
        },
        {
          "indexed": false,
          "internalType": "uint256",
          "name": "temperature",
          "type": "uint256"
        }
      ],
      "name": "CriticalTemperatureDetected",
      "type": "event"
    },
    {
      "anonymous": false,
      "inputs": [
        {
          "indexed": true,
          "internalType": "address",
          "name": "from",
          "type": "address"
        },
        {
          "indexed": true,
          "internalType": "address",
          "name": "to",
          "type": "address"
        }
      ],
      "name": "OwnershipTransferRequested",
      "type": "event"
    },
    {
      "anonymous": false,
      "inputs": [
        {
          "indexed": true,
          "internalType": "address",
          "name": "from",
          "type": "address"
        },
        {
          "indexed": true,
          "internalType": "address",
          "name": "to",
          "type": "address"
        }
      ],
      "name": "OwnershipTransferred",
      "type": "event"
    },
    {
      "anonymous": false,
      "inputs": [
        {
          "indexed": true,
          "internalType": "bytes32",
          "name": "requestId",
          "type": "bytes32"
        },
        {
          "indexed": false,
          "internalType": "uint256",
          "name": "productId",
          "type": "uint256"
        }
      ],
      "name": "RequestTemperature",
      "type": "event"
    },
    {
      "anonymous": false,
      "inputs": [
        {
          "indexed": true,
          "internalType": "bytes32",
          "name": "requestId",
          "type": "bytes32"
        },
        {
          "indexed": false,
          "internalType": "uint256",
          "name": "temperature",
          "type": "uint256"
        },
        {
          "indexed": false,
          "internalType": "uint256",
          "name": "productId",
          "type": "uint256"
        }
      ],
      "name": "TemperatureReceived",
      "type": "event"
    },
    {
      "inputs": [],
      "name": "acceptOwnership",
      "outputs": [],
      "stateMutability": "nonpayable",
      "type": "function"
    },
    {
      "inputs": [
        {
          "internalType": "bytes32",
          "name": "_requestId",
          "type": "bytes32"
        },
        {
          "internalType": "uint256",
          "name": "_temperature",
          "type": "uint256"
        }
      ],
      "name": "fulfill",
      "outputs": [],
      "stateMutability": "nonpayable",
      "type": "function"
    },
    {
      "inputs": [
        {
          "internalType": "uint256",
          "name": "productId",
          "type": "uint256"
        }
      ],
      "name": "getCurrentTemperature",
      "outputs": [
        {
          "internalType": "uint256",
          "name": "",
          "type": "uint256"
        }
      ],
      "stateMutability": "view",
      "type": "function"
    },
    {
      "inputs": [
        {
          "internalType": "uint256",
          "name": "productId",
          "type": "uint256"
        }
      ],
      "name": "getLatestTemperatureForProduct",
      "outputs": [
        {
          "internalType": "uint256",
          "name": "",
          "type": "uint256"
        }
      ],
      "stateMutability": "view",
      "type": "function"
    },
    {
      "inputs": [
        {
          "internalType": "uint256",
          "name": "",
          "type": "uint256"
        }
      ],
      "name": "latestTemperatureByProduct",
      "outputs": [
        {
          "internalType": "uint256",
          "name": "",
          "type": "uint256"
        }
      ],
      "stateMutability": "view",
      "type": "function"
    },
    {
      "inputs": [],
      "name": "owner",
      "outputs": [
        {
          "internalType": "address",
          "name": "",
          "type": "address"
        }
      ],
      "stateMutability": "view",
      "type": "function"
    },
    {
      "inputs": [
        {
          "internalType": "uint256",
          "name": "productId",
          "type": "uint256"
        }
      ],
      "name": "requestTemperatureForProduct",
      "outputs": [
        {
          "internalType": "bytes32",
          "name": "requestId",
          "type": "bytes32"
        }
      ],
      "stateMutability": "nonpayable",
      "type": "function"
    },
    {
      "inputs": [
        {
          "internalType": "bytes32",
          "name": "",
          "type": "bytes32"
        }
      ],
      "name": "requestToProductId",
      "outputs": [
        {
          "internalType": "uint256",
          "name": "",
          "type": "uint256"
        }
      ],
      "stateMutability": "view",
      "type": "function"
    },
    {
      "inputs": [
        {
          "internalType": "bytes32",
          "name": "",
          "type": "bytes32"
        }
      ],
      "name": "requestToRequester",
      "outputs": [
        {
          "internalType": "address",
          "name": "",
          "type": "address"
        }
      ],
      "stateMutability": "view",
      "type": "function"
    },
    {
      "inputs": [
        {
          "internalType": "address",
          "name": "to",
          "type": "address"
        }
      ],
      "name": "transferOwnership",
      "outputs": [],
      "stateMutability": "nonpayable",
      "type": "function"
    },
    {
      "inputs": [],
      "name": "withdrawLink",
      "outputs": [],
      "stateMutability": "nonpayable",
      "type": "function"
    }
  ],
  "bytecode": "0x608080604052346100e357600160045533156100a157736090149792daaee9d1d568c9f9a6f6b46aa29efd60018060a01b03193381600654161760065573779877a7b0d9e8603169ddbd7836e478b462478981600254161760025560035416176003557f636139383336366363373331343935376238633031326337326630356165656260085567016345785d8a000060095560405161127790816100e98239f35b62461bcd60e51b815260206004820152601860248201527f43616e6e6f7420736574206f776e657220746f207a65726f00000000000000006044820152606490fd5b600080fdfe6080604052600436101561001257600080fd5b60003560e01c80631085a271146100bd5780633f66286a146100b85780634357855e146100b3578063561009131461009a5780635ded83d01461009a57806379ba5097146100ae5780638da5cb5b146100a95780638dc654a2146100a4578063a4f500731461009f578063b6ec77091461009a5763f2fde38b1461009557600080fd5b61058d565b610209565b610437565b61031e565b6102f5565b610235565b610122565b6100ee565b346100e95760203660031901126100e957600435600052600a6020526020604060002054604051908152f35b600080fd5b346100e95760203660031901126100e957600435600052600b602052602060018060a01b0360406000205416604051908152f35b346100e95760403660031901126100e9576004356000818152600560205260408120549091906001600160a01b031633036101b357806101826101726101b0936000526005602052604060002090565b80546001600160a01b0319169055565b807f7cc135e0cebb02c3480ae5d74d377283180a2601f8f644edf7987b009316c63a8480a2602435906111b1565b80f35b60405162461bcd60e51b815260206004820152602860248201527f536f75726365206d75737420626520746865206f7261636c65206f6620746865604482015267081c995c5d595cdd60c21b6064820152608490fd5b346100e95760203660031901126100e957600435600052600c6020526020604060002054604051908152f35b346100e9576000806003193601126102f2576007546001600160a01b0390811633036102b4576006546001600160a01b0316600680546001600160a01b0319163317905590600780546001600160a01b03191690553391167f8be0079c531659141344cd1fd0a4f28419497f9722a3daafe3b4186f6b6457e08380a380f35b60405162461bcd60e51b815260206004820152601660248201527526bab9ba10313290383937b837b9b2b21037bbb732b960511b6044820152606490fd5b80fd5b346100e95760003660031901126100e9576006546040516001600160a01b039091168152602090f35b346100e9576000806003193601126102f257610338610655565b60025461035b9061034f906001600160a01b031681565b6001600160a01b031690565b6040516370a0823160e01b8152306004820152602091908281602481855afa90811561040557849284926103bb92859161040a575b5060405163a9059cbb60e01b8152336004820152602481019190915293849283919082906044820190565b03925af1908115610405576101b09284926103d8575b5050611200565b6103f79250803d106103fe575b6103ef81836106fa565b810190610a71565b38806103d1565b503d6103e5565b610aad565b61042a9150843d8611610430575b61042281836106fa565b8101906111f1565b38610390565b503d610418565b346100e95760203660031901126100e9576105896105766004357fe78d462e5b267f45854758f0687f24365bbc54861f62fa130714b75dcb2416ad610516600854610480610912565b50610489610912565b90610492610912565b5061012060808301516104a36108e7565b506101006020820152604051809152600081520160405281523060208201526321abc2af60e11b60408201526104e96104da61071c565b6104e261073b565b90836107dc565b6104fc6104f4610774565b6104e2610794565b61050d6105076107bb565b826107f7565b60095490610959565b9282849361052e85600052600a602052604060002090565b556105663361054786600052600b602052604060002090565b80546001600160a01b0319166001600160a01b03909216919091179055565b6040519081529081906020820190565b0390a26040519081529081906020820190565b0390f35b346100e95760203660031901126100e9576004356001600160a01b038116908190036100e9576105bb610655565b33811461061057600780546001600160a01b031916821790556006546105e9906001600160a01b031661034f565b7fed8889f560326eb138920d842192f0eb3dd22b4f139c87a2c57538e05bae1278600080a3005b60405162461bcd60e51b815260206004820152601760248201527f43616e6e6f74207472616e7366657220746f2073656c660000000000000000006044820152606490fd5b6006546001600160a01b0316330361066957565b60405162461bcd60e51b815260206004820152601660248201527527b7363c9031b0b63630b1363290313c9037bbb732b960511b6044820152606490fd5b634e487b7160e01b600052604160045260246000fd5b6040810190811067ffffffffffffffff8211176106d957604052565b6106a7565b6060810190811067ffffffffffffffff8211176106d957604052565b90601f8019910116810190811067ffffffffffffffff8211176106d957604052565b60405190610729826106bd565b600382526219d95d60ea1b6020830152565b60405190610748826106bd565b601c82527f687474703a2f2f3132372e302e302e313a353030312f73656e736f72000000006020830152565b60405190610781826106bd565b60048252630e0c2e8d60e31b6020830152565b604051906107a1826106bd565b600b82526a74656d706572617475726560a81b6020830152565b604051906107c8826106bd565b600582526474696d657360d81b6020830152565b60800180516107f593926107ef91611111565b51611111565b565b60806108069101918251611111565b5161080f6108e7565b508051519061081c6108e7565b5060208101918251808210156108c1575b5081519081518160186020839486010153146108b5575b505061084e6108e7565b508051519161085b6108e7565b508260010190816001116108b057518111610898575b5051600182820101606460ff19825116179052600181519201918211610895575050565b52565b6108a46108aa91610dff565b82610e15565b38610871565b610a00565b60010190523880610844565b6108cd6108e091610dff565b6108d984519185610c06565b5083610e71565b503861082d565b604051906040820182811067ffffffffffffffff8211176106d9576040526000602083606081520152565b6040519060a0820182811067ffffffffffffffff8211176106d957604052816000815260006020820152600060408201526000606082015260806109546108e7565b910152565b6003546004546001810193916001600160a01b0316848211610a00576109fd946004556109f884516109ea608063ffffffff60e01b604089015116970151516040519788936320214ca360e11b60208601526000602486015260006044860152606485015230608485015260a48401528560c4840152600160e4840152610100610104840152610124830190610a31565b03601f1981018652856106fa565b610b11565b90565b634e487b7160e01b600052601160045260246000fd5b90602082018092116108b057565b919082018092116108b057565b919082519283825260005b848110610a5d575050826000602080949584010152601f8019910116010190565b602081830181015184830182015201610a3c565b908160209103126100e9575180151581036100e95790565b6109fd939260609260018060a01b0316825260208201528160408201520190610a31565b6040513d6000823e3d90fd5b15610ac057565b60405162461bcd60e51b815260206004820152602360248201527f756e61626c6520746f207472616e73666572416e6443616c6c20746f206f7261604482015262636c6560e81b6064820152608490fd5b92610bbd9293602092604051848101916bffffffffffffffffffffffff193060601b168352603482015260348152610b48816106de565b51902094610b6482610547886000526005602052604060002090565b60006040518096819582948a7fb5e6e01e79f91267dc17b4e6314d5d4d03593d2ceee0fbb452b750bd70ea5af98680a2600254610ba9906001600160a01b031661034f565b630200057560e51b85529660048501610a89565b03925af18015610405576109fd91600091610bd9575b50610ab9565b610bf1915060203d81116103fe576103ef81836106fa565b38610bd3565b601f198101919082116108b057565b90610c0f6108e7565b50601f811680610c35575b50806020830152604051808352600081520160200160405290565b602003602081116108b05781018091116108b05738610c1a565b610c576108e7565b50805151610c636108e7565b50602082015180821015610c95575b50815190815181607b602083948601015314610c8d57505090565b600101905290565b6108cd610ca191610dff565b5038610c72565b610cb06108e7565b50805151610cbc6108e7565b50602082015180821015610ce6575b50815190815181607a602083948601015314610c8d57505090565b6108cd610cf291610dff565b5038610ccb565b610d016108e7565b50805151610d0d6108e7565b50602082015180821015610d37575b508151908151816079602083948601015314610c8d57505090565b6108cd610d4391610dff565b5038610d1c565b610d526108e7565b50805151610d5e6108e7565b50602082015180821015610d88575b508151908151816078602083948601015314610c8d57505090565b6108cd610d9491610dff565b5038610d6d565b90610da46108e7565b50815151610db06108e7565b50602083015180821015610dd9575b5082519182519182916020828601015314610c8d57505090565b610de5610df891610dff565b610df185519186610c06565b5084610e71565b5038610dbf565b908160011b91808304600214901517156108b057565b80519082610e216108e7565b50601f841680610e51575b50610e4e93508060208301526040518083526000815201602001604052610e71565b50565b9050602003602081116108b05783018093116108b057610e4e9238610e2c565b90610e7a6108e7565b5081515190805190610e8a6108e7565b50610e988151831115610f49565b610ea28284610a24565b602091829182870151809111610f1e575b5085518051908387820101968601918211610f16575b505001915b81811015610ef05760001991036101000a019081199051169082511617905290565b9192610f0b610f05610f119286518152610a16565b94610a16565b92610bf7565b610ece565b523880610ec9565b610f3d610f38610f4392610f328989610a24565b90610f50565b610dff565b87610e15565b38610eb3565b156100e957565b818111610f5b575090565b905090565b90610f696108e7565b5081515190610f766108e7565b5081600801806008116108b05760208401518111610fc0575b508251906008838301019067ffffffffffffffff19825116179052600881519201918211610fbc57505090565b5290565b610fcc610fd291610dff565b84610e15565b38610f8f565b90610fe16108e7565b5081515190610fee6108e7565b5081600401806004116108b05760208401518111611030575b508251906004838301019063ffffffff19825116179052600481519201918211610fbc57505090565b610fcc61103c91610dff565b38611007565b9061104b6108e7565b50815151906110586108e7565b5081600201806002116108b05760208401518111611098575b508251906002838301019061ffff19825116179052600281519201918211610fbc57505090565b610fcc6110a491610dff565b38611071565b906110b36108e7565b50815151906110c06108e7565b5081600101806001116108b057602084015181116110ff575b508251906001838301019060ff19825116179052600181519201918211610fbc57505090565b610fcc61110b91610dff565b386110d9565b8151610e4e92919067ffffffffffffffff8116601781116111435750606060ff61113d92161782610d9b565b50610e71565b905060ff81116111615761113d9061115a83610d4a565b50826110aa565b61ffff811161117e5761113d9061117783610cf9565b5082611042565b63ffffffff811161119d5761113d9061119683610ca8565b5082610fd8565b61113d906111aa83610c4f565b5082610f60565b610172916064600091838352600a60205260408320548352600c602052046040822055818152600a6020526040812055600052600b602052604060002090565b908160209103126100e9575190565b1561120757565b60405162461bcd60e51b81526020600482015260126024820152712ab730b13632903a37903a3930b739b332b960711b6044820152606490fdfea26469706673582212202f5f9d7fdbfc33d00e28847adb4b488250108b5258ee91eb985c892c92d5719264736f6c63430008130033",
  "linkReferences": {},
  "deployedLinkReferences": {}
}